{
  "contracts/mock/TetherToken.sol": {
    "Pausable": {
      "abi": [
        {
          "anonymous": false,
          "inputs": [],
          "name": "Pause",
          "type": "event"
        },
        {
          "anonymous": false,
          "inputs": [],
          "name": "Unpause",
          "type": "event"
        },
        {
          "inputs": [],
          "name": "owner",
          "outputs": [
            {
              "internalType": "address",
              "name": "",
              "type": "address"
            }
          ],
          "stateMutability": "view",
          "type": "function"
        },
        {
          "inputs": [],
          "name": "pause",
          "outputs": [],
          "stateMutability": "nonpayable",
          "type": "function"
        },
        {
          "inputs": [],
          "name": "paused",
          "outputs": [
            {
              "internalType": "bool",
              "name": "",
              "type": "bool"
            }
          ],
          "stateMutability": "view",
          "type": "function"
        },
        {
          "inputs": [
            {
              "internalType": "address",
              "name": "newOwner",
              "type": "address"
            }
          ],
          "name": "transferOwnership",
          "outputs": [],
          "stateMutability": "nonpayable",
          "type": "function"
        },
        {
          "inputs": [],
          "name": "unpause",
          "outputs": [],
          "stateMutability": "nonpayable",
          "type": "function"
        }
      ],
      "devdoc": {
        "details": "Base contract which allows children to implement an emergency stop mechanism.",
        "methods": {
          "pause()": {
            "details": "called by the owner to pause, triggers stopped state"
          },
          "transferOwnership(address)": {
            "details": "Allows the current owner to transfer control of the contract to a newOwner.",
            "params": {
              "newOwner": "The address to transfer ownership to."
            }
          },
          "unpause()": {
            "details": "called by the owner to unpause, returns to normal state"
          }
        },
        "title": "Pausable"
      },
      "evm": {
        "bytecode": {
          "linkReferences": {},
          "object": "60806040526000805460ff60a01b1916905534801561001d57600080fd5b50600080546001600160a01b031916331790556102688061003f6000396000f3fe608060405234801561001057600080fd5b50600436106100575760003560e01c80633f4ba83a1461005c5780635c975abb146100665780638456cb59146100845780638da5cb5b1461008c578063f2fde38b146100a1575b600080fd5b6100646100b4565b005b61006e610117565b60405161007b9190610227565b60405180910390f35b610064610127565b610094610191565b60405161007b9190610213565b6100646100af3660046101e5565b6101a0565b6000546001600160a01b031633146100cb57600080fd5b600054600160a01b900460ff166100e157600080fd5b6000805460ff60a01b191681556040517f7805862f689e2f13df9f062ff482ad3ad112aca9e0847911ed832e158c525b339190a1565b600054600160a01b900460ff1681565b6000546001600160a01b0316331461013e57600080fd5b600054600160a01b900460ff161561015557600080fd5b6000805460ff60a01b1916600160a01b1781556040517f6985a02210a168e66602d3235cb6db0e70f92b3ba4d376a33c0f3d9434bff6259190a1565b6000546001600160a01b031681565b6000546001600160a01b031633146101b757600080fd5b6001600160a01b038116156101e257600080546001600160a01b0319166001600160a01b0383161790555b50565b6000602082840312156101f6578081fd5b81356001600160a01b038116811461020c578182fd5b9392505050565b6001600160a01b0391909116815260200190565b90151581526020019056fea264697066735822122094bc8f837f807e8c709dfee756d382cdce253b43607f0489c6250dca0a2d589c64736f6c63430006090033",
          "opcodes": "PUSH1 0x80 PUSH1 0x40 MSTORE PUSH1 0x0 DUP1 SLOAD PUSH1 0xFF PUSH1 0xA0 SHL NOT AND SWAP1 SSTORE CALLVALUE DUP1 ISZERO PUSH2 0x1D JUMPI PUSH1 0x0 DUP1 REVERT JUMPDEST POP PUSH1 0x0 DUP1 SLOAD PUSH1 0x1 PUSH1 0x1 PUSH1 0xA0 SHL SUB NOT AND CALLER OR SWAP1 SSTORE PUSH2 0x268 DUP1 PUSH2 0x3F PUSH1 0x0 CODECOPY PUSH1 0x0 RETURN INVALID PUSH1 0x80 PUSH1 0x40 MSTORE CALLVALUE DUP1 ISZERO PUSH2 0x10 JUMPI PUSH1 0x0 DUP1 REVERT JUMPDEST POP PUSH1 0x4 CALLDATASIZE LT PUSH2 0x57 JUMPI PUSH1 0x0 CALLDATALOAD PUSH1 0xE0 SHR DUP1 PUSH4 0x3F4BA83A EQ PUSH2 0x5C JUMPI DUP1 PUSH4 0x5C975ABB EQ PUSH2 0x66 JUMPI DUP1 PUSH4 0x8456CB59 EQ PUSH2 0x84 JUMPI DUP1 PUSH4 0x8DA5CB5B EQ PUSH2 0x8C JUMPI DUP1 PUSH4 0xF2FDE38B EQ PUSH2 0xA1 JUMPI JUMPDEST PUSH1 0x0 DUP1 REVERT JUMPDEST PUSH2 0x64 PUSH2 0xB4 JUMP JUMPDEST STOP JUMPDEST PUSH2 0x6E PUSH2 0x117 JUMP JUMPDEST PUSH1 0x40 MLOAD PUSH2 0x7B SWAP2 SWAP1 PUSH2 0x227 JUMP JUMPDEST PUSH1 0x40 MLOAD DUP1 SWAP2 SUB SWAP1 RETURN JUMPDEST PUSH2 0x64 PUSH2 0x127 JUMP JUMPDEST PUSH2 0x94 PUSH2 0x191 JUMP JUMPDEST PUSH1 0x40 MLOAD PUSH2 0x7B SWAP2 SWAP1 PUSH2 0x213 JUMP JUMPDEST PUSH2 0x64 PUSH2 0xAF CALLDATASIZE PUSH1 0x4 PUSH2 0x1E5 JUMP JUMPDEST PUSH2 0x1A0 JUMP JUMPDEST PUSH1 0x0 SLOAD PUSH1 0x1 PUSH1 0x1 PUSH1 0xA0 SHL SUB AND CALLER EQ PUSH2 0xCB JUMPI PUSH1 0x0 DUP1 REVERT JUMPDEST PUSH1 0x0 SLOAD PUSH1 0x1 PUSH1 0xA0 SHL SWAP1 DIV PUSH1 0xFF AND PUSH2 0xE1 JUMPI PUSH1 0x0 DUP1 REVERT JUMPDEST PUSH1 0x0 DUP1 SLOAD PUSH1 0xFF PUSH1 0xA0 SHL NOT AND DUP2 SSTORE PUSH1 0x40 MLOAD PUSH32 0x7805862F689E2F13DF9F062FF482AD3AD112ACA9E0847911ED832E158C525B33 SWAP2 SWAP1 LOG1 JUMP JUMPDEST PUSH1 0x0 SLOAD PUSH1 0x1 PUSH1 0xA0 SHL SWAP1 DIV PUSH1 0xFF AND DUP2 JUMP JUMPDEST PUSH1 0x0 SLOAD PUSH1 0x1 PUSH1 0x1 PUSH1 0xA0 SHL SUB AND CALLER EQ PUSH2 0x13E JUMPI PUSH1 0x0 DUP1 REVERT JUMPDEST PUSH1 0x0 SLOAD PUSH1 0x1 PUSH1 0xA0 SHL SWAP1 DIV PUSH1 0xFF AND ISZERO PUSH2 0x155 JUMPI PUSH1 0x0 DUP1 REVERT JUMPDEST PUSH1 0x0 DUP1 SLOAD PUSH1 0xFF PUSH1 0xA0 SHL NOT AND PUSH1 0x1 PUSH1 0xA0 SHL OR DUP2 SSTORE PUSH1 0x40 MLOAD PUSH32 0x6985A02210A168E66602D3235CB6DB0E70F92B3BA4D376A33C0F3D9434BFF625 SWAP2 SWAP1 LOG1 JUMP JUMPDEST PUSH1 0x0 SLOAD PUSH1 0x1 PUSH1 0x1 PUSH1 0xA0 SHL SUB AND DUP2 JUMP JUMPDEST PUSH1 0x0 SLOAD PUSH1 0x1 PUSH1 0x1 PUSH1 0xA0 SHL SUB AND CALLER EQ PUSH2 0x1B7 JUMPI PUSH1 0x0 DUP1 REVERT JUMPDEST PUSH1 0x1 PUSH1 0x1 PUSH1 0xA0 SHL SUB DUP2 AND ISZERO PUSH2 0x1E2 JUMPI PUSH1 0x0 DUP1 SLOAD PUSH1 0x1 PUSH1 0x1 PUSH1 0xA0 SHL SUB NOT AND PUSH1 0x1 PUSH1 0x1 PUSH1 0xA0 SHL SUB DUP4 AND OR SWAP1 SSTORE JUMPDEST POP JUMP JUMPDEST PUSH1 0x0 PUSH1 0x20 DUP3 DUP5 SUB SLT ISZERO PUSH2 0x1F6 JUMPI DUP1 DUP2 REVERT JUMPDEST DUP2 CALLDATALOAD PUSH1 0x1 PUSH1 0x1 PUSH1 0xA0 SHL SUB DUP2 AND DUP2 EQ PUSH2 0x20C JUMPI DUP2 DUP3 REVERT JUMPDEST SWAP4 SWAP3 POP POP POP JUMP JUMPDEST PUSH1 0x1 PUSH1 0x1 PUSH1 0xA0 SHL SUB SWAP2 SWAP1 SWAP2 AND DUP2 MSTORE PUSH1 0x20 ADD SWAP1 JUMP JUMPDEST SWAP1 ISZERO ISZERO DUP2 MSTORE PUSH1 0x20 ADD SWAP1 JUMP INVALID LOG2 PUSH5 0x6970667358 0x22 SLT KECCAK256 SWAP5 0xBC DUP16 DUP4 PUSH32 0x807E8C709DFEE756D382CDCE253B43607F0489C6250DCA0A2D589C64736F6C63 NUMBER STOP MOD MULMOD STOP CALLER "
        },
        "gasEstimates": {
          "creation": {
            "codeDepositCost": "123200",
            "executionCost": "41830",
            "totalCost": "165030"
          },
          "external": {
            "owner()": "1114",
            "pause()": "23450",
            "paused()": "1057",
            "transferOwnership(address)": "22067",
            "unpause()": "23391"
          }
        },
        "methodIdentifiers": {
          "owner()": "8da5cb5b",
          "pause()": "8456cb59",
          "paused()": "5c975abb",
          "transferOwnership(address)": "f2fde38b",
          "unpause()": "3f4ba83a"
        }
      },
      "storageLayout": {
        "storage": [
          {
            "astId": 102,
            "contract": "contracts/mock/TetherToken.sol:Pausable",
            "label": "owner",
            "offset": 0,
            "slot": "0",
            "type": "t_address"
          },
          {
            "astId": 577,
            "contract": "contracts/mock/TetherToken.sol:Pausable",
            "label": "paused",
            "offset": 20,
            "slot": "0",
            "type": "t_bool"
          }
        ],
        "types": {
          "t_address": {
            "encoding": "inplace",
            "label": "address",
            "numberOfBytes": "20"
          },
          "t_bool": {
            "encoding": "inplace",
            "label": "bool",
            "numberOfBytes": "1"
          }
        }
      },
      "userdoc": {
        "methods": {}
      }
    }
  }
}