{
  "contracts/oracle/Oracle.sol": {
    "Api3Oracle": {
      "abi": [
        {
          "inputs": [
            {
              "internalType": "address",
              "name": "_whitelister",
              "type": "address"
            }
          ],
          "stateMutability": "nonpayable",
          "type": "constructor"
        },
        {
          "inputs": [
            {
              "internalType": "uint256",
              "name": "x",
              "type": "uint256"
            }
          ],
          "name": "PRBMathUD60x18__LogInputTooSmall",
          "type": "error"
        },
        {
          "inputs": [
            {
              "internalType": "bytes32",
              "name": "_priceFeedKey",
              "type": "bytes32"
            }
          ],
          "name": "getBeacon",
          "outputs": [
            {
              "internalType": "bytes32",
              "name": "",
              "type": "bytes32"
            }
          ],
          "stateMutability": "view",
          "type": "function"
        },
        {
          "inputs": [
            {
              "internalType": "bytes32",
              "name": "_priceFeedKey",
              "type": "bytes32"
            },
            {
              "internalType": "uint256",
              "name": "at",
              "type": "uint256"
            }
          ],
          "name": "getPreviousPrice",
          "outputs": [
            {
              "internalType": "uint256",
              "name": "",
              "type": "uint256"
            }
          ],
          "stateMutability": "view",
          "type": "function"
        },
        {
          "inputs": [
            {
              "internalType": "bytes32",
              "name": "_priceFeedKey",
              "type": "bytes32"
            }
          ],
          "name": "getPrice",
          "outputs": [
            {
              "internalType": "uint256",
              "name": "",
              "type": "uint256"
            }
          ],
          "stateMutability": "view",
          "type": "function"
        },
        {
          "inputs": [
            {
              "internalType": "bytes32",
              "name": "_priceFeedKey",
              "type": "bytes32"
            },
            {
              "internalType": "uint256",
              "name": "_intervals",
              "type": "uint256"
            }
          ],
          "name": "getTwapPrice",
          "outputs": [
            {
              "internalType": "uint256",
              "name": "",
              "type": "uint256"
            }
          ],
          "stateMutability": "view",
          "type": "function"
        },
        {
          "inputs": [
            {
              "internalType": "bytes32",
              "name": "_priceFeedKey",
              "type": "bytes32"
            }
          ],
          "name": "isPriceFeedWhitelisted",
          "outputs": [
            {
              "internalType": "bool",
              "name": "",
              "type": "bool"
            }
          ],
          "stateMutability": "view",
          "type": "function"
        },
        {
          "inputs": [
            {
              "internalType": "bytes32",
              "name": "",
              "type": "bytes32"
            }
          ],
          "name": "priceFeedMap",
          "outputs": [
            {
              "internalType": "bytes32",
              "name": "",
              "type": "bytes32"
            }
          ],
          "stateMutability": "view",
          "type": "function"
        },
        {
          "inputs": [
            {
              "internalType": "bytes32",
              "name": "",
              "type": "bytes32"
            }
          ],
          "name": "priceFeedWhitelisted",
          "outputs": [
            {
              "internalType": "bool",
              "name": "",
              "type": "bool"
            }
          ],
          "stateMutability": "view",
          "type": "function"
        },
        {
          "inputs": [
            {
              "internalType": "bytes32",
              "name": "_priceFeedKey",
              "type": "bytes32"
            },
            {
              "internalType": "bytes32",
              "name": "_beaconId",
              "type": "bytes32"
            }
          ],
          "name": "setBeacon",
          "outputs": [],
          "stateMutability": "nonpayable",
          "type": "function"
        }
      ],
      "devdoc": {
        "kind": "dev",
        "methods": {
          "getBeacon(bytes32)": {
            "details": "returns beacon id"
          },
          "getPrice(bytes32)": {
            "details": "returns log(price) of an asset",
            "params": {
              "_priceFeedKey": "price feed identifier/symbol of asset i.e ETH/USD"
            }
          },
          "isPriceFeedWhitelisted(bytes32)": {
            "details": "returns bool to indicate if price feed key is whitelisted or not"
          },
          "setBeacon(bytes32,bytes32)": {
            "details": "sets _beaconId to _priceFeedKey",
            "params": {
              "_beaconId": "beacon id ",
              "_priceFeedKey": "price feed identifier/symbol of asset i.e ETH/USD"
            }
          }
        },
        "version": 1
      },
      "evm": {
        "bytecode": {
          "linkReferences": {},
          "object": "608060405264e8d4a5100060025534801561001957600080fd5b5060405161075a38038061075a8339810160408190526100389161013d565b610041816100f0565b600480546001600160a01b0319166001600160a01b038316908117825560408051639da4543b60e01b815290519192639da4543b928282019260209290829003018186803b15801561009257600080fd5b505afa1580156100a6573d6000803e3d6000fd5b505050506040513d601f19601f820116820180604052508101906100ca919061013d565b600380546001600160a01b0319166001600160a01b03929092169190911790555061016b565b6001600160a01b03811661013a5760405162461bcd60e51b815260206004820152600d60248201526c656d707479206164647265737360981b604482015260640160405180910390fd5b50565b60006020828403121561014e578081fd5b81516001600160a01b0381168114610164578182fd5b9392505050565b6105e08061017a6000396000f3fe608060405234801561001057600080fd5b50600436106100885760003560e01c80638156bf8a1161005b5780638156bf8a14610126578063914b14c51461013b578063a2173df41461013b578063dc59936a1461015157600080fd5b8063250742cc1461008d57806331d98b3f146100c057806344fce375146100d35780634828da8514610106575b600080fd5b6100ad61009b3660046104f5565b60006020819052908152604090205481565b6040519081526020015b60405180910390f35b6100ad6100ce3660046104f5565b610174565b6100f66100e13660046104f5565b60016020526000908152604090205460ff1681565b60405190151581526020016100b7565b6100ad6101143660046104f5565b60009081526020819052604090205490565b61013961013436600461050d565b61028e565b005b6100ad61014936600461052e565b600092915050565b6100f661015f3660046104f5565b60009081526001602052604090205460ff1690565b60008181526001602052604081205460ff166101d75760405162461bcd60e51b815260206004820152601b60248201527f50524943455f464545443a204e4f542057484954454c4953544544000000000060448201526064015b60405180910390fd5b600082815260208190526040808220546003549151631de7e45b60e01b81526004810182905290929173ffffffffffffffffffffffffffffffffffffffff1690631de7e45b90602401604080518083038186803b15801561023757600080fd5b505afa15801561024b573d6000803e3d6000fd5b505050506040513d601f19601f8201168201806040525081019061026f9190610540565b50600254909150601b82900b026102858161034c565b95945050505050565b8061029857600080fd5b60008281526001602052604090205460ff1661033a57600480546040516327b2fec760e11b815291820183905230602483015273ffffffffffffffffffffffffffffffffffffffff1690634f65fd8e90604401600060405180830381600087803b15801561030557600080fd5b505af1158015610319573d6000803e3d6000fd5b5050506000838152600160208190526040909120805460ff19169091179055505b60009182526020829052604090912055565b6000670de0b6b3a764000082101561037a57604051633621413760e21b8152600481018390526024016101ce565b600061038f670de0b6b3a764000084046103fc565b670de0b6b3a7640000808202935090915083821c908114156103b2575050919050565b6706f05b59d3b200005b80156103f457670de0b6b3a7640000828002049150671bc16d674ec8000082106103ec579283019260019190911c905b60011c6103bc565b505050919050565b6000700100000000000000000000000000000000821061042957608091821c916104269082610586565b90505b68010000000000000000821061044c57604091821c916104499082610586565b90505b640100000000821061046b57602091821c916104689082610586565b90505b62010000821061048857601091821c916104859082610586565b90505b61010082106104a457600891821c916104a19082610586565b90505b601082106104bf57600491821c916104bc9082610586565b90505b600482106104da57600291821c916104d79082610586565b90505b600282106104f0576104ed600182610586565b90505b919050565b600060208284031215610506578081fd5b5035919050565b6000806040838503121561051f578081fd5b50508035926020909101359150565b6000806040838503121561051f578182fd5b60008060408385031215610552578182fd5b825180601b0b8114610562578283fd5b602084015190925063ffffffff8116811461057b578182fd5b809150509250929050565b600082198211156105a557634e487b7160e01b81526011600452602481fd5b50019056fea26469706673582212204f1d9b91ca0d0d8afa7574bb8d4febac7b9d6f3579f295eeb9e64d421dbf8c8664736f6c63430008040033",
          "opcodes": "PUSH1 0x80 PUSH1 0x40 MSTORE PUSH5 0xE8D4A51000 PUSH1 0x2 SSTORE CALLVALUE DUP1 ISZERO PUSH2 0x19 JUMPI PUSH1 0x0 DUP1 REVERT JUMPDEST POP PUSH1 0x40 MLOAD PUSH2 0x75A CODESIZE SUB DUP1 PUSH2 0x75A DUP4 CODECOPY DUP2 ADD PUSH1 0x40 DUP2 SWAP1 MSTORE PUSH2 0x38 SWAP2 PUSH2 0x13D JUMP JUMPDEST PUSH2 0x41 DUP2 PUSH2 0xF0 JUMP JUMPDEST PUSH1 0x4 DUP1 SLOAD PUSH1 0x1 PUSH1 0x1 PUSH1 0xA0 SHL SUB NOT AND PUSH1 0x1 PUSH1 0x1 PUSH1 0xA0 SHL SUB DUP4 AND SWAP1 DUP2 OR DUP3 SSTORE PUSH1 0x40 DUP1 MLOAD PUSH4 0x9DA4543B PUSH1 0xE0 SHL DUP2 MSTORE SWAP1 MLOAD SWAP2 SWAP3 PUSH4 0x9DA4543B SWAP3 DUP3 DUP3 ADD SWAP3 PUSH1 0x20 SWAP3 SWAP1 DUP3 SWAP1 SUB ADD DUP2 DUP7 DUP1 EXTCODESIZE ISZERO DUP1 ISZERO PUSH2 0x92 JUMPI PUSH1 0x0 DUP1 REVERT JUMPDEST POP GAS STATICCALL ISZERO DUP1 ISZERO PUSH2 0xA6 JUMPI RETURNDATASIZE PUSH1 0x0 DUP1 RETURNDATACOPY RETURNDATASIZE PUSH1 0x0 REVERT JUMPDEST POP POP POP POP PUSH1 0x40 MLOAD RETURNDATASIZE PUSH1 0x1F NOT PUSH1 0x1F DUP3 ADD AND DUP3 ADD DUP1 PUSH1 0x40 MSTORE POP DUP2 ADD SWAP1 PUSH2 0xCA SWAP2 SWAP1 PUSH2 0x13D JUMP JUMPDEST PUSH1 0x3 DUP1 SLOAD PUSH1 0x1 PUSH1 0x1 PUSH1 0xA0 SHL SUB NOT AND PUSH1 0x1 PUSH1 0x1 PUSH1 0xA0 SHL SUB SWAP3 SWAP1 SWAP3 AND SWAP2 SWAP1 SWAP2 OR SWAP1 SSTORE POP PUSH2 0x16B JUMP JUMPDEST PUSH1 0x1 PUSH1 0x1 PUSH1 0xA0 SHL SUB DUP2 AND PUSH2 0x13A JUMPI PUSH1 0x40 MLOAD PUSH3 0x461BCD PUSH1 0xE5 SHL DUP2 MSTORE PUSH1 0x20 PUSH1 0x4 DUP3 ADD MSTORE PUSH1 0xD PUSH1 0x24 DUP3 ADD MSTORE PUSH13 0x656D7074792061646472657373 PUSH1 0x98 SHL PUSH1 0x44 DUP3 ADD MSTORE PUSH1 0x64 ADD PUSH1 0x40 MLOAD DUP1 SWAP2 SUB SWAP1 REVERT JUMPDEST POP JUMP JUMPDEST PUSH1 0x0 PUSH1 0x20 DUP3 DUP5 SUB SLT ISZERO PUSH2 0x14E JUMPI DUP1 DUP2 REVERT JUMPDEST DUP2 MLOAD PUSH1 0x1 PUSH1 0x1 PUSH1 0xA0 SHL SUB DUP2 AND DUP2 EQ PUSH2 0x164 JUMPI DUP2 DUP3 REVERT JUMPDEST SWAP4 SWAP3 POP POP POP JUMP JUMPDEST PUSH2 0x5E0 DUP1 PUSH2 0x17A PUSH1 0x0 CODECOPY PUSH1 0x0 RETURN INVALID PUSH1 0x80 PUSH1 0x40 MSTORE CALLVALUE DUP1 ISZERO PUSH2 0x10 JUMPI PUSH1 0x0 DUP1 REVERT JUMPDEST POP PUSH1 0x4 CALLDATASIZE LT PUSH2 0x88 JUMPI PUSH1 0x0 CALLDATALOAD PUSH1 0xE0 SHR DUP1 PUSH4 0x8156BF8A GT PUSH2 0x5B JUMPI DUP1 PUSH4 0x8156BF8A EQ PUSH2 0x126 JUMPI DUP1 PUSH4 0x914B14C5 EQ PUSH2 0x13B JUMPI DUP1 PUSH4 0xA2173DF4 EQ PUSH2 0x13B JUMPI DUP1 PUSH4 0xDC59936A EQ PUSH2 0x151 JUMPI PUSH1 0x0 DUP1 REVERT JUMPDEST DUP1 PUSH4 0x250742CC EQ PUSH2 0x8D JUMPI DUP1 PUSH4 0x31D98B3F EQ PUSH2 0xC0 JUMPI DUP1 PUSH4 0x44FCE375 EQ PUSH2 0xD3 JUMPI DUP1 PUSH4 0x4828DA85 EQ PUSH2 0x106 JUMPI JUMPDEST PUSH1 0x0 DUP1 REVERT JUMPDEST PUSH2 0xAD PUSH2 0x9B CALLDATASIZE PUSH1 0x4 PUSH2 0x4F5 JUMP JUMPDEST PUSH1 0x0 PUSH1 0x20 DUP2 SWAP1 MSTORE SWAP1 DUP2 MSTORE PUSH1 0x40 SWAP1 KECCAK256 SLOAD DUP2 JUMP JUMPDEST PUSH1 0x40 MLOAD SWAP1 DUP2 MSTORE PUSH1 0x20 ADD JUMPDEST PUSH1 0x40 MLOAD DUP1 SWAP2 SUB SWAP1 RETURN JUMPDEST PUSH2 0xAD PUSH2 0xCE CALLDATASIZE PUSH1 0x4 PUSH2 0x4F5 JUMP JUMPDEST PUSH2 0x174 JUMP JUMPDEST PUSH2 0xF6 PUSH2 0xE1 CALLDATASIZE PUSH1 0x4 PUSH2 0x4F5 JUMP JUMPDEST PUSH1 0x1 PUSH1 0x20 MSTORE PUSH1 0x0 SWAP1 DUP2 MSTORE PUSH1 0x40 SWAP1 KECCAK256 SLOAD PUSH1 0xFF AND DUP2 JUMP JUMPDEST PUSH1 0x40 MLOAD SWAP1 ISZERO ISZERO DUP2 MSTORE PUSH1 0x20 ADD PUSH2 0xB7 JUMP JUMPDEST PUSH2 0xAD PUSH2 0x114 CALLDATASIZE PUSH1 0x4 PUSH2 0x4F5 JUMP JUMPDEST PUSH1 0x0 SWAP1 DUP2 MSTORE PUSH1 0x20 DUP2 SWAP1 MSTORE PUSH1 0x40 SWAP1 KECCAK256 SLOAD SWAP1 JUMP JUMPDEST PUSH2 0x139 PUSH2 0x134 CALLDATASIZE PUSH1 0x4 PUSH2 0x50D JUMP JUMPDEST PUSH2 0x28E JUMP JUMPDEST STOP JUMPDEST PUSH2 0xAD PUSH2 0x149 CALLDATASIZE PUSH1 0x4 PUSH2 0x52E JUMP JUMPDEST PUSH1 0x0 SWAP3 SWAP2 POP POP JUMP JUMPDEST PUSH2 0xF6 PUSH2 0x15F CALLDATASIZE PUSH1 0x4 PUSH2 0x4F5 JUMP JUMPDEST PUSH1 0x0 SWAP1 DUP2 MSTORE PUSH1 0x1 PUSH1 0x20 MSTORE PUSH1 0x40 SWAP1 KECCAK256 SLOAD PUSH1 0xFF AND SWAP1 JUMP JUMPDEST PUSH1 0x0 DUP2 DUP2 MSTORE PUSH1 0x1 PUSH1 0x20 MSTORE PUSH1 0x40 DUP2 KECCAK256 SLOAD PUSH1 0xFF AND PUSH2 0x1D7 JUMPI PUSH1 0x40 MLOAD PUSH3 0x461BCD PUSH1 0xE5 SHL DUP2 MSTORE PUSH1 0x20 PUSH1 0x4 DUP3 ADD MSTORE PUSH1 0x1B PUSH1 0x24 DUP3 ADD MSTORE PUSH32 0x50524943455F464545443A204E4F542057484954454C49535445440000000000 PUSH1 0x44 DUP3 ADD MSTORE PUSH1 0x64 ADD JUMPDEST PUSH1 0x40 MLOAD DUP1 SWAP2 SUB SWAP1 REVERT JUMPDEST PUSH1 0x0 DUP3 DUP2 MSTORE PUSH1 0x20 DUP2 SWAP1 MSTORE PUSH1 0x40 DUP1 DUP3 KECCAK256 SLOAD PUSH1 0x3 SLOAD SWAP2 MLOAD PUSH4 0x1DE7E45B PUSH1 0xE0 SHL DUP2 MSTORE PUSH1 0x4 DUP2 ADD DUP3 SWAP1 MSTORE SWAP1 SWAP3 SWAP2 PUSH20 0xFFFFFFFFFFFFFFFFFFFFFFFFFFFFFFFFFFFFFFFF AND SWAP1 PUSH4 0x1DE7E45B SWAP1 PUSH1 0x24 ADD PUSH1 0x40 DUP1 MLOAD DUP1 DUP4 SUB DUP2 DUP7 DUP1 EXTCODESIZE ISZERO DUP1 ISZERO PUSH2 0x237 JUMPI PUSH1 0x0 DUP1 REVERT JUMPDEST POP GAS STATICCALL ISZERO DUP1 ISZERO PUSH2 0x24B JUMPI RETURNDATASIZE PUSH1 0x0 DUP1 RETURNDATACOPY RETURNDATASIZE PUSH1 0x0 REVERT JUMPDEST POP POP POP POP PUSH1 0x40 MLOAD RETURNDATASIZE PUSH1 0x1F NOT PUSH1 0x1F DUP3 ADD AND DUP3 ADD DUP1 PUSH1 0x40 MSTORE POP DUP2 ADD SWAP1 PUSH2 0x26F SWAP2 SWAP1 PUSH2 0x540 JUMP JUMPDEST POP PUSH1 0x2 SLOAD SWAP1 SWAP2 POP PUSH1 0x1B DUP3 SWAP1 SIGNEXTEND MUL PUSH2 0x285 DUP2 PUSH2 0x34C JUMP JUMPDEST SWAP6 SWAP5 POP POP POP POP POP JUMP JUMPDEST DUP1 PUSH2 0x298 JUMPI PUSH1 0x0 DUP1 REVERT JUMPDEST PUSH1 0x0 DUP3 DUP2 MSTORE PUSH1 0x1 PUSH1 0x20 MSTORE PUSH1 0x40 SWAP1 KECCAK256 SLOAD PUSH1 0xFF AND PUSH2 0x33A JUMPI PUSH1 0x4 DUP1 SLOAD PUSH1 0x40 MLOAD PUSH4 0x27B2FEC7 PUSH1 0xE1 SHL DUP2 MSTORE SWAP2 DUP3 ADD DUP4 SWAP1 MSTORE ADDRESS PUSH1 0x24 DUP4 ADD MSTORE PUSH20 0xFFFFFFFFFFFFFFFFFFFFFFFFFFFFFFFFFFFFFFFF AND SWAP1 PUSH4 0x4F65FD8E SWAP1 PUSH1 0x44 ADD PUSH1 0x0 PUSH1 0x40 MLOAD DUP1 DUP4 SUB DUP2 PUSH1 0x0 DUP8 DUP1 EXTCODESIZE ISZERO DUP1 ISZERO PUSH2 0x305 JUMPI PUSH1 0x0 DUP1 REVERT JUMPDEST POP GAS CALL ISZERO DUP1 ISZERO PUSH2 0x319 JUMPI RETURNDATASIZE PUSH1 0x0 DUP1 RETURNDATACOPY RETURNDATASIZE PUSH1 0x0 REVERT JUMPDEST POP POP POP PUSH1 0x0 DUP4 DUP2 MSTORE PUSH1 0x1 PUSH1 0x20 DUP2 SWAP1 MSTORE PUSH1 0x40 SWAP1 SWAP2 KECCAK256 DUP1 SLOAD PUSH1 0xFF NOT AND SWAP1 SWAP2 OR SWAP1 SSTORE POP JUMPDEST PUSH1 0x0 SWAP2 DUP3 MSTORE PUSH1 0x20 DUP3 SWAP1 MSTORE PUSH1 0x40 SWAP1 SWAP2 KECCAK256 SSTORE JUMP JUMPDEST PUSH1 0x0 PUSH8 0xDE0B6B3A7640000 DUP3 LT ISZERO PUSH2 0x37A JUMPI PUSH1 0x40 MLOAD PUSH4 0x36214137 PUSH1 0xE2 SHL DUP2 MSTORE PUSH1 0x4 DUP2 ADD DUP4 SWAP1 MSTORE PUSH1 0x24 ADD PUSH2 0x1CE JUMP JUMPDEST PUSH1 0x0 PUSH2 0x38F PUSH8 0xDE0B6B3A7640000 DUP5 DIV PUSH2 0x3FC JUMP JUMPDEST PUSH8 0xDE0B6B3A7640000 DUP1 DUP3 MUL SWAP4 POP SWAP1 SWAP2 POP DUP4 DUP3 SHR SWAP1 DUP2 EQ ISZERO PUSH2 0x3B2 JUMPI POP POP SWAP2 SWAP1 POP JUMP JUMPDEST PUSH8 0x6F05B59D3B20000 JUMPDEST DUP1 ISZERO PUSH2 0x3F4 JUMPI PUSH8 0xDE0B6B3A7640000 DUP3 DUP1 MUL DIV SWAP2 POP PUSH8 0x1BC16D674EC80000 DUP3 LT PUSH2 0x3EC JUMPI SWAP3 DUP4 ADD SWAP3 PUSH1 0x1 SWAP2 SWAP1 SWAP2 SHR SWAP1 JUMPDEST PUSH1 0x1 SHR PUSH2 0x3BC JUMP JUMPDEST POP POP POP SWAP2 SWAP1 POP JUMP JUMPDEST PUSH1 0x0 PUSH17 0x100000000000000000000000000000000 DUP3 LT PUSH2 0x429 JUMPI PUSH1 0x80 SWAP2 DUP3 SHR SWAP2 PUSH2 0x426 SWAP1 DUP3 PUSH2 0x586 JUMP JUMPDEST SWAP1 POP JUMPDEST PUSH9 0x10000000000000000 DUP3 LT PUSH2 0x44C JUMPI PUSH1 0x40 SWAP2 DUP3 SHR SWAP2 PUSH2 0x449 SWAP1 DUP3 PUSH2 0x586 JUMP JUMPDEST SWAP1 POP JUMPDEST PUSH5 0x100000000 DUP3 LT PUSH2 0x46B JUMPI PUSH1 0x20 SWAP2 DUP3 SHR SWAP2 PUSH2 0x468 SWAP1 DUP3 PUSH2 0x586 JUMP JUMPDEST SWAP1 POP JUMPDEST PUSH3 0x10000 DUP3 LT PUSH2 0x488 JUMPI PUSH1 0x10 SWAP2 DUP3 SHR SWAP2 PUSH2 0x485 SWAP1 DUP3 PUSH2 0x586 JUMP JUMPDEST SWAP1 POP JUMPDEST PUSH2 0x100 DUP3 LT PUSH2 0x4A4 JUMPI PUSH1 0x8 SWAP2 DUP3 SHR SWAP2 PUSH2 0x4A1 SWAP1 DUP3 PUSH2 0x586 JUMP JUMPDEST SWAP1 POP JUMPDEST PUSH1 0x10 DUP3 LT PUSH2 0x4BF JUMPI PUSH1 0x4 SWAP2 DUP3 SHR SWAP2 PUSH2 0x4BC SWAP1 DUP3 PUSH2 0x586 JUMP JUMPDEST SWAP1 POP JUMPDEST PUSH1 0x4 DUP3 LT PUSH2 0x4DA JUMPI PUSH1 0x2 SWAP2 DUP3 SHR SWAP2 PUSH2 0x4D7 SWAP1 DUP3 PUSH2 0x586 JUMP JUMPDEST SWAP1 POP JUMPDEST PUSH1 0x2 DUP3 LT PUSH2 0x4F0 JUMPI PUSH2 0x4ED PUSH1 0x1 DUP3 PUSH2 0x586 JUMP JUMPDEST SWAP1 POP JUMPDEST SWAP2 SWAP1 POP JUMP JUMPDEST PUSH1 0x0 PUSH1 0x20 DUP3 DUP5 SUB SLT ISZERO PUSH2 0x506 JUMPI DUP1 DUP2 REVERT JUMPDEST POP CALLDATALOAD SWAP2 SWAP1 POP JUMP JUMPDEST PUSH1 0x0 DUP1 PUSH1 0x40 DUP4 DUP6 SUB SLT ISZERO PUSH2 0x51F JUMPI DUP1 DUP2 REVERT JUMPDEST POP POP DUP1 CALLDATALOAD SWAP3 PUSH1 0x20 SWAP1 SWAP2 ADD CALLDATALOAD SWAP2 POP JUMP JUMPDEST PUSH1 0x0 DUP1 PUSH1 0x40 DUP4 DUP6 SUB SLT ISZERO PUSH2 0x51F JUMPI DUP2 DUP3 REVERT JUMPDEST PUSH1 0x0 DUP1 PUSH1 0x40 DUP4 DUP6 SUB SLT ISZERO PUSH2 0x552 JUMPI DUP2 DUP3 REVERT JUMPDEST DUP3 MLOAD DUP1 PUSH1 0x1B SIGNEXTEND DUP2 EQ PUSH2 0x562 JUMPI DUP3 DUP4 REVERT JUMPDEST PUSH1 0x20 DUP5 ADD MLOAD SWAP1 SWAP3 POP PUSH4 0xFFFFFFFF DUP2 AND DUP2 EQ PUSH2 0x57B JUMPI DUP2 DUP3 REVERT JUMPDEST DUP1 SWAP2 POP POP SWAP3 POP SWAP3 SWAP1 POP JUMP JUMPDEST PUSH1 0x0 DUP3 NOT DUP3 GT ISZERO PUSH2 0x5A5 JUMPI PUSH4 0x4E487B71 PUSH1 0xE0 SHL DUP2 MSTORE PUSH1 0x11 PUSH1 0x4 MSTORE PUSH1 0x24 DUP2 REVERT JUMPDEST POP ADD SWAP1 JUMP INVALID LOG2 PUSH5 0x6970667358 0x22 SLT KECCAK256 0x4F SAR SWAP12 SWAP2 0xCA 0xD 0xD DUP11 STATICCALL PUSH22 0x74BB8D4FEBAC7B9D6F3579F295EEB9E64D421DBF8C86 PUSH5 0x736F6C6343 STOP ADDMOD DIV STOP CALLER "
        },
        "gasEstimates": {
          "creation": {
            "codeDepositCost": "300800",
            "executionCost": "infinite",
            "totalCost": "infinite"
          },
          "external": {
            "getBeacon(bytes32)": "1197",
            "getPreviousPrice(bytes32,uint256)": "313",
            "getPrice(bytes32)": "infinite",
            "getTwapPrice(bytes32,uint256)": "335",
            "isPriceFeedWhitelisted(bytes32)": "1216",
            "priceFeedMap(bytes32)": "1131",
            "priceFeedWhitelisted(bytes32)": "1195",
            "setBeacon(bytes32,bytes32)": "infinite"
          },
          "internal": {
            "requireNonEmptyAddress(address)": "infinite"
          }
        },
        "methodIdentifiers": {
          "getBeacon(bytes32)": "4828da85",
          "getPreviousPrice(bytes32,uint256)": "914b14c5",
          "getPrice(bytes32)": "31d98b3f",
          "getTwapPrice(bytes32,uint256)": "a2173df4",
          "isPriceFeedWhitelisted(bytes32)": "dc59936a",
          "priceFeedMap(bytes32)": "250742cc",
          "priceFeedWhitelisted(bytes32)": "44fce375",
          "setBeacon(bytes32,bytes32)": "8156bf8a"
        }
      },
      "storageLayout": {
        "storage": [
          {
            "astId": 277,
            "contract": "contracts/oracle/Oracle.sol:Api3Oracle",
            "label": "priceFeedMap",
            "offset": 0,
            "slot": "0",
            "type": "t_mapping(t_bytes32,t_bytes32)"
          },
          {
            "astId": 281,
            "contract": "contracts/oracle/Oracle.sol:Api3Oracle",
            "label": "priceFeedWhitelisted",
            "offset": 0,
            "slot": "1",
            "type": "t_mapping(t_bytes32,t_bool)"
          },
          {
            "astId": 286,
            "contract": "contracts/oracle/Oracle.sol:Api3Oracle",
            "label": "SCALE",
            "offset": 0,
            "slot": "2",
            "type": "t_uint256"
          },
          {
            "astId": 289,
            "contract": "contracts/oracle/Oracle.sol:Api3Oracle",
            "label": "RrpBeaconServer",
            "offset": 0,
            "slot": "3",
            "type": "t_contract(IRrpBeaconServer)199"
          },
          {
            "astId": 292,
            "contract": "contracts/oracle/Oracle.sol:Api3Oracle",
            "label": "ssR",
            "offset": 0,
            "slot": "4",
            "type": "t_contract(ISelfServeRrpBeaconServerWhitelister)264"
          }
        ],
        "types": {
          "t_bool": {
            "encoding": "inplace",
            "label": "bool",
            "numberOfBytes": "1"
          },
          "t_bytes32": {
            "encoding": "inplace",
            "label": "bytes32",
            "numberOfBytes": "32"
          },
          "t_contract(IRrpBeaconServer)199": {
            "encoding": "inplace",
            "label": "contract IRrpBeaconServer",
            "numberOfBytes": "20"
          },
          "t_contract(ISelfServeRrpBeaconServerWhitelister)264": {
            "encoding": "inplace",
            "label": "contract ISelfServeRrpBeaconServerWhitelister",
            "numberOfBytes": "20"
          },
          "t_mapping(t_bytes32,t_bool)": {
            "encoding": "mapping",
            "key": "t_bytes32",
            "label": "mapping(bytes32 => bool)",
            "numberOfBytes": "32",
            "value": "t_bool"
          },
          "t_mapping(t_bytes32,t_bytes32)": {
            "encoding": "mapping",
            "key": "t_bytes32",
            "label": "mapping(bytes32 => bytes32)",
            "numberOfBytes": "32",
            "value": "t_bytes32"
          },
          "t_uint256": {
            "encoding": "inplace",
            "label": "uint256",
            "numberOfBytes": "32"
          }
        }
      },
      "userdoc": {
        "errors": {
          "PRBMathUD60x18__LogInputTooSmall(uint256)": [
            {
              "notice": "Emitted when the input is less than 1."
            }
          ]
        },
        "kind": "user",
        "methods": {
          "priceFeedMap(bytes32)": {
            "notice": "mapping of price feed key -> beacon id"
          }
        },
        "version": 1
      }
    }
  }
}