{
  "contracts/mock/mocks/API3PriceFeedMock.sol": {
    "API3PriceFeedMock": {
      "abi": [
        {
          "inputs": [
            {
              "internalType": "uint256",
              "name": "_price",
              "type": "uint256"
            }
          ],
          "stateMutability": "nonpayable",
          "type": "constructor"
        },
        {
          "anonymous": false,
          "inputs": [
            {
              "indexed": false,
              "internalType": "bytes32",
              "name": "key",
              "type": "bytes32"
            },
            {
              "indexed": false,
              "internalType": "uint256",
              "name": "price",
              "type": "uint256"
            },
            {
              "indexed": false,
              "internalType": "uint256",
              "name": "timestamp",
              "type": "uint256"
            },
            {
              "indexed": false,
              "internalType": "uint256",
              "name": "roundId",
              "type": "uint256"
            }
          ],
          "name": "PriceFeedDataSet",
          "type": "event"
        },
        {
          "inputs": [
            {
              "internalType": "bytes32",
              "name": "",
              "type": "bytes32"
            }
          ],
          "name": "getPrice",
          "outputs": [
            {
              "internalType": "uint256",
              "name": "",
              "type": "uint256"
            }
          ],
          "stateMutability": "view",
          "type": "function"
        },
        {
          "inputs": [
            {
              "internalType": "bytes32",
              "name": "",
              "type": "bytes32"
            },
            {
              "internalType": "uint256",
              "name": "",
              "type": "uint256"
            }
          ],
          "name": "getTwapPrice",
          "outputs": [
            {
              "internalType": "uint256",
              "name": "",
              "type": "uint256"
            }
          ],
          "stateMutability": "view",
          "type": "function"
        },
        {
          "inputs": [
            {
              "internalType": "uint256",
              "name": "_price",
              "type": "uint256"
            }
          ],
          "name": "setPrice",
          "outputs": [],
          "stateMutability": "nonpayable",
          "type": "function"
        },
        {
          "inputs": [
            {
              "internalType": "uint256",
              "name": "_price",
              "type": "uint256"
            }
          ],
          "name": "setTwapPrice",
          "outputs": [],
          "stateMutability": "nonpayable",
          "type": "function"
        }
      ],
      "devdoc": {
        "methods": {}
      },
      "evm": {
        "bytecode": {
          "linkReferences": {},
          "object": "608060405234801561001057600080fd5b506040516101683803806101688339818101604052602081101561003357600080fd5b5051600081905560015561011c8061004c6000396000f3fe6080604052348015600f57600080fd5b506004361060465760003560e01c806331d98b3f14604b57806335acc2c414607757806391b7f5ed146093578063a2173df41460ad575b600080fd5b606560048036036020811015605f57600080fd5b503560cd565b60408051918252519081900360200190f35b609160048036036020811015608b57600080fd5b503560d4565b005b60916004803603602081101560a757600080fd5b503560d9565b60656004803603604081101560c157600080fd5b508035906020013560de565b5060005490565b600155565b600055565b50506001549056fea26469706673582212207406c81257474b698ff2908422f415319f160ee1c7062878ba195e7a2796ccd664736f6c63430006090033",
          "opcodes": "PUSH1 0x80 PUSH1 0x40 MSTORE CALLVALUE DUP1 ISZERO PUSH2 0x10 JUMPI PUSH1 0x0 DUP1 REVERT JUMPDEST POP PUSH1 0x40 MLOAD PUSH2 0x168 CODESIZE SUB DUP1 PUSH2 0x168 DUP4 CODECOPY DUP2 DUP2 ADD PUSH1 0x40 MSTORE PUSH1 0x20 DUP2 LT ISZERO PUSH2 0x33 JUMPI PUSH1 0x0 DUP1 REVERT JUMPDEST POP MLOAD PUSH1 0x0 DUP2 SWAP1 SSTORE PUSH1 0x1 SSTORE PUSH2 0x11C DUP1 PUSH2 0x4C PUSH1 0x0 CODECOPY PUSH1 0x0 RETURN INVALID PUSH1 0x80 PUSH1 0x40 MSTORE CALLVALUE DUP1 ISZERO PUSH1 0xF JUMPI PUSH1 0x0 DUP1 REVERT JUMPDEST POP PUSH1 0x4 CALLDATASIZE LT PUSH1 0x46 JUMPI PUSH1 0x0 CALLDATALOAD PUSH1 0xE0 SHR DUP1 PUSH4 0x31D98B3F EQ PUSH1 0x4B JUMPI DUP1 PUSH4 0x35ACC2C4 EQ PUSH1 0x77 JUMPI DUP1 PUSH4 0x91B7F5ED EQ PUSH1 0x93 JUMPI DUP1 PUSH4 0xA2173DF4 EQ PUSH1 0xAD JUMPI JUMPDEST PUSH1 0x0 DUP1 REVERT JUMPDEST PUSH1 0x65 PUSH1 0x4 DUP1 CALLDATASIZE SUB PUSH1 0x20 DUP2 LT ISZERO PUSH1 0x5F JUMPI PUSH1 0x0 DUP1 REVERT JUMPDEST POP CALLDATALOAD PUSH1 0xCD JUMP JUMPDEST PUSH1 0x40 DUP1 MLOAD SWAP2 DUP3 MSTORE MLOAD SWAP1 DUP2 SWAP1 SUB PUSH1 0x20 ADD SWAP1 RETURN JUMPDEST PUSH1 0x91 PUSH1 0x4 DUP1 CALLDATASIZE SUB PUSH1 0x20 DUP2 LT ISZERO PUSH1 0x8B JUMPI PUSH1 0x0 DUP1 REVERT JUMPDEST POP CALLDATALOAD PUSH1 0xD4 JUMP JUMPDEST STOP JUMPDEST PUSH1 0x91 PUSH1 0x4 DUP1 CALLDATASIZE SUB PUSH1 0x20 DUP2 LT ISZERO PUSH1 0xA7 JUMPI PUSH1 0x0 DUP1 REVERT JUMPDEST POP CALLDATALOAD PUSH1 0xD9 JUMP JUMPDEST PUSH1 0x65 PUSH1 0x4 DUP1 CALLDATASIZE SUB PUSH1 0x40 DUP2 LT ISZERO PUSH1 0xC1 JUMPI PUSH1 0x0 DUP1 REVERT JUMPDEST POP DUP1 CALLDATALOAD SWAP1 PUSH1 0x20 ADD CALLDATALOAD PUSH1 0xDE JUMP JUMPDEST POP PUSH1 0x0 SLOAD SWAP1 JUMP JUMPDEST PUSH1 0x1 SSTORE JUMP JUMPDEST PUSH1 0x0 SSTORE JUMP JUMPDEST POP POP PUSH1 0x1 SLOAD SWAP1 JUMP INVALID LOG2 PUSH5 0x6970667358 0x22 SLT KECCAK256 PUSH21 0x6C81257474B698FF2908422F415319F160EE1C706 0x28 PUSH25 0xBA195E7A2796CCD664736F6C63430006090033000000000000 "
        },
        "gasEstimates": {
          "creation": {
            "codeDepositCost": "56800",
            "executionCost": "infinite",
            "totalCost": "infinite"
          },
          "external": {
            "getPrice(bytes32)": "1020",
            "getTwapPrice(bytes32,uint256)": "1103",
            "setPrice(uint256)": "20211",
            "setTwapPrice(uint256)": "20189"
          }
        },
        "methodIdentifiers": {
          "getPrice(bytes32)": "31d98b3f",
          "getTwapPrice(bytes32,uint256)": "a2173df4",
          "setPrice(uint256)": "91b7f5ed",
          "setTwapPrice(uint256)": "35acc2c4"
        }
      },
      "storageLayout": {
        "storage": [
          {
            "astId": 3,
            "contract": "contracts/mock/mocks/API3PriceFeedMock.sol:API3PriceFeedMock",
            "label": "price",
            "offset": 0,
            "slot": "0",
            "type": "t_uint256"
          },
          {
            "astId": 5,
            "contract": "contracts/mock/mocks/API3PriceFeedMock.sol:API3PriceFeedMock",
            "label": "twapPrice",
            "offset": 0,
            "slot": "1",
            "type": "t_uint256"
          }
        ],
        "types": {
          "t_uint256": {
            "encoding": "inplace",
            "label": "uint256",
            "numberOfBytes": "32"
          }
        }
      },
      "userdoc": {
        "methods": {}
      }
    }
  }
}