{
  "contracts/API3PriceFeed.sol": {
    "API3PriceFeed": {
      "abi": [
        {
          "inputs": [
            {
              "internalType": "address",
              "name": "_whitelister",
              "type": "address"
            }
          ],
          "stateMutability": "nonpayable",
          "type": "constructor"
        },
        {
          "anonymous": false,
          "inputs": [
            {
              "indexed": false,
              "internalType": "bytes32",
              "name": "_priceFeedKey",
              "type": "bytes32"
            },
            {
              "indexed": false,
              "internalType": "bytes32",
              "name": "_beaconId",
              "type": "bytes32"
            }
          ],
          "name": "BeaconWhitelisted",
          "type": "event"
        },
        {
          "inputs": [
            {
              "internalType": "bytes32",
              "name": "_priceFeedKey",
              "type": "bytes32"
            }
          ],
          "name": "getBeacon",
          "outputs": [
            {
              "internalType": "bytes32",
              "name": "",
              "type": "bytes32"
            }
          ],
          "stateMutability": "view",
          "type": "function"
        },
        {
          "inputs": [
            {
              "internalType": "bytes32",
              "name": "_priceFeedKey",
              "type": "bytes32"
            }
          ],
          "name": "getPrice",
          "outputs": [
            {
              "internalType": "uint256",
              "name": "",
              "type": "uint256"
            }
          ],
          "stateMutability": "view",
          "type": "function"
        },
        {
          "inputs": [
            {
              "internalType": "bytes32",
              "name": "_priceFeedKey",
              "type": "bytes32"
            }
          ],
          "name": "isPriceFeedWhitelisted",
          "outputs": [
            {
              "internalType": "bool",
              "name": "",
              "type": "bool"
            }
          ],
          "stateMutability": "view",
          "type": "function"
        },
        {
          "inputs": [
            {
              "internalType": "bytes32",
              "name": "",
              "type": "bytes32"
            }
          ],
          "name": "priceFeedMap",
          "outputs": [
            {
              "internalType": "bytes32",
              "name": "",
              "type": "bytes32"
            }
          ],
          "stateMutability": "view",
          "type": "function"
        },
        {
          "inputs": [
            {
              "internalType": "bytes32",
              "name": "",
              "type": "bytes32"
            }
          ],
          "name": "priceFeedWhitelisted",
          "outputs": [
            {
              "internalType": "bool",
              "name": "",
              "type": "bool"
            }
          ],
          "stateMutability": "view",
          "type": "function"
        },
        {
          "inputs": [
            {
              "internalType": "bytes32",
              "name": "_priceFeedKey",
              "type": "bytes32"
            },
            {
              "internalType": "bytes32",
              "name": "_beaconId",
              "type": "bytes32"
            }
          ],
          "name": "setBeacon",
          "outputs": [],
          "stateMutability": "nonpayable",
          "type": "function"
        }
      ],
      "devdoc": {
        "kind": "dev",
        "methods": {
          "getBeacon(bytes32)": {
            "details": "returns beacon id"
          },
          "getPrice(bytes32)": {
            "details": "returns log(price) of an asset",
            "params": {
              "_priceFeedKey": "price feed identifier/symbol of asset i.e ETH/USD"
            }
          },
          "isPriceFeedWhitelisted(bytes32)": {
            "details": "returns bool to indicate if price feed key is whitelisted or not"
          },
          "setBeacon(bytes32,bytes32)": {
            "details": "sets _beaconId to _priceFeedKey",
            "params": {
              "_beaconId": "beacon id",
              "_priceFeedKey": "price feed identifier/symbol of asset i.e ETH/USD"
            }
          }
        },
        "version": 1
      },
      "evm": {
        "bytecode": {
          "linkReferences": {},
          "object": "608060405264e8d4a5100060025534801561001957600080fd5b506040516107083803806107088339810160408190526100389161013d565b610041816100f0565b600480546001600160a01b0319166001600160a01b038316908117825560408051639da4543b60e01b815290519192639da4543b928282019260209290829003018186803b15801561009257600080fd5b505afa1580156100a6573d6000803e3d6000fd5b505050506040513d601f19601f820116820180604052508101906100ca919061013d565b600380546001600160a01b0319166001600160a01b03929092169190911790555061016b565b6001600160a01b03811661013a5760405162461bcd60e51b815260206004820152600d60248201526c656d707479206164647265737360981b604482015260640160405180910390fd5b50565b60006020828403121561014e578081fd5b81516001600160a01b0381168114610164578182fd5b9392505050565b61058e8061017a6000396000f3fe608060405234801561001057600080fd5b50600436106100625760003560e01c8063250742cc1461006757806331d98b3f1461009a57806344fce375146100ad5780634828da85146100e05780638156bf8a14610100578063dc59936a14610115575b600080fd5b6100876100753660046104b5565b60006020819052908152604090205481565b6040519081526020015b60405180910390f35b6100876100a83660046104b5565b610138565b6100d06100bb3660046104b5565b60016020526000908152604090205460ff1681565b6040519015158152602001610091565b6100876100ee3660046104b5565b60009081526020819052604090205490565b61011361010e3660046104cd565b610244565b005b6100d06101233660046104b5565b60009081526001602052604090205460ff1690565b60008181526001602052604081205460ff1661019a5760405162461bcd60e51b815260206004820152601b60248201527f50524943455f464545443a204e4f542057484954454c49535445440000000000604482015260640160405180910390fd5b600082815260208190526040808220546003549151631de7e45b60e01b8152600481018290529092916001600160a01b031690631de7e45b90602401604080518083038186803b1580156101ed57600080fd5b505afa158015610201573d6000803e3d6000fd5b505050506040513d601f19601f8201168201806040525081019061022591906104ee565b50600254909150601b82900b0261023b81610330565b95945050505050565b8061024e57600080fd5b60008281526001602052604090205460ff166102e357600480546040516327b2fec760e11b81529182018390523060248301526001600160a01b031690634f65fd8e90604401600060405180830381600087803b1580156102ae57600080fd5b505af11580156102c2573d6000803e3d6000fd5b5050506000838152600160208190526040909120805460ff19169091179055505b6000828152602081815260409182902083905581518481529081018390527f6aa53e77381fa741f9fb2984aa2c13705e2d12aaa54624ea0fd1dc3247cf613b910160405180910390a15050565b6000670de0b6b3a764000082101561034757600080fd5b600061035c670de0b6b3a764000084046103c9565b670de0b6b3a7640000808202935090915083821c9081141561037f575050919050565b6706f05b59d3b200005b80156103c157670de0b6b3a7640000828002049150671bc16d674ec8000082106103b9579283019260019190911c905b60011c610389565b505050919050565b6000600160801b82106103e957608091821c916103e69082610534565b90505b68010000000000000000821061040c57604091821c916104099082610534565b90505b640100000000821061042b57602091821c916104289082610534565b90505b62010000821061044857601091821c916104459082610534565b90505b610100821061046457600891821c916104619082610534565b90505b6010821061047f57600491821c9161047c9082610534565b90505b6004821061049a57600291821c916104979082610534565b90505b600282106104b0576104ad600182610534565b90505b919050565b6000602082840312156104c6578081fd5b5035919050565b600080604083850312156104df578081fd5b50508035926020909101359150565b60008060408385031215610500578182fd5b825180601b0b8114610510578283fd5b602084015190925063ffffffff81168114610529578182fd5b809150509250929050565b6000821982111561055357634e487b7160e01b81526011600452602481fd5b50019056fea2646970667358221220a9ca0221ad615670843182eee69b93dc136a9a5888509478784ab2298463a1f664736f6c63430008040033",
          "opcodes": "PUSH1 0x80 PUSH1 0x40 MSTORE PUSH5 0xE8D4A51000 PUSH1 0x2 SSTORE CALLVALUE DUP1 ISZERO PUSH2 0x19 JUMPI PUSH1 0x0 DUP1 REVERT JUMPDEST POP PUSH1 0x40 MLOAD PUSH2 0x708 CODESIZE SUB DUP1 PUSH2 0x708 DUP4 CODECOPY DUP2 ADD PUSH1 0x40 DUP2 SWAP1 MSTORE PUSH2 0x38 SWAP2 PUSH2 0x13D JUMP JUMPDEST PUSH2 0x41 DUP2 PUSH2 0xF0 JUMP JUMPDEST PUSH1 0x4 DUP1 SLOAD PUSH1 0x1 PUSH1 0x1 PUSH1 0xA0 SHL SUB NOT AND PUSH1 0x1 PUSH1 0x1 PUSH1 0xA0 SHL SUB DUP4 AND SWAP1 DUP2 OR DUP3 SSTORE PUSH1 0x40 DUP1 MLOAD PUSH4 0x9DA4543B PUSH1 0xE0 SHL DUP2 MSTORE SWAP1 MLOAD SWAP2 SWAP3 PUSH4 0x9DA4543B SWAP3 DUP3 DUP3 ADD SWAP3 PUSH1 0x20 SWAP3 SWAP1 DUP3 SWAP1 SUB ADD DUP2 DUP7 DUP1 EXTCODESIZE ISZERO DUP1 ISZERO PUSH2 0x92 JUMPI PUSH1 0x0 DUP1 REVERT JUMPDEST POP GAS STATICCALL ISZERO DUP1 ISZERO PUSH2 0xA6 JUMPI RETURNDATASIZE PUSH1 0x0 DUP1 RETURNDATACOPY RETURNDATASIZE PUSH1 0x0 REVERT JUMPDEST POP POP POP POP PUSH1 0x40 MLOAD RETURNDATASIZE PUSH1 0x1F NOT PUSH1 0x1F DUP3 ADD AND DUP3 ADD DUP1 PUSH1 0x40 MSTORE POP DUP2 ADD SWAP1 PUSH2 0xCA SWAP2 SWAP1 PUSH2 0x13D JUMP JUMPDEST PUSH1 0x3 DUP1 SLOAD PUSH1 0x1 PUSH1 0x1 PUSH1 0xA0 SHL SUB NOT AND PUSH1 0x1 PUSH1 0x1 PUSH1 0xA0 SHL SUB SWAP3 SWAP1 SWAP3 AND SWAP2 SWAP1 SWAP2 OR SWAP1 SSTORE POP PUSH2 0x16B JUMP JUMPDEST PUSH1 0x1 PUSH1 0x1 PUSH1 0xA0 SHL SUB DUP2 AND PUSH2 0x13A JUMPI PUSH1 0x40 MLOAD PUSH3 0x461BCD PUSH1 0xE5 SHL DUP2 MSTORE PUSH1 0x20 PUSH1 0x4 DUP3 ADD MSTORE PUSH1 0xD PUSH1 0x24 DUP3 ADD MSTORE PUSH13 0x656D7074792061646472657373 PUSH1 0x98 SHL PUSH1 0x44 DUP3 ADD MSTORE PUSH1 0x64 ADD PUSH1 0x40 MLOAD DUP1 SWAP2 SUB SWAP1 REVERT JUMPDEST POP JUMP JUMPDEST PUSH1 0x0 PUSH1 0x20 DUP3 DUP5 SUB SLT ISZERO PUSH2 0x14E JUMPI DUP1 DUP2 REVERT JUMPDEST DUP2 MLOAD PUSH1 0x1 PUSH1 0x1 PUSH1 0xA0 SHL SUB DUP2 AND DUP2 EQ PUSH2 0x164 JUMPI DUP2 DUP3 REVERT JUMPDEST SWAP4 SWAP3 POP POP POP JUMP JUMPDEST PUSH2 0x58E DUP1 PUSH2 0x17A PUSH1 0x0 CODECOPY PUSH1 0x0 RETURN INVALID PUSH1 0x80 PUSH1 0x40 MSTORE CALLVALUE DUP1 ISZERO PUSH2 0x10 JUMPI PUSH1 0x0 DUP1 REVERT JUMPDEST POP PUSH1 0x4 CALLDATASIZE LT PUSH2 0x62 JUMPI PUSH1 0x0 CALLDATALOAD PUSH1 0xE0 SHR DUP1 PUSH4 0x250742CC EQ PUSH2 0x67 JUMPI DUP1 PUSH4 0x31D98B3F EQ PUSH2 0x9A JUMPI DUP1 PUSH4 0x44FCE375 EQ PUSH2 0xAD JUMPI DUP1 PUSH4 0x4828DA85 EQ PUSH2 0xE0 JUMPI DUP1 PUSH4 0x8156BF8A EQ PUSH2 0x100 JUMPI DUP1 PUSH4 0xDC59936A EQ PUSH2 0x115 JUMPI JUMPDEST PUSH1 0x0 DUP1 REVERT JUMPDEST PUSH2 0x87 PUSH2 0x75 CALLDATASIZE PUSH1 0x4 PUSH2 0x4B5 JUMP JUMPDEST PUSH1 0x0 PUSH1 0x20 DUP2 SWAP1 MSTORE SWAP1 DUP2 MSTORE PUSH1 0x40 SWAP1 KECCAK256 SLOAD DUP2 JUMP JUMPDEST PUSH1 0x40 MLOAD SWAP1 DUP2 MSTORE PUSH1 0x20 ADD JUMPDEST PUSH1 0x40 MLOAD DUP1 SWAP2 SUB SWAP1 RETURN JUMPDEST PUSH2 0x87 PUSH2 0xA8 CALLDATASIZE PUSH1 0x4 PUSH2 0x4B5 JUMP JUMPDEST PUSH2 0x138 JUMP JUMPDEST PUSH2 0xD0 PUSH2 0xBB CALLDATASIZE PUSH1 0x4 PUSH2 0x4B5 JUMP JUMPDEST PUSH1 0x1 PUSH1 0x20 MSTORE PUSH1 0x0 SWAP1 DUP2 MSTORE PUSH1 0x40 SWAP1 KECCAK256 SLOAD PUSH1 0xFF AND DUP2 JUMP JUMPDEST PUSH1 0x40 MLOAD SWAP1 ISZERO ISZERO DUP2 MSTORE PUSH1 0x20 ADD PUSH2 0x91 JUMP JUMPDEST PUSH2 0x87 PUSH2 0xEE CALLDATASIZE PUSH1 0x4 PUSH2 0x4B5 JUMP JUMPDEST PUSH1 0x0 SWAP1 DUP2 MSTORE PUSH1 0x20 DUP2 SWAP1 MSTORE PUSH1 0x40 SWAP1 KECCAK256 SLOAD SWAP1 JUMP JUMPDEST PUSH2 0x113 PUSH2 0x10E CALLDATASIZE PUSH1 0x4 PUSH2 0x4CD JUMP JUMPDEST PUSH2 0x244 JUMP JUMPDEST STOP JUMPDEST PUSH2 0xD0 PUSH2 0x123 CALLDATASIZE PUSH1 0x4 PUSH2 0x4B5 JUMP JUMPDEST PUSH1 0x0 SWAP1 DUP2 MSTORE PUSH1 0x1 PUSH1 0x20 MSTORE PUSH1 0x40 SWAP1 KECCAK256 SLOAD PUSH1 0xFF AND SWAP1 JUMP JUMPDEST PUSH1 0x0 DUP2 DUP2 MSTORE PUSH1 0x1 PUSH1 0x20 MSTORE PUSH1 0x40 DUP2 KECCAK256 SLOAD PUSH1 0xFF AND PUSH2 0x19A JUMPI PUSH1 0x40 MLOAD PUSH3 0x461BCD PUSH1 0xE5 SHL DUP2 MSTORE PUSH1 0x20 PUSH1 0x4 DUP3 ADD MSTORE PUSH1 0x1B PUSH1 0x24 DUP3 ADD MSTORE PUSH32 0x50524943455F464545443A204E4F542057484954454C49535445440000000000 PUSH1 0x44 DUP3 ADD MSTORE PUSH1 0x64 ADD PUSH1 0x40 MLOAD DUP1 SWAP2 SUB SWAP1 REVERT JUMPDEST PUSH1 0x0 DUP3 DUP2 MSTORE PUSH1 0x20 DUP2 SWAP1 MSTORE PUSH1 0x40 DUP1 DUP3 KECCAK256 SLOAD PUSH1 0x3 SLOAD SWAP2 MLOAD PUSH4 0x1DE7E45B PUSH1 0xE0 SHL DUP2 MSTORE PUSH1 0x4 DUP2 ADD DUP3 SWAP1 MSTORE SWAP1 SWAP3 SWAP2 PUSH1 0x1 PUSH1 0x1 PUSH1 0xA0 SHL SUB AND SWAP1 PUSH4 0x1DE7E45B SWAP1 PUSH1 0x24 ADD PUSH1 0x40 DUP1 MLOAD DUP1 DUP4 SUB DUP2 DUP7 DUP1 EXTCODESIZE ISZERO DUP1 ISZERO PUSH2 0x1ED JUMPI PUSH1 0x0 DUP1 REVERT JUMPDEST POP GAS STATICCALL ISZERO DUP1 ISZERO PUSH2 0x201 JUMPI RETURNDATASIZE PUSH1 0x0 DUP1 RETURNDATACOPY RETURNDATASIZE PUSH1 0x0 REVERT JUMPDEST POP POP POP POP PUSH1 0x40 MLOAD RETURNDATASIZE PUSH1 0x1F NOT PUSH1 0x1F DUP3 ADD AND DUP3 ADD DUP1 PUSH1 0x40 MSTORE POP DUP2 ADD SWAP1 PUSH2 0x225 SWAP2 SWAP1 PUSH2 0x4EE JUMP JUMPDEST POP PUSH1 0x2 SLOAD SWAP1 SWAP2 POP PUSH1 0x1B DUP3 SWAP1 SIGNEXTEND MUL PUSH2 0x23B DUP2 PUSH2 0x330 JUMP JUMPDEST SWAP6 SWAP5 POP POP POP POP POP JUMP JUMPDEST DUP1 PUSH2 0x24E JUMPI PUSH1 0x0 DUP1 REVERT JUMPDEST PUSH1 0x0 DUP3 DUP2 MSTORE PUSH1 0x1 PUSH1 0x20 MSTORE PUSH1 0x40 SWAP1 KECCAK256 SLOAD PUSH1 0xFF AND PUSH2 0x2E3 JUMPI PUSH1 0x4 DUP1 SLOAD PUSH1 0x40 MLOAD PUSH4 0x27B2FEC7 PUSH1 0xE1 SHL DUP2 MSTORE SWAP2 DUP3 ADD DUP4 SWAP1 MSTORE ADDRESS PUSH1 0x24 DUP4 ADD MSTORE PUSH1 0x1 PUSH1 0x1 PUSH1 0xA0 SHL SUB AND SWAP1 PUSH4 0x4F65FD8E SWAP1 PUSH1 0x44 ADD PUSH1 0x0 PUSH1 0x40 MLOAD DUP1 DUP4 SUB DUP2 PUSH1 0x0 DUP8 DUP1 EXTCODESIZE ISZERO DUP1 ISZERO PUSH2 0x2AE JUMPI PUSH1 0x0 DUP1 REVERT JUMPDEST POP GAS CALL ISZERO DUP1 ISZERO PUSH2 0x2C2 JUMPI RETURNDATASIZE PUSH1 0x0 DUP1 RETURNDATACOPY RETURNDATASIZE PUSH1 0x0 REVERT JUMPDEST POP POP POP PUSH1 0x0 DUP4 DUP2 MSTORE PUSH1 0x1 PUSH1 0x20 DUP2 SWAP1 MSTORE PUSH1 0x40 SWAP1 SWAP2 KECCAK256 DUP1 SLOAD PUSH1 0xFF NOT AND SWAP1 SWAP2 OR SWAP1 SSTORE POP JUMPDEST PUSH1 0x0 DUP3 DUP2 MSTORE PUSH1 0x20 DUP2 DUP2 MSTORE PUSH1 0x40 SWAP2 DUP3 SWAP1 KECCAK256 DUP4 SWAP1 SSTORE DUP2 MLOAD DUP5 DUP2 MSTORE SWAP1 DUP2 ADD DUP4 SWAP1 MSTORE PUSH32 0x6AA53E77381FA741F9FB2984AA2C13705E2D12AAA54624EA0FD1DC3247CF613B SWAP2 ADD PUSH1 0x40 MLOAD DUP1 SWAP2 SUB SWAP1 LOG1 POP POP JUMP JUMPDEST PUSH1 0x0 PUSH8 0xDE0B6B3A7640000 DUP3 LT ISZERO PUSH2 0x347 JUMPI PUSH1 0x0 DUP1 REVERT JUMPDEST PUSH1 0x0 PUSH2 0x35C PUSH8 0xDE0B6B3A7640000 DUP5 DIV PUSH2 0x3C9 JUMP JUMPDEST PUSH8 0xDE0B6B3A7640000 DUP1 DUP3 MUL SWAP4 POP SWAP1 SWAP2 POP DUP4 DUP3 SHR SWAP1 DUP2 EQ ISZERO PUSH2 0x37F JUMPI POP POP SWAP2 SWAP1 POP JUMP JUMPDEST PUSH8 0x6F05B59D3B20000 JUMPDEST DUP1 ISZERO PUSH2 0x3C1 JUMPI PUSH8 0xDE0B6B3A7640000 DUP3 DUP1 MUL DIV SWAP2 POP PUSH8 0x1BC16D674EC80000 DUP3 LT PUSH2 0x3B9 JUMPI SWAP3 DUP4 ADD SWAP3 PUSH1 0x1 SWAP2 SWAP1 SWAP2 SHR SWAP1 JUMPDEST PUSH1 0x1 SHR PUSH2 0x389 JUMP JUMPDEST POP POP POP SWAP2 SWAP1 POP JUMP JUMPDEST PUSH1 0x0 PUSH1 0x1 PUSH1 0x80 SHL DUP3 LT PUSH2 0x3E9 JUMPI PUSH1 0x80 SWAP2 DUP3 SHR SWAP2 PUSH2 0x3E6 SWAP1 DUP3 PUSH2 0x534 JUMP JUMPDEST SWAP1 POP JUMPDEST PUSH9 0x10000000000000000 DUP3 LT PUSH2 0x40C JUMPI PUSH1 0x40 SWAP2 DUP3 SHR SWAP2 PUSH2 0x409 SWAP1 DUP3 PUSH2 0x534 JUMP JUMPDEST SWAP1 POP JUMPDEST PUSH5 0x100000000 DUP3 LT PUSH2 0x42B JUMPI PUSH1 0x20 SWAP2 DUP3 SHR SWAP2 PUSH2 0x428 SWAP1 DUP3 PUSH2 0x534 JUMP JUMPDEST SWAP1 POP JUMPDEST PUSH3 0x10000 DUP3 LT PUSH2 0x448 JUMPI PUSH1 0x10 SWAP2 DUP3 SHR SWAP2 PUSH2 0x445 SWAP1 DUP3 PUSH2 0x534 JUMP JUMPDEST SWAP1 POP JUMPDEST PUSH2 0x100 DUP3 LT PUSH2 0x464 JUMPI PUSH1 0x8 SWAP2 DUP3 SHR SWAP2 PUSH2 0x461 SWAP1 DUP3 PUSH2 0x534 JUMP JUMPDEST SWAP1 POP JUMPDEST PUSH1 0x10 DUP3 LT PUSH2 0x47F JUMPI PUSH1 0x4 SWAP2 DUP3 SHR SWAP2 PUSH2 0x47C SWAP1 DUP3 PUSH2 0x534 JUMP JUMPDEST SWAP1 POP JUMPDEST PUSH1 0x4 DUP3 LT PUSH2 0x49A JUMPI PUSH1 0x2 SWAP2 DUP3 SHR SWAP2 PUSH2 0x497 SWAP1 DUP3 PUSH2 0x534 JUMP JUMPDEST SWAP1 POP JUMPDEST PUSH1 0x2 DUP3 LT PUSH2 0x4B0 JUMPI PUSH2 0x4AD PUSH1 0x1 DUP3 PUSH2 0x534 JUMP JUMPDEST SWAP1 POP JUMPDEST SWAP2 SWAP1 POP JUMP JUMPDEST PUSH1 0x0 PUSH1 0x20 DUP3 DUP5 SUB SLT ISZERO PUSH2 0x4C6 JUMPI DUP1 DUP2 REVERT JUMPDEST POP CALLDATALOAD SWAP2 SWAP1 POP JUMP JUMPDEST PUSH1 0x0 DUP1 PUSH1 0x40 DUP4 DUP6 SUB SLT ISZERO PUSH2 0x4DF JUMPI DUP1 DUP2 REVERT JUMPDEST POP POP DUP1 CALLDATALOAD SWAP3 PUSH1 0x20 SWAP1 SWAP2 ADD CALLDATALOAD SWAP2 POP JUMP JUMPDEST PUSH1 0x0 DUP1 PUSH1 0x40 DUP4 DUP6 SUB SLT ISZERO PUSH2 0x500 JUMPI DUP2 DUP3 REVERT JUMPDEST DUP3 MLOAD DUP1 PUSH1 0x1B SIGNEXTEND DUP2 EQ PUSH2 0x510 JUMPI DUP3 DUP4 REVERT JUMPDEST PUSH1 0x20 DUP5 ADD MLOAD SWAP1 SWAP3 POP PUSH4 0xFFFFFFFF DUP2 AND DUP2 EQ PUSH2 0x529 JUMPI DUP2 DUP3 REVERT JUMPDEST DUP1 SWAP2 POP POP SWAP3 POP SWAP3 SWAP1 POP JUMP JUMPDEST PUSH1 0x0 DUP3 NOT DUP3 GT ISZERO PUSH2 0x553 JUMPI PUSH4 0x4E487B71 PUSH1 0xE0 SHL DUP2 MSTORE PUSH1 0x11 PUSH1 0x4 MSTORE PUSH1 0x24 DUP2 REVERT JUMPDEST POP ADD SWAP1 JUMP INVALID LOG2 PUSH5 0x6970667358 0x22 SLT KECCAK256 0xA9 0xCA MUL 0x21 0xAD PUSH2 0x5670 DUP5 BALANCE DUP3 0xEE 0xE6 SWAP12 SWAP4 0xDC SGT PUSH11 0x9A5888509478784AB22984 PUSH4 0xA1F66473 PUSH16 0x6C634300080400330000000000000000 "
        },
        "gasEstimates": {
          "creation": {
            "codeDepositCost": "284400",
            "executionCost": "infinite",
            "totalCost": "infinite"
          },
          "external": {
            "getBeacon(bytes32)": "1174",
            "getPrice(bytes32)": "infinite",
            "isPriceFeedWhitelisted(bytes32)": "1238",
            "priceFeedMap(bytes32)": "1108",
            "priceFeedWhitelisted(bytes32)": "1172",
            "setBeacon(bytes32,bytes32)": "infinite"
          },
          "internal": {
            "requireNonEmptyAddress(address)": "infinite"
          }
        },
        "methodIdentifiers": {
          "getBeacon(bytes32)": "4828da85",
          "getPrice(bytes32)": "31d98b3f",
          "isPriceFeedWhitelisted(bytes32)": "dc59936a",
          "priceFeedMap(bytes32)": "250742cc",
          "priceFeedWhitelisted(bytes32)": "44fce375",
          "setBeacon(bytes32,bytes32)": "8156bf8a"
        }
      },
      "storageLayout": {
        "storage": [
          {
            "astId": 280,
            "contract": "contracts/API3PriceFeed.sol:API3PriceFeed",
            "label": "priceFeedMap",
            "offset": 0,
            "slot": "0",
            "type": "t_mapping(t_bytes32,t_bytes32)"
          },
          {
            "astId": 284,
            "contract": "contracts/API3PriceFeed.sol:API3PriceFeed",
            "label": "priceFeedWhitelisted",
            "offset": 0,
            "slot": "1",
            "type": "t_mapping(t_bytes32,t_bool)"
          },
          {
            "astId": 289,
            "contract": "contracts/API3PriceFeed.sol:API3PriceFeed",
            "label": "SCALE",
            "offset": 0,
            "slot": "2",
            "type": "t_uint256"
          },
          {
            "astId": 292,
            "contract": "contracts/API3PriceFeed.sol:API3PriceFeed",
            "label": "RrpBeaconServer",
            "offset": 0,
            "slot": "3",
            "type": "t_contract(IRrpBeaconServer)199"
          },
          {
            "astId": 295,
            "contract": "contracts/API3PriceFeed.sol:API3PriceFeed",
            "label": "ssR",
            "offset": 0,
            "slot": "4",
            "type": "t_contract(ISelfServeRrpBeaconServerWhitelister)264"
          }
        ],
        "types": {
          "t_bool": {
            "encoding": "inplace",
            "label": "bool",
            "numberOfBytes": "1"
          },
          "t_bytes32": {
            "encoding": "inplace",
            "label": "bytes32",
            "numberOfBytes": "32"
          },
          "t_contract(IRrpBeaconServer)199": {
            "encoding": "inplace",
            "label": "contract IRrpBeaconServer",
            "numberOfBytes": "20"
          },
          "t_contract(ISelfServeRrpBeaconServerWhitelister)264": {
            "encoding": "inplace",
            "label": "contract ISelfServeRrpBeaconServerWhitelister",
            "numberOfBytes": "20"
          },
          "t_mapping(t_bytes32,t_bool)": {
            "encoding": "mapping",
            "key": "t_bytes32",
            "label": "mapping(bytes32 => bool)",
            "numberOfBytes": "32",
            "value": "t_bool"
          },
          "t_mapping(t_bytes32,t_bytes32)": {
            "encoding": "mapping",
            "key": "t_bytes32",
            "label": "mapping(bytes32 => bytes32)",
            "numberOfBytes": "32",
            "value": "t_bytes32"
          },
          "t_uint256": {
            "encoding": "inplace",
            "label": "uint256",
            "numberOfBytes": "32"
          }
        }
      },
      "userdoc": {
        "kind": "user",
        "methods": {
          "priceFeedMap(bytes32)": {
            "notice": "mapping of price feed key -> beacon id"
          }
        },
        "version": 1
      }
    }
  }
}