{
  "_format": "hh-sol-artifact-1",
  "contractName": "ClearingHouseFake",
  "sourceName": "contracts/mock/ClearingHouseFake.sol",
  "abi": [
    {
      "anonymous": false,
      "inputs": [
        {
          "indexed": true,
          "internalType": "address",
          "name": "account",
          "type": "address"
        },
        {
          "indexed": true,
          "internalType": "bool",
          "name": "isProvider",
          "type": "bool"
        }
      ],
      "name": "BackstopLiquidityProviderChanged",
      "type": "event"
    },
    {
      "anonymous": false,
      "inputs": [
        {
          "indexed": false,
          "internalType": "uint256",
          "name": "initMarginRatio",
          "type": "uint256"
        }
      ],
      "name": "InitMarginRatioChanged",
      "type": "event"
    },
    {
      "anonymous": false,
      "inputs": [
        {
          "indexed": false,
          "internalType": "address",
          "name": "insuranceFund",
          "type": "address"
        }
      ],
      "name": "InsuranceFundChanged",
      "type": "event"
    },
    {
      "anonymous": false,
      "inputs": [
        {
          "indexed": false,
          "internalType": "uint256",
          "name": "liquidationFeeRatio",
          "type": "uint256"
        }
      ],
      "name": "LiquidationFeeRatioChanged",
      "type": "event"
    },
    {
      "anonymous": false,
      "inputs": [
        {
          "indexed": true,
          "internalType": "address",
          "name": "sender",
          "type": "address"
        },
        {
          "indexed": true,
          "internalType": "address",
          "name": "amm",
          "type": "address"
        },
        {
          "indexed": false,
          "internalType": "int256",
          "name": "amount",
          "type": "int256"
        },
        {
          "indexed": false,
          "internalType": "int256",
          "name": "fundingPayment",
          "type": "int256"
        }
      ],
      "name": "MarginChanged",
      "type": "event"
    },
    {
      "anonymous": false,
      "inputs": [
        {
          "indexed": false,
          "internalType": "uint256",
          "name": "marginRatio",
          "type": "uint256"
        }
      ],
      "name": "MarginRatioChanged",
      "type": "event"
    },
    {
      "anonymous": false,
      "inputs": [
        {
          "indexed": true,
          "internalType": "address",
          "name": "previousOwner",
          "type": "address"
        },
        {
          "indexed": true,
          "internalType": "address",
          "name": "newOwner",
          "type": "address"
        }
      ],
      "name": "OwnershipTransferred",
      "type": "event"
    },
    {
      "anonymous": false,
      "inputs": [
        {
          "indexed": false,
          "internalType": "address",
          "name": "account",
          "type": "address"
        }
      ],
      "name": "Paused",
      "type": "event"
    },
    {
      "anonymous": false,
      "inputs": [
        {
          "indexed": true,
          "internalType": "address",
          "name": "amm",
          "type": "address"
        },
        {
          "indexed": true,
          "internalType": "address",
          "name": "trader",
          "type": "address"
        },
        {
          "indexed": false,
          "internalType": "int256",
          "name": "newPositionSize",
          "type": "int256"
        },
        {
          "indexed": false,
          "internalType": "uint256",
          "name": "oldLiquidityIndex",
          "type": "uint256"
        },
        {
          "indexed": false,
          "internalType": "uint256",
          "name": "newLiquidityIndex",
          "type": "uint256"
        }
      ],
      "name": "PositionAdjusted",
      "type": "event"
    },
    {
      "anonymous": false,
      "inputs": [
        {
          "indexed": true,
          "internalType": "address",
          "name": "trader",
          "type": "address"
        },
        {
          "indexed": true,
          "internalType": "address",
          "name": "amm",
          "type": "address"
        },
        {
          "indexed": false,
          "internalType": "uint256",
          "name": "margin",
          "type": "uint256"
        },
        {
          "indexed": false,
          "internalType": "uint256",
          "name": "positionNotional",
          "type": "uint256"
        },
        {
          "indexed": false,
          "internalType": "int256",
          "name": "exchangedPositionSize",
          "type": "int256"
        },
        {
          "indexed": false,
          "internalType": "uint256",
          "name": "fee",
          "type": "uint256"
        },
        {
          "indexed": false,
          "internalType": "int256",
          "name": "positionSizeAfter",
          "type": "int256"
        },
        {
          "indexed": false,
          "internalType": "int256",
          "name": "realizedPnl",
          "type": "int256"
        },
        {
          "indexed": false,
          "internalType": "int256",
          "name": "unrealizedPnlAfter",
          "type": "int256"
        },
        {
          "indexed": false,
          "internalType": "uint256",
          "name": "badDebt",
          "type": "uint256"
        },
        {
          "indexed": false,
          "internalType": "uint256",
          "name": "liquidationPenalty",
          "type": "uint256"
        },
        {
          "indexed": false,
          "internalType": "uint256",
          "name": "spotPrice",
          "type": "uint256"
        },
        {
          "indexed": false,
          "internalType": "int256",
          "name": "fundingPayment",
          "type": "int256"
        }
      ],
      "name": "PositionChanged",
      "type": "event"
    },
    {
      "anonymous": false,
      "inputs": [
        {
          "indexed": true,
          "internalType": "address",
          "name": "trader",
          "type": "address"
        },
        {
          "indexed": true,
          "internalType": "address",
          "name": "amm",
          "type": "address"
        },
        {
          "indexed": false,
          "internalType": "uint256",
          "name": "positionNotional",
          "type": "uint256"
        },
        {
          "indexed": false,
          "internalType": "uint256",
          "name": "positionSize",
          "type": "uint256"
        },
        {
          "indexed": false,
          "internalType": "uint256",
          "name": "liquidationFee",
          "type": "uint256"
        },
        {
          "indexed": false,
          "internalType": "address",
          "name": "liquidator",
          "type": "address"
        },
        {
          "indexed": false,
          "internalType": "uint256",
          "name": "badDebt",
          "type": "uint256"
        }
      ],
      "name": "PositionLiquidated",
      "type": "event"
    },
    {
      "anonymous": false,
      "inputs": [
        {
          "indexed": true,
          "internalType": "address",
          "name": "amm",
          "type": "address"
        },
        {
          "indexed": true,
          "internalType": "address",
          "name": "trader",
          "type": "address"
        },
        {
          "indexed": false,
          "internalType": "uint256",
          "name": "valueTransferred",
          "type": "uint256"
        }
      ],
      "name": "PositionSettled",
      "type": "event"
    },
    {
      "anonymous": false,
      "inputs": [
        {
          "indexed": true,
          "internalType": "bytes32",
          "name": "referralCode",
          "type": "bytes32"
        }
      ],
      "name": "ReferredPositionChanged",
      "type": "event"
    },
    {
      "anonymous": false,
      "inputs": [
        {
          "indexed": false,
          "internalType": "address",
          "name": "amm",
          "type": "address"
        },
        {
          "indexed": false,
          "internalType": "uint256",
          "name": "blockNumber",
          "type": "uint256"
        }
      ],
      "name": "RestrictionModeEntered",
      "type": "event"
    },
    {
      "anonymous": false,
      "inputs": [
        {
          "indexed": false,
          "internalType": "address",
          "name": "account",
          "type": "address"
        }
      ],
      "name": "Unpaused",
      "type": "event"
    },
    {
      "inputs": [
        {
          "internalType": "contract IAmm",
          "name": "_amm",
          "type": "address"
        },
        {
          "components": [
            {
              "internalType": "uint256",
              "name": "d",
              "type": "uint256"
            }
          ],
          "internalType": "struct Decimal.decimal",
          "name": "_addedMargin",
          "type": "tuple"
        }
      ],
      "name": "addMargin",
      "outputs": [],
      "stateMutability": "nonpayable",
      "type": "function"
    },
    {
      "inputs": [
        {
          "internalType": "address",
          "name": "",
          "type": "address"
        }
      ],
      "name": "backstopLiquidityProviderMap",
      "outputs": [
        {
          "internalType": "bool",
          "name": "",
          "type": "bool"
        }
      ],
      "stateMutability": "view",
      "type": "function"
    },
    {
      "inputs": [],
      "name": "candidate",
      "outputs": [
        {
          "internalType": "address",
          "name": "",
          "type": "address"
        }
      ],
      "stateMutability": "view",
      "type": "function"
    },
    {
      "inputs": [
        {
          "internalType": "contract IAmm",
          "name": "_amm",
          "type": "address"
        },
        {
          "components": [
            {
              "internalType": "uint256",
              "name": "d",
              "type": "uint256"
            }
          ],
          "internalType": "struct Decimal.decimal",
          "name": "_quoteAssetAmountLimit",
          "type": "tuple"
        }
      ],
      "name": "closePosition",
      "outputs": [],
      "stateMutability": "nonpayable",
      "type": "function"
    },
    {
      "inputs": [],
      "name": "feePool",
      "outputs": [
        {
          "internalType": "contract IMultiTokenRewardRecipient",
          "name": "",
          "type": "address"
        }
      ],
      "stateMutability": "view",
      "type": "function"
    },
    {
      "inputs": [
        {
          "internalType": "contract IAmm",
          "name": "_amm",
          "type": "address"
        }
      ],
      "name": "getLatestCumulativePremiumFraction",
      "outputs": [
        {
          "components": [
            {
              "internalType": "int256",
              "name": "d",
              "type": "int256"
            }
          ],
          "internalType": "struct SignedDecimal.signedDecimal",
          "name": "",
          "type": "tuple"
        }
      ],
      "stateMutability": "view",
      "type": "function"
    },
    {
      "inputs": [
        {
          "internalType": "contract IAmm",
          "name": "_amm",
          "type": "address"
        },
        {
          "internalType": "address",
          "name": "_trader",
          "type": "address"
        }
      ],
      "name": "getMarginRatio",
      "outputs": [
        {
          "components": [
            {
              "internalType": "int256",
              "name": "d",
              "type": "int256"
            }
          ],
          "internalType": "struct SignedDecimal.signedDecimal",
          "name": "",
          "type": "tuple"
        }
      ],
      "stateMutability": "view",
      "type": "function"
    },
    {
      "inputs": [
        {
          "internalType": "contract IAmm",
          "name": "_amm",
          "type": "address"
        },
        {
          "internalType": "address",
          "name": "_trader",
          "type": "address"
        }
      ],
      "name": "getPosition",
      "outputs": [
        {
          "components": [
            {
              "components": [
                {
                  "internalType": "int256",
                  "name": "d",
                  "type": "int256"
                }
              ],
              "internalType": "struct SignedDecimal.signedDecimal",
              "name": "size",
              "type": "tuple"
            },
            {
              "components": [
                {
                  "internalType": "uint256",
                  "name": "d",
                  "type": "uint256"
                }
              ],
              "internalType": "struct Decimal.decimal",
              "name": "margin",
              "type": "tuple"
            },
            {
              "components": [
                {
                  "internalType": "uint256",
                  "name": "d",
                  "type": "uint256"
                }
              ],
              "internalType": "struct Decimal.decimal",
              "name": "openNotional",
              "type": "tuple"
            },
            {
              "components": [
                {
                  "internalType": "int256",
                  "name": "d",
                  "type": "int256"
                }
              ],
              "internalType": "struct SignedDecimal.signedDecimal",
              "name": "lastUpdatedCumulativePremiumFraction",
              "type": "tuple"
            },
            {
              "internalType": "uint256",
              "name": "liquidityHistoryIndex",
              "type": "uint256"
            },
            {
              "internalType": "uint256",
              "name": "blockNumber",
              "type": "uint256"
            }
          ],
          "internalType": "struct ClearingHouse.Position",
          "name": "",
          "type": "tuple"
        }
      ],
      "stateMutability": "view",
      "type": "function"
    },
    {
      "inputs": [
        {
          "internalType": "contract IAmm",
          "name": "_amm",
          "type": "address"
        },
        {
          "internalType": "address",
          "name": "_trader",
          "type": "address"
        },
        {
          "internalType": "enum ClearingHouse.PnlCalcOption",
          "name": "_pnlCalcOption",
          "type": "uint8"
        }
      ],
      "name": "getPositionNotionalAndUnrealizedPnl",
      "outputs": [
        {
          "components": [
            {
              "internalType": "uint256",
              "name": "d",
              "type": "uint256"
            }
          ],
          "internalType": "struct Decimal.decimal",
          "name": "positionNotional",
          "type": "tuple"
        },
        {
          "components": [
            {
              "internalType": "int256",
              "name": "d",
              "type": "int256"
            }
          ],
          "internalType": "struct SignedDecimal.signedDecimal",
          "name": "unrealizedPnl",
          "type": "tuple"
        }
      ],
      "stateMutability": "view",
      "type": "function"
    },
    {
      "inputs": [
        {
          "internalType": "address",
          "name": "_token",
          "type": "address"
        }
      ],
      "name": "getPrepaidBadDebt",
      "outputs": [
        {
          "components": [
            {
              "internalType": "uint256",
              "name": "d",
              "type": "uint256"
            }
          ],
          "internalType": "struct Decimal.decimal",
          "name": "",
          "type": "tuple"
        }
      ],
      "stateMutability": "view",
      "type": "function"
    },
    {
      "inputs": [
        {
          "internalType": "contract IAmm",
          "name": "_amm",
          "type": "address"
        },
        {
          "internalType": "address",
          "name": "_trader",
          "type": "address"
        }
      ],
      "name": "getUnadjustedPosition",
      "outputs": [
        {
          "components": [
            {
              "components": [
                {
                  "internalType": "int256",
                  "name": "d",
                  "type": "int256"
                }
              ],
              "internalType": "struct SignedDecimal.signedDecimal",
              "name": "size",
              "type": "tuple"
            },
            {
              "components": [
                {
                  "internalType": "uint256",
                  "name": "d",
                  "type": "uint256"
                }
              ],
              "internalType": "struct Decimal.decimal",
              "name": "margin",
              "type": "tuple"
            },
            {
              "components": [
                {
                  "internalType": "uint256",
                  "name": "d",
                  "type": "uint256"
                }
              ],
              "internalType": "struct Decimal.decimal",
              "name": "openNotional",
              "type": "tuple"
            },
            {
              "components": [
                {
                  "internalType": "int256",
                  "name": "d",
                  "type": "int256"
                }
              ],
              "internalType": "struct SignedDecimal.signedDecimal",
              "name": "lastUpdatedCumulativePremiumFraction",
              "type": "tuple"
            },
            {
              "internalType": "uint256",
              "name": "liquidityHistoryIndex",
              "type": "uint256"
            },
            {
              "internalType": "uint256",
              "name": "blockNumber",
              "type": "uint256"
            }
          ],
          "internalType": "struct ClearingHouse.Position",
          "name": "position",
          "type": "tuple"
        }
      ],
      "stateMutability": "view",
      "type": "function"
    },
    {
      "inputs": [],
      "name": "initMarginRatio",
      "outputs": [
        {
          "internalType": "uint256",
          "name": "d",
          "type": "uint256"
        }
      ],
      "stateMutability": "view",
      "type": "function"
    },
    {
      "inputs": [
        {
          "internalType": "uint256",
          "name": "_initMarginRatio",
          "type": "uint256"
        },
        {
          "internalType": "contract IInsuranceFund",
          "name": "_insuranceFund",
          "type": "address"
        }
      ],
      "name": "initialize",
      "outputs": [],
      "stateMutability": "nonpayable",
      "type": "function"
    },
    {
      "inputs": [
        {
          "internalType": "uint256",
          "name": "_initMarginRatio",
          "type": "uint256"
        },
        {
          "internalType": "uint256",
          "name": "_maintenanceMarginRatio",
          "type": "uint256"
        },
        {
          "internalType": "uint256",
          "name": "_liquidationFeeRatio",
          "type": "uint256"
        },
        {
          "internalType": "contract IInsuranceFund",
          "name": "_insuranceFund",
          "type": "address"
        }
      ],
      "name": "initialize_Fake",
      "outputs": [],
      "stateMutability": "nonpayable",
      "type": "function"
    },
    {
      "inputs": [],
      "name": "insuranceFund",
      "outputs": [
        {
          "internalType": "contract IInsuranceFund",
          "name": "",
          "type": "address"
        }
      ],
      "stateMutability": "view",
      "type": "function"
    },
    {
      "inputs": [
        {
          "internalType": "address",
          "name": "_amm",
          "type": "address"
        },
        {
          "internalType": "uint256",
          "name": "_block",
          "type": "uint256"
        }
      ],
      "name": "isInRestrictMode",
      "outputs": [
        {
          "internalType": "bool",
          "name": "",
          "type": "bool"
        }
      ],
      "stateMutability": "view",
      "type": "function"
    },
    {
      "inputs": [
        {
          "internalType": "address",
          "name": "forwarder",
          "type": "address"
        }
      ],
      "name": "isTrustedForwarder",
      "outputs": [
        {
          "internalType": "bool",
          "name": "",
          "type": "bool"
        }
      ],
      "stateMutability": "view",
      "type": "function"
    },
    {
      "inputs": [
        {
          "internalType": "contract IAmm",
          "name": "_amm",
          "type": "address"
        },
        {
          "internalType": "address",
          "name": "_trader",
          "type": "address"
        }
      ],
      "name": "liquidate",
      "outputs": [],
      "stateMutability": "nonpayable",
      "type": "function"
    },
    {
      "inputs": [
        {
          "internalType": "contract IAmm",
          "name": "_amm",
          "type": "address"
        },
        {
          "internalType": "address",
          "name": "_trader",
          "type": "address"
        },
        {
          "components": [
            {
              "internalType": "uint256",
              "name": "d",
              "type": "uint256"
            }
          ],
          "internalType": "struct Decimal.decimal",
          "name": "_quoteAssetAmountLimit",
          "type": "tuple"
        }
      ],
      "name": "liquidateWithSlippage",
      "outputs": [
        {
          "components": [
            {
              "internalType": "uint256",
              "name": "d",
              "type": "uint256"
            }
          ],
          "internalType": "struct Decimal.decimal",
          "name": "quoteAssetAmount",
          "type": "tuple"
        },
        {
          "internalType": "bool",
          "name": "isPartialClose",
          "type": "bool"
        }
      ],
      "stateMutability": "nonpayable",
      "type": "function"
    },
    {
      "inputs": [],
      "name": "liquidationFeeRatio",
      "outputs": [
        {
          "internalType": "uint256",
          "name": "d",
          "type": "uint256"
        }
      ],
      "stateMutability": "view",
      "type": "function"
    },
    {
      "inputs": [],
      "name": "maintenanceMarginRatio",
      "outputs": [
        {
          "internalType": "uint256",
          "name": "d",
          "type": "uint256"
        }
      ],
      "stateMutability": "view",
      "type": "function"
    },
    {
      "inputs": [
        {
          "internalType": "contract IAmm",
          "name": "_amm",
          "type": "address"
        }
      ],
      "name": "mockSetRestrictionMode",
      "outputs": [],
      "stateMutability": "nonpayable",
      "type": "function"
    },
    {
      "inputs": [],
      "name": "mock_getCurrentBlockNumber",
      "outputs": [
        {
          "internalType": "uint256",
          "name": "",
          "type": "uint256"
        }
      ],
      "stateMutability": "view",
      "type": "function"
    },
    {
      "inputs": [
        {
          "internalType": "uint256",
          "name": "_number",
          "type": "uint256"
        }
      ],
      "name": "mock_setBlockNumber",
      "outputs": [],
      "stateMutability": "nonpayable",
      "type": "function"
    },
    {
      "inputs": [
        {
          "internalType": "uint256",
          "name": "_timestamp",
          "type": "uint256"
        }
      ],
      "name": "mock_setBlockTimestamp",
      "outputs": [],
      "stateMutability": "nonpayable",
      "type": "function"
    },
    {
      "inputs": [
        {
          "internalType": "address",
          "name": "",
          "type": "address"
        }
      ],
      "name": "openInterestNotionalMap",
      "outputs": [
        {
          "internalType": "uint256",
          "name": "d",
          "type": "uint256"
        }
      ],
      "stateMutability": "view",
      "type": "function"
    },
    {
      "inputs": [
        {
          "internalType": "contract IAmm",
          "name": "_amm",
          "type": "address"
        },
        {
          "internalType": "enum ClearingHouse.Side",
          "name": "_side",
          "type": "uint8"
        },
        {
          "components": [
            {
              "internalType": "uint256",
              "name": "d",
              "type": "uint256"
            }
          ],
          "internalType": "struct Decimal.decimal",
          "name": "_quoteAssetAmount",
          "type": "tuple"
        },
        {
          "components": [
            {
              "internalType": "uint256",
              "name": "d",
              "type": "uint256"
            }
          ],
          "internalType": "struct Decimal.decimal",
          "name": "_leverage",
          "type": "tuple"
        },
        {
          "components": [
            {
              "internalType": "uint256",
              "name": "d",
              "type": "uint256"
            }
          ],
          "internalType": "struct Decimal.decimal",
          "name": "_baseAssetAmountLimit",
          "type": "tuple"
        }
      ],
      "name": "openPosition",
      "outputs": [],
      "stateMutability": "nonpayable",
      "type": "function"
    },
    {
      "inputs": [],
      "name": "owner",
      "outputs": [
        {
          "internalType": "address",
          "name": "",
          "type": "address"
        }
      ],
      "stateMutability": "view",
      "type": "function"
    },
    {
      "inputs": [],
      "name": "partialLiquidationRatio",
      "outputs": [
        {
          "internalType": "uint256",
          "name": "d",
          "type": "uint256"
        }
      ],
      "stateMutability": "view",
      "type": "function"
    },
    {
      "inputs": [],
      "name": "pause",
      "outputs": [],
      "stateMutability": "nonpayable",
      "type": "function"
    },
    {
      "inputs": [],
      "name": "paused",
      "outputs": [
        {
          "internalType": "bool",
          "name": "",
          "type": "bool"
        }
      ],
      "stateMutability": "view",
      "type": "function"
    },
    {
      "inputs": [
        {
          "internalType": "contract IAmm",
          "name": "_amm",
          "type": "address"
        }
      ],
      "name": "payFunding",
      "outputs": [],
      "stateMutability": "nonpayable",
      "type": "function"
    },
    {
      "inputs": [
        {
          "internalType": "contract IAmm",
          "name": "_amm",
          "type": "address"
        },
        {
          "components": [
            {
              "internalType": "uint256",
              "name": "d",
              "type": "uint256"
            }
          ],
          "internalType": "struct Decimal.decimal",
          "name": "_removedMargin",
          "type": "tuple"
        }
      ],
      "name": "removeMargin",
      "outputs": [],
      "stateMutability": "nonpayable",
      "type": "function"
    },
    {
      "inputs": [],
      "name": "renounceOwnership",
      "outputs": [],
      "stateMutability": "nonpayable",
      "type": "function"
    },
    {
      "inputs": [
        {
          "internalType": "address",
          "name": "account",
          "type": "address"
        },
        {
          "internalType": "bool",
          "name": "isProvider",
          "type": "bool"
        }
      ],
      "name": "setBackstopLiquidityProvider",
      "outputs": [],
      "stateMutability": "nonpayable",
      "type": "function"
    },
    {
      "inputs": [
        {
          "internalType": "address",
          "name": "_feePool",
          "type": "address"
        }
      ],
      "name": "setFeePool",
      "outputs": [],
      "stateMutability": "nonpayable",
      "type": "function"
    },
    {
      "inputs": [
        {
          "components": [
            {
              "internalType": "uint256",
              "name": "d",
              "type": "uint256"
            }
          ],
          "internalType": "struct Decimal.decimal",
          "name": "_liquidationFeeRatio",
          "type": "tuple"
        }
      ],
      "name": "setLiquidationFeeRatio",
      "outputs": [],
      "stateMutability": "nonpayable",
      "type": "function"
    },
    {
      "inputs": [
        {
          "components": [
            {
              "internalType": "uint256",
              "name": "d",
              "type": "uint256"
            }
          ],
          "internalType": "struct Decimal.decimal",
          "name": "_maintenanceMarginRatio",
          "type": "tuple"
        }
      ],
      "name": "setMaintenanceMarginRatio",
      "outputs": [],
      "stateMutability": "nonpayable",
      "type": "function"
    },
    {
      "inputs": [
        {
          "internalType": "address",
          "name": "newOwner",
          "type": "address"
        }
      ],
      "name": "setOwner",
      "outputs": [],
      "stateMutability": "nonpayable",
      "type": "function"
    },
    {
      "inputs": [
        {
          "components": [
            {
              "internalType": "uint256",
              "name": "d",
              "type": "uint256"
            }
          ],
          "internalType": "struct Decimal.decimal",
          "name": "_ratio",
          "type": "tuple"
        }
      ],
      "name": "setPartialLiquidationRatio",
      "outputs": [],
      "stateMutability": "nonpayable",
      "type": "function"
    },
    {
      "inputs": [
        {
          "internalType": "address",
          "name": "_whitelist",
          "type": "address"
        }
      ],
      "name": "setWhitelist",
      "outputs": [],
      "stateMutability": "nonpayable",
      "type": "function"
    },
    {
      "inputs": [
        {
          "internalType": "contract IAmm",
          "name": "_amm",
          "type": "address"
        }
      ],
      "name": "settlePosition",
      "outputs": [],
      "stateMutability": "nonpayable",
      "type": "function"
    },
    {
      "inputs": [],
      "name": "trustedForwarder",
      "outputs": [
        {
          "internalType": "address",
          "name": "",
          "type": "address"
        }
      ],
      "stateMutability": "view",
      "type": "function"
    },
    {
      "inputs": [],
      "name": "unpause",
      "outputs": [],
      "stateMutability": "nonpayable",
      "type": "function"
    },
    {
      "inputs": [],
      "name": "updateOwner",
      "outputs": [],
      "stateMutability": "nonpayable",
      "type": "function"
    },
    {
      "inputs": [],
      "name": "versionRecipient",
      "outputs": [
        {
          "internalType": "string",
          "name": "",
          "type": "string"
        }
      ],
      "stateMutability": "view",
      "type": "function"
    }
  ],
  "bytecode": "0x6080604052635611c2306101d3556127116101d45534801561002057600080fd5b5061656880620000316000396000f3fe608060405234801561001057600080fd5b50600436106102895760003560e01c80637da0a8771161015c578063a8c1b0bc116100ce578063bc5920ba11610087578063bc5920ba14610559578063cfe7110314610561578063da35a26f14610569578063e57d56361461057c578063e9a4019b14610584578063ea0a45f91461059757610289565b8063a8c1b0bc14610510578063ac06a96e14610523578063ae2e933b14610536578063b0ac5f2f1461053e578063b33dc190146102a3578063b79023031461055157610289565b806386b9d81f1161012057806386b9d81f1461049b578063893d242d146104ae5780638bedf3bb146104c15780638da5cb5b146104e257806390cf78e4146104ea5780639432665a146104fd57610289565b80637da0a8771461045d57806383acb48a146104655780638456cb591461046d578063854cff2f14610475578063862c04e31461048857610289565b806336405257116102005780635c975abb116101b95780635c975abb146103ff5780636891397b146104075780636c1274461461041a5780636c8381f81461042d578063715018a6146104425780637c845dd91461044a57610289565b8063364052571461037c5780633e09fa101461038f5780633f4ba83a146103a257806340c5dc67146103aa578063486ff0cd146103ca578063572b6c05146103df57610289565b806310b6e44b1161025257806310b6e44b146102fc57806313af40351461030f57806319db222814610322578063203b37881461033557806329c44f131461034857806330e2ae651461036957610289565b8062c141b61461028e5780630475db5a146102a3578063090f05c2146102cc57806309338383146102e15780630bdfc817146102e9575b600080fd5b6102a161029c3660046158e0565b6105aa565b005b6102b66102b13660046156c0565b6105b0565b6040516102c39190616393565b60405180910390f35b6102d461064c565b6040516102c39190616406565b6102d4610653565b6102a16102f7366004615934565b610663565b6102a161030a366004615625565b6107a9565b6102a161031d366004615625565b6107b5565b6102a1610330366004615625565b61088e565b6102a161034336600461587f565b6108e6565b61035b61035636600461573a565b610974565b6040516102c39291906163e5565b6102a16103773660046157ef565b610ad5565b6102a161038a366004615625565b610d55565b6102a161039d366004615625565b610fdb565b6102a161124d565b6103bd6103b8366004615625565b61128c565b6040516102c391906163db565b6103d26112c4565b6040516102c39190615a89565b6103f26103ed366004615625565b611353565b6040516102c391906159ef565b6103f2611368565b6103bd610415366004615625565b611371565b6102a161042836600461587f565b6113ef565b610435611465565b6040516102c3919061599e565b6102a1611474565b6103f2610458366004615679565b6114f3565b610435611516565b6102d4611526565b6102a161152d565b6102a1610483366004615625565b61156a565b6102a161049636600461587f565b6115c2565b6102a16104a93660046156c0565b611639565b6102a16104bc366004615781565b611685565b6104d46104cf3660046156ed565b611aa6565b6040516102c39291906163f6565b610435611cb8565b6102a16104f8366004615641565b611cc7565b6102a161050b3660046158e0565b611d51565b6102a161051e36600461582e565b611d57565b6102a16105313660046157ef565b6121d3565b610435612370565b6102d461054c366004615625565b612380565b610435612393565b6102a16123a3565b6102d4612466565b6102a1610577366004615910565b61246d565b6102d46124ac565b6103f2610592366004615625565b6124b3565b6103bd6105a53660046156c0565b6124c9565b6101d455565b6105b861546e565b506001600160a01b03918216600090815261019a602090815260408083209390941682526002928301815290839020835160e081018552815460c082019081528152845180840186526001830154815281840152845180840186529382015484528085019390935283519182019093526003830154815260608201526004820154608082015260059091015460a082015290565b6101d15481565b600061065d612528565b90505b90565b603354610100900460ff168061067c575061067c61252f565b8061068a575060335460ff16155b6106af5760405162461bcd60e51b81526004016106a690616067565b60405180910390fd5b603354610100900460ff161580156106da576033805460ff1961ff0019909116610100171660011790555b6001600160a01b0382166107005760405162461bcd60e51b81526004016106a690615bc5565b610708612535565b6107106125c7565b604080518082019091526005808252640312e302e360dc1b602090920191825261073d91610195916154bc565b5060408051602080820183529087905261019687905581518082018352869052610197869055815190810190915283905261019883905561019c80546001600160a01b0319166001600160a01b03841617905580156107a2576033805461ff00191690555b5050505050565b6107b28161263d565b50565b6107bd6126a4565b6098546001600160a01b039081169116146107ea5760405162461bcd60e51b81526004016106a690615e8e565b6001600160a01b0381166108105760405162461bcd60e51b81526004016106a6906162e5565b6098546001600160a01b038281169116141561083e5760405162461bcd60e51b81526004016106a6906161f0565b6099546001600160a01b038281169116141561086c5760405162461bcd60e51b81526004016106a690615cec565b609980546001600160a01b0319166001600160a01b0392909216919091179055565b6108966126a4565b6098546001600160a01b039081169116146108c35760405162461bcd60e51b81526004016106a690615e8e565b61019d80546001600160a01b0319166001600160a01b0392909216919091179055565b6108ee6126a4565b6098546001600160a01b0390811691161461091b5760405162461bcd60e51b81526004016106a690615e8e565b805161019881905560408051602081019091529081527f6f825f18b787836f7cf974799b160538ab237aa0d14af3611fa69683a40c6d229061095c906126ae565b6040516109699190616406565b60405180910390a150565b61097c61553a565b6101305460009060ff166109a25760405162461bcd60e51b81526004016106a69061635c565b610130805460ff191690556109b561546e565b6109bf86866105b0565b90506109cb86866126b2565b90935091506109d861553a565b826109e35784610a05565b60408051602081019091526101d1548152610a0590869063ffffffff612d7816565b90506000610a1683600001516126ae565b1315610a5157610a25816126ae565b610a2e856126ae565b1015610a4c5760405162461bcd60e51b81526004016106a690615f8a565b610abb565b6000610a6083600001516126ae565b128015610a865750610a80610a73612da4565b829063ffffffff612dbf16565b60000b15155b15610abb57610a94816126ae565b610a9d856126ae565b1115610abb5760405162461bcd60e51b81526004016106a69061616a565b5050610130805460ff191660011790559094909350915050565b60cc5460ff1615610af85760405162461bcd60e51b81526004016106a690615e23565b6101305460ff16610b1b5760405162461bcd60e51b81526004016106a69061635c565b610130805460ff19169055610b31826001612df0565b6000826001600160a01b031663fdf262b76040518163ffffffff1660e01b815260040160206040518083038186803b158015610b6c57600080fd5b505afa158015610b80573d6000803e3d6000fd5b505050506040513d601f19601f82011682018060405250810190610ba49190615863565b9050610bbe81610bb93685900385018561587f565b612f7d565b6000610bc86126a4565b9050610bd261546e565b610bdc85836105b0565b9050610be661553a565b610c0f600019610c03610bfe3689900389018961587f565b612fa7565b9063ffffffff61300b16565b9050610c1961553a565b610c2161553a565b610c2961553a565b610c3161553a565b610c3c8a878761302d565b9350935093509350610c4d836126ae565b15610c6a5760405162461bcd60e51b81526004016106a690615b60565b60208601849052606086018190526000610c9c610c978c8a610c92898963ffffffff6130f016565b613113565b6126ae565b1215610cba5760405162461bcd60e51b81526004016106a690615f12565b610cc58a8888613221565b610cde8888610cd9368d90038d018d61587f565b61328b565b896001600160a01b0316876001600160a01b03167f1c822fe92555a7e529201522fbd166b03a55712d945737f4cc5c1e18199caa7b610d1c886126ae565b610d25866126ae565b604051610d33929190615a7b565b60405180910390a35050610130805460ff191660011790555050505050505050565b6101305460ff16610d785760405162461bcd60e51b81526004016106a69061635c565b610130805460ff19169055610d8e816000612df0565b6000610d986126a4565b9050610da261546e565b610dac83836105b0565b9050610dbb816000015161339a565b610dc583836133bf565b610dcd61553a565b836001600160a01b031663ec2c0e636040518163ffffffff1660e01b815260040160206040518083038186803b158015610e0657600080fd5b505afa158015610e1a573d6000803e3d6000fd5b505050506040513d601f19601f82011682018060405250810190610e3e919061589a565b9050610e4861553a565b610e51826126ae565b610e6057506020820151610ee7565b610e6861553a565b610ec68460200151610eba610eac610e97610e868960000151613479565b60408a01519063ffffffff6134a716565b610ea088612fa7565b9063ffffffff6134ca16565b87519063ffffffff61353f16565b9063ffffffff61356216565b90506000610ed3826126ae565b1315610ee557610ee281613479565b91505b505b6000610ef2826126ae565b1115610f7357610f73856001600160a01b031663fdf262b76040518163ffffffff1660e01b815260040160206040518083038186803b158015610f3457600080fd5b505afa158015610f48573d6000803e3d6000fd5b505050506040513d601f19601f82011682018060405250810190610f6c9190615863565b85836135cd565b836001600160a01b0316856001600160a01b03167fba70e8457921bdd49042182753cb6259c62f923e2b64216b68372cd85ec3af6c610fb1846126ae565b604051610fbe9190616406565b60405180910390a35050610130805460ff19166001179055505050565b610fe6816001612df0565b610fee61553a565b816001600160a01b031663ed83d79c6040518163ffffffff1660e01b8152600401602060405180830381600087803b15801561102957600080fd5b505af115801561103d573d6000803e3d6000fd5b505050506040513d601f19601f820116820180604052508101906110619190615600565b6001600160a01b038316600090815261019a6020526040902090915060010161109961108c84611371565b839063ffffffff6136fc16565b81546001810183556000928352602090922090519101556110b861553a565b826001600160a01b0316632f8488596040518163ffffffff1660e01b815260040160206040518083038186803b1580156110f157600080fd5b505afa158015611105573d6000803e3d6000fd5b505050506040513d601f19601f820116820180604052508101906111299190615600565b905061113361553a565b611143838363ffffffff61353f16565b90506000846001600160a01b031663fdf262b76040518163ffffffff1660e01b815260040160206040518083038186803b15801561118057600080fd5b505afa158015611194573d6000803e3d6000fd5b505050506040513d601f19601f820116820180604052508101906111b89190615863565b905060006111c5836126ae565b121561123b5761019c546001600160a01b031663252978b8826111e785613479565b6040518363ffffffff1660e01b81526004016112049291906159fa565b600060405180830381600087803b15801561121e57600080fd5b505af1158015611232573d6000803e3d6000fd5b505050506107a2565b6107a28161124884613479565b61371f565b6112556126a4565b6098546001600160a01b039081169116146112825760405162461bcd60e51b81526004016106a690615e8e565b61128a61376b565b565b61129461553a565b506001600160a01b038116600090815261019b60209081526040918290208251918201909252905481525b919050565b610195805460408051602060026001851615610100026000190190941693909304601f8101849004840282018401909252818152929183018282801561134b5780601f106113205761010080835404028352916020019161134b565b820191906000526020600020905b81548152906001019060200180831161132e57829003601f168201915b505050505081565b610194546001600160a01b0390811691161490565b60cc5460ff1690565b61137961553a565b6001600160a01b038216600090815261019a602052604090206001015480156113e9576001600160a01b038316600090815261019a60205260409020600101805460001983019081106113c857fe5b60009182526020918290206040805193840190520154815291506112bf9050565b50919050565b6113f76126a4565b6098546001600160a01b039081169116146114245760405162461bcd60e51b81526004016106a690615e8e565b805161019781905560408051602081019091529081527fce738a6382894b012492e42016c4321ac69da80c4827f80a2e0907585818ac319061095c906126ae565b6099546001600160a01b031690565b61147c6126a4565b6098546001600160a01b039081169116146114a95760405162461bcd60e51b81526004016106a690615e8e565b6098546040516000916001600160a01b0316907f8be0079c531659141344cd1fd0a4f28419497f9722a3daafe3b4186f6b6457e0908390a3609880546001600160a01b0319169055565b6001600160a01b038216600090815261019a602052604090205481145b92915050565b610194546001600160a01b031681565b6101975481565b6115356126a4565b6098546001600160a01b039081169116146115625760405162461bcd60e51b81526004016106a690615e8e565b61128a6137d7565b6115726126a4565b6098546001600160a01b0390811691161461159f5760405162461bcd60e51b81526004016106a690615e8e565b61019e80546001600160a01b0319166001600160a01b0392909216919091179055565b6115ca6126a4565b6098546001600160a01b039081169116146115f75760405162461bcd60e51b81526004016106a690615e8e565b6000611611611604613830565b839063ffffffff612dbf16565b60000b13156116325760405162461bcd60e51b81526004016106a690616026565b516101d155565b6101305460ff1661165c5760405162461bcd60e51b81526004016106a69061635c565b610130805460ff1916905561167182826126b2565b5050610130805460ff191660011790555050565b60cc5460ff16156116a85760405162461bcd60e51b81526004016106a690615e23565b6101305460ff166116cb5760405162461bcd60e51b81526004016106a69061635c565b610130805460ff191690556116e1856001612df0565b6000856001600160a01b031663fdf262b76040518163ffffffff1660e01b815260040160206040518083038186803b15801561171c57600080fd5b505afa158015611730573d6000803e3d6000fd5b505050506040513d601f19601f820116820180604052508101906117549190615863565b90506117608185612f7d565b61176983613854565b61179f6117878461177b610bfe613830565b9063ffffffff61387916565b604080516020810190915261019654815260016138f3565b6117a88661393a565b60006117b26126a4565b90506117bc61554d565b60006117d16117cb8a856105b0565b516126ae565b9050600081156117e25760006117e5565b60015b9050808061181957508860018111156117fa57fe5b6000831361180957600161180c565b60005b600181111561181757fe5b145b156118415761183a8a8a6118338b8b63ffffffff612d7816565b898b613997565b9250611854565b6118518a8a868b8b8b6000613bc1565b92505b6118638a858560000151613221565b8015801561187b5750825151611878906126ae565b15155b156118a5576118a561188d8b866124c9565b604080516020810190915261019754815260016138f3565b6118b283604001516126ae565b156118cf5760405162461bcd60e51b81526004016106a690615c23565b60006118de8460c001516126ae565b1315611901576118fc8585306118f78760c00151613479565b613e0f565b611928565b60006119108460c001516126ae565b1215611928576119288585610cd98660c00151613479565b505061193261553a565b611941838a8460200151613f41565b905060006119b98a6001600160a01b031663dc76fabc6040518163ffffffff1660e01b815260040160206040518083038186803b15801561198157600080fd5b505afa158015611995573d6000803e3d6000fd5b505050506040513d601f19601f82011682018060405250810190610c97919061589a565b905060006119ca84608001516126ae565b90508a6001600160a01b0316856001600160a01b03167f4c7b764f428c13bbea8cc8da90ebe6eef4dafeb27a4e3d9041d64208c47ca7c2611a128760000151602001516126ae565b611a1f88602001516126ae565b611a2c89606001516126ae565b611a35896126ae565b8a5151611a41906126ae565b611a4e8c60a001516126ae565b611a5b8d60e001516126ae565b611a688e604001516126ae565b60008d8d604051611a839b9a9998979695949392919061640f565b60405180910390a35050610130805460ff19166001179055505050505050505050565b611aae61553a565b611ab661553a565b611abe61546e565b611ac886866105b0565b9050611ad261553a565b8151611add90613479565b9050611ae8816126ae565b15611cae57600080611afd84600001516126ae565b129050600081611b0e576000611b11565b60015b90506001876002811115611b2157fe5b1415611bac576040516337d2176f60e11b81526001600160a01b038a1690636fa42ede90611b559084908790600401615a14565b60206040518083038186803b158015611b6d57600080fd5b505afa158015611b81573d6000803e3d6000fd5b505050506040513d601f19601f82011682018060405250810190611ba5919061589a565b9550611c7d565b6000876002811115611bba57fe5b1415611bee5760405163da0c592760e01b81526001600160a01b038a169063da0c592790611b559084908790600401615a14565b611bf661553a565b896001600160a01b031663468f02d26040518163ffffffff1660e01b815260040160206040518083038186803b158015611c2f57600080fd5b505afa158015611c43573d6000803e3d6000fd5b505050506040513d601f19601f82011682018060405250810190611c67919061589a565b9050611c79848263ffffffff612d7816565b9650505b81611c9857611c938460400151610ea088612fa7565b611ca9565b611ca986610ea08660400151612fa7565b945050505b5050935093915050565b6098546001600160a01b031690565b611ccf6126a4565b6098546001600160a01b03908116911614611cfc5760405162461bcd60e51b81526004016106a690615e8e565b6001600160a01b03821660008181526101d26020526040808220805460ff191685151590811790915590519092917fea46bd0a90ba772a1dbffd4f585e1418c095cb5f70177a38f6eeadf26046e8a991a35050565b6101d355565b60cc5460ff1615611d7a5760405162461bcd60e51b81526004016106a690615e23565b6101305460ff16611d9d5760405162461bcd60e51b81526004016106a69061635c565b610130805460ff19169055611db3826001612df0565b611dbc8261393a565b6000611dc66126a4565b9050611dd061554d565b611dd861546e565b611de285846105b0565b9050600080611df483600001516126ae565b13611e00576001611e03565b60005b9050856001600160a01b031663130234cf82611e228560000151613479565b6040518363ffffffff1660e01b8152600401611e3f929190615a14565b60206040518083038186803b158015611e5757600080fd5b505afa158015611e6b573d6000803e3d6000fd5b505050506040513d601f19601f82011682018060405250810190611e8f91906156a4565b8015611ec557506000611ec0611ea3613830565b60408051602081019091526101d15481529063ffffffff612dbf16565b60000b125b15611fd157611ed261553a565b60408051602081019091526101d154815283516001600160a01b0389169163da0c5927918591611f1091611f0b9163ffffffff61417116565b613479565b6040518363ffffffff1660e01b8152600401611f2d929190615a14565b60206040518083038186803b158015611f4557600080fd5b505afa158015611f59573d6000803e3d6000fd5b505050506040513d601f19601f82011682018060405250810190611f7d919061589a565b9050611fba876000611f9286600001516126ae565b13611f9e576000611fa1565b60015b8784611fab613830565b611fb3612da4565b6001613bc1565b9350611fcb87868660000151613221565b50611fdf565b611fdc8685876141e2565b92505b611fec83604001516126ae565b156120095760405162461bcd60e51b81526004016106a690615c23565b6000866001600160a01b031663fdf262b76040518163ffffffff1660e01b815260040160206040518083038186803b15801561204457600080fd5b505afa158015612058573d6000803e3d6000fd5b505050506040513d601f19601f8201168201806040525081019061207c9190615863565b90506120908186610cd98760c00151613479565b50505061209b61553a565b6120aa83868460200151613f41565b905060006120ea866001600160a01b031663dc76fabc6040518163ffffffff1660e01b815260040160206040518083038186803b15801561198157600080fd5b905060006120fb84608001516126ae565b9050866001600160a01b0316856001600160a01b03167f4c7b764f428c13bbea8cc8da90ebe6eef4dafeb27a4e3d9041d64208c47ca7c26121438760000151602001516126ae565b61215088602001516126ae565b61215d89606001516126ae565b612166896126ae565b8a5151612172906126ae565b61217f8c60a001516126ae565b61218c8d60e001516126ae565b6121998e604001516126ae565b60008d8d6040516121b49b9a9998979695949392919061640f565b60405180910390a35050610130805460ff191660011790555050505050565b60cc5460ff16156121f65760405162461bcd60e51b81526004016106a690615e23565b6101305460ff166122195760405162461bcd60e51b81526004016106a69061635c565b610130805460ff1916905561222f826001612df0565b6000826001600160a01b031663fdf262b76040518163ffffffff1660e01b815260040160206040518083038186803b15801561226a57600080fd5b505afa15801561227e573d6000803e3d6000fd5b505050506040513d601f19601f820116820180604052508101906122a29190615863565b90506122b781610bb93685900385018561587f565b60006122c16126a4565b90506122cb61546e565b6122d585836105b0565b90506122fa6122e93686900386018661587f565b60208301519063ffffffff61437c16565b602082015261230a858383613221565b61231f8383306118f73689900389018961587f565b6001600160a01b038086169083167f1c822fe92555a7e529201522fbd166b03a55712d945737f4cc5c1e18199caa7b612360610c973689900389018961587f565b6000604051610fbe929190615a7b565b61019d546001600160a01b031681565b6101996020526000908152604090205481565b61019c546001600160a01b031681565b6099546001600160a01b03166123cb5760405162461bcd60e51b81526004016106a6906161a1565b6123d36126a4565b6099546001600160a01b039081169116146124005760405162461bcd60e51b81526004016106a690615c7c565b6099546098546040516001600160a01b0392831692909116907f8be0079c531659141344cd1fd0a4f28419497f9722a3daafe3b4186f6b6457e090600090a360998054609880546001600160a01b03199081166001600160a01b03841617909155169055565b6101985481565b61247561439f565b60408051602081019091528290526101969190915561019c80546001600160a01b0319166001600160a01b03909216919091179055565b6101965481565b6101d26020526000908152604090205460ff1681565b6124d161553a565b6124d961546e565b6124e384846105b0565b90506124f2816000015161339a565b6124fa61553a565b61250261553a565b61250e8686600061441d565b9150915061251e868484846144ae565b9695505050505050565b6101d45490565b303b1590565b603354610100900460ff168061254e575061254e61252f565b8061255c575060335460ff16155b6125785760405162461bcd60e51b81526004016106a690616067565b603354610100900460ff161580156125a3576033805460ff1961ff0019909116610100171660011790555b6125ab61439f565b6125b36144e8565b80156107b2576033805461ff001916905550565b603354610100900460ff16806125e057506125e061252f565b806125ee575060335460ff16155b61260a5760405162461bcd60e51b81526004016106a690616067565b603354610100900460ff16158015612635576033805460ff1961ff0019909116610100171660011790555b6125b3614566565b6000612647612528565b6001600160a01b038316600090815261019a602052604090819020829055519091507f97f920fec5d17ec336df7ad438ca8a76dcfd206ddc1d19b263b6f3e6ba3c4f319061269890849084906159d6565b60405180910390a15050565b600061065d6145f6565b5190565b6126ba61553a565b60006126c7846001612df0565b6126cf61553a565b6126d985856124c9565b9050846001600160a01b0316639e0103626040518163ffffffff1660e01b815260040160206040518083038186803b15801561271457600080fd5b505afa158015612728573d6000803e3d6000fd5b505050506040513d601f19601f8201168201806040525081019061274c91906156a4565b156127885761275961553a565b61276586866002614628565b9050600061277c610c97838563ffffffff61467c16565b1315612786578091505b505b60408051602081019091526101975481526127a690829060006138f3565b6127ae61554d565b6127b661553a565b6127be61553a565b6127c661553a565b6127ce61553a565b60008a6001600160a01b031663fdf262b76040518163ffffffff1660e01b815260040160206040518083038186803b15801561280957600080fd5b505afa15801561281d573d6000803e3d6000fd5b505050506040513d601f19601f820116820180604052508101906128419190615863565b90506000612854610c978d8d6000614628565b6040805160208101909152610198548152909150612871906126ae565b8113801561288c57506000612887611ea3613830565b60000b125b80156128b0575060408051602081019091526101d15481526128ad906126ae565b15155b15612a47576128bd61546e565b6128c78d8d6105b0565b90506128d161553a565b8d6001600160a01b031663da0c592760006128ef85600001516126ae565b136128fb5760016128fe565b60005b60408051602081019091526101d1548152855161292591611f0b919063ffffffff61417116565b6040518363ffffffff1660e01b8152600401612942929190615a14565b60206040518083038186803b15801561295a57600080fd5b505afa15801561296e573d6000803e3d6000fd5b505050506040513d601f19601f82011682018060405250810190612992919061589a565b90506129c08e60006129a785600001516126ae565b136129b35760006129b6565b60015b8f84611fab613830565b60408051602080820190925261019854815290820151919a506129e9919063ffffffff612d7816565b97506129fc88600263ffffffff61469f16565b9550612a0e888763ffffffff6130f016565b895160200151909550612a27908963ffffffff6130f016565b8951602001528851612a3c908f908f90613221565b60019a505050612b99565b612a518c8c6105b0565b602001519550612a698c8c612a64612da4565b6141e2565b9650612a7361553a565b612a808860c00151613479565b604080516020808201909252610198548152908a0151919250612abc91600291612ab0919063ffffffff612d7816565b9063ffffffff61469f16565b9450612ac661553a565b506040880151612ad5826126ae565b612ade876126ae565b1115612b0d57612af4868363ffffffff6130f016565b9650612b06818863ffffffff61437c16565b9050612b20565b612b1d828763ffffffff6130f016565b91505b6000612b2b826126ae565b1115612b81576101d26000612b3e6126a4565b6001600160a01b0316815260208101919091526040016000205460ff16612b775760405162461bcd60e51b81526004016106a690615cc3565b612b8184826146c1565b6000612b8c836126ae565b1115612b96578194505b50505b6000612ba4846126ae565b1115612bb457612bb4828461371f565b612bc682612bc06126a4565b8661328b565b612bcf8c61263d565b8b6001600160a01b03168b6001600160a01b03167f5225638a979dd133f201045ab4169ec2189874d864f2b5a10be72ac6e4b421b4612c118a602001516126ae565b612c1e8b606001516147d9565b612c27896126ae565b612c2f6126a4565b612c388c6126ae565b604051612c4995949392919061645d565b60405180910390a350505050506000612c94886001600160a01b031663dc76fabc6040518163ffffffff1660e01b815260040160206040518083038186803b15801561198157600080fd5b90506000612ca584608001516126ae565b9050886001600160a01b0316886001600160a01b03167f4c7b764f428c13bbea8cc8da90ebe6eef4dafeb27a4e3d9041d64208c47ca7c2612ced8760000151602001516126ae565b612cfa88602001516126ae565b612d0789606001516126ae565b895151600090612d16906126ae565b612d238c60a001516126ae565b612d308d60e001516126ae565b612d3d8e604001516126ae565b612d468e6126ae565b8d8d604051612d5f9b9a9998979695949392919061640f565b60405180910390a3505050602001519250509250929050565b612d8061553a565b612d8861553a565b82518451612d9b9163ffffffff6147eb16565b81529392505050565b612dac61553a565b5060408051602081019091526000815290565b805182516000911015612dd457506001611510565b815183511015612de75750600019611510565b50600092915050565b61019c546040516301dd29e160e21b81526001600160a01b0390911690630774a78490612e2190859060040161599e565b60206040518083038186803b158015612e3957600080fd5b505afa158015612e4d573d6000803e3d6000fd5b505050506040513d601f19601f82011682018060405250810190612e7191906156a4565b612e8d5760405162461bcd60e51b81526004016106a690615ae0565b816001600160a01b031663fcfff16f6040518163ffffffff1660e01b815260040160206040518083038186803b158015612ec657600080fd5b505afa158015612eda573d6000803e3d6000fd5b505050506040513d601f19601f82011682018060405250810190612efe91906156a4565b15158115151481612f32576040518060400160405280600b81526020016a30b6b69034b99037b832b760a91b815250612f5a565b6040518060400160405280600e81526020016d185b5b481dd85cc818db1bdcd95960921b8152505b90612f785760405162461bcd60e51b81526004016106a69190615a89565b505050565b612f8782826147f9565b612fa35760405162461bcd60e51b81526004016106a690615bf5565b5050565b612faf61553a565b8180600001516001600160ff1b0310156040518060600160405280603381526020016165006033913990612ff65760405162461bcd60e51b81526004016106a69190615a89565b50506040805160208101909152915182525090565b61301361553a565b61301b61553a565b8351612d9b908463ffffffff61487716565b61303561553a565b61303d61553a565b61304561553a565b61304d61553a565b61305687611371565b905061306586600001516126ae565b156130965785516060870151613093919061308790849063ffffffff61467c16565b9063ffffffff61353f16565b91505b61309e61553a565b60208701516130b790610eba888663ffffffff61467c16565b905060006130c4826126ae565b12156130da576130d381613479565b93506130e6565b6130e381613479565b94505b5093509350935093565b6130f861553a565b61310061553a565b82518451612d9b9163ffffffff6148e216565b61311b61553a565b61312361546e565b61312d85856105b0565b905061313761553a565b61313f61553a565b61314b8787600161441d565b9150915061315761553a565b613167838763ffffffff61356216565b905061317161553a565b600061317c856126ae565b136131875781613190565b61319087612fa7565b905061319a61553a565b60006131a987600001516126ae565b136131dd5760408051602081019091526101965481526131d8906131cc86612fa7565b9063ffffffff61417116565b6131ff565b60408051602081018252610196548152908701516131ff91906131cc90612fa7565b9050613211828263ffffffff61467c16565b96505050505050505b9392505050565b6001600160a01b03928316600090815261019a602090815260408083209490951682526002938401815290849020825151815590820151516001820155928101515191830191909155606081015151600383015560a0810151600583015560800151600490910155565b61329361553a565b61329d8430614924565b90506132a8826126ae565b6132b1826126ae565b1015613389576132bf61553a565b6132cf838363ffffffff6130f016565b6001600160a01b038616600090815261019b602090815260409182902082519182019092529054815290915061330b908263ffffffff61437c16565b6001600160a01b03808716600090815261019b602052604090819020925190925561019c5491516304a52f1760e31b815291169063252978b89061335590889085906004016159fa565b600060405180830381600087803b15801561336f57600080fd5b505af1158015613383573d6000803e3d6000fd5b50505050505b6133948484846135cd565b50505050565b6133a3816126ae565b6107b25760405162461bcd60e51b81526004016106a690615b07565b6040518060c001604052806133d2612da4565b81526020016133df612da4565b81526020016133ec612da4565b81526020016133f9612da4565b81526020016000815260200161340d612528565b90526001600160a01b03928316600090815261019a60209081526040808320949095168252600293840181529084902082515181559082015151600182015592810151519183019190915560608101515160038301556080810151600483015560a00151600590910155565b61348161553a565b61348961553a565b82516000131561349f5782516000038152611510565b915182525090565b6134af61553a565b6134b761553a565b82518451612d9b9163ffffffff6149b116565b6134d261553a565b8180600001516001600160ff1b03101560405180606001604052806033815260200161650060339139906135195760405162461bcd60e51b81526004016106a69190615a89565b5061352261553a565b835185516135359163ffffffff6149bf16565b8152949350505050565b61354761553a565b61354f61553a565b82518451612d9b9163ffffffff614a0516565b61356a61553a565b8180600001516001600160ff1b03101560405180606001604052806033815260200161650060339139906135b15760405162461bcd60e51b81526004016106a69190615a89565b506135ba61553a565b835185516135359163ffffffff614a1316565b6135d683614a59565b6135de61553a565b6135e88484614924565b905060006135f685846147f9565b905060006060866001600160a01b031663a9059cbb60e01b87856040516024016136219291906159d6565b60408051601f198184030181529181526020820180516001600160e01b03166001600160e01b031990941693909317909252905161365f9190615982565b6000604051808303816000865af19150503d806000811461369c576040519150601f19603f3d011682016040523d82523d6000602084013e6136a1565b606091505b50915091508180156136cb5750805115806136cb5750808060200190518101906136cb91906156a4565b6136e75760405162461bcd60e51b81526004016106a690615b8e565b6136f387878587614aa3565b50505050505050565b61370461553a565b61370c61553a565b82518451612d9b9163ffffffff614a1316565b61372761553a565b6137318330614924565b61019c54909150612f789084906001600160a01b0316613750856126ae565b613759856126ae565b106137645784613766565b835b6135cd565b60cc5460ff1661378d5760405162461bcd60e51b81526004016106a690615b32565b60cc805460ff191690557f5db9ee0a495bf2e6ff9c91a7834c1ba4fdd244a5e8aa4e537bd38aeae4b073aa6137c06126a4565b6040516137cd919061599e565b60405180910390a1565b60cc5460ff16156137fa5760405162461bcd60e51b81526004016106a690615e23565b60cc805460ff191660011790557f62e78cea01bee320cd4e420270b5ea74000d11b0c9f74754ebdbfc544b05a2586137c06126a4565b61383861553a565b604051806020016040528061384d6012614aea565b9052905090565b61385d816126ae565b6107b25760405162461bcd60e51b81526004016106a690616002565b61388161553a565b8180600001516001600160ff1b03101560405180606001604052806033815260200161650060339139906138c85760405162461bcd60e51b81526004016106a69190615a89565b506138d161553a565b6138ea6138dd85612fa7565b869063ffffffff614af316565b95945050505050565b6000613908610c97858563ffffffff6134ca16565b905081613918576000811261391e565b60008112155b6133945760405162461bcd60e51b81526004016106a690615dab565b6000613944612528565b6001600160a01b038316600090815261019a6020526040902054909150811415612fa35780613975836102b16126a4565b60a001511415612fa35760405162461bcd60e51b81526004016106a690615d74565b61399f61554d565b60006139a96126a4565b90506139b361546e565b6139bd88836105b0565b90506139cd888888886000614b16565b60608401526139da61553a565b606084015182516139f09163ffffffff6136fc16565b9050613a04896139ff89612fa7565b614bff565b61019e546001600160a01b03848116911614613ae457613a2261553a565b896001600160a01b031663113773946040518163ffffffff1660e01b815260040160206040518083038186803b158015613a5b57600080fd5b505afa158015613a6f573d6000803e3d6000fd5b505050506040513d601f19601f82011682018060405250810190613a93919061589a565b90506000613aa0826126ae565b1115613ae2576000613ac182613ab585613479565b9063ffffffff612dbf16565b60000b1315613ae25760405162461bcd60e51b81526004016106a6906160fc565b505b613aec61553a565b613aff610bfe898863ffffffff6134a716565b9050613b0961553a565b613b1161553a565b613b1961553a565b613b248d878661302d565b93509350509250613b3361553a565b613b3f8e896000611aa6565b6020808c018f815260e08d0183905260c0808e018a905260808e018890526040805191820181528b825292810189905290518b83015193955090935090830191613b8e9163ffffffff61437c16565b815260200183815260200188608001518152602001613bab612528565b9052895250969c9b505050505050505050505050565b613bc961554d565b613bd161553a565b613be1868663ffffffff612d7816565b9050613beb61553a565b613bf361553a565b613bff8b8a6000611aa6565b91509150613c0b61554d565b613c14846126ae565b613c1d846126ae565b1115613def57613c368c6139ff600019610c0388612fa7565b613c3e61546e565b613c488d8c6105b0565b9050613c578d8d878b8b614b16565b60608301528051613c67906126ae565b15613c9f57613c99613c7c8260000151613479565b61177b613c8c8560600151613479565b869063ffffffff61417116565b60a08301525b613ca761553a565b613caf61553a565b613cbe8f848660a0015161302d565b6080880191909152604087019190915260a08601519193509150613ce990869063ffffffff61467c16565b60e085015260208401879052613cfd61553a565b6000613d0c85600001516126ae565b13613d3557613d308560200151610ea0898860e0015161356290919063ffffffff16565b613d5a565b613d5a8560e00151613d4e8760200151610ea08b612fa7565b9063ffffffff61467c16565b90506000613d67826126ae565b13613d845760405162461bcd60e51b81526004016106a690615edb565b6040518060c00160405280613daa876060015187600001516136fc90919063ffffffff16565b8152602001848152602001613dbe83613479565b815260200183815260200185608001518152602001613ddb612528565b9052855250929650613e0495505050505050565b613dfd8c8c8c8c8c8c614d32565b9450505050505b979650505050505050565b613e1884614a59565b613e2061553a565b613e2a8584614924565b90506000613e3886846147f9565b905060006060876001600160a01b03166323b872dd60e01b888886604051602401613e65939291906159b2565b60408051601f198184030181529181526020820180516001600160e01b03166001600160e01b0319909416939093179092529051613ea39190615982565b6000604051808303816000865af19150503d8060008114613ee0576040519150601f19603f3d011682016040523d82523d6000602084013e613ee5565b606091505b5091509150818015613f0f575080511580613f0f575080806020019051810190613f0f91906156a4565b613f2b5760405162461bcd60e51b81526004016106a690615e4d565b613f3788878587614aa3565b5050505050505050565b613f4961553a565b613f5161553a565b613f5961553a565b604051636226795560e01b81526001600160a01b03861690636226795590613f859087906004016163db565b604080518083038186803b158015613f9c57600080fd5b505afa158015613fb0573d6000803e3d6000fd5b505050506040513d601f19601f82011682018060405250810190613fd491906158b5565b91509150600080613fe4846126ae565b119050600080613ff3846126ae565b1190508180613fff5750805b15614166576000876001600160a01b031663fdf262b76040518163ffffffff1660e01b815260040160206040518083038186803b15801561403f57600080fd5b505afa158015614053573d6000803e3d6000fd5b505050506040513d601f19601f820116820180604052508101906140779190615863565b9050811561409a5761019c5461409a9082908b906001600160a01b031687613e0f565b821561414a5761019d546001600160a01b03166140c95760405162461bcd60e51b81526004016106a690616236565b61019d546140e49082908b906001600160a01b031688613e0f565b61019d54604051630a8d9b6760e01b81526001600160a01b0390911690630a8d9b679061411790849089906004016159fa565b600060405180830381600087803b15801561413157600080fd5b505af1158015614145573d6000803e3d6000fd5b505050505b61415a858563ffffffff61437c16565b9550505050505061321a565b505050509392505050565b61417961553a565b8180600001516001600160ff1b03101560405180606001604052806033815260200161650060339139906141c05760405162461bcd60e51b81526004016106a69190615a89565b506141c961553a565b6138ea6141d585612fa7565b869063ffffffff61353f16565b6141ea61554d565b6141f261546e565b6141fc85856105b0565b905061420b816000015161339a565b61421361553a565b61421f86866000611aa6565b91505061422a61553a565b61423261553a565b61423a61553a565b61424589868661302d565b50875192955090935091506142629060001963ffffffff61300b16565b606087015260a08601849052604086018290526080860181905261428b600019610c0385612fa7565b60c087015284516001600160a01b038a169063d71ec2ad906000906142af906126ae565b136142bb5760016142be565b60005b87516142c990613479565b8a6040518463ffffffff1660e01b81526004016142e893929190615a30565b602060405180830381600087803b15801561430257600080fd5b505af1158015614316573d6000803e3d6000fd5b505050506040513d601f19601f8201168201806040525081019061433a919061589a565b60208701526040850151614366908a906139ff9060001990610c0390610eba8a8963ffffffff61356216565b61437089896133bf565b50505050509392505050565b61438461553a565b61438c61553a565b82518451612d9b9163ffffffff614f1516565b603354610100900460ff16806143b857506143b861252f565b806143c6575060335460ff16155b6143e25760405162461bcd60e51b81526004016106a690616067565b603354610100900460ff1615801561440d576033805460ff1961ff0019909116610100171660011790555b614415614f3a565b6125b3614fbb565b61442561553a565b61442d61553a565b61443561553a565b61443d61553a565b61444987876000611aa6565b9150915061445561553a565b61445d61553a565b61446989896001611aa6565b91509150614476816126ae565b61447f846126ae565b13600088600181111561448e57fe5b141461449b57808261449e565b82845b909a909950975050505050505050565b6144b661553a565b6144be61553a565b6144c661553a565b6144d187878761302d565b505091509150613e048461177b83610ea086612fa7565b603354610100900460ff1680614501575061450161252f565b8061450f575060335460ff16155b61452b5760405162461bcd60e51b81526004016106a690616067565b603354610100900460ff16158015614556576033805460ff1961ff0019909116610100171660011790555b61455e614f3a565b6125b3615095565b603354610100900460ff168061457f575061457f61252f565b8061458d575060335460ff16155b6145a95760405162461bcd60e51b81526004016106a690616067565b603354610100900460ff161580156145d4576033805460ff1961ff0019909116610100171660011790555b610130805460ff1916600117905580156107b2576033805461ff001916905550565b60006018361080159061460d575061460d33611353565b15614621575060131936013560601c610660565b5033610660565b61463061553a565b61463861546e565b61464285856105b0565b9050614651816000015161339a565b61465961553a565b61466161553a565b61466c878787611aa6565b91509150613e04878483856144ae565b61468461553a565b61468c61553a565b82518451612d9b9163ffffffff6149bf16565b6146a761553a565b6146af61553a565b8351612d9b908463ffffffff61512116565b6146c961553a565b506001600160a01b038216600090815261019b60209081526040918290208251918201909252905481526146fc826126ae565b614705826126ae565b111561473d5761471b818363ffffffff6130f016565b6001600160a01b038416600090815261019b6020526040902090519055612f78565b61019c546001600160a01b031663252978b884614760858563ffffffff6130f016565b6040518363ffffffff1660e01b815260040161477d9291906159fa565b600060405180830381600087803b15801561479757600080fd5b505af11580156147ab573d6000803e3d6000fd5b505050506147b7612da4565b6001600160a01b038416600090815261019b6020526040902090519055505050565b60006147e482613479565b5192915050565b600061321a83836012615163565b60008061480584615181565b9050601281106148435761483b61482382601263ffffffff6148e216565b600a0a61482f856126ae565b9063ffffffff61526516565b915050611510565b61486f61485760128363ffffffff6148e216565b600a0a614863856126ae565b9063ffffffff61512116565b949350505050565b60008261488657506000611510565b8260001914801561489a5750600160ff1b82145b156148b75760405162461bcd60e51b81526004016106a6906160b5565b828202828482816148c457fe5b051461321a5760405162461bcd60e51b81526004016106a6906160b5565b600061321a83836040518060400160405280601e81526020017f536166654d6174683a207375627472616374696f6e206f766572666c6f77000081525061529f565b61492c61553a565b61321a83846001600160a01b03166370a08231856040518263ffffffff1660e01b815260040161495c919061599e565b60206040518083038186803b15801561497457600080fd5b505afa158015614988573d6000803e3d6000fd5b505050506040513d601f19601f820116820180604052508101906149ac91906158f8565b6152cb565b600061321a8383601261535d565b60008183038183128015906149d45750838113155b806149e957506000831280156149e957508381135b61321a5760405162461bcd60e51b81526004016106a6906162a1565b600061321a8383601261537c565b6000828201818312801590614a285750838112155b80614a3d5750600083128015614a3d57508381125b61321a5760405162461bcd60e51b81526004016106a690615d33565b6000614a6482615181565b6001600160a01b0383166000908152602081905260409020549091508114612fa3576001600160a01b0391909116600090815260208190526040902055565b614aca614ac0614ab386856152cb565b839063ffffffff61437c16565b613ab58686614924565b60000b156133945760405162461bcd60e51b81526004016106a69061625f565b60ff16600a0a90565b614afb61553a565b614b0361553a565b82518451612d9b9163ffffffff6153a616565b614b1e61553a565b600080866001811115614b2d57fe5b14614b39576001614b3c565b60005b9050614b4661553a565b6040516375df638960e01b8152614bce906001600160a01b038a16906375df638990614b7c9086908b908b908b90600401615a52565b602060405180830381600087803b158015614b9657600080fd5b505af1158015614baa573d6000803e3d6000fd5b505050506040513d601f19601f82011682018060405250810190610bfe919061589a565b9050816001811115614bdc57fe5b60011415613e0457614bf68160001963ffffffff61300b16565b925050506138ea565b6000614c3d836001600160a01b031663525454106040518163ffffffff1660e01b815260040160206040518083038186803b15801561198157600080fd5b905082811561339457614c4e61553a565b6001600160a01b03821660009081526101996020908152604091829020825191820190925290548152614c8890859063ffffffff61356216565b90506000614c95826126ae565b1215614ca657614ca3612da4565b90505b6000614cb1856126ae565b1315614d055782614cc1826147d9565b111580614ce9575061019e546001600160a01b0316614cde6126a4565b6001600160a01b0316145b614d055760405162461bcd60e51b81526004016106a690615abc565b614d0e81613479565b6001600160a01b038316600090815261019960205260409020905190555050505050565b614d3a61554d565b614d4261554d565b614d4f8887612a64612da4565b9050614d5e81604001516126ae565b15614d7b5760405162461bcd60e51b81526004016106a690616133565b614d8361553a565b6020820151614da890614d9c888863ffffffff612d7816565b9063ffffffff6130f016565b9050614dbd610c97828763ffffffff6134a716565b614dc957819250614f09565b614dd161553a565b614dde83606001516147d9565b614de7866126ae565b1115614e0d57614e0a614dfd8460600151613479565b869063ffffffff6130f016565b90505b614e1561554d565b614e228b8b85858b613997565b905060405180610100016040528082600001518152602001614e558360200151876020015161437c90919063ffffffff16565b8152602001614e758360400151876040015161437c90919063ffffffff16565b8152602001614e95836060015187606001516136fc90919063ffffffff16565b8152602001614eb5836080015187608001516136fc90919063ffffffff16565b8152602001614ed58360a001518760a001516136fc90919063ffffffff16565b8152602001614ef58360c001518760c001516136fc90919063ffffffff16565b8152602001614f02612da4565b9052945050505b50509695505050505050565b60008282018381101561321a5760405162461bcd60e51b81526004016106a690615c45565b603354610100900460ff1680614f535750614f5361252f565b80614f61575060335460ff16155b614f7d5760405162461bcd60e51b81526004016106a690616067565b603354610100900460ff161580156125b3576033805460ff1961ff00199091166101001716600117905580156107b2576033805461ff001916905550565b603354610100900460ff1680614fd45750614fd461252f565b80614fe2575060335460ff16155b614ffe5760405162461bcd60e51b81526004016106a690616067565b603354610100900460ff16158015615029576033805460ff1961ff0019909116610100171660011790555b60006150336126a4565b609880546001600160a01b0319166001600160a01b038316908117909155604051919250906000907f8be0079c531659141344cd1fd0a4f28419497f9722a3daafe3b4186f6b6457e0908290a35080156107b2576033805461ff001916905550565b603354610100900460ff16806150ae57506150ae61252f565b806150bc575060335460ff16155b6150d85760405162461bcd60e51b81526004016106a690616067565b603354610100900460ff16158015615103576033805460ff1961ff0019909116610100171660011790555b60cc805460ff1916905580156107b2576033805461ff001916905550565b600061321a83836040518060400160405280601a81526020017f536166654d6174683a206469766973696f6e206279207a65726f0000000000008152506153b4565b600061486f61517183614aea565b614863868663ffffffff61526516565b6001600160a01b038116600090815260208190526040812054806115105760408051600481526024810182526020810180516001600160e01b031663313ce56760e01b17905290516000916060916001600160a01b038716916151e391615982565b600060405180830381855afa9150503d806000811461521e576040519150601f19603f3d011682016040523d82523d6000602084013e615223565b606091505b50915091508180156152355750805115155b6152515760405162461bcd60e51b81526004016106a690615de2565b808060200190518101906138ea91906158f8565b60008261527457506000611510565b8282028284828161528157fe5b041461321a5760405162461bcd60e51b81526004016106a690615fc1565b600081848411156152c35760405162461bcd60e51b81526004016106a69190615a89565b505050900390565b6152d361553a565b60006152de84615181565b9050601281106153235760408051602081019091528061531861530884601263ffffffff6148e216565b8690600a0a63ffffffff61512116565b815250915050611510565b60408051602081019091528061535361534360128563ffffffff6148e216565b8690600a0a63ffffffff61526516565b9052949350505050565b600061486f8361486361536f85614aea565b879063ffffffff61526516565b600061486f61538a83614aea565b61539a868663ffffffff61487716565b9063ffffffff6153eb16565b600061321a8383601261544f565b600081836153d55760405162461bcd60e51b81526004016106a69190615a89565b5060008385816153e157fe5b0495945050505050565b60008161540a5760405162461bcd60e51b81526004016106a690616327565b8160001914801561541e5750600160ff1b83145b1561543b5760405162461bcd60e51b81526004016106a690615f49565b600082848161544657fe5b05949350505050565b600061486f8361539a61546185614aea565b879063ffffffff61487716565b6040518060c0016040528061548161553a565b815260200161548e61553a565b815260200161549b61553a565b81526020016154a861553a565b815260200160008152602001600081525090565b828054600181600116156101000203166002900490600052602060002090601f016020900481019282601f106154fd57805160ff191683800117855561552a565b8280016001018555821561552a579182015b8281111561552a57825182559160200191906001019061550f565b506155369291506155c1565b5090565b6040518060200160405280600081525090565b60405180610100016040528061556161546e565b815260200161556e61553a565b815260200161557b61553a565b815260200161558861553a565b815260200161559561553a565b81526020016155a261553a565b81526020016155af61553a565b81526020016155bc61553a565b905290565b61066091905b8082111561553657600081556001016155c7565b6000602082840312156155ec578081fd5b6155f66020616489565b9135825250919050565b600060208284031215615611578081fd5b61561b6020616489565b9151825250919050565b600060208284031215615636578081fd5b813561321a816164dc565b60008060408385031215615653578081fd5b823561565e816164dc565b9150602083013561566e816164f1565b809150509250929050565b6000806040838503121561568b578182fd5b8235615696816164dc565b946020939093013593505050565b6000602082840312156156b5578081fd5b815161321a816164f1565b600080604083850312156156d2578182fd5b82356156dd816164dc565b9150602083013561566e816164dc565b600080600060608486031215615701578081fd5b833561570c816164dc565b9250602084013561571c816164dc565b915060408401356003811061572f578182fd5b809150509250925092565b60008060006060848603121561574e578283fd5b8335615759816164dc565b92506020840135615769816164dc565b915061577885604086016155db565b90509250925092565b600080600080600060a08688031215615798578081fd5b85356157a3816164dc565b94506020860135600281106157b6578182fd5b93506157c587604088016155db565b92506157d487606088016155db565b91506157e387608088016155db565b90509295509295909350565b6000808284036040811215615802578182fd5b833561580d816164dc565b92506020601f1982011215615820578182fd5b506020830190509250929050565b60008060408385031215615840578182fd5b823561584b816164dc565b915061585a84602085016155db565b90509250929050565b600060208284031215615874578081fd5b815161321a816164dc565b600060208284031215615890578081fd5b61321a83836155db565b6000602082840312156158ab578081fd5b61321a8383615600565b600080604083850312156158c7578182fd5b6158d18484615600565b915061585a8460208501615600565b6000602082840312156158f1578081fd5b5035919050565b600060208284031215615909578081fd5b5051919050565b60008060408385031215615922578182fd5b82359150602083013561566e816164dc565b60008060008060808587031215615949578182fd5b8435935060208501359250604085013591506060850135615969816164dc565b939692955090935050565b6002811061597e57fe5b9052565b600082516159948184602087016164b0565b9190910192915050565b6001600160a01b0391909116815260200190565b6001600160a01b039384168152919092166020820152604081019190915260600190565b6001600160a01b03929092168252602082015260400190565b901515815260200190565b6001600160a01b0392909216825251602082015260400190565b60408101615a228285615974565b825160208301529392505050565b6060810160028510615a3e57fe5b938152915160208301525160409091015290565b60808101615a608287615974565b93516020820152915160408301521515606090910152919050565b918252602082015260400190565b6000602082528251806020840152615aa88160408501602087016164b0565b601f01601f19169190910160400192915050565b6020808252600a90820152691bdd995c881b1a5b5a5d60b21b604082015260600190565b6020808252600d908201526c185b5b481b9bdd08199bdd5b99609a1b604082015260600190565b6020808252601190820152700706f736974696f6e53697a65206973203607c1b604082015260600190565b60208082526014908201527314185d5cd8589b194e881b9bdd081c185d5cd95960621b604082015260600190565b6020808252601490820152730dac2e4ced2dc40d2e640dcdee840cadcdeeaced60631b604082015260600190565b6020808252601d908201527f446563696d616c45524332303a207472616e73666572206661696c6564000000604082015260600190565b602080825260169082015275125b9d985b1a590812525b9cdd5c985b98d9519d5b9960521b604082015260600190565b6020808252601490820152731a5b9d985b1a59081d1bdad95b88185b5bdd5b9d60621b604082015260600190565b602080825260089082015267189859081919589d60c21b604082015260600190565b6020808252601b908201527f536166654d6174683a206164646974696f6e206f766572666c6f770000000000604082015260600190565b60208082526027908201527f49666e7846694f776e61626c65557067726164653a206e6f7420746865206e656040820152663b9037bbb732b960c91b606082015260800190565b6020808252600f908201526e06e6f74206261636b73746f70204c5608c1b604082015260600190565b60208082526027908201527f49666e7846694f776e61626c65557067726164653a2073616d652061732063616040820152666e64696461746560c81b606082015260800190565b60208082526021908201527f5369676e6564536166654d6174683a206164646974696f6e206f766572666c6f6040820152607760f81b606082015260800190565b60208082526017908201527f6f6e6c79206f6e6520616374696f6e20616c6c6f776564000000000000000000604082015260600190565b6020808252601e908201527f4d617267696e20726174696f206e6f74206d6565742063726974657269610000604082015260600190565b60208082526021908201527f446563696d616c45524332303a2067657420646563696d616c73206661696c656040820152601960fa1b606082015260800190565b60208082526010908201526f14185d5cd8589b194e881c185d5cd95960821b604082015260600190565b60208082526021908201527f446563696d616c45524332303a207472616e7366657246726f6d206661696c656040820152601960fa1b606082015260800190565b6020808252602d908201527f49666e7846694f776e61626c65557067726164653a2063616c6c65722069732060408201526c3737ba103a34329037bbb732b960991b606082015260800190565b6020808252601a908201527f76616c7565206f66206f70656e4e6f74696f6e616c203c3d2030000000000000604082015260600190565b6020808252601d908201527f6672656520636f6c6c61746572616c206973206e6f7420656e6f756768000000604082015260600190565b60208082526021908201527f5369676e6564536166654d6174683a206469766973696f6e206f766572666c6f6040820152607760f81b606082015260800190565b6020808252601d908201527f4c657373207468616e206d696e696d616c2071756f746520746f6b656e000000604082015260600190565b60208082526021908201527f536166654d6174683a206d756c7469706c69636174696f6e206f766572666c6f6040820152607760f81b606082015260800190565b6020808252600a90820152690696e70757420697320360b41b604082015260600190565b60208082526021908201527f696e76616c6964207061727469616c206c69717569646174696f6e20726174696040820152606f60f81b606082015260800190565b6020808252602e908201527f436f6e747261637420696e7374616e63652068617320616c726561647920626560408201526d195b881a5b9a5d1a585b1a5e995960921b606082015260800190565b60208082526027908201527f5369676e6564536166654d6174683a206d756c7469706c69636174696f6e206f604082015266766572666c6f7760c81b606082015260800190565b6020808252601d908201527f68697420706f736974696f6e2073697a6520757070657220626f756e64000000604082015260600190565b6020808252601d908201527f72656475636520616e20756e646572776174657220706f736974696f6e000000604082015260600190565b6020808252601d908201527f4d6f7265207468616e206d6178696d616c2071756f746520746f6b656e000000604082015260600190565b6020808252602f908201527f49666e7846694f776e61626c65557067726164653a2063616e6469646174652060408201526e6973207a65726f206164647265737360881b606082015260800190565b60208082526026908201527f49666e7846694f776e61626c65557067726164653a2073616d65206173206f726040820152651a59da5b985b60d21b606082015260800190565b6020808252600f908201526e125b9d985b1a5908199959541bdbdb608a1b604082015260600190565b60208082526022908201527f446563696d616c45524332303a2062616c616e636520696e636f6e73697374656040820152611b9d60f21b606082015260800190565b60208082526024908201527f5369676e6564536166654d6174683a207375627472616374696f6e206f766572604082015263666c6f7760e01b606082015260800190565b60208082526022908201527f49666e7846694f776e61626c65557067726164653a207a65726f206164647265604082015261737360f01b606082015260800190565b6020808252818101527f5369676e6564536166654d6174683a206469766973696f6e206279207a65726f604082015260600190565b6020808252601f908201527f5265656e7472616e637947756172643a207265656e7472616e742063616c6c00604082015260600190565b600060c08201905082515182526020830151516020830152604083015151604083015260608301515160608301526080830151608083015260a083015160a083015292915050565b9051815260200190565b915182521515602082015260400190565b9151825251602082015260400190565b90815260200190565b9a8b5260208b019990995260408a01979097526060890195909552608088019390935260a087019190915260c086015260e08501526101008401526101208301526101408201526101600190565b948552602085019390935260408401919091526001600160a01b03166060830152608082015260a00190565b60405181810167ffffffffffffffff811182821017156164a857600080fd5b604052919050565b60005b838110156164cb5781810151838201526020016164b3565b838111156133945750506000910152565b6001600160a01b03811681146107b257600080fd5b80151581146107b257600080fdfe4d69786564446563696d616c3a2075696e742076616c756520697320626967676572207468616e205f494e543235365f4d4158a264697066735822122040a32a53ec2c4605d8aec63ae0ccbd3c6d5b88fb01e0a3e83c663371328185f564736f6c63430006090033",
  "linkReferences": {},
  "deployedLinkReferences": {}
}