{
  "_format": "hh-sol-artifact-1",
  "contractName": "JoeRouterMock",
  "sourceName": "contracts/mock/mocks/JoeRouterMock.sol",
  "abi": [
    {
      "inputs": [],
      "stateMutability": "nonpayable",
      "type": "constructor"
    },
    {
      "inputs": [
        {
          "internalType": "uint256",
          "name": "amountIn",
          "type": "uint256"
        },
        {
          "internalType": "address[]",
          "name": "path",
          "type": "address[]"
        }
      ],
      "name": "getAmountsOut",
      "outputs": [
        {
          "internalType": "uint256[]",
          "name": "amounts",
          "type": "uint256[]"
        }
      ],
      "stateMutability": "view",
      "type": "function"
    },
    {
      "inputs": [
        {
          "internalType": "uint256",
          "name": "price",
          "type": "uint256"
        }
      ],
      "name": "mockSetSpotPrice",
      "outputs": [],
      "stateMutability": "nonpayable",
      "type": "function"
    }
  ],
  "bytecode": "0x6080604052600160005534801561001557600080fd5b50610287806100256000396000f3fe608060405234801561001057600080fd5b50600436106100365760003560e01c80637d4f87501461003b578063d06ca61f14610050575b600080fd5b61004e610049366004610117565b610079565b005b61006361005e36600461012f565b61007e565b60405161007091906101e6565b60405180910390f35b600055565b6060815167ffffffffffffffff8111801561009857600080fd5b506040519080825280602002602001820160405280156100c2578160200160208202803683370190505b50905060005b82518110156100f3576000548282815181106100e057fe5b60209081029190910101526001016100c8565b5092915050565b80356001600160a01b038116811461011157600080fd5b92915050565b600060208284031215610128578081fd5b5035919050565b60008060408385031215610141578081fd5b8235915060208084013567ffffffffffffffff80821115610160578384fd5b81860187601f820112610171578485fd5b8035925081831115610181578485fd5b838302915061019184830161022a565b8381528481019082860184840187018b10156101ab578788fd5b8794505b858510156101d5576101c18b826100fa565b8352600194909401939186019186016101af565b508096505050505050509250929050565b6020808252825182820181905260009190848201906040850190845b8181101561021e57835183529284019291840191600101610202565b50909695505050505050565b60405181810167ffffffffffffffff8111828210171561024957600080fd5b60405291905056fea264697066735822122036f716fd1c957a7d829706d29827a452dc087212981c550cb42522fea1aee6b964736f6c63430006090033",
  "linkReferences": {},
  "deployedLinkReferences": {}
}