{
  "_format": "hh-sol-artifact-1",
  "contractName": "SelfServeRrpBeaconServerWhitelisterMock",
  "sourceName": "contracts/mock/SelfServeRrpBeaconServerWhitelisterMock.sol",
  "abi": [
    {
      "inputs": [],
      "stateMutability": "nonpayable",
      "type": "constructor"
    },
    {
      "anonymous": false,
      "inputs": [
        {
          "indexed": true,
          "internalType": "bytes32",
          "name": "beaconId",
          "type": "bytes32"
        },
        {
          "indexed": false,
          "internalType": "uint64",
          "name": "expirationTimestamp",
          "type": "uint64"
        }
      ],
      "name": "SetBeaconIdToExpirationTimestamp",
      "type": "event"
    },
    {
      "anonymous": false,
      "inputs": [
        {
          "indexed": true,
          "internalType": "bytes32",
          "name": "beaconId",
          "type": "bytes32"
        },
        {
          "indexed": false,
          "internalType": "bool",
          "name": "indefiniteWhitelistStatus",
          "type": "bool"
        }
      ],
      "name": "SetBeaconIdToIndefiniteWhitelistStatus",
      "type": "event"
    },
    {
      "anonymous": false,
      "inputs": [
        {
          "indexed": true,
          "internalType": "bytes32",
          "name": "beaconId",
          "type": "bytes32"
        },
        {
          "indexed": true,
          "internalType": "address",
          "name": "reader",
          "type": "address"
        },
        {
          "indexed": false,
          "internalType": "uint64",
          "name": "expirationTimestamp",
          "type": "uint64"
        },
        {
          "indexed": false,
          "internalType": "bool",
          "name": "indefiniteWhitelistStatus",
          "type": "bool"
        }
      ],
      "name": "WhitelistedReader",
      "type": "event"
    },
    {
      "inputs": [
        {
          "internalType": "bytes32",
          "name": "_beaconId",
          "type": "bytes32"
        }
      ],
      "name": "beaconIdToExpirationTimestamp",
      "outputs": [
        {
          "internalType": "uint64",
          "name": "",
          "type": "uint64"
        }
      ],
      "stateMutability": "view",
      "type": "function"
    },
    {
      "inputs": [
        {
          "internalType": "bytes32",
          "name": "_beaconId",
          "type": "bytes32"
        }
      ],
      "name": "beaconIdToIndefiniteWhitelistStatus",
      "outputs": [
        {
          "internalType": "bool",
          "name": "",
          "type": "bool"
        }
      ],
      "stateMutability": "view",
      "type": "function"
    },
    {
      "inputs": [
        {
          "internalType": "address",
          "name": "_server",
          "type": "address"
        }
      ],
      "name": "mockSetRrpBeaconServer",
      "outputs": [],
      "stateMutability": "nonpayable",
      "type": "function"
    },
    {
      "inputs": [],
      "name": "rrpBeaconServer",
      "outputs": [
        {
          "internalType": "address",
          "name": "",
          "type": "address"
        }
      ],
      "stateMutability": "view",
      "type": "function"
    },
    {
      "inputs": [],
      "name": "server",
      "outputs": [
        {
          "internalType": "address",
          "name": "",
          "type": "address"
        }
      ],
      "stateMutability": "view",
      "type": "function"
    },
    {
      "inputs": [
        {
          "internalType": "bytes32",
          "name": "_beaconId",
          "type": "bytes32"
        },
        {
          "internalType": "uint64",
          "name": "_expirationTimestamp",
          "type": "uint64"
        }
      ],
      "name": "setBeaconIdToExpirationTimestamp",
      "outputs": [],
      "stateMutability": "nonpayable",
      "type": "function"
    },
    {
      "inputs": [
        {
          "internalType": "bytes32",
          "name": "_beaconId",
          "type": "bytes32"
        },
        {
          "internalType": "bool",
          "name": "_indefiniteWhitelistStatus",
          "type": "bool"
        }
      ],
      "name": "setBeaconIdToIndefiniteWhitelistStatus",
      "outputs": [],
      "stateMutability": "nonpayable",
      "type": "function"
    },
    {
      "inputs": [
        {
          "internalType": "bytes32",
          "name": "_beaconId",
          "type": "bytes32"
        },
        {
          "internalType": "address",
          "name": "_reader",
          "type": "address"
        }
      ],
      "name": "whitelistReader",
      "outputs": [],
      "stateMutability": "nonpayable",
      "type": "function"
    },
    {
      "inputs": [
        {
          "internalType": "bytes32",
          "name": "",
          "type": "bytes32"
        },
        {
          "internalType": "address",
          "name": "",
          "type": "address"
        }
      ],
      "name": "whitelisted",
      "outputs": [
        {
          "internalType": "bool",
          "name": "",
          "type": "bool"
        }
      ],
      "stateMutability": "view",
      "type": "function"
    }
  ],
  "bytecode": "0x608060405234801561001057600080fd5b5061033c806100206000396000f3fe608060405234801561001057600080fd5b50600436106100935760003560e01c80639da4543b116100665780639da4543b14610109578063ad2245a91461011e578063b001917414610131578063f4ac6c3714610144578063fd922a421461015257610093565b806318c79ad1146100985780634f65fd8e146100c15780635c6f7656146100d65780638690e63d146100f6575b600080fd5b6100ab6100a6366004610228565b61015a565b6040516100b891906102f1565b60405180910390f35b6100d46100cf366004610240565b610160565b005b6100e96100e4366004610228565b610190565b6040516100b891906102e6565b6100d46101043660046101fa565b610196565b6101116101b8565b6040516100b891906102d2565b6100d461012c36600461027a565b6101c7565b6100e961013f366004610240565b6101cb565b6100d461012c3660046102a2565b6101116101eb565b50600090565b60009182526001602081815260408085206001600160a01b0390941685529290529120805460ff19169091179055565b50600190565b600080546001600160a01b0319166001600160a01b0392909216919091179055565b6000546001600160a01b031690565b5050565b600160209081526000928352604080842090915290825290205460ff1681565b6000546001600160a01b031681565b60006020828403121561020b578081fd5b81356001600160a01b0381168114610221578182fd5b9392505050565b600060208284031215610239578081fd5b5035919050565b60008060408385031215610252578081fd5b8235915060208301356001600160a01b038116811461026f578182fd5b809150509250929050565b6000806040838503121561028c578182fd5b823591506020830135801515811461026f578182fd5b600080604083850312156102b4578182fd5b82359150602083013567ffffffffffffffff8116811461026f578182fd5b6001600160a01b0391909116815260200190565b901515815260200190565b67ffffffffffffffff9190911681526020019056fea2646970667358221220125298cb4e0080c1fcd0dffb52a124500ce79adbcb190bdaf55bb27f69cec43f64736f6c63430006090033",
  "linkReferences": {},
  "deployedLinkReferences": {}
}