{
  "_format": "hh-sol-artifact-1",
  "contractName": "ExchangeWrapper",
  "sourceName": "contracts/exchangeWrapper/ExchangeWrapper.sol",
  "abi": [
    {
      "anonymous": false,
      "inputs": [
        {
          "indexed": false,
          "internalType": "uint256",
          "name": "ifnxTokenAmount",
          "type": "uint256"
        },
        {
          "indexed": false,
          "internalType": "uint256",
          "name": "usdtAmount",
          "type": "uint256"
        }
      ],
      "name": "ExchangeSwap",
      "type": "event"
    },
    {
      "anonymous": false,
      "inputs": [
        {
          "indexed": true,
          "internalType": "address",
          "name": "previousOwner",
          "type": "address"
        },
        {
          "indexed": true,
          "internalType": "address",
          "name": "newOwner",
          "type": "address"
        }
      ],
      "name": "OwnershipTransferred",
      "type": "event"
    },
    {
      "anonymous": false,
      "inputs": [
        {
          "indexed": false,
          "internalType": "uint256",
          "name": "inAmount",
          "type": "uint256"
        },
        {
          "indexed": false,
          "internalType": "uint256",
          "name": "out",
          "type": "uint256"
        }
      ],
      "name": "TraderJoeSwap",
      "type": "event"
    },
    {
      "inputs": [
        {
          "internalType": "contract IERC20",
          "name": "_token",
          "type": "address"
        },
        {
          "internalType": "address",
          "name": "_to",
          "type": "address"
        },
        {
          "components": [
            {
              "internalType": "uint256",
              "name": "d",
              "type": "uint256"
            }
          ],
          "internalType": "struct Decimal.decimal",
          "name": "_amount",
          "type": "tuple"
        }
      ],
      "name": "approve",
      "outputs": [],
      "stateMutability": "nonpayable",
      "type": "function"
    },
    {
      "inputs": [],
      "name": "candidate",
      "outputs": [
        {
          "internalType": "address",
          "name": "",
          "type": "address"
        }
      ],
      "stateMutability": "view",
      "type": "function"
    },
    {
      "inputs": [
        {
          "internalType": "contract IERC20",
          "name": "_inputToken",
          "type": "address"
        },
        {
          "internalType": "contract IERC20",
          "name": "_outputToken",
          "type": "address"
        },
        {
          "components": [
            {
              "internalType": "uint256",
              "name": "d",
              "type": "uint256"
            }
          ],
          "internalType": "struct Decimal.decimal",
          "name": "_inputTokenSold",
          "type": "tuple"
        }
      ],
      "name": "getInputPrice",
      "outputs": [
        {
          "components": [
            {
              "internalType": "uint256",
              "name": "d",
              "type": "uint256"
            }
          ],
          "internalType": "struct Decimal.decimal",
          "name": "",
          "type": "tuple"
        }
      ],
      "stateMutability": "view",
      "type": "function"
    },
    {
      "inputs": [
        {
          "internalType": "contract IERC20",
          "name": "_inputToken",
          "type": "address"
        },
        {
          "internalType": "contract IERC20",
          "name": "_outputToken",
          "type": "address"
        },
        {
          "components": [
            {
              "internalType": "uint256",
              "name": "d",
              "type": "uint256"
            }
          ],
          "internalType": "struct Decimal.decimal",
          "name": "_outputTokenBought",
          "type": "tuple"
        }
      ],
      "name": "getOutputPrice",
      "outputs": [
        {
          "components": [
            {
              "internalType": "uint256",
              "name": "d",
              "type": "uint256"
            }
          ],
          "internalType": "struct Decimal.decimal",
          "name": "",
          "type": "tuple"
        }
      ],
      "stateMutability": "view",
      "type": "function"
    },
    {
      "inputs": [
        {
          "internalType": "contract IERC20",
          "name": "_inputToken",
          "type": "address"
        },
        {
          "internalType": "contract IERC20",
          "name": "_outputToken",
          "type": "address"
        }
      ],
      "name": "getSpotPrice",
      "outputs": [
        {
          "components": [
            {
              "internalType": "uint256",
              "name": "d",
              "type": "uint256"
            }
          ],
          "internalType": "struct Decimal.decimal",
          "name": "",
          "type": "tuple"
        }
      ],
      "stateMutability": "view",
      "type": "function"
    },
    {
      "inputs": [
        {
          "internalType": "address",
          "name": "_joeRouter",
          "type": "address"
        },
        {
          "internalType": "address",
          "name": "_ifnxToken",
          "type": "address"
        }
      ],
      "name": "initialize",
      "outputs": [],
      "stateMutability": "nonpayable",
      "type": "function"
    },
    {
      "inputs": [],
      "name": "joeRouter",
      "outputs": [
        {
          "internalType": "contract IJoeRouter02",
          "name": "",
          "type": "address"
        }
      ],
      "stateMutability": "view",
      "type": "function"
    },
    {
      "inputs": [],
      "name": "owner",
      "outputs": [
        {
          "internalType": "address",
          "name": "",
          "type": "address"
        }
      ],
      "stateMutability": "view",
      "type": "function"
    },
    {
      "inputs": [],
      "name": "renounceOwnership",
      "outputs": [],
      "stateMutability": "nonpayable",
      "type": "function"
    },
    {
      "inputs": [
        {
          "internalType": "address",
          "name": "_joeRouter",
          "type": "address"
        }
      ],
      "name": "setJoeRouter",
      "outputs": [],
      "stateMutability": "nonpayable",
      "type": "function"
    },
    {
      "inputs": [
        {
          "internalType": "address",
          "name": "newOwner",
          "type": "address"
        }
      ],
      "name": "setOwner",
      "outputs": [],
      "stateMutability": "nonpayable",
      "type": "function"
    },
    {
      "inputs": [
        {
          "internalType": "contract IERC20",
          "name": "_inputToken",
          "type": "address"
        },
        {
          "internalType": "contract IERC20",
          "name": "_outputToken",
          "type": "address"
        },
        {
          "components": [
            {
              "internalType": "uint256",
              "name": "d",
              "type": "uint256"
            }
          ],
          "internalType": "struct Decimal.decimal",
          "name": "_inputTokenSold",
          "type": "tuple"
        },
        {
          "components": [
            {
              "internalType": "uint256",
              "name": "d",
              "type": "uint256"
            }
          ],
          "internalType": "struct Decimal.decimal",
          "name": "_minOutputTokenBought",
          "type": "tuple"
        },
        {
          "components": [
            {
              "internalType": "uint256",
              "name": "d",
              "type": "uint256"
            }
          ],
          "internalType": "struct Decimal.decimal",
          "name": "_maxPrice",
          "type": "tuple"
        }
      ],
      "name": "swapInput",
      "outputs": [
        {
          "components": [
            {
              "internalType": "uint256",
              "name": "d",
              "type": "uint256"
            }
          ],
          "internalType": "struct Decimal.decimal",
          "name": "",
          "type": "tuple"
        }
      ],
      "stateMutability": "nonpayable",
      "type": "function"
    },
    {
      "inputs": [
        {
          "internalType": "contract IERC20",
          "name": "_inputToken",
          "type": "address"
        },
        {
          "internalType": "contract IERC20",
          "name": "_outputToken",
          "type": "address"
        },
        {
          "components": [
            {
              "internalType": "uint256",
              "name": "d",
              "type": "uint256"
            }
          ],
          "internalType": "struct Decimal.decimal",
          "name": "_outputTokenBought",
          "type": "tuple"
        },
        {
          "components": [
            {
              "internalType": "uint256",
              "name": "d",
              "type": "uint256"
            }
          ],
          "internalType": "struct Decimal.decimal",
          "name": "_maxInputTokeSold",
          "type": "tuple"
        },
        {
          "components": [
            {
              "internalType": "uint256",
              "name": "d",
              "type": "uint256"
            }
          ],
          "internalType": "struct Decimal.decimal",
          "name": "_maxPrice",
          "type": "tuple"
        }
      ],
      "name": "swapOutput",
      "outputs": [
        {
          "components": [
            {
              "internalType": "uint256",
              "name": "d",
              "type": "uint256"
            }
          ],
          "internalType": "struct Decimal.decimal",
          "name": "",
          "type": "tuple"
        }
      ],
      "stateMutability": "nonpayable",
      "type": "function"
    },
    {
      "inputs": [],
      "name": "updateOwner",
      "outputs": [],
      "stateMutability": "nonpayable",
      "type": "function"
    }
  ],
  "bytecode": "0x608060405234801561001057600080fd5b50612421806100206000396000f3fe608060405234801561001057600080fd5b50600436106100ea5760003560e01c8063715018a61161008c578063bc5920ba11610066578063bc5920ba146101a6578063c1094e5b146101ae578063c643ea63146101c1578063e5e75d1e146101d4576100ea565b8063715018a6146101835780638da5cb5b1461018b5780639577ee8214610193576100ea565b806333967151116100c85780633396715114610140578063485cc9551461015357806359f571e8146101665780636c8381f81461017b576100ea565b8063026b49a7146100ef57806313af40351461010457806315e84af914610117575b600080fd5b6101026100fd366004611b81565b6101e7565b005b610102610112366004611b81565b610247565b61012a610125366004611cd4565b610320565b604051610137919061230f565b60405180910390f35b61012a61014e366004611d24565b61033b565b610102610161366004611b9d565b610384565b61016e610435565b6040516101379190611e21565b61016e610444565b610102610453565b61016e6104d2565b6101026101a1366004611c8d565b6104e1565b610102610521565b61012a6101bc366004611ce6565b6105e4565b61012a6101cf366004611ce6565b610628565b61012a6101e2366004611d24565b610663565b6101ef6106a2565b6065546001600160a01b039081169116146102255760405162461bcd60e51b815260040161021c90612073565b60405180910390fd5b60cc80546001600160a01b0319166001600160a01b0392909216919091179055565b61024f6106a2565b6065546001600160a01b0390811691161461027c5760405162461bcd60e51b815260040161021c90612073565b6001600160a01b0381166102a25760405162461bcd60e51b815260040161021c906122cd565b6065546001600160a01b03828116911614156102d05760405162461bcd60e51b815260040161021c9061220e565b6066546001600160a01b03828116911614156102fe5760405162461bcd60e51b815260040161021c90611f73565b606680546001600160a01b0319166001600160a01b0392909216919091179055565b610328611b32565b61033283836106a6565b90505b92915050565b610343611b32565b61037a868661035736889003880188611d8f565b61036636889003880188611d8f565b61037536889003880188611d8f565b6107e0565b9695505050505050565b600054610100900460ff168061039d575061039d6108bf565b806103ab575060005460ff16155b6103c75760405162461bcd60e51b815260040161021c9061212e565b600054610100900460ff161580156103f2576000805460ff1961ff0019909116610100171660011790555b6103fa6108c5565b60cd80546001600160a01b0319166001600160a01b03841617905561041e836101e7565b8015610430576000805461ff00191690555b505050565b60cc546001600160a01b031681565b6066546001600160a01b031690565b61045b6106a2565b6065546001600160a01b039081169116146104885760405162461bcd60e51b815260040161021c90612073565b6065546040516000916001600160a01b0316907f8be0079c531659141344cd1fd0a4f28419497f9722a3daafe3b4186f6b6457e0908390a3606580546001600160a01b0319169055565b6065546001600160a01b031690565b6104e96106a2565b6065546001600160a01b039081169116146105165760405162461bcd60e51b815260040161021c90612073565b610430838383610958565b6066546001600160a01b03166105495760405162461bcd60e51b815260040161021c906121bf565b6105516106a2565b6066546001600160a01b0390811691161461057e5760405162461bcd60e51b815260040161021c90611f2c565b6066546065546040516001600160a01b0392831692909116907f8be0079c531659141344cd1fd0a4f28419497f9722a3daafe3b4186f6b6457e090600090a360668054606580546001600160a01b03199081166001600160a01b03841617909155169055565b6105ec611b32565b6105f4611b32565b6105fe85856106a6565b905061061f8161061336869003860186611d8f565b9063ffffffff61097e16565b95945050505050565b610630611b32565b610638611b32565b61064285856106a6565b905061061f8161065736869003860186611d8f565b9063ffffffff6109aa16565b61066b611b32565b61037a868661067f36889003880188611d8f565b61068e36889003880188611d8f565b61069d36889003880188611d8f565b6109cd565b3390565b6106ae611b32565b816001600160a01b0316836001600160a01b031614156106d7576106d0610a11565b9050610335565b6040805160028082526060808301845292602083019080368337019050509050838160008151811061070557fe5b60200260200101906001600160a01b031690816001600160a01b031681525050828160018151811061073357fe5b60200260200101906001600160a01b031690816001600160a01b031681525050600061075e82610a35565b9050610768611b32565b506040805160208101909152818152600061078287610ae1565b9050600061078f87610ae1565b9050808210156107b2576107ab886107a685610bc5565b610bc9565b92506107d4565b808211156107d45760405180602001604052806107cf8986610c5b565b905292505b50909695505050505050565b6107e8611b32565b60006107f26106a2565b90506107fc611b32565b610807888888610cd9565b9050600061081b868363ffffffff610e1a16565b60000b121561083c5760405162461bcd60e51b815260040161021c9061217c565b61084888833084610e4b565b610850611b32565b61085d8989898989610f7d565b90507f4d207a2df21cff761d39dd1942c4370b71074291874855081465c54e12987ab261088982610bc5565b61089289610bc5565b6040516108a0929190612319565b60405180910390a16108b388848961120c565b98975050505050505050565b303b1590565b600054610100900460ff16806108de57506108de6108bf565b806108ec575060005460ff16155b6109085760405162461bcd60e51b815260040161021c9061212e565b600054610100900460ff16158015610933576000805460ff1961ff0019909116610100171660011790555b61093b61133b565b6109436113bc565b8015610955576000805461ff00191690555b50565b61096183611496565b610973838361096e6114e3565b6114fe565b6104308383836114fe565b610986611b32565b61098e611b32565b825184516109a19163ffffffff6115fd16565b81529392505050565b6109b2611b32565b6109ba611b32565b825184516109a19163ffffffff61160b16565b6109d5611b32565b60006109df6106a2565b90506109ed87823088610e4b565b6109fa8787878787611619565b9150610a0786828461120c565b5095945050505050565b610a19611b32565b6040518060200160405280610a2e60126118a2565b9052905090565b60cc5460405163d06ca61f60e01b81526000916060916001600160a01b039091169063d06ca61f90610a6e906001908790600401611e72565b60006040518083038186803b158015610a8657600080fd5b505afa158015610a9a573d6000803e3d6000fd5b505050506040513d6000823e601f3d908101601f19168201604052610ac29190810190611bd5565b905080600181518110610ad157fe5b6020026020010151915050919050565b6001600160a01b038116600090815260996020526040812054806103355760408051600481526024810182526020810180516001600160e01b031663313ce56760e01b17905290516000916060916001600160a01b03871691610b4391611e05565b600060405180830381855afa9150503d8060008114610b7e576040519150601f19603f3d011682016040523d82523d6000602084013e610b83565b606091505b5091509150818015610b955750805115155b610bb15760405162461bcd60e51b815260040161021c90611fba565b8080602001905181019061061f9190611daa565b5190565b610bd1611b32565b6000610bdc84610ae1565b905060128110610c2157604080516020810190915280610c16610c0684601263ffffffff6118ab16565b8690600a0a63ffffffff6118ed16565b815250915050610335565b604080516020810190915280610c51610c4160128563ffffffff6118ab16565b8690600a0a63ffffffff61192f16565b9052949350505050565b600080610c6784610ae1565b905060128110610ca557610c9d610c8582601263ffffffff6118ab16565b600a0a610c9185610bc5565b9063ffffffff61192f16565b915050610335565b610cd1610cb960128363ffffffff6118ab16565b600a0a610cc585610bc5565b9063ffffffff6118ed16565b949350505050565b610ce1611b32565b60408051600280825260608083018452926020830190803683370190505090508481600081518110610d0f57fe5b60200260200101906001600160a01b031690816001600160a01b0316815250508381600181518110610d3d57fe5b60200260200101906001600160a01b031690816001600160a01b0316815250506000610d698585610c5b565b60cc546040516307c0329d60e21b81529192506060916001600160a01b0390911690631f00ca7490610da19085908790600401611e72565b60006040518083038186803b158015610db957600080fd5b505afa158015610dcd573d6000803e3d6000fd5b505050506040513d6000823e601f3d908101601f19168201604052610df59190810190611bd5565b9050600081600181518110610e0657fe5b602002602001015190506108b38882610bc9565b805182516000911015610e2f57506001610335565b815183511015610e425750600019610335565b50600092915050565b610e5484611496565b610e5c611b32565b610e668584611969565b90506000610e748684610c5b565b905060006060876001600160a01b03166323b872dd60e01b888886604051602401610ea193929190611e35565b60408051601f198184030181529181526020820180516001600160e01b03166001600160e01b0319909416939093179092529051610edf9190611e05565b6000604051808303816000865af19150503d8060008114610f1c576040519150601f19603f3d011682016040523d82523d6000602084013e610f21565b606091505b5091509150818015610f4b575080511580610f4b575080806020019051810190610f4b9190611c6d565b610f675760405162461bcd60e51b815260040161021c90611ffb565b610f73888785876119f1565b5050505050505050565b610f85611b32565b60408051600280825260608083018452926020830190803683370190505090508681600081518110610fb357fe5b60200260200101906001600160a01b031690816001600160a01b0316815250508581600181518110610fe157fe5b60200260200101906001600160a01b031690816001600160a01b03168152505061100a83610bc5565b61105057600061101982610a35565b60408051602080820183526710a741a4627800008252825190810190925282825291925061104c9163ffffffff61097e16565b9350505b60cc546110689088906001600160a01b031686610958565b60006110748787610c5b565b905060006110828987610c5b565b9050600061108f84610a35565b905061109a86610bc5565b8111156110b95760405162461bcd60e51b815260040161021c906120c0565b60cc54604051634401edf760e11b81526060916001600160a01b031690638803dbee906110f290879087908a9030904290600401612327565b600060405180830381600087803b15801561110c57600080fd5b505af1158015611120573d6000803e3d6000fd5b505050506040513d6000823e601f3d908101601f191682016040526111489190810190611bd5565b905060008160018151811061115957fe5b60200260200101519050600061116e87610a35565b905061117989610bc5565b8111156111985760405162461bcd60e51b815260040161021c906120c0565b600082116111b85760405162461bcd60e51b815260040161021c9061203c565b7f1ac213d5b0a496f217ff7aa4815243ba303ec9f805bae18c73d1497b29df417b82876040516111e9929190612319565b60405180910390a16111fb8d83610bc9565b9d9c50505050505050505050505050565b61121583611496565b61121d611b32565b6112278484611969565b905060006112358584610c5b565b905060006060866001600160a01b031663a9059cbb60e01b8785604051602401611260929190611e59565b60408051601f198184030181529181526020820180516001600160e01b03166001600160e01b031990941693909317909252905161129e9190611e05565b6000604051808303816000865af19150503d80600081146112db576040519150601f19603f3d011682016040523d82523d6000602084013e6112e0565b606091505b509150915081801561130a57508051158061130a57508080602001905181019061130a9190611c6d565b6113265760405162461bcd60e51b815260040161021c90611ebe565b611332878785876119f1565b50505050505050565b600054610100900460ff168061135457506113546108bf565b80611362575060005460ff16155b61137e5760405162461bcd60e51b815260040161021c9061212e565b600054610100900460ff16158015610943576000805460ff1961ff0019909116610100171660011790558015610955576000805461ff001916905550565b600054610100900460ff16806113d557506113d56108bf565b806113e3575060005460ff16155b6113ff5760405162461bcd60e51b815260040161021c9061212e565b600054610100900460ff1615801561142a576000805460ff1961ff0019909116610100171660011790555b60006114346106a2565b606580546001600160a01b0319166001600160a01b038316908117909155604051919250906000907f8be0079c531659141344cd1fd0a4f28419497f9722a3daafe3b4186f6b6457e0908290a3508015610955576000805461ff001916905550565b60006114a182610ae1565b6001600160a01b03831660009081526099602052604090205490915081146114df576001600160a01b03821660009081526099602052604090208190555b5050565b6114eb611b32565b5060408051602081019091526000815290565b600060606001600160a01b03851663095ea7b360e01b8561151f8887610c5b565b604051602401611530929190611e59565b60408051601f198184030181529181526020820180516001600160e01b03166001600160e01b031990941693909317909252905161156e9190611e05565b6000604051808303816000865af19150503d80600081146115ab576040519150601f19603f3d011682016040523d82523d6000602084013e6115b0565b606091505b50915091508180156115da5750805115806115da5750808060200190518101906115da9190611c6d565b6115f65760405162461bcd60e51b815260040161021c90612254565b5050505050565b600061033283836012611a4a565b600061033283836012611a68565b611621611b32565b6040805160028082526060808301845292602083019080368337019050509050868160008151811061164f57fe5b60200260200101906001600160a01b031690816001600160a01b031681525050858160018151811061167d57fe5b60200260200101906001600160a01b031690816001600160a01b0316815250506116a683610bc5565b6116ec5760006116b582610a35565b60408051602080820183526710a741a462780000825282519081019092528282529192506116e89163ffffffff61097e16565b9350505b60cc546117049088906001600160a01b031687610958565b60006117108887610c5b565b9050600061171d83610a35565b905061172885610bc5565b8111156117475760405162461bcd60e51b815260040161021c906120c0565b60cc546060906001600160a01b03166338ed1739846117668c8b610c5b565b8730426040518663ffffffff1660e01b8152600401611789959493929190612327565b600060405180830381600087803b1580156117a357600080fd5b505af11580156117b7573d6000803e3d6000fd5b505050506040513d6000823e601f3d908101601f191682016040526117df9190810190611bd5565b90506000816001815181106117f057fe5b60200260200101519050600061180586610a35565b905061181088610bc5565b81111561182f5760405162461bcd60e51b815260040161021c906120c0565b6000821161184f5760405162461bcd60e51b815260040161021c9061203c565b7f1ac213d5b0a496f217ff7aa4815243ba303ec9f805bae18c73d1497b29df417b8583604051611880929190612319565b60405180910390a16118928b83610bc9565b9c9b505050505050505050505050565b60ff16600a0a90565b600061033283836040518060400160405280601e81526020017f536166654d6174683a207375627472616374696f6e206f766572666c6f770000815250611a87565b600061033283836040518060400160405280601a81526020017f536166654d6174683a206469766973696f6e206279207a65726f000000000000815250611ab3565b60008261193e57506000610335565b8282028284828161194b57fe5b04146103325760405162461bcd60e51b815260040161021c906120ed565b611971611b32565b61033283846001600160a01b03166370a08231856040518263ffffffff1660e01b81526004016119a19190611e21565b60206040518083038186803b1580156119b957600080fd5b505afa1580156119cd573d6000803e3d6000fd5b505050506040513d601f19601f820116820180604052508101906107a69190611daa565b611a24611a0e611a018685610bc9565b839063ffffffff611aea16565b611a188686611969565b9063ffffffff610e1a16565b60000b15611a445760405162461bcd60e51b815260040161021c9061228b565b50505050565b6000610cd1611a58836118a2565b610cc5868663ffffffff61192f16565b6000610cd183610cc5611a7a856118a2565b879063ffffffff61192f16565b60008184841115611aab5760405162461bcd60e51b815260040161021c9190611e8b565b505050900390565b60008183611ad45760405162461bcd60e51b815260040161021c9190611e8b565b506000838581611ae057fe5b0495945050505050565b611af2611b32565b611afa611b32565b825184516109a19163ffffffff611b0d16565b6000828201838110156103325760405162461bcd60e51b815260040161021c90611ef5565b6040518060200160405280600081525090565b600060208284031215611b56578081fd5b50919050565b600060208284031215611b6d578081fd5b611b776020612363565b9135825250919050565b600060208284031215611b92578081fd5b8135610332816123d6565b60008060408385031215611baf578081fd5b8235611bba816123d6565b91506020830135611bca816123d6565b809150509250929050565b60006020808385031215611be7578182fd5b825167ffffffffffffffff811115611bfd578283fd5b80840185601f820112611c0e578384fd5b80519150611c23611c1e8361238a565b612363565b8281528381019082850185850284018601891015611c3f578687fd5b8693505b84841015611c61578051835260019390930192918501918501611c43565b50979650505050505050565b600060208284031215611c7e578081fd5b81518015158114610332578182fd5b600080600060608486031215611ca1578081fd5b8335611cac816123d6565b92506020840135611cbc816123d6565b9150611ccb8560408601611b5c565b90509250925092565b60008060408385031215611baf578182fd5b600080600060608486031215611cfa578283fd5b8335611d05816123d6565b92506020840135611d15816123d6565b9150611ccb8560408601611b45565b600080600080600060a08688031215611d3b578081fd5b8535611d46816123d6565b94506020860135611d56816123d6565b9350611d658760408801611b45565b9250611d748760608801611b45565b9150611d838760808801611b45565b90509295509295909350565b600060208284031215611da0578081fd5b6103328383611b5c565b600060208284031215611dbb578081fd5b5051919050565b6000815180845260208085019450808401835b83811015611dfa5781516001600160a01b031687529582019590820190600101611dd5565b509495945050505050565b60008251611e178184602087016123aa565b9190910192915050565b6001600160a01b0391909116815260200190565b6001600160a01b039384168152919092166020820152604081019190915260600190565b6001600160a01b03929092168252602082015260400190565b600083825260406020830152610cd16040830184611dc2565b6000602082528251806020840152611eaa8160408501602087016123aa565b601f01601f19169190910160400192915050565b6020808252601d908201527f446563696d616c45524332303a207472616e73666572206661696c6564000000604082015260600190565b6020808252601b908201527f536166654d6174683a206164646974696f6e206f766572666c6f770000000000604082015260600190565b60208082526027908201527f49666e7846694f776e61626c65557067726164653a206e6f7420746865206e656040820152663b9037bbb732b960c91b606082015260800190565b60208082526027908201527f49666e7846694f776e61626c65557067726164653a2073616d652061732063616040820152666e64696461746560c81b606082015260800190565b60208082526021908201527f446563696d616c45524332303a2067657420646563696d616c73206661696c656040820152601960fa1b606082015260800190565b60208082526021908201527f446563696d616c45524332303a207472616e7366657246726f6d206661696c656040820152601960fa1b606082015260800190565b60208082526017908201527f42616c616e6365722065786368616e6765206572726f72000000000000000000604082015260600190565b6020808252602d908201527f49666e7846694f776e61626c65557067726164653a2063616c6c65722069732060408201526c3737ba103a34329037bbb732b960991b606082015260800190565b6020808252601390820152724552525f4241445f4c494d49545f505249434560681b604082015260600190565b60208082526021908201527f536166654d6174683a206d756c7469706c69636174696f6e206f766572666c6f6040820152607760f81b606082015260800190565b6020808252602e908201527f436f6e747261637420696e7374616e63652068617320616c726561647920626560408201526d195b881a5b9a5d1a585b1a5e995960921b606082015260800190565b60208082526023908201527f6d617820696e70757420616d6f756e74206c657373207468616e2065787065636040820152621d195960ea1b606082015260800190565b6020808252602f908201527f49666e7846694f776e61626c65557067726164653a2063616e6469646174652060408201526e6973207a65726f206164647265737360881b606082015260800190565b60208082526026908201527f49666e7846694f776e61626c65557067726164653a2073616d65206173206f726040820152651a59da5b985b60d21b606082015260800190565b6020808252601c908201527f446563696d616c45524332303a20617070726f7665206661696c656400000000604082015260600190565b60208082526022908201527f446563696d616c45524332303a2062616c616e636520696e636f6e73697374656040820152611b9d60f21b606082015260800190565b60208082526022908201527f49666e7846694f776e61626c65557067726164653a207a65726f206164647265604082015261737360f01b606082015260800190565b9051815260200190565b918252602082015260400190565b600086825285602083015260a0604083015261234660a0830186611dc2565b6001600160a01b0394909416606083015250608001529392505050565b60405181810167ffffffffffffffff8111828210171561238257600080fd5b604052919050565b600067ffffffffffffffff8211156123a0578081fd5b5060209081020190565b60005b838110156123c55781810151838201526020016123ad565b83811115611a445750506000910152565b6001600160a01b038116811461095557600080fdfea2646970667358221220ca58a03a0c62c92c39aef70a11cec4bef40d13f4c2c71581b1fa57cc0feaf09f64736f6c63430006090033",
  "linkReferences": {},
  "deployedLinkReferences": {}
}