{
  "_format": "hh-sol-artifact-1",
  "contractName": "API3PriceFeed",
  "sourceName": "contracts/API3PriceFeed.sol",
  "abi": [
    {
      "inputs": [
        {
          "internalType": "address",
          "name": "_whitelister",
          "type": "address"
        }
      ],
      "stateMutability": "nonpayable",
      "type": "constructor"
    },
    {
      "anonymous": false,
      "inputs": [
        {
          "indexed": false,
          "internalType": "bytes32",
          "name": "_priceFeedKey",
          "type": "bytes32"
        },
        {
          "indexed": false,
          "internalType": "bytes32",
          "name": "_beaconId",
          "type": "bytes32"
        }
      ],
      "name": "BeaconWhitelisted",
      "type": "event"
    },
    {
      "inputs": [
        {
          "internalType": "bytes32",
          "name": "_priceFeedKey",
          "type": "bytes32"
        }
      ],
      "name": "getBeacon",
      "outputs": [
        {
          "internalType": "bytes32",
          "name": "",
          "type": "bytes32"
        }
      ],
      "stateMutability": "view",
      "type": "function"
    },
    {
      "inputs": [
        {
          "internalType": "bytes32",
          "name": "_priceFeedKey",
          "type": "bytes32"
        }
      ],
      "name": "getPrice",
      "outputs": [
        {
          "internalType": "uint256",
          "name": "",
          "type": "uint256"
        }
      ],
      "stateMutability": "view",
      "type": "function"
    },
    {
      "inputs": [
        {
          "internalType": "bytes32",
          "name": "_priceFeedKey",
          "type": "bytes32"
        }
      ],
      "name": "isPriceFeedWhitelisted",
      "outputs": [
        {
          "internalType": "bool",
          "name": "",
          "type": "bool"
        }
      ],
      "stateMutability": "view",
      "type": "function"
    },
    {
      "inputs": [
        {
          "internalType": "bytes32",
          "name": "",
          "type": "bytes32"
        }
      ],
      "name": "priceFeedMap",
      "outputs": [
        {
          "internalType": "bytes32",
          "name": "",
          "type": "bytes32"
        }
      ],
      "stateMutability": "view",
      "type": "function"
    },
    {
      "inputs": [
        {
          "internalType": "bytes32",
          "name": "",
          "type": "bytes32"
        }
      ],
      "name": "priceFeedWhitelisted",
      "outputs": [
        {
          "internalType": "bool",
          "name": "",
          "type": "bool"
        }
      ],
      "stateMutability": "view",
      "type": "function"
    },
    {
      "inputs": [
        {
          "internalType": "bytes32",
          "name": "_priceFeedKey",
          "type": "bytes32"
        },
        {
          "internalType": "bytes32",
          "name": "_beaconId",
          "type": "bytes32"
        }
      ],
      "name": "setBeacon",
      "outputs": [],
      "stateMutability": "nonpayable",
      "type": "function"
    }
  ],
  "bytecode": "0x608060405264e8d4a5100060025534801561001957600080fd5b506040516107083803806107088339810160408190526100389161013d565b610041816100f0565b600480546001600160a01b0319166001600160a01b038316908117825560408051639da4543b60e01b815290519192639da4543b928282019260209290829003018186803b15801561009257600080fd5b505afa1580156100a6573d6000803e3d6000fd5b505050506040513d601f19601f820116820180604052508101906100ca919061013d565b600380546001600160a01b0319166001600160a01b03929092169190911790555061016b565b6001600160a01b03811661013a5760405162461bcd60e51b815260206004820152600d60248201526c656d707479206164647265737360981b604482015260640160405180910390fd5b50565b60006020828403121561014e578081fd5b81516001600160a01b0381168114610164578182fd5b9392505050565b61058e8061017a6000396000f3fe608060405234801561001057600080fd5b50600436106100625760003560e01c8063250742cc1461006757806331d98b3f1461009a57806344fce375146100ad5780634828da85146100e05780638156bf8a14610100578063dc59936a14610115575b600080fd5b6100876100753660046104b5565b60006020819052908152604090205481565b6040519081526020015b60405180910390f35b6100876100a83660046104b5565b610138565b6100d06100bb3660046104b5565b60016020526000908152604090205460ff1681565b6040519015158152602001610091565b6100876100ee3660046104b5565b60009081526020819052604090205490565b61011361010e3660046104cd565b610244565b005b6100d06101233660046104b5565b60009081526001602052604090205460ff1690565b60008181526001602052604081205460ff1661019a5760405162461bcd60e51b815260206004820152601b60248201527f50524943455f464545443a204e4f542057484954454c49535445440000000000604482015260640160405180910390fd5b600082815260208190526040808220546003549151631de7e45b60e01b8152600481018290529092916001600160a01b031690631de7e45b90602401604080518083038186803b1580156101ed57600080fd5b505afa158015610201573d6000803e3d6000fd5b505050506040513d601f19601f8201168201806040525081019061022591906104ee565b50600254909150601b82900b0261023b81610330565b95945050505050565b8061024e57600080fd5b60008281526001602052604090205460ff166102e357600480546040516327b2fec760e11b81529182018390523060248301526001600160a01b031690634f65fd8e90604401600060405180830381600087803b1580156102ae57600080fd5b505af11580156102c2573d6000803e3d6000fd5b5050506000838152600160208190526040909120805460ff19169091179055505b6000828152602081815260409182902083905581518481529081018390527f6aa53e77381fa741f9fb2984aa2c13705e2d12aaa54624ea0fd1dc3247cf613b910160405180910390a15050565b6000670de0b6b3a764000082101561034757600080fd5b600061035c670de0b6b3a764000084046103c9565b670de0b6b3a7640000808202935090915083821c9081141561037f575050919050565b6706f05b59d3b200005b80156103c157670de0b6b3a7640000828002049150671bc16d674ec8000082106103b9579283019260019190911c905b60011c610389565b505050919050565b6000600160801b82106103e957608091821c916103e69082610534565b90505b68010000000000000000821061040c57604091821c916104099082610534565b90505b640100000000821061042b57602091821c916104289082610534565b90505b62010000821061044857601091821c916104459082610534565b90505b610100821061046457600891821c916104619082610534565b90505b6010821061047f57600491821c9161047c9082610534565b90505b6004821061049a57600291821c916104979082610534565b90505b600282106104b0576104ad600182610534565b90505b919050565b6000602082840312156104c6578081fd5b5035919050565b600080604083850312156104df578081fd5b50508035926020909101359150565b60008060408385031215610500578182fd5b825180601b0b8114610510578283fd5b602084015190925063ffffffff81168114610529578182fd5b809150509250929050565b6000821982111561055357634e487b7160e01b81526011600452602481fd5b50019056fea2646970667358221220a9ca0221ad615670843182eee69b93dc136a9a5888509478784ab2298463a1f664736f6c63430008040033",
  "linkReferences": {},
  "deployedLinkReferences": {}
}