{
  "_format": "hh-sol-artifact-1",
  "contractName": "IfnxFiOwnableUpgrade",
  "sourceName": "contracts/utils/IfnxFiOwnableUpgrade.sol",
  "abi": [
    {
      "anonymous": false,
      "inputs": [
        {
          "indexed": true,
          "internalType": "address",
          "name": "previousOwner",
          "type": "address"
        },
        {
          "indexed": true,
          "internalType": "address",
          "name": "newOwner",
          "type": "address"
        }
      ],
      "name": "OwnershipTransferred",
      "type": "event"
    },
    {
      "inputs": [],
      "name": "candidate",
      "outputs": [
        {
          "internalType": "address",
          "name": "",
          "type": "address"
        }
      ],
      "stateMutability": "view",
      "type": "function"
    },
    {
      "inputs": [],
      "name": "owner",
      "outputs": [
        {
          "internalType": "address",
          "name": "",
          "type": "address"
        }
      ],
      "stateMutability": "view",
      "type": "function"
    },
    {
      "inputs": [],
      "name": "renounceOwnership",
      "outputs": [],
      "stateMutability": "nonpayable",
      "type": "function"
    },
    {
      "inputs": [
        {
          "internalType": "address",
          "name": "newOwner",
          "type": "address"
        }
      ],
      "name": "setOwner",
      "outputs": [],
      "stateMutability": "nonpayable",
      "type": "function"
    },
    {
      "inputs": [],
      "name": "updateOwner",
      "outputs": [],
      "stateMutability": "nonpayable",
      "type": "function"
    }
  ],
  "bytecode": "0x608060405234801561001057600080fd5b506104fe806100206000396000f3fe608060405234801561001057600080fd5b50600436106100575760003560e01c806313af40351461005c5780636c8381f814610084578063715018a6146100a85780638da5cb5b146100b0578063bc5920ba146100b8575b600080fd5b6100826004803603602081101561007257600080fd5b50356001600160a01b03166100c0565b005b61008c610215565b604080516001600160a01b039092168252519081900360200190f35b610082610224565b61008c6102c2565b6100826102d1565b6100c86103d2565b6065546001600160a01b039081169116146101145760405162461bcd60e51b815260040180806020018281038252602d815260200180610425602d913960400191505060405180910390fd5b6001600160a01b0381166101595760405162461bcd60e51b81526004018080602001828103825260228152602001806104a76022913960400191505060405180910390fd5b6065546001600160a01b03828116911614156101a65760405162461bcd60e51b81526004018080602001828103825260268152602001806104816026913960400191505060405180910390fd5b6066546001600160a01b03828116911614156101f35760405162461bcd60e51b81526004018080602001828103825260278152602001806103fe6027913960400191505060405180910390fd5b606680546001600160a01b0319166001600160a01b0392909216919091179055565b6066546001600160a01b031690565b61022c6103d2565b6065546001600160a01b039081169116146102785760405162461bcd60e51b815260040180806020018281038252602d815260200180610425602d913960400191505060405180910390fd5b6065546040516000916001600160a01b0316907f8be0079c531659141344cd1fd0a4f28419497f9722a3daafe3b4186f6b6457e0908390a3606580546001600160a01b0319169055565b6065546001600160a01b031690565b6066546001600160a01b03166103185760405162461bcd60e51b815260040180806020018281038252602f815260200180610452602f913960400191505060405180910390fd5b6103206103d2565b6066546001600160a01b0390811691161461036c5760405162461bcd60e51b81526004018080602001828103825260278152602001806103d76027913960400191505060405180910390fd5b6066546065546040516001600160a01b0392831692909116907f8be0079c531659141344cd1fd0a4f28419497f9722a3daafe3b4186f6b6457e090600090a360668054606580546001600160a01b03199081166001600160a01b03841617909155169055565b339056fe49666e7846694f776e61626c65557067726164653a206e6f7420746865206e6577206f776e657249666e7846694f776e61626c65557067726164653a2073616d652061732063616e64696461746549666e7846694f776e61626c65557067726164653a2063616c6c6572206973206e6f7420746865206f776e657249666e7846694f776e61626c65557067726164653a2063616e646964617465206973207a65726f206164647265737349666e7846694f776e61626c65557067726164653a2073616d65206173206f726967696e616c49666e7846694f776e61626c65557067726164653a207a65726f2061646472657373a26469706673582212209edb6151b81e41158ca3c9964c144fabbb4c209ccc680ccbd1d7d146a358af2e64736f6c63430006090033",
  "linkReferences": {},
  "deployedLinkReferences": {}
}