{
  "_format": "hh-sol-artifact-1",
  "contractName": "Api3Oracle",
  "sourceName": "contracts/oracle/Oracle.sol",
  "abi": [
    {
      "inputs": [
        {
          "internalType": "address",
          "name": "_whitelister",
          "type": "address"
        }
      ],
      "stateMutability": "nonpayable",
      "type": "constructor"
    },
    {
      "inputs": [
        {
          "internalType": "uint256",
          "name": "x",
          "type": "uint256"
        }
      ],
      "name": "PRBMathUD60x18__LogInputTooSmall",
      "type": "error"
    },
    {
      "inputs": [
        {
          "internalType": "bytes32",
          "name": "_priceFeedKey",
          "type": "bytes32"
        }
      ],
      "name": "getBeacon",
      "outputs": [
        {
          "internalType": "bytes32",
          "name": "",
          "type": "bytes32"
        }
      ],
      "stateMutability": "view",
      "type": "function"
    },
    {
      "inputs": [
        {
          "internalType": "bytes32",
          "name": "_priceFeedKey",
          "type": "bytes32"
        },
        {
          "internalType": "uint256",
          "name": "at",
          "type": "uint256"
        }
      ],
      "name": "getPreviousPrice",
      "outputs": [
        {
          "internalType": "uint256",
          "name": "",
          "type": "uint256"
        }
      ],
      "stateMutability": "view",
      "type": "function"
    },
    {
      "inputs": [
        {
          "internalType": "bytes32",
          "name": "_priceFeedKey",
          "type": "bytes32"
        }
      ],
      "name": "getPrice",
      "outputs": [
        {
          "internalType": "uint256",
          "name": "",
          "type": "uint256"
        }
      ],
      "stateMutability": "view",
      "type": "function"
    },
    {
      "inputs": [
        {
          "internalType": "bytes32",
          "name": "_priceFeedKey",
          "type": "bytes32"
        },
        {
          "internalType": "uint256",
          "name": "_intervals",
          "type": "uint256"
        }
      ],
      "name": "getTwapPrice",
      "outputs": [
        {
          "internalType": "uint256",
          "name": "",
          "type": "uint256"
        }
      ],
      "stateMutability": "view",
      "type": "function"
    },
    {
      "inputs": [
        {
          "internalType": "bytes32",
          "name": "_priceFeedKey",
          "type": "bytes32"
        }
      ],
      "name": "isPriceFeedWhitelisted",
      "outputs": [
        {
          "internalType": "bool",
          "name": "",
          "type": "bool"
        }
      ],
      "stateMutability": "view",
      "type": "function"
    },
    {
      "inputs": [
        {
          "internalType": "bytes32",
          "name": "",
          "type": "bytes32"
        }
      ],
      "name": "priceFeedMap",
      "outputs": [
        {
          "internalType": "bytes32",
          "name": "",
          "type": "bytes32"
        }
      ],
      "stateMutability": "view",
      "type": "function"
    },
    {
      "inputs": [
        {
          "internalType": "bytes32",
          "name": "",
          "type": "bytes32"
        }
      ],
      "name": "priceFeedWhitelisted",
      "outputs": [
        {
          "internalType": "bool",
          "name": "",
          "type": "bool"
        }
      ],
      "stateMutability": "view",
      "type": "function"
    },
    {
      "inputs": [
        {
          "internalType": "bytes32",
          "name": "_priceFeedKey",
          "type": "bytes32"
        },
        {
          "internalType": "bytes32",
          "name": "_beaconId",
          "type": "bytes32"
        }
      ],
      "name": "setBeacon",
      "outputs": [],
      "stateMutability": "nonpayable",
      "type": "function"
    }
  ],
  "bytecode": "0x608060405264e8d4a5100060025534801561001957600080fd5b5060405161075a38038061075a8339810160408190526100389161013d565b610041816100f0565b600480546001600160a01b0319166001600160a01b038316908117825560408051639da4543b60e01b815290519192639da4543b928282019260209290829003018186803b15801561009257600080fd5b505afa1580156100a6573d6000803e3d6000fd5b505050506040513d601f19601f820116820180604052508101906100ca919061013d565b600380546001600160a01b0319166001600160a01b03929092169190911790555061016b565b6001600160a01b03811661013a5760405162461bcd60e51b815260206004820152600d60248201526c656d707479206164647265737360981b604482015260640160405180910390fd5b50565b60006020828403121561014e578081fd5b81516001600160a01b0381168114610164578182fd5b9392505050565b6105e08061017a6000396000f3fe608060405234801561001057600080fd5b50600436106100885760003560e01c80638156bf8a1161005b5780638156bf8a14610126578063914b14c51461013b578063a2173df41461013b578063dc59936a1461015157600080fd5b8063250742cc1461008d57806331d98b3f146100c057806344fce375146100d35780634828da8514610106575b600080fd5b6100ad61009b3660046104f5565b60006020819052908152604090205481565b6040519081526020015b60405180910390f35b6100ad6100ce3660046104f5565b610174565b6100f66100e13660046104f5565b60016020526000908152604090205460ff1681565b60405190151581526020016100b7565b6100ad6101143660046104f5565b60009081526020819052604090205490565b61013961013436600461050d565b61028e565b005b6100ad61014936600461052e565b600092915050565b6100f661015f3660046104f5565b60009081526001602052604090205460ff1690565b60008181526001602052604081205460ff166101d75760405162461bcd60e51b815260206004820152601b60248201527f50524943455f464545443a204e4f542057484954454c4953544544000000000060448201526064015b60405180910390fd5b600082815260208190526040808220546003549151631de7e45b60e01b81526004810182905290929173ffffffffffffffffffffffffffffffffffffffff1690631de7e45b90602401604080518083038186803b15801561023757600080fd5b505afa15801561024b573d6000803e3d6000fd5b505050506040513d601f19601f8201168201806040525081019061026f9190610540565b50600254909150601b82900b026102858161034c565b95945050505050565b8061029857600080fd5b60008281526001602052604090205460ff1661033a57600480546040516327b2fec760e11b815291820183905230602483015273ffffffffffffffffffffffffffffffffffffffff1690634f65fd8e90604401600060405180830381600087803b15801561030557600080fd5b505af1158015610319573d6000803e3d6000fd5b5050506000838152600160208190526040909120805460ff19169091179055505b60009182526020829052604090912055565b6000670de0b6b3a764000082101561037a57604051633621413760e21b8152600481018390526024016101ce565b600061038f670de0b6b3a764000084046103fc565b670de0b6b3a7640000808202935090915083821c908114156103b2575050919050565b6706f05b59d3b200005b80156103f457670de0b6b3a7640000828002049150671bc16d674ec8000082106103ec579283019260019190911c905b60011c6103bc565b505050919050565b6000700100000000000000000000000000000000821061042957608091821c916104269082610586565b90505b68010000000000000000821061044c57604091821c916104499082610586565b90505b640100000000821061046b57602091821c916104689082610586565b90505b62010000821061048857601091821c916104859082610586565b90505b61010082106104a457600891821c916104a19082610586565b90505b601082106104bf57600491821c916104bc9082610586565b90505b600482106104da57600291821c916104d79082610586565b90505b600282106104f0576104ed600182610586565b90505b919050565b600060208284031215610506578081fd5b5035919050565b6000806040838503121561051f578081fd5b50508035926020909101359150565b6000806040838503121561051f578182fd5b60008060408385031215610552578182fd5b825180601b0b8114610562578283fd5b602084015190925063ffffffff8116811461057b578182fd5b809150509250929050565b600082198211156105a557634e487b7160e01b81526011600452602481fd5b50019056fea26469706673582212204f1d9b91ca0d0d8afa7574bb8d4febac7b9d6f3579f295eeb9e64d421dbf8c8664736f6c63430008040033",
  "linkReferences": {},
  "deployedLinkReferences": {}
}