{
  "_format": "hh-sol-artifact-1",
  "contractName": "Minter",
  "sourceName": "contracts/Minter.sol",
  "abi": [
    {
      "anonymous": false,
      "inputs": [
        {
          "indexed": false,
          "internalType": "uint256",
          "name": "amount",
          "type": "uint256"
        }
      ],
      "name": "IfnxMinted",
      "type": "event"
    },
    {
      "anonymous": false,
      "inputs": [
        {
          "indexed": true,
          "internalType": "address",
          "name": "previousOwner",
          "type": "address"
        },
        {
          "indexed": true,
          "internalType": "address",
          "name": "newOwner",
          "type": "address"
        }
      ],
      "name": "OwnershipTransferred",
      "type": "event"
    },
    {
      "inputs": [],
      "name": "candidate",
      "outputs": [
        {
          "internalType": "address",
          "name": "",
          "type": "address"
        }
      ],
      "stateMutability": "view",
      "type": "function"
    },
    {
      "inputs": [],
      "name": "getIfnxToken",
      "outputs": [
        {
          "internalType": "contract IERC20",
          "name": "",
          "type": "address"
        }
      ],
      "stateMutability": "view",
      "type": "function"
    },
    {
      "inputs": [],
      "name": "inflationMonitor",
      "outputs": [
        {
          "internalType": "contract IInflationMonitor",
          "name": "",
          "type": "address"
        }
      ],
      "stateMutability": "view",
      "type": "function"
    },
    {
      "inputs": [
        {
          "internalType": "address",
          "name": "_ifnxToken",
          "type": "address"
        }
      ],
      "name": "initialize",
      "outputs": [],
      "stateMutability": "nonpayable",
      "type": "function"
    },
    {
      "inputs": [],
      "name": "insuranceFund",
      "outputs": [
        {
          "internalType": "address",
          "name": "",
          "type": "address"
        }
      ],
      "stateMutability": "view",
      "type": "function"
    },
    {
      "inputs": [
        {
          "components": [
            {
              "internalType": "uint256",
              "name": "d",
              "type": "uint256"
            }
          ],
          "internalType": "struct Decimal.decimal",
          "name": "_amount",
          "type": "tuple"
        }
      ],
      "name": "mintForLoss",
      "outputs": [],
      "stateMutability": "nonpayable",
      "type": "function"
    },
    {
      "inputs": [],
      "name": "mintReward",
      "outputs": [],
      "stateMutability": "nonpayable",
      "type": "function"
    },
    {
      "inputs": [],
      "name": "owner",
      "outputs": [
        {
          "internalType": "address",
          "name": "",
          "type": "address"
        }
      ],
      "stateMutability": "view",
      "type": "function"
    },
    {
      "inputs": [],
      "name": "renounceOwnership",
      "outputs": [],
      "stateMutability": "nonpayable",
      "type": "function"
    },
    {
      "inputs": [],
      "name": "rewardsDistribution",
      "outputs": [
        {
          "internalType": "contract RewardsDistribution",
          "name": "",
          "type": "address"
        }
      ],
      "stateMutability": "view",
      "type": "function"
    },
    {
      "inputs": [
        {
          "internalType": "contract IInflationMonitor",
          "name": "_inflationMonitor",
          "type": "address"
        }
      ],
      "name": "setInflationMonitor",
      "outputs": [],
      "stateMutability": "nonpayable",
      "type": "function"
    },
    {
      "inputs": [
        {
          "internalType": "address",
          "name": "_insuranceFund",
          "type": "address"
        }
      ],
      "name": "setInsuranceFund",
      "outputs": [],
      "stateMutability": "nonpayable",
      "type": "function"
    },
    {
      "inputs": [
        {
          "internalType": "address",
          "name": "newOwner",
          "type": "address"
        }
      ],
      "name": "setOwner",
      "outputs": [],
      "stateMutability": "nonpayable",
      "type": "function"
    },
    {
      "inputs": [
        {
          "internalType": "contract RewardsDistribution",
          "name": "_rewardsDistribution",
          "type": "address"
        }
      ],
      "name": "setRewardsDistribution",
      "outputs": [],
      "stateMutability": "nonpayable",
      "type": "function"
    },
    {
      "inputs": [
        {
          "internalType": "contract SupplySchedule",
          "name": "_supplySchedule",
          "type": "address"
        }
      ],
      "name": "setSupplySchedule",
      "outputs": [],
      "stateMutability": "nonpayable",
      "type": "function"
    },
    {
      "inputs": [],
      "name": "supplySchedule",
      "outputs": [
        {
          "internalType": "contract SupplySchedule",
          "name": "",
          "type": "address"
        }
      ],
      "stateMutability": "view",
      "type": "function"
    },
    {
      "inputs": [],
      "name": "updateOwner",
      "outputs": [],
      "stateMutability": "nonpayable",
      "type": "function"
    }
  ],
  "bytecode": "0x608060405234801561001057600080fd5b50610fea806100206000396000f3fe608060405234801561001057600080fd5b506004361061010b5760003560e01c80638da5cb5b116100a2578063c3c0529311610071578063c3c05293146101b4578063c40dd66f146101c7578063c4d66de8146101cf578063c68ade37146101e2578063ca58b198146101f55761010b565b80638da5cb5b14610189578063b790230314610191578063b90ffc4114610199578063bc5920ba146101ac5761010b565b8063343f70ff116100de578063343f70ff146101535780633fc6df6e146101715780636c8381f814610179578063715018a6146101815761010b565b806313af403514610110578063174f57af14610125578063197621431461012d578063332f325614610140575b600080fd5b61012361011e366004610c1f565b6101fd565b005b6101236102df565b61012361013b366004610c1f565b61050e565b61012361014e366004610c1f565b610565565b61015b6105bc565b6040516101689190610c8c565b60405180910390f35b61015b6105cb565b61015b6105da565b6101236105e9565b61015b610668565b61015b610677565b6101236101a7366004610c42565b610686565b6101236107ed565b6101236101c2366004610c1f565b6108b0565b61015b610907565b6101236101dd366004610c1f565b610916565b6101236101f0366004610c1f565b6109bd565b61015b610a14565b610205610a23565b6065546001600160a01b0390811691161461023b5760405162461bcd60e51b815260040161023290610dbc565b60405180910390fd5b6001600160a01b0381166102615760405162461bcd60e51b815260040161023290610f23565b6065546001600160a01b038281169116141561028f5760405162461bcd60e51b815260040161023290610edd565b6066546001600160a01b03828116911614156102bd5760405162461bcd60e51b815260040161023290610d1a565b606680546001600160a01b0319166001600160a01b0392909216919091179055565b600061036f609a60009054906101000a90046001600160a01b03166001600160a01b031663cc5c095c6040518163ffffffff1660e01b815260040160206040518083038186803b15801561033257600080fd5b505afa158015610346573d6000803e3d6000fd5b505050506040513d601f19601f8201168201806040525081019061036a9190610c67565b610a27565b9050600081116103915760405162461bcd60e51b815260040161023290610d8d565b609954609b546040516340c10f1960e01b81526001600160a01b03928316926340c10f19926103c7929116908590600401610ca0565b600060405180830381600087803b1580156103e157600080fd5b505af11580156103f5573d6000803e3d6000fd5b5050609b546099546040805160208101825286815290516369a6a61b60e11b81526001600160a01b03938416955063d34d4c36945061043a9390921691600401610cb9565b600060405180830381600087803b15801561045457600080fd5b505af1158015610468573d6000803e3d6000fd5b50505050609a60009054906101000a90046001600160a01b03166001600160a01b0316632166979d6040518163ffffffff1660e01b8152600401600060405180830381600087803b1580156104bc57600080fd5b505af11580156104d0573d6000803e3d6000fd5b505050507f76e0846149efed39535c6efd21229a8aeef9a3d136c9469f97644b6f0b6ca368816040516105039190610f6f565b60405180910390a150565b610516610a23565b6065546001600160a01b039081169116146105435760405162461bcd60e51b815260040161023290610dbc565b609b80546001600160a01b0319166001600160a01b0392909216919091179055565b61056d610a23565b6065546001600160a01b0390811691161461059a5760405162461bcd60e51b815260040161023290610dbc565b609a80546001600160a01b0319166001600160a01b0392909216919091179055565b6099546001600160a01b031690565b609b546001600160a01b031681565b6066546001600160a01b031690565b6105f1610a23565b6065546001600160a01b0390811691161461061e5760405162461bcd60e51b815260040161023290610dbc565b6065546040516000916001600160a01b0316907f8be0079c531659141344cd1fd0a4f28419497f9722a3daafe3b4186f6b6457e0908390a3606580546001600160a01b0319169055565b6065546001600160a01b031690565b609d546001600160a01b031681565b61068e610a23565b609d546001600160a01b039081169116146106bb5760405162461bcd60e51b815260040161023290610d61565b609c546001600160a01b03166106e35760405162461bcd60e51b815260040161023290610e09565b609954609d546001600160a01b03918216916340c10f19911661070584610a27565b6040518363ffffffff1660e01b8152600401610722929190610ca0565b600060405180830381600087803b15801561073c57600080fd5b505af1158015610750573d6000803e3d6000fd5b5050609c5460405163213c4c7b60e01b81526001600160a01b03909116925063213c4c7b9150610784908490600401610f65565b600060405180830381600087803b15801561079e57600080fd5b505af11580156107b2573d6000803e3d6000fd5b505050507f76e0846149efed39535c6efd21229a8aeef9a3d136c9469f97644b6f0b6ca3686107e082610a27565b6040516105039190610f6f565b6066546001600160a01b03166108155760405162461bcd60e51b815260040161023290610e8e565b61081d610a23565b6066546001600160a01b0390811691161461084a5760405162461bcd60e51b815260040161023290610cd3565b6066546065546040516001600160a01b0392831692909116907f8be0079c531659141344cd1fd0a4f28419497f9722a3daafe3b4186f6b6457e090600090a360668054606580546001600160a01b03199081166001600160a01b03841617909155169055565b6108b8610a23565b6065546001600160a01b039081169116146108e55760405162461bcd60e51b815260040161023290610dbc565b609d80546001600160a01b0319166001600160a01b0392909216919091179055565b609a546001600160a01b031681565b600054610100900460ff168061092f575061092f610a2b565b8061093d575060005460ff16155b6109595760405162461bcd60e51b815260040161023290610e40565b600054610100900460ff16158015610984576000805460ff1961ff0019909116610100171660011790555b61098c610a31565b609980546001600160a01b0319166001600160a01b03841617905580156109b9576000805461ff00191690555b5050565b6109c5610a23565b6065546001600160a01b039081169116146109f25760405162461bcd60e51b815260040161023290610dbc565b609c80546001600160a01b0319166001600160a01b0392909216919091179055565b609c546001600160a01b031681565b3390565b5190565b303b1590565b600054610100900460ff1680610a4a5750610a4a610a2b565b80610a58575060005460ff16155b610a745760405162461bcd60e51b815260040161023290610e40565b600054610100900460ff16158015610a9f576000805460ff1961ff0019909116610100171660011790555b610aa7610ac4565b610aaf610b45565b8015610ac1576000805461ff00191690555b50565b600054610100900460ff1680610add5750610add610a2b565b80610aeb575060005460ff16155b610b075760405162461bcd60e51b815260040161023290610e40565b600054610100900460ff16158015610aaf576000805460ff1961ff0019909116610100171660011790558015610ac1576000805461ff001916905550565b600054610100900460ff1680610b5e5750610b5e610a2b565b80610b6c575060005460ff16155b610b885760405162461bcd60e51b815260040161023290610e40565b600054610100900460ff16158015610bb3576000805460ff1961ff0019909116610100171660011790555b6000610bbd610a23565b606580546001600160a01b0319166001600160a01b038316908117909155604051919250906000907f8be0079c531659141344cd1fd0a4f28419497f9722a3daafe3b4186f6b6457e0908290a3508015610ac1576000805461ff001916905550565b600060208284031215610c30578081fd5b8135610c3b81610f9f565b9392505050565b600060208284031215610c53578081fd5b610c5d6020610f78565b9135825250919050565b600060208284031215610c78578081fd5b610c826020610f78565b9151825250919050565b6001600160a01b0391909116815260200190565b6001600160a01b03929092168252602082015260400190565b6001600160a01b0392909216825251602082015260400190565b60208082526027908201527f49666e7846694f776e61626c65557067726164653a206e6f7420746865206e656040820152663b9037bbb732b960c91b606082015260800190565b60208082526027908201527f49666e7846694f776e61626c65557067726164653a2073616d652061732063616040820152666e64696461746560c81b606082015260800190565b6020808252601290820152711bdb9b1e481a5b9cdd5c985b98d9519d5b9960721b604082015260600190565b6020808252601590820152746e6f20737570706c79206973206d696e7461626c6560581b604082015260600190565b6020808252602d908201527f49666e7846694f776e61626c65557067726164653a2063616c6c65722069732060408201526c3737ba103a34329037bbb732b960991b606082015260800190565b6020808252601a908201527f696e666c6174696f6e4d6f6e69746f72206e6f7420666f756e74000000000000604082015260600190565b6020808252602e908201527f436f6e747261637420696e7374616e63652068617320616c726561647920626560408201526d195b881a5b9a5d1a585b1a5e995960921b606082015260800190565b6020808252602f908201527f49666e7846694f776e61626c65557067726164653a2063616e6469646174652060408201526e6973207a65726f206164647265737360881b606082015260800190565b60208082526026908201527f49666e7846694f776e61626c65557067726164653a2073616d65206173206f726040820152651a59da5b985b60d21b606082015260800190565b60208082526022908201527f49666e7846694f776e61626c65557067726164653a207a65726f206164647265604082015261737360f01b606082015260800190565b9051815260200190565b90815260200190565b60405181810167ffffffffffffffff81118282101715610f9757600080fd5b604052919050565b6001600160a01b0381168114610ac157600080fdfea2646970667358221220baeca04c3d4763e48b91aa70cd45d6e053d7d0fca91d84fffb04576434d0c88764736f6c63430006090033",
  "linkReferences": {},
  "deployedLinkReferences": {}
}