{
  "_format": "hh-sol-artifact-1",
  "contractName": "PausableUpgradeSafe",
  "sourceName": "@openzeppelin/contracts-ethereum-package/contracts/utils/Pausable.sol",
  "abi": [
    {
      "anonymous": false,
      "inputs": [
        {
          "indexed": false,
          "internalType": "address",
          "name": "account",
          "type": "address"
        }
      ],
      "name": "Paused",
      "type": "event"
    },
    {
      "anonymous": false,
      "inputs": [
        {
          "indexed": false,
          "internalType": "address",
          "name": "account",
          "type": "address"
        }
      ],
      "name": "Unpaused",
      "type": "event"
    },
    {
      "inputs": [],
      "name": "paused",
      "outputs": [
        {
          "internalType": "bool",
          "name": "",
          "type": "bool"
        }
      ],
      "stateMutability": "view",
      "type": "function"
    }
  ],
  "bytecode": "0x6080604052348015600f57600080fd5b5060868061001e6000396000f3fe6080604052348015600f57600080fd5b506004361060285760003560e01c80635c975abb14602d575b600080fd5b60336047565b604080519115158252519081900360200190f35b60655460ff169056fea26469706673582212202ab8c38352b5c48b634818a625a927703703024ed34a1b0a2eee9d76cb2d3a2a64736f6c63430006090033",
  "linkReferences": {},
  "deployedLinkReferences": {}
}