{
  "_format": "hh-sol-artifact-1",
  "contractName": "AmmFake",
  "sourceName": "contracts/mock/AmmFake.sol",
  "abi": [
    {
      "inputs": [
        {
          "internalType": "uint256",
          "name": "_dcQuoteAssetReserve",
          "type": "uint256"
        },
        {
          "internalType": "uint256",
          "name": "_dcBaseAssetReserve",
          "type": "uint256"
        },
        {
          "internalType": "uint256",
          "name": "_dcTradeLimitRatio",
          "type": "uint256"
        },
        {
          "internalType": "uint256",
          "name": "_fundingPeriod",
          "type": "uint256"
        },
        {
          "internalType": "contract IPriceFeed",
          "name": "_priceFeed",
          "type": "address"
        },
        {
          "internalType": "bytes32",
          "name": "_priceFeedKey",
          "type": "bytes32"
        },
        {
          "internalType": "address",
          "name": "_quoteAsset",
          "type": "address"
        },
        {
          "internalType": "uint256",
          "name": "_fluctuation",
          "type": "uint256"
        },
        {
          "internalType": "uint256",
          "name": "_tollRatio",
          "type": "uint256"
        },
        {
          "internalType": "uint256",
          "name": "_spreadRatio",
          "type": "uint256"
        }
      ],
      "stateMutability": "nonpayable",
      "type": "constructor"
    },
    {
      "anonymous": false,
      "inputs": [
        {
          "indexed": false,
          "internalType": "uint256",
          "name": "maxHoldingBaseAsset",
          "type": "uint256"
        },
        {
          "indexed": false,
          "internalType": "uint256",
          "name": "openInterestNotionalCap",
          "type": "uint256"
        }
      ],
      "name": "CapChanged",
      "type": "event"
    },
    {
      "anonymous": false,
      "inputs": [
        {
          "indexed": false,
          "internalType": "int256",
          "name": "rate",
          "type": "int256"
        },
        {
          "indexed": false,
          "internalType": "uint256",
          "name": "underlyingPrice",
          "type": "uint256"
        }
      ],
      "name": "FundingRateUpdated",
      "type": "event"
    },
    {
      "anonymous": false,
      "inputs": [
        {
          "indexed": false,
          "internalType": "uint256",
          "name": "quoteReserve",
          "type": "uint256"
        },
        {
          "indexed": false,
          "internalType": "uint256",
          "name": "baseReserve",
          "type": "uint256"
        },
        {
          "indexed": false,
          "internalType": "int256",
          "name": "cumulativeNotional",
          "type": "int256"
        }
      ],
      "name": "LiquidityChanged",
      "type": "event"
    },
    {
      "anonymous": false,
      "inputs": [
        {
          "indexed": true,
          "internalType": "address",
          "name": "previousOwner",
          "type": "address"
        },
        {
          "indexed": true,
          "internalType": "address",
          "name": "newOwner",
          "type": "address"
        }
      ],
      "name": "OwnershipTransferred",
      "type": "event"
    },
    {
      "anonymous": false,
      "inputs": [
        {
          "indexed": false,
          "internalType": "address",
          "name": "priceFeed",
          "type": "address"
        }
      ],
      "name": "PriceFeedUpdated",
      "type": "event"
    },
    {
      "anonymous": false,
      "inputs": [
        {
          "indexed": false,
          "internalType": "uint256",
          "name": "quoteAssetReserve",
          "type": "uint256"
        },
        {
          "indexed": false,
          "internalType": "uint256",
          "name": "baseAssetReserve",
          "type": "uint256"
        },
        {
          "indexed": false,
          "internalType": "uint256",
          "name": "timestamp",
          "type": "uint256"
        }
      ],
      "name": "ReserveSnapshotted",
      "type": "event"
    },
    {
      "anonymous": false,
      "inputs": [
        {
          "indexed": false,
          "internalType": "uint256",
          "name": "settlementPrice",
          "type": "uint256"
        }
      ],
      "name": "Shutdown",
      "type": "event"
    },
    {
      "anonymous": false,
      "inputs": [
        {
          "indexed": false,
          "internalType": "enum IAmm.Dir",
          "name": "dir",
          "type": "uint8"
        },
        {
          "indexed": false,
          "internalType": "uint256",
          "name": "quoteAssetAmount",
          "type": "uint256"
        },
        {
          "indexed": false,
          "internalType": "uint256",
          "name": "baseAssetAmount",
          "type": "uint256"
        }
      ],
      "name": "SwapInput",
      "type": "event"
    },
    {
      "anonymous": false,
      "inputs": [
        {
          "indexed": false,
          "internalType": "enum IAmm.Dir",
          "name": "dir",
          "type": "uint8"
        },
        {
          "indexed": false,
          "internalType": "uint256",
          "name": "quoteAssetAmount",
          "type": "uint256"
        },
        {
          "indexed": false,
          "internalType": "uint256",
          "name": "baseAssetAmount",
          "type": "uint256"
        }
      ],
      "name": "SwapOutput",
      "type": "event"
    },
    {
      "inputs": [],
      "name": "MAX_ORACLE_SPREAD_RATIO",
      "outputs": [
        {
          "internalType": "uint256",
          "name": "",
          "type": "uint256"
        }
      ],
      "stateMutability": "view",
      "type": "function"
    },
    {
      "inputs": [],
      "name": "baseAssetReserve",
      "outputs": [
        {
          "internalType": "uint256",
          "name": "d",
          "type": "uint256"
        }
      ],
      "stateMutability": "view",
      "type": "function"
    },
    {
      "inputs": [
        {
          "components": [
            {
              "internalType": "int256",
              "name": "d",
              "type": "int256"
            }
          ],
          "internalType": "struct SignedDecimal.signedDecimal",
          "name": "_baseAssetAmount",
          "type": "tuple"
        },
        {
          "components": [
            {
              "internalType": "uint256",
              "name": "d",
              "type": "uint256"
            }
          ],
          "internalType": "struct Decimal.decimal",
          "name": "_fromQuoteReserve",
          "type": "tuple"
        },
        {
          "components": [
            {
              "internalType": "uint256",
              "name": "d",
              "type": "uint256"
            }
          ],
          "internalType": "struct Decimal.decimal",
          "name": "_fromBaseReserve",
          "type": "tuple"
        }
      ],
      "name": "calcBaseAssetAfterLiquidityMigration",
      "outputs": [
        {
          "components": [
            {
              "internalType": "int256",
              "name": "d",
              "type": "int256"
            }
          ],
          "internalType": "struct SignedDecimal.signedDecimal",
          "name": "",
          "type": "tuple"
        }
      ],
      "stateMutability": "view",
      "type": "function"
    },
    {
      "inputs": [
        {
          "components": [
            {
              "internalType": "uint256",
              "name": "d",
              "type": "uint256"
            }
          ],
          "internalType": "struct Decimal.decimal",
          "name": "_quoteAssetAmount",
          "type": "tuple"
        }
      ],
      "name": "calcFee",
      "outputs": [
        {
          "components": [
            {
              "internalType": "uint256",
              "name": "d",
              "type": "uint256"
            }
          ],
          "internalType": "struct Decimal.decimal",
          "name": "",
          "type": "tuple"
        },
        {
          "components": [
            {
              "internalType": "uint256",
              "name": "d",
              "type": "uint256"
            }
          ],
          "internalType": "struct Decimal.decimal",
          "name": "",
          "type": "tuple"
        }
      ],
      "stateMutability": "view",
      "type": "function"
    },
    {
      "inputs": [],
      "name": "candidate",
      "outputs": [
        {
          "internalType": "address",
          "name": "",
          "type": "address"
        }
      ],
      "stateMutability": "view",
      "type": "function"
    },
    {
      "inputs": [],
      "name": "fluctuationLimitRatio",
      "outputs": [
        {
          "internalType": "uint256",
          "name": "d",
          "type": "uint256"
        }
      ],
      "stateMutability": "view",
      "type": "function"
    },
    {
      "inputs": [],
      "name": "fundingBufferPeriod",
      "outputs": [
        {
          "internalType": "uint256",
          "name": "",
          "type": "uint256"
        }
      ],
      "stateMutability": "view",
      "type": "function"
    },
    {
      "inputs": [],
      "name": "fundingPeriod",
      "outputs": [
        {
          "internalType": "uint256",
          "name": "",
          "type": "uint256"
        }
      ],
      "stateMutability": "view",
      "type": "function"
    },
    {
      "inputs": [],
      "name": "fundingRate",
      "outputs": [
        {
          "internalType": "int256",
          "name": "d",
          "type": "int256"
        }
      ],
      "stateMutability": "view",
      "type": "function"
    },
    {
      "inputs": [],
      "name": "getBaseAssetDelta",
      "outputs": [
        {
          "components": [
            {
              "internalType": "int256",
              "name": "d",
              "type": "int256"
            }
          ],
          "internalType": "struct SignedDecimal.signedDecimal",
          "name": "",
          "type": "tuple"
        }
      ],
      "stateMutability": "view",
      "type": "function"
    },
    {
      "inputs": [],
      "name": "getBaseAssetDeltaThisFundingPeriod",
      "outputs": [
        {
          "components": [
            {
              "internalType": "int256",
              "name": "d",
              "type": "int256"
            }
          ],
          "internalType": "struct SignedDecimal.signedDecimal",
          "name": "",
          "type": "tuple"
        }
      ],
      "stateMutability": "view",
      "type": "function"
    },
    {
      "inputs": [],
      "name": "getCumulativeNotional",
      "outputs": [
        {
          "components": [
            {
              "internalType": "int256",
              "name": "d",
              "type": "int256"
            }
          ],
          "internalType": "struct SignedDecimal.signedDecimal",
          "name": "",
          "type": "tuple"
        }
      ],
      "stateMutability": "view",
      "type": "function"
    },
    {
      "inputs": [
        {
          "internalType": "enum IAmm.Dir",
          "name": "_dirOfQuote",
          "type": "uint8"
        },
        {
          "components": [
            {
              "internalType": "uint256",
              "name": "d",
              "type": "uint256"
            }
          ],
          "internalType": "struct Decimal.decimal",
          "name": "_quoteAssetAmount",
          "type": "tuple"
        }
      ],
      "name": "getInputPrice",
      "outputs": [
        {
          "components": [
            {
              "internalType": "uint256",
              "name": "d",
              "type": "uint256"
            }
          ],
          "internalType": "struct Decimal.decimal",
          "name": "",
          "type": "tuple"
        }
      ],
      "stateMutability": "view",
      "type": "function"
    },
    {
      "inputs": [
        {
          "internalType": "enum IAmm.Dir",
          "name": "_dirOfQuote",
          "type": "uint8"
        },
        {
          "components": [
            {
              "internalType": "uint256",
              "name": "d",
              "type": "uint256"
            }
          ],
          "internalType": "struct Decimal.decimal",
          "name": "_quoteAssetAmount",
          "type": "tuple"
        },
        {
          "components": [
            {
              "internalType": "uint256",
              "name": "d",
              "type": "uint256"
            }
          ],
          "internalType": "struct Decimal.decimal",
          "name": "_quoteAssetPoolAmount",
          "type": "tuple"
        },
        {
          "components": [
            {
              "internalType": "uint256",
              "name": "d",
              "type": "uint256"
            }
          ],
          "internalType": "struct Decimal.decimal",
          "name": "_baseAssetPoolAmount",
          "type": "tuple"
        }
      ],
      "name": "getInputPriceWithReserves",
      "outputs": [
        {
          "components": [
            {
              "internalType": "uint256",
              "name": "d",
              "type": "uint256"
            }
          ],
          "internalType": "struct Decimal.decimal",
          "name": "",
          "type": "tuple"
        }
      ],
      "stateMutability": "pure",
      "type": "function"
    },
    {
      "inputs": [
        {
          "internalType": "enum IAmm.Dir",
          "name": "_dir",
          "type": "uint8"
        },
        {
          "components": [
            {
              "internalType": "uint256",
              "name": "d",
              "type": "uint256"
            }
          ],
          "internalType": "struct Decimal.decimal",
          "name": "_quoteAssetAmount",
          "type": "tuple"
        },
        {
          "components": [
            {
              "internalType": "uint256",
              "name": "d",
              "type": "uint256"
            }
          ],
          "internalType": "struct Decimal.decimal",
          "name": "_quoteAssetPoolAmount",
          "type": "tuple"
        },
        {
          "components": [
            {
              "internalType": "uint256",
              "name": "d",
              "type": "uint256"
            }
          ],
          "internalType": "struct Decimal.decimal",
          "name": "_baseAssetPoolAmount",
          "type": "tuple"
        }
      ],
      "name": "getInputPriceWithReservesPublic",
      "outputs": [
        {
          "components": [
            {
              "internalType": "uint256",
              "name": "d",
              "type": "uint256"
            }
          ],
          "internalType": "struct Decimal.decimal",
          "name": "",
          "type": "tuple"
        }
      ],
      "stateMutability": "view",
      "type": "function"
    },
    {
      "inputs": [
        {
          "internalType": "enum IAmm.Dir",
          "name": "_dirOfQuote",
          "type": "uint8"
        },
        {
          "components": [
            {
              "internalType": "uint256",
              "name": "d",
              "type": "uint256"
            }
          ],
          "internalType": "struct Decimal.decimal",
          "name": "_quoteAssetAmount",
          "type": "tuple"
        }
      ],
      "name": "getInputTwap",
      "outputs": [
        {
          "components": [
            {
              "internalType": "uint256",
              "name": "d",
              "type": "uint256"
            }
          ],
          "internalType": "struct Decimal.decimal",
          "name": "",
          "type": "tuple"
        }
      ],
      "stateMutability": "view",
      "type": "function"
    },
    {
      "inputs": [],
      "name": "getLatestLiquidityChangedSnapshots",
      "outputs": [
        {
          "components": [
            {
              "components": [
                {
                  "internalType": "int256",
                  "name": "d",
                  "type": "int256"
                }
              ],
              "internalType": "struct SignedDecimal.signedDecimal",
              "name": "cumulativeNotional",
              "type": "tuple"
            },
            {
              "components": [
                {
                  "internalType": "uint256",
                  "name": "d",
                  "type": "uint256"
                }
              ],
              "internalType": "struct Decimal.decimal",
              "name": "quoteAssetReserve",
              "type": "tuple"
            },
            {
              "components": [
                {
                  "internalType": "uint256",
                  "name": "d",
                  "type": "uint256"
                }
              ],
              "internalType": "struct Decimal.decimal",
              "name": "baseAssetReserve",
              "type": "tuple"
            },
            {
              "components": [
                {
                  "internalType": "int256",
                  "name": "d",
                  "type": "int256"
                }
              ],
              "internalType": "struct SignedDecimal.signedDecimal",
              "name": "totalPositionSize",
              "type": "tuple"
            }
          ],
          "internalType": "struct IAmm.LiquidityChangedSnapshot",
          "name": "",
          "type": "tuple"
        }
      ],
      "stateMutability": "view",
      "type": "function"
    },
    {
      "inputs": [
        {
          "internalType": "uint256",
          "name": "i",
          "type": "uint256"
        }
      ],
      "name": "getLiquidityChangedSnapshots",
      "outputs": [
        {
          "components": [
            {
              "components": [
                {
                  "internalType": "int256",
                  "name": "d",
                  "type": "int256"
                }
              ],
              "internalType": "struct SignedDecimal.signedDecimal",
              "name": "cumulativeNotional",
              "type": "tuple"
            },
            {
              "components": [
                {
                  "internalType": "uint256",
                  "name": "d",
                  "type": "uint256"
                }
              ],
              "internalType": "struct Decimal.decimal",
              "name": "quoteAssetReserve",
              "type": "tuple"
            },
            {
              "components": [
                {
                  "internalType": "uint256",
                  "name": "d",
                  "type": "uint256"
                }
              ],
              "internalType": "struct Decimal.decimal",
              "name": "baseAssetReserve",
              "type": "tuple"
            },
            {
              "components": [
                {
                  "internalType": "int256",
                  "name": "d",
                  "type": "int256"
                }
              ],
              "internalType": "struct SignedDecimal.signedDecimal",
              "name": "totalPositionSize",
              "type": "tuple"
            }
          ],
          "internalType": "struct IAmm.LiquidityChangedSnapshot",
          "name": "",
          "type": "tuple"
        }
      ],
      "stateMutability": "view",
      "type": "function"
    },
    {
      "inputs": [],
      "name": "getLiquidityHistoryLength",
      "outputs": [
        {
          "internalType": "uint256",
          "name": "",
          "type": "uint256"
        }
      ],
      "stateMutability": "view",
      "type": "function"
    },
    {
      "inputs": [],
      "name": "getMaxHoldingBaseAsset",
      "outputs": [
        {
          "components": [
            {
              "internalType": "uint256",
              "name": "d",
              "type": "uint256"
            }
          ],
          "internalType": "struct Decimal.decimal",
          "name": "",
          "type": "tuple"
        }
      ],
      "stateMutability": "view",
      "type": "function"
    },
    {
      "inputs": [],
      "name": "getOpenInterestNotionalCap",
      "outputs": [
        {
          "components": [
            {
              "internalType": "uint256",
              "name": "d",
              "type": "uint256"
            }
          ],
          "internalType": "struct Decimal.decimal",
          "name": "",
          "type": "tuple"
        }
      ],
      "stateMutability": "view",
      "type": "function"
    },
    {
      "inputs": [
        {
          "internalType": "enum IAmm.Dir",
          "name": "_dirOfBase",
          "type": "uint8"
        },
        {
          "components": [
            {
              "internalType": "uint256",
              "name": "d",
              "type": "uint256"
            }
          ],
          "internalType": "struct Decimal.decimal",
          "name": "_baseAssetAmount",
          "type": "tuple"
        }
      ],
      "name": "getOutputPrice",
      "outputs": [
        {
          "components": [
            {
              "internalType": "uint256",
              "name": "d",
              "type": "uint256"
            }
          ],
          "internalType": "struct Decimal.decimal",
          "name": "",
          "type": "tuple"
        }
      ],
      "stateMutability": "view",
      "type": "function"
    },
    {
      "inputs": [
        {
          "internalType": "enum IAmm.Dir",
          "name": "_dirOfBase",
          "type": "uint8"
        },
        {
          "components": [
            {
              "internalType": "uint256",
              "name": "d",
              "type": "uint256"
            }
          ],
          "internalType": "struct Decimal.decimal",
          "name": "_baseAssetAmount",
          "type": "tuple"
        },
        {
          "components": [
            {
              "internalType": "uint256",
              "name": "d",
              "type": "uint256"
            }
          ],
          "internalType": "struct Decimal.decimal",
          "name": "_quoteAssetPoolAmount",
          "type": "tuple"
        },
        {
          "components": [
            {
              "internalType": "uint256",
              "name": "d",
              "type": "uint256"
            }
          ],
          "internalType": "struct Decimal.decimal",
          "name": "_baseAssetPoolAmount",
          "type": "tuple"
        }
      ],
      "name": "getOutputPriceWithReserves",
      "outputs": [
        {
          "components": [
            {
              "internalType": "uint256",
              "name": "d",
              "type": "uint256"
            }
          ],
          "internalType": "struct Decimal.decimal",
          "name": "",
          "type": "tuple"
        }
      ],
      "stateMutability": "pure",
      "type": "function"
    },
    {
      "inputs": [
        {
          "internalType": "enum IAmm.Dir",
          "name": "_dir",
          "type": "uint8"
        },
        {
          "components": [
            {
              "internalType": "uint256",
              "name": "d",
              "type": "uint256"
            }
          ],
          "internalType": "struct Decimal.decimal",
          "name": "_baseAssetAmount",
          "type": "tuple"
        },
        {
          "components": [
            {
              "internalType": "uint256",
              "name": "d",
              "type": "uint256"
            }
          ],
          "internalType": "struct Decimal.decimal",
          "name": "_quoteAssetPoolAmount",
          "type": "tuple"
        },
        {
          "components": [
            {
              "internalType": "uint256",
              "name": "d",
              "type": "uint256"
            }
          ],
          "internalType": "struct Decimal.decimal",
          "name": "_baseAssetPoolAmount",
          "type": "tuple"
        }
      ],
      "name": "getOutputPriceWithReservesPublic",
      "outputs": [
        {
          "components": [
            {
              "internalType": "uint256",
              "name": "d",
              "type": "uint256"
            }
          ],
          "internalType": "struct Decimal.decimal",
          "name": "",
          "type": "tuple"
        }
      ],
      "stateMutability": "view",
      "type": "function"
    },
    {
      "inputs": [
        {
          "internalType": "enum IAmm.Dir",
          "name": "_dirOfBase",
          "type": "uint8"
        },
        {
          "components": [
            {
              "internalType": "uint256",
              "name": "d",
              "type": "uint256"
            }
          ],
          "internalType": "struct Decimal.decimal",
          "name": "_baseAssetAmount",
          "type": "tuple"
        }
      ],
      "name": "getOutputTwap",
      "outputs": [
        {
          "components": [
            {
              "internalType": "uint256",
              "name": "d",
              "type": "uint256"
            }
          ],
          "internalType": "struct Decimal.decimal",
          "name": "",
          "type": "tuple"
        }
      ],
      "stateMutability": "view",
      "type": "function"
    },
    {
      "inputs": [],
      "name": "getReserve",
      "outputs": [
        {
          "components": [
            {
              "internalType": "uint256",
              "name": "d",
              "type": "uint256"
            }
          ],
          "internalType": "struct Decimal.decimal",
          "name": "",
          "type": "tuple"
        },
        {
          "components": [
            {
              "internalType": "uint256",
              "name": "d",
              "type": "uint256"
            }
          ],
          "internalType": "struct Decimal.decimal",
          "name": "",
          "type": "tuple"
        }
      ],
      "stateMutability": "view",
      "type": "function"
    },
    {
      "inputs": [],
      "name": "getSettlementPrice",
      "outputs": [
        {
          "components": [
            {
              "internalType": "uint256",
              "name": "d",
              "type": "uint256"
            }
          ],
          "internalType": "struct Decimal.decimal",
          "name": "",
          "type": "tuple"
        }
      ],
      "stateMutability": "view",
      "type": "function"
    },
    {
      "inputs": [],
      "name": "getSnapshotLen",
      "outputs": [
        {
          "internalType": "uint256",
          "name": "",
          "type": "uint256"
        }
      ],
      "stateMutability": "view",
      "type": "function"
    },
    {
      "inputs": [],
      "name": "getSpotPrice",
      "outputs": [
        {
          "components": [
            {
              "internalType": "uint256",
              "name": "d",
              "type": "uint256"
            }
          ],
          "internalType": "struct Decimal.decimal",
          "name": "",
          "type": "tuple"
        }
      ],
      "stateMutability": "view",
      "type": "function"
    },
    {
      "inputs": [
        {
          "internalType": "uint256",
          "name": "_intervalInSeconds",
          "type": "uint256"
        }
      ],
      "name": "getTwapPrice",
      "outputs": [
        {
          "components": [
            {
              "internalType": "uint256",
              "name": "d",
              "type": "uint256"
            }
          ],
          "internalType": "struct Decimal.decimal",
          "name": "",
          "type": "tuple"
        }
      ],
      "stateMutability": "view",
      "type": "function"
    },
    {
      "inputs": [],
      "name": "getUnderlyingPrice",
      "outputs": [
        {
          "components": [
            {
              "internalType": "uint256",
              "name": "d",
              "type": "uint256"
            }
          ],
          "internalType": "struct Decimal.decimal",
          "name": "",
          "type": "tuple"
        }
      ],
      "stateMutability": "view",
      "type": "function"
    },
    {
      "inputs": [],
      "name": "globalShutdown",
      "outputs": [
        {
          "internalType": "address",
          "name": "",
          "type": "address"
        }
      ],
      "stateMutability": "view",
      "type": "function"
    },
    {
      "inputs": [
        {
          "internalType": "uint256",
          "name": "_quoteAssetReserve",
          "type": "uint256"
        },
        {
          "internalType": "uint256",
          "name": "_baseAssetReserve",
          "type": "uint256"
        },
        {
          "internalType": "uint256",
          "name": "_tradeLimitRatio",
          "type": "uint256"
        },
        {
          "internalType": "uint256",
          "name": "_fundingPeriod",
          "type": "uint256"
        },
        {
          "internalType": "contract IPriceFeed",
          "name": "_priceFeed",
          "type": "address"
        },
        {
          "internalType": "bytes32",
          "name": "_priceFeedKey",
          "type": "bytes32"
        },
        {
          "internalType": "address",
          "name": "_quoteAsset",
          "type": "address"
        },
        {
          "internalType": "uint256",
          "name": "_fluctuationLimitRatio",
          "type": "uint256"
        },
        {
          "internalType": "uint256",
          "name": "_tollRatio",
          "type": "uint256"
        },
        {
          "internalType": "uint256",
          "name": "_spreadRatio",
          "type": "uint256"
        }
      ],
      "name": "initialize",
      "outputs": [],
      "stateMutability": "nonpayable",
      "type": "function"
    },
    {
      "inputs": [
        {
          "internalType": "enum IAmm.Dir",
          "name": "_dirOfBase",
          "type": "uint8"
        },
        {
          "components": [
            {
              "internalType": "uint256",
              "name": "d",
              "type": "uint256"
            }
          ],
          "internalType": "struct Decimal.decimal",
          "name": "_baseAssetAmount",
          "type": "tuple"
        }
      ],
      "name": "isOverFluctuationLimit",
      "outputs": [
        {
          "internalType": "bool",
          "name": "",
          "type": "bool"
        }
      ],
      "stateMutability": "view",
      "type": "function"
    },
    {
      "inputs": [],
      "name": "isOverSpreadLimit",
      "outputs": [
        {
          "internalType": "bool",
          "name": "",
          "type": "bool"
        }
      ],
      "stateMutability": "view",
      "type": "function"
    },
    {
      "inputs": [
        {
          "components": [
            {
              "internalType": "uint256",
              "name": "d",
              "type": "uint256"
            }
          ],
          "internalType": "struct Decimal.decimal",
          "name": "_quoteReserve",
          "type": "tuple"
        },
        {
          "components": [
            {
              "internalType": "uint256",
              "name": "d",
              "type": "uint256"
            }
          ],
          "internalType": "struct Decimal.decimal",
          "name": "_baseReserve",
          "type": "tuple"
        }
      ],
      "name": "mockSetReserve",
      "outputs": [],
      "stateMutability": "nonpayable",
      "type": "function"
    },
    {
      "inputs": [],
      "name": "mock_getCurrentBlockNumber",
      "outputs": [
        {
          "internalType": "uint256",
          "name": "",
          "type": "uint256"
        }
      ],
      "stateMutability": "view",
      "type": "function"
    },
    {
      "inputs": [],
      "name": "mock_getCurrentTimestamp",
      "outputs": [
        {
          "internalType": "uint256",
          "name": "",
          "type": "uint256"
        }
      ],
      "stateMutability": "view",
      "type": "function"
    },
    {
      "inputs": [
        {
          "internalType": "uint256",
          "name": "_number",
          "type": "uint256"
        }
      ],
      "name": "mock_setBlockNumber",
      "outputs": [],
      "stateMutability": "nonpayable",
      "type": "function"
    },
    {
      "inputs": [
        {
          "internalType": "uint256",
          "name": "_timestamp",
          "type": "uint256"
        }
      ],
      "name": "mock_setBlockTimestamp",
      "outputs": [],
      "stateMutability": "nonpayable",
      "type": "function"
    },
    {
      "inputs": [],
      "name": "nextFundingTime",
      "outputs": [
        {
          "internalType": "uint256",
          "name": "",
          "type": "uint256"
        }
      ],
      "stateMutability": "view",
      "type": "function"
    },
    {
      "inputs": [],
      "name": "open",
      "outputs": [
        {
          "internalType": "bool",
          "name": "",
          "type": "bool"
        }
      ],
      "stateMutability": "view",
      "type": "function"
    },
    {
      "inputs": [],
      "name": "owner",
      "outputs": [
        {
          "internalType": "address",
          "name": "",
          "type": "address"
        }
      ],
      "stateMutability": "view",
      "type": "function"
    },
    {
      "inputs": [],
      "name": "priceFeed",
      "outputs": [
        {
          "internalType": "contract IPriceFeed",
          "name": "",
          "type": "address"
        }
      ],
      "stateMutability": "view",
      "type": "function"
    },
    {
      "inputs": [],
      "name": "priceFeedKey",
      "outputs": [
        {
          "internalType": "bytes32",
          "name": "",
          "type": "bytes32"
        }
      ],
      "stateMutability": "view",
      "type": "function"
    },
    {
      "inputs": [],
      "name": "quoteAsset",
      "outputs": [
        {
          "internalType": "contract IERC20",
          "name": "",
          "type": "address"
        }
      ],
      "stateMutability": "view",
      "type": "function"
    },
    {
      "inputs": [],
      "name": "quoteAssetReserve",
      "outputs": [
        {
          "internalType": "uint256",
          "name": "d",
          "type": "uint256"
        }
      ],
      "stateMutability": "view",
      "type": "function"
    },
    {
      "inputs": [],
      "name": "renounceOwnership",
      "outputs": [],
      "stateMutability": "nonpayable",
      "type": "function"
    },
    {
      "inputs": [
        {
          "internalType": "uint256",
          "name": "",
          "type": "uint256"
        }
      ],
      "name": "reserveSnapshots",
      "outputs": [
        {
          "components": [
            {
              "internalType": "uint256",
              "name": "d",
              "type": "uint256"
            }
          ],
          "internalType": "struct Decimal.decimal",
          "name": "quoteAssetReserve",
          "type": "tuple"
        },
        {
          "components": [
            {
              "internalType": "uint256",
              "name": "d",
              "type": "uint256"
            }
          ],
          "internalType": "struct Decimal.decimal",
          "name": "baseAssetReserve",
          "type": "tuple"
        },
        {
          "internalType": "uint256",
          "name": "timestamp",
          "type": "uint256"
        },
        {
          "internalType": "uint256",
          "name": "blockNumber",
          "type": "uint256"
        }
      ],
      "stateMutability": "view",
      "type": "function"
    },
    {
      "inputs": [
        {
          "components": [
            {
              "internalType": "uint256",
              "name": "d",
              "type": "uint256"
            }
          ],
          "internalType": "struct Decimal.decimal",
          "name": "_maxHoldingBaseAsset",
          "type": "tuple"
        },
        {
          "components": [
            {
              "internalType": "uint256",
              "name": "d",
              "type": "uint256"
            }
          ],
          "internalType": "struct Decimal.decimal",
          "name": "_openInterestNotionalCap",
          "type": "tuple"
        }
      ],
      "name": "setCap",
      "outputs": [],
      "stateMutability": "nonpayable",
      "type": "function"
    },
    {
      "inputs": [
        {
          "internalType": "address",
          "name": "_counterParty",
          "type": "address"
        }
      ],
      "name": "setCounterParty",
      "outputs": [],
      "stateMutability": "nonpayable",
      "type": "function"
    },
    {
      "inputs": [
        {
          "components": [
            {
              "internalType": "uint256",
              "name": "d",
              "type": "uint256"
            }
          ],
          "internalType": "struct Decimal.decimal",
          "name": "_fluctuationLimitRatio",
          "type": "tuple"
        }
      ],
      "name": "setFluctuationLimitRatio",
      "outputs": [],
      "stateMutability": "nonpayable",
      "type": "function"
    },
    {
      "inputs": [
        {
          "internalType": "address",
          "name": "_globalShutdown",
          "type": "address"
        }
      ],
      "name": "setGlobalShutdown",
      "outputs": [],
      "stateMutability": "nonpayable",
      "type": "function"
    },
    {
      "inputs": [
        {
          "internalType": "bool",
          "name": "_open",
          "type": "bool"
        }
      ],
      "name": "setOpen",
      "outputs": [],
      "stateMutability": "nonpayable",
      "type": "function"
    },
    {
      "inputs": [
        {
          "internalType": "address",
          "name": "newOwner",
          "type": "address"
        }
      ],
      "name": "setOwner",
      "outputs": [],
      "stateMutability": "nonpayable",
      "type": "function"
    },
    {
      "inputs": [
        {
          "internalType": "contract IPriceFeed",
          "name": "_priceFeed",
          "type": "address"
        }
      ],
      "name": "setPriceFeed",
      "outputs": [],
      "stateMutability": "nonpayable",
      "type": "function"
    },
    {
      "inputs": [
        {
          "internalType": "uint256",
          "name": "_interval",
          "type": "uint256"
        }
      ],
      "name": "setSpotPriceTwapInterval",
      "outputs": [],
      "stateMutability": "nonpayable",
      "type": "function"
    },
    {
      "inputs": [
        {
          "components": [
            {
              "internalType": "uint256",
              "name": "d",
              "type": "uint256"
            }
          ],
          "internalType": "struct Decimal.decimal",
          "name": "_spreadRatio",
          "type": "tuple"
        }
      ],
      "name": "setSpreadRatio",
      "outputs": [],
      "stateMutability": "nonpayable",
      "type": "function"
    },
    {
      "inputs": [
        {
          "components": [
            {
              "internalType": "uint256",
              "name": "d",
              "type": "uint256"
            }
          ],
          "internalType": "struct Decimal.decimal",
          "name": "_tollRatio",
          "type": "tuple"
        }
      ],
      "name": "setTollRatio",
      "outputs": [],
      "stateMutability": "nonpayable",
      "type": "function"
    },
    {
      "inputs": [],
      "name": "settleFunding",
      "outputs": [
        {
          "components": [
            {
              "internalType": "int256",
              "name": "d",
              "type": "int256"
            }
          ],
          "internalType": "struct SignedDecimal.signedDecimal",
          "name": "",
          "type": "tuple"
        }
      ],
      "stateMutability": "nonpayable",
      "type": "function"
    },
    {
      "inputs": [],
      "name": "shutdown",
      "outputs": [],
      "stateMutability": "nonpayable",
      "type": "function"
    },
    {
      "inputs": [],
      "name": "spotPriceTwapInterval",
      "outputs": [
        {
          "internalType": "uint256",
          "name": "",
          "type": "uint256"
        }
      ],
      "stateMutability": "view",
      "type": "function"
    },
    {
      "inputs": [],
      "name": "spreadRatio",
      "outputs": [
        {
          "internalType": "uint256",
          "name": "d",
          "type": "uint256"
        }
      ],
      "stateMutability": "view",
      "type": "function"
    },
    {
      "inputs": [
        {
          "internalType": "enum IAmm.Dir",
          "name": "_dirOfQuote",
          "type": "uint8"
        },
        {
          "components": [
            {
              "internalType": "uint256",
              "name": "d",
              "type": "uint256"
            }
          ],
          "internalType": "struct Decimal.decimal",
          "name": "_quoteAssetAmount",
          "type": "tuple"
        },
        {
          "components": [
            {
              "internalType": "uint256",
              "name": "d",
              "type": "uint256"
            }
          ],
          "internalType": "struct Decimal.decimal",
          "name": "_baseAssetAmountLimit",
          "type": "tuple"
        },
        {
          "internalType": "bool",
          "name": "_canOverFluctuationLimit",
          "type": "bool"
        }
      ],
      "name": "swapInput",
      "outputs": [
        {
          "components": [
            {
              "internalType": "uint256",
              "name": "d",
              "type": "uint256"
            }
          ],
          "internalType": "struct Decimal.decimal",
          "name": "",
          "type": "tuple"
        }
      ],
      "stateMutability": "nonpayable",
      "type": "function"
    },
    {
      "inputs": [
        {
          "internalType": "enum IAmm.Dir",
          "name": "_dirOfBase",
          "type": "uint8"
        },
        {
          "components": [
            {
              "internalType": "uint256",
              "name": "d",
              "type": "uint256"
            }
          ],
          "internalType": "struct Decimal.decimal",
          "name": "_baseAssetAmount",
          "type": "tuple"
        },
        {
          "components": [
            {
              "internalType": "uint256",
              "name": "d",
              "type": "uint256"
            }
          ],
          "internalType": "struct Decimal.decimal",
          "name": "_quoteAssetAmountLimit",
          "type": "tuple"
        }
      ],
      "name": "swapOutput",
      "outputs": [
        {
          "components": [
            {
              "internalType": "uint256",
              "name": "d",
              "type": "uint256"
            }
          ],
          "internalType": "struct Decimal.decimal",
          "name": "",
          "type": "tuple"
        }
      ],
      "stateMutability": "nonpayable",
      "type": "function"
    },
    {
      "inputs": [],
      "name": "tollAmount",
      "outputs": [
        {
          "internalType": "uint256",
          "name": "d",
          "type": "uint256"
        }
      ],
      "stateMutability": "view",
      "type": "function"
    },
    {
      "inputs": [],
      "name": "tollRatio",
      "outputs": [
        {
          "internalType": "uint256",
          "name": "d",
          "type": "uint256"
        }
      ],
      "stateMutability": "view",
      "type": "function"
    },
    {
      "inputs": [],
      "name": "totalPositionSize",
      "outputs": [
        {
          "internalType": "int256",
          "name": "d",
          "type": "int256"
        }
      ],
      "stateMutability": "view",
      "type": "function"
    },
    {
      "inputs": [],
      "name": "tradeLimitRatio",
      "outputs": [
        {
          "internalType": "uint256",
          "name": "d",
          "type": "uint256"
        }
      ],
      "stateMutability": "view",
      "type": "function"
    },
    {
      "inputs": [],
      "name": "updateOwner",
      "outputs": [],
      "stateMutability": "nonpayable",
      "type": "function"
    }
  ],
  "bytecode": "0x6080604052635611c23061011755612711610118553480156200002157600080fd5b5060405162004eae38038062004eae8339810160408190526200004491620007ae565b620000638a8a8a8a8a8a8a8a8a8a6200007360201b620010931760201c565b5050505050505050505062000932565b600054610100900460ff1680620000985750620000986001600160e01b036200045516565b80620000a7575060005460ff16155b620000cf5760405162461bcd60e51b8152600401620000c69062000891565b60405180910390fd5b600054610100900460ff16158015620000fb576000805460ff1961ff0019909116610100171660011790555b8a158015906200010a57508815155b80156200011657508915155b80156200012257508715155b80156200013757506001600160a01b03871615155b80156200014c57506001600160a01b03851615155b6200016b5760405162461bcd60e51b8152600401620000c690620008df565b6200017e6001600160e01b036200045b16565b6040805160208082018352908d905260d18d9055815180820183528c905260d28c9055815180820183528b905260d08b90558151808201835285905260d48590558151808201835284905260d584905581518082019092529085905260d385905560dc899055620001fd9089906002906200206062000516821b17901c565b60dd55610e1060db5560df86905560e380546001600160a01b03199081166001600160a01b038881169190911790925560e480549091169189169190911790556200025362000567602090811b620020a217901c565b5160d955604080516080810190915260da90806200027c6200059a602090811b620020bf17901c565b8152604080516020818101835260d1548252808401919091528151808201835260d254815291830191909152606090910190620002c290620020bf6200059a821b17901c565b9052815460018181018455600093845260209384902083515160049093020191825583830151519082015560408083015151600283015560609092015151600390910155805160a08101825260d1546080820190815281528151808401835260d25481529281019290925260e091908101620003466001600160e01b03620005b716565b81526020016200035e6001600160e01b03620005be16565b905281546001818101845560009384526020938490208351516004909302019182558383015151908201556040808301516002830155606090920151600390910155805180830190915260d15481527f3a3348362552c3897fd1f06a3233519ebd8bd76ad6e99a418a9741155fe9051591620003e49190620020da620005c5821b17901c565b60408051602080820190925260d25481526200040991620020da620005c5821b17901c565b6200041c6001600160e01b03620005b716565b6040516200042d9392919062000906565b60405180910390a1801562000448576000805461ff00191690555b5050505050505050505050565b303b1590565b600054610100900460ff1680620004805750620004806001600160e01b036200045516565b806200048f575060005460ff16155b620004ae5760405162461bcd60e51b8152600401620000c69062000891565b600054610100900460ff16158015620004da576000805460ff1961ff0019909116610100171660011790555b620004ed6001600160e01b03620005c916565b620005006001600160e01b036200065c16565b801562000513576000805461ff00191690555b50565b60006200056083836040518060400160405280601a81526020017f536166654d6174683a206469766973696f6e206279207a65726f0000000000008152506200075360201b60201c565b9392505050565b620005716200079b565b60405180602001604052806200059360126200078e60201b620020de1760201c565b9052905090565b620005a46200079b565b5060408051602081019091526000815290565b6101175490565b6101185490565b5190565b600054610100900460ff1680620005ee5750620005ee6001600160e01b036200045516565b80620005fd575060005460ff16155b6200061c5760405162461bcd60e51b8152600401620000c69062000891565b600054610100900460ff1615801562000500576000805460ff1961ff001990911661010017166001179055801562000513576000805461ff001916905550565b600054610100900460ff1680620006815750620006816001600160e01b036200045516565b8062000690575060005460ff16155b620006af5760405162461bcd60e51b8152600401620000c69062000891565b600054610100900460ff16158015620006db576000805460ff1961ff0019909116610100171660011790555b6000620006f06001600160e01b036200079716565b606580546001600160a01b0319166001600160a01b038316908117909155604051919250906000907f8be0079c531659141344cd1fd0a4f28419497f9722a3daafe3b4186f6b6457e0908290a350801562000513576000805461ff001916905550565b60008183620007775760405162461bcd60e51b8152600401620000c691906200083b565b5060008385816200078457fe5b0495945050505050565b60ff16600a0a90565b3390565b6040518060200160405280600081525090565b6000806000806000806000806000806101408b8d031215620007ce578586fd5b8a51995060208b0151985060408b0151975060608b0151965060808b0151620007f7816200091c565b60a08c015160c08d0151919750955062000811816200091c565b8094505060e08b015192506101008b015191506101208b015190509295989b9194979a5092959850565b6000602080835283518082850152825b8181101562000869578581018301518582016040015282016200084b565b818111156200087b5783604083870101525b50601f01601f1916929092016040019392505050565b6020808252602e908201527f436f6e747261637420696e7374616e63652068617320616c726561647920626560408201526d195b881a5b9a5d1a585b1a5e995960921b606082015260800190565b6020808252600d908201526c1a5b9d985b1a59081a5b9c1d5d609a1b604082015260600190565b9283526020830191909152604082015260600190565b6001600160a01b03811681146200051357600080fd5b61456c80620009426000396000f3fe608060405234801561001057600080fd5b50600436106104115760003560e01c80636fa42ede11610220578063b2ed32c711610130578063e1f1027f116100b8578063ed83d79c11610087578063ed83d79c146107c7578063f1b5df86146107cf578063fc0e74d1146107e2578063fcfff16f146107ea578063fdf262b7146107f257610411565b8063e1f1027f1461079c578063e4bc2eb9146107af578063e805d6fc146107b7578063ec2c0e63146107bf57610411565b8063c9566fcc116100ff578063c9566fcc1461075e578063d71ec2ad14610766578063da0c592714610779578063dc76fabc1461078c578063e0037a6c1461079457610411565b8063b2ed32c714610733578063bc5920ba14610746578063c2de442f1461074e578063c77f7c611461075657610411565b80637ec3246d116101b35780639bf5d1d4116101825780639bf5d1d4146106df5780639e010362146106f25780639ece77c8146106fa578063a8f8be4e1461070d578063ad6891211461072057610411565b80637ec3246d146106a95780638da5cb5b146106bc5780638f40d932146106c45780639432665a146106cc57610411565b8063724e78da116101ef578063724e78da14610673578063741bef1a1461068657806374d7c62b1461068e57806375df63891461069657610411565b80636fa42ede1461063d5780636fdca5e0146106505780636febdd5014610663578063715018a61461066b57610411565b806341d3c84c1161032657806358a4c3dc116102ae578063622679551161027d57806362267955146105f457806362e7a17614610607578063644dce1f1461061a5780636baccaba1461062d5780636c8381f81461063557610411565b806358a4c3dc146105bb57806359bf5d39146105c35780635f1ba1fd146105d9578063620be067146105e157610411565b80634cb876f2116102f55780634cb876f21461057257806350799c811461057a578063524f15a11461058d57806352545410146105a057806354e636c5146105a857610411565b806341d3c84c1461054757806342b3198b1461054f578063468f02d2146105575780634894d1831461055f57610411565b806313af4035116103a9578063237f17ee11610378578063237f17ee1461050957806329f9b17b1461051c5780632d666e38146105245780632f8488591461052c57806340d71cd91461053457610411565b806313af4035146104b65780631b584d6c146104c95780631d3acb44146104de57806321e00985146104e657610411565b80630d451c8f116103e55780630d451c8f146104665780630dd68c701461046e5780631137739414610481578063130234cf1461049657610411565b8062c141b6146104165780630244accf1461042b57806305172a2514610449578063093383831461045e575b600080fd5b610429610424366004613b49565b6107fa565b005b610433610800565b6040516104409190613c00565b60405180910390f35b61045161080f565b6040516104409190613c1f565b61045161081b565b61045161082a565b61042961047c366004613ade565b610830565b6104896108e6565b6040516104409190614461565b6104a96104a4366004613a1c565b610902565b6040516104409190613c14565b6104296104c4366004613946565b610a67565b6104d1610b40565b6040516104409190614432565b610451610bce565b6104f96104f4366004613b49565b610bd4565b604051610440949392919061447b565b6104d1610517366004613b49565b610c22565b610489610cc2565b610451610cde565b610489610ce4565b610489610542366004613afa565b610d00565b610451610dbc565b610451610dc2565b610489610dc8565b61048961056d366004613a1c565b610e65565b610451610e7c565b610489610588366004613a51565b610e82565b61042961059b366004613ac3565b610ff3565b61048961102e565b6104296105b6366004613ade565b61104a565b610451611055565b6105cb61105b565b60405161044092919061446b565b61045161108d565b6104296105ef366004613b79565b611093565b6105cb610602366004613aa8565b6113d2565b610429610615366004613b49565b61146d565b610489610628366004613a51565b6114c4565b6104516114e1565b6104336114e7565b61048961064b366004613a1c565b6114f6565b61042961065e366004613962565b61150d565b6104516115c7565b6104296115cd565b610429610681366004613946565b61164c565b610433611703565b610451611712565b6104896106a43660046139c3565b611718565b6104296106b7366004613ac3565b611946565b610433611981565b610451611990565b6104296106da366004613b49565b611996565b6104896106ed366004613a51565b61199c565b6104a9611a7a565b610429610708366004613946565b611b28565b61042961071b366004613ac3565b611b7f565b61048961072e366004613a51565b611bba565b610429610741366004613946565b611bce565b610429611c25565b610451611ce8565b610451611cee565b610451611cf8565b61048961077436600461397e565b611cfe565b610489610787366004613a1c565b611d8b565b610489611dbd565b610451611df2565b6104896107aa366004613a1c565b611df8565b610451611e2a565b610489611e30565b610489611e4c565b610489611e68565b6104896107dd366004613b49565b611fc2565b610429611fd3565b6104a9612041565b610433612051565b61011855565b60e2546001600160a01b031681565b67016345785d8a000081565b60006108256120e7565b905090565b60e05490565b6108386120ee565b6065546001600160a01b0390811691161461086e5760405162461bcd60e51b815260040161086590613f18565b60405180910390fd5b815160d7819055815160d85560408051602081019091529081527f7338f3784ceb8f9456bac0c4a69f1c6354dc325fa6455e3e3f6a8a9bf9249a7c906108b3906120da565b604080516020810190915260d85481526108cc906120da565b6040516108da929190613c4a565b60405180910390a15050565b6108ee613831565b50604080516020810190915260d754815290565b604080516020810190915260d354815260009061091e906120da565b61092a57506000610a61565b610932613831565b61093a613831565b6109426120f2565b9150915061094e613831565b6109588686611d8b565b9050610962613831565b600187600181111561097057fe5b146109ca57604080516020810190915260d25481526109c590610999908863ffffffff6122bf16565b604080516020810190915260d15481526109b9908563ffffffff6122eb16565b9063ffffffff61230e16565b610a0e565b604080516020810190915260d2548152610a0e906109ee908863ffffffff6122eb16565b604080516020810190915260d15481526109b9908563ffffffff6122bf16565b90506000610a22828663ffffffff61233116565b60000b13158015610a4657506000610a40828563ffffffff61233116565b60000b12155b15610a58576000945050505050610a61565b60019450505050505b92915050565b610a6f6120ee565b6065546001600160a01b03908116911614610a9c5760405162461bcd60e51b815260040161086590613f18565b6001600160a01b038116610ac25760405162461bcd60e51b8152600401610865906143bb565b6065546001600160a01b0382811691161415610af05760405162461bcd60e51b8152600401610865906142d3565b6066546001600160a01b0382811691161415610b1e5760405162461bcd60e51b815260040161086590613e04565b606680546001600160a01b0319166001600160a01b0392909216919091179055565b610b48613844565b60da8054610b5d90600163ffffffff61236216565b81548110610b6757fe5b60009182526020918290206040805160a0810182526004909302909101805460808401908152835281518085018352600182015481528385015281518085018352600282015481528383015281519384019091526003015482526060810191909152905090565b60d35481565b60e08181548110610be157fe5b600091825260209182902060408051808501825260049093029091018054835281519384019091526001810154835260028101546003909101549193509084565b610c2a613844565b60da548210610c4b5760405162461bcd60e51b815260040161086590613eef565b60da8281548110610c5857fe5b60009182526020918290206040805160a081018252600490930290910180546080840190815283528151808501835260018201548152838501528151808501835260028201548152838301528151938401909152600301548252606081019190915290505b919050565b610cca613831565b50604080516020810190915260ce54815290565b60d65481565b610cec613831565b50604080516020810190915260cc54815290565b610d08613831565b610d11846123a4565b610d1c575082610db5565b600080610d28866120da565b13610d34576000610d37565b60015b9050610d41613831565b610d6382610d50576001610d53565b60005b610d5c886123b6565b878761199c565b9050610d6d613831565b610d8d610d8884610d7f576000610d82565b60015b84611df8565b6123e4565b9050610daf83610d9f57600019610da2565b60015b829063ffffffff61244816565b93505050505b9392505050565b60cd5481565b60da5490565b610dd0613831565b60408051602081019182905260e45460df546331d98b3f60e01b909352909182916001600160a01b0316906331d98b3f90610e0e9060248501613c1f565b60206040518083038186803b158015610e2657600080fd5b505afa158015610e3a573d6000803e3d6000fd5b505050506040513d601f19601f82011682018060405250810190610e5e9190613b61565b9052905090565b610e6d613831565b610db58383600061038461246a565b60cc5481565b610e8a613831565b610e93846120da565b610ea657610e9f6120bf565b9050610feb565b600080866001811115610eb557fe5b149050610ec0613831565b610ed3610d88868663ffffffff6124f016565b9050610edd613831565b610ee5613831565b610eed613831565b8415610f0a57610f03888a63ffffffff6122bf16565b9150610f1d565b610f1a888a63ffffffff6122eb16565b91505b610f26826120da565b610f425760405162461bcd60e51b8152600401610865906142a3565b610f52848363ffffffff61251316565b9250610f6c610f67848963ffffffff61258416565b6123b6565b9050610f8f610f8a83610f7e876123b6565b9063ffffffff6125f916565b6120da565b15610fe4578415610fc157604080516020810190915260018152610fba90829063ffffffff6122eb16565b9050610fe4565b604080516020810190915260018152610fe190829063ffffffff6122bf16565b90505b9450505050505b949350505050565b610ffb6120ee565b6065546001600160a01b039081169116146110285760405162461bcd60e51b815260040161086590613f18565b5160d555565b611036613831565b50604080516020810190915260d854815290565b905160d1555160d255565b60df5481565b611063613831565b61106b613831565b5050604080516020808201835260d1548252825190810190925260d254825291565b60db5481565b600054610100900460ff16806110ac57506110ac61263d565b806110ba575060005460ff16155b6110d65760405162461bcd60e51b81526004016108659061411a565b600054610100900460ff16158015611101576000805460ff1961ff0019909116610100171660011790555b8a1580159061110f57508815155b801561111a57508915155b801561112557508715155b801561113957506001600160a01b03871615155b801561114d57506001600160a01b03851615155b6111695760405162461bcd60e51b815260040161086590614350565b611171612643565b6040805160208082018352908d905260d18d9055815180820183528c905260d28c9055815180820183528b905260d08b90558151808201835285905260d48590558151808201835284905260d5849055815190810190915284905260d384905560dc8890556111e788600263ffffffff61206016565b60dd55610e1060db5560df86905560e380546001600160a01b038088166001600160a01b03199283161790925560e48054928a169290911691909117905561122d6120a2565b5160d955604080516080810190915260da90806112486120bf565b8152604080516020818101835260d1548252808401919091528151908101825260d25481529082015260600161127c6120bf565b9052815460018181018455600093845260209384902083515160049093020191825583830151519082015560408083015151600283015560609092015151600390910155805160a08101825260d1546080820190815281528151808401835260d25481529281019290925260e0919081016112f56126d5565b81526020016113026120e7565b9052815460018181018455600093845260209384902083515160049093020191825583830151519082015560408083015160028301556060909201516003909101558051918201905260d15481527f3a3348362552c3897fd1f06a3233519ebd8bd76ad6e99a418a9741155fe905159061137b906120da565b604080516020810190915260d2548152611394906120da565b61139c6126d5565b6040516113ab93929190614496565b60405180910390a180156113c5576000805461ff00191690555b5050505050505050505050565b6113da613831565b6113e2613831565b6113f4610f8a36859003850185613ac3565b611411576114006120bf565b6114086120bf565b91509150611468565b604080516020810190915260d45481526114409061143436869003860186613ac3565b9063ffffffff6124f016565b604080516020810190915260d55481526114639061143436879003870187613ac3565b915091505b915091565b6114756120ee565b6065546001600160a01b039081169116146114a25760405162461bcd60e51b815260040161086590613f18565b806114bf5760405162461bcd60e51b815260040161086590613dcd565b60db55565b6114cc613831565b6114d885858585610e82565b95945050505050565b60d45481565b6066546001600160a01b031690565b6114fe613831565b610db58383600161038461246a565b6115156120ee565b6065546001600160a01b039081169116146115425760405162461bcd60e51b815260040161086590613f18565b60e45460ff600160a01b9091041615158115151415611560576115c4565b60e4805482158015600160a01b0260ff60a01b19909216919091179091556115c4576115c0610e106115b4610e106115a860dc5461159c6126d5565b9063ffffffff6126dc16565b9063ffffffff61206016565b9063ffffffff61270116565b60de555b50565b60d55481565b6115d56120ee565b6065546001600160a01b039081169116146116025760405162461bcd60e51b815260040161086590613f18565b6065546040516000916001600160a01b0316907f8be0079c531659141344cd1fd0a4f28419497f9722a3daafe3b4186f6b6457e0908390a3606580546001600160a01b0319169055565b6116546120ee565b6065546001600160a01b039081169116146116815760405162461bcd60e51b815260040161086590613f18565b6001600160a01b0381166116a75760405162461bcd60e51b8152600401610865906141af565b60e480546001600160a01b0319166001600160a01b0383811691909117918290556040517fe5b20b8497e4f3e2435ef9c20e2e26b47497ee13745ce1c681ad6640653119e6926116f8921690613c00565b60405180910390a150565b60e4546001600160a01b031681565b60dc5481565b611720613831565b60e454600160a01b900460ff166117495760405162461bcd60e51b815260040161086590614043565b6117516120ee565b60e1546001600160a01b0390811691161461177e5760405162461bcd60e51b815260040161086590613e4b565b611790610f8a36869003860186613ac3565b61179c57610e9f6120bf565b60018560018111156117aa57fe5b1415611810576117c2610f8a36869003860186613ac3565b604080516020808201835260d0548252825190810190925260d15482526117f291610f8a9163ffffffff6124f016565b10156118105760405162461bcd60e51b815260040161086590613ec3565b611818613831565b61182b866107aa36889003880188613ac3565b905061183f610f8a36869003860186613ac3565b156118cf57600086600181111561185257fe5b14156118965761186a610f8a36869003860186613ac3565b611873826120da565b10156118915760405162461bcd60e51b8152600401610865906140e3565b6118cf565b6118a8610f8a36869003860186613ac3565b6118b1826120da565b11156118cf5760405162461bcd60e51b81526004016108659061421d565b6118e9866118e236889003880188613ac3565b838661273b565b7fae6a2b946841d9afc0e1e19a94ae4af26f01125b87b5095bbfb177a9741a2ede8661191d610f8a36899003890189613ac3565b611926846120da565b60405161193593929190613c28565b60405180910390a195945050505050565b61194e6120ee565b6065546001600160a01b0390811691161461197b5760405162461bcd60e51b815260040161086590613f18565b5160d455565b6065546001600160a01b031690565b60d05481565b61011755565b6119a4613831565b6119ad846120da565b6119b957610e9f6120bf565b6000808660018111156119c857fe5b1490506119d3613831565b6119e6610d88868663ffffffff6124f016565b90506119f0613831565b6119f8613831565b611a00613831565b8415611a1d57611a16878a63ffffffff6122bf16565b9150611a30565b611a2d878a63ffffffff6122eb16565b91505b611a39826120da565b611a555760405162461bcd60e51b815260040161086590613cab565b611a65848363ffffffff61251316565b9250610f6c610f67848a63ffffffff61258416565b6000611a84613831565b611a8c610dc8565b90506000611a99826120da565b11611ab65760405162461bcd60e51b815260040161086590613f65565b611abe613831565b611ac6611dbd565b9050611ad0613831565b611afc610f6784611af086611ae4876123e4565b9063ffffffff61258416565b9063ffffffff61251316565b905067016345785d8a0000611b10826120da565b1015611b1d576000611b20565b60015b935050505090565b611b306120ee565b6065546001600160a01b03908116911614611b5d5760405162461bcd60e51b815260040161086590613f18565b60e180546001600160a01b0319166001600160a01b0392909216919091179055565b611b876120ee565b6065546001600160a01b03908116911614611bb45760405162461bcd60e51b815260040161086590613f18565b5160d355565b611bc2613831565b6114d88585858561199c565b611bd66120ee565b6065546001600160a01b03908116911614611c035760405162461bcd60e51b815260040161086590613f18565b60e280546001600160a01b0319166001600160a01b0392909216919091179055565b6066546001600160a01b0316611c4d5760405162461bcd60e51b815260040161086590614254565b611c556120ee565b6066546001600160a01b03908116911614611c825760405162461bcd60e51b815260040161086590613d86565b6066546065546040516001600160a01b0392831692909116907f8be0079c531659141344cd1fd0a4f28419497f9722a3daafe3b4186f6b6457e090600090a360668054606580546001600160a01b03199081166001600160a01b03841617909155169055565b60dd5481565b60006108256126d5565b60d25481565b611d06613831565b60e454600160a01b900460ff16611d2f5760405162461bcd60e51b815260040161086590614043565b611d376120ee565b60e1546001600160a01b03908116911614611d645760405162461bcd60e51b815260040161086590613e4b565b610feb84611d7736869003860186613ac3565b611d8636869003860186613ac3565b6128d7565b611d93613831565b604080516020808201835260d1548252825190810190925260d2548252610db5918591859161199c565b611dc5613831565b604080516020808201835260d2548252825190810190925260d1548252610825919063ffffffff61230e16565b60de5481565b611e00613831565b604080516020808201835260d1548252825190810190925260d2548252610db59185918591610e82565b60d15481565b611e38613831565b50604080516020810190915260cb54815290565b611e54613831565b50604080516020810190915260cf54815290565b611e70613831565b60e454600160a01b900460ff16611e995760405162461bcd60e51b815260040161086590614043565b611ea16120ee565b60e1546001600160a01b03908116911614611ece5760405162461bcd60e51b815260040161086590613e4b565b60de54611ed96126d5565b1015611ef75760405162461bcd60e51b815260040161086590614319565b611eff613831565b611f07610dc8565b9050611f11613831565b611f2382611ae4610d8860db54611fc2565b9050611f2d613831565b611f5562015180611f4960dc5485612a8290919063ffffffff16565b9063ffffffff612ae516565b9050611f618184612b07565b6000611f7160dd5461159c6126d5565b90506000611f98610e106115b4610e106115a860dc5460de546126dc90919063ffffffff16565b9050818111611fa75781611fa9565b805b60de55611fb46120bf565b5160cb555090935050505090565b611fca613831565b610a6182612b5f565b611fdb611981565b6001600160a01b0316611fec6120ee565b6001600160a01b0316148061201b575060e2546001600160a01b03166120106120ee565b6001600160a01b0316145b6120375760405162461bcd60e51b8152600401610865906140ac565b61203f612b90565b565b60e454600160a01b900460ff1681565b60e3546001600160a01b031681565b6000610db583836040518060400160405280601a81526020017f536166654d6174683a206469766973696f6e206279207a65726f000000000000815250612ce8565b6120aa613831565b6040518060200160405280610e5e60126120de565b6120c7613831565b5060408051602081019091526000815290565b5190565b60ff16600a0a90565b6101185490565b3390565b6120fa613831565b612102613831565b60e05461210d613883565b60e061212083600163ffffffff61236216565b8154811061212a57fe5b60009182526020918290206040805160a08101825260049093029091018054608084019081528352815180850183526001820154815293830193909352600283015490820152600390910154606082015290506121856120e7565b81606001511480156121975750600182115b1561220d5760e06121af83600263ffffffff61236216565b815481106121b957fe5b60009182526020918290206040805160a08101825260049093029091018054608084019081528352815180850183526001820154815293830193909352600283015490820152600390910154606082015290505b612215613831565b6020820151825161222b9163ffffffff61230e16565b9050612235613831565b604080516020810190915260d354815261226e90612261906122556120a2565b9063ffffffff6122bf16565b839063ffffffff6124f016565b9050612278613831565b604080516020810190915260d35481526122b1906122a4906122986120a2565b9063ffffffff6122eb16565b849063ffffffff6124f016565b919650909450505050509091565b6122c7613831565b6122cf613831565b825184516122e29163ffffffff6126dc16565b81529392505050565b6122f3613831565b6122fb613831565b825184516122e29163ffffffff61236216565b612316613831565b61231e613831565b825184516122e29163ffffffff612d1f16565b80518251600091101561234657506001610a61565b8151835110156123595750600019610a61565b50600092915050565b6000610db583836040518060400160405280601e81526020017f536166654d6174683a207375627472616374696f6e206f766572666c6f770000815250612d2d565b60006123af826123b6565b5192915050565b6123be613831565b6123c6613831565b8251600013156123dc5782516000038152610a61565b915182525090565b6123ec613831565b8180600001516001600160ff1b03101560405180606001604052806033815260200161450460339139906124335760405162461bcd60e51b81526004016108659190613c58565b50506040805160208101909152915182525090565b612450613831565b612458613831565b83516122e2908463ffffffff612d5916565b612472613831565b61247a6138b7565b600180825260e05461248b91612362565b602082015260408101518660018111156124a157fe5b908160018111156124ae57fe5b9052506040808201805160200187905251018460018111156124cc57fe5b908160018111156124d957fe5b9052506124e68184612dc4565b9695505050505050565b6124f8613831565b612500613831565b825184516122e29163ffffffff61303116565b61251b613831565b8180600001516001600160ff1b03101560405180606001604052806033815260200161450460339139906125625760405162461bcd60e51b81526004016108659190613c58565b5061256b613831565b6114d8612577856123e4565b869063ffffffff61303f16565b61258c613831565b8180600001516001600160ff1b03101560405180606001604052806033815260200161450460339139906125d35760405162461bcd60e51b81526004016108659190613c58565b506125dc613831565b835185516125ef9163ffffffff61306216565b8152949350505050565b612601613831565b6040518060200160405280836000015161262c61261e60126120de565b87519063ffffffff61270116565b8161263357fe5b0690529392505050565b303b1590565b600054610100900460ff168061265c575061265c61263d565b8061266a575060005460ff16155b6126865760405162461bcd60e51b81526004016108659061411a565b600054610100900460ff161580156126b1576000805460ff1961ff0019909116610100171660011790555b6126b96130a8565b6126c1613129565b80156115c4576000805461ff001916905550565b6101175490565b600082820183811015610db55760405162461bcd60e51b815260040161086590613d4f565b60008261271057506000610a61565b8282028284828161271d57fe5b0414610db55760405162461bcd60e51b81526004016108659061406b565b61274784848484613203565b600084600181111561275557fe5b141561281457604080516020810190915260d154815261277b908463ffffffff6122bf16565b5160d155604080516020810190915260d254815261279f908363ffffffff6122eb16565b5160d255604080516020810190915260cb5481526127c3908363ffffffff61258416565b5160cb55604080516020810190915260cc5481526127e7908363ffffffff6133cc16565b5160cc55604080516020810190915260ce54815261280b908463ffffffff6133cc16565b5160ce556128c9565b604080516020810190915260d1548152612834908463ffffffff6122eb16565b5160d155604080516020810190915260d2548152612858908363ffffffff6122bf16565b5160d255604080516020810190915260cb54815261287c908363ffffffff6133cc16565b5160cb55604080516020810190915260cc5481526128a0908363ffffffff61258416565b5160cc55604080516020810190915260ce5481526128c4908463ffffffff61258416565b5160ce555b6128d1613437565b50505050565b6128df613831565b6128e8836120da565b6128fb576128f46120bf565b9050610db5565b600184600181111561290957fe5b141561296657612918836120da565b604080516020808201835260d0548252825190810190925260d254825261294891610f8a9163ffffffff6124f016565b10156129665760405162461bcd60e51b815260040161086590613ec3565b61296e613831565b6129788585611d8b565b905060008086600181111561298957fe5b14612995576000612998565b60015b90506129a3846120da565b15612a215760018160018111156129b657fe5b14156129f1576129c5846120da565b6129ce836120da565b10156129ec5760405162461bcd60e51b81526004016108659061400c565b612a21565b6129fa846120da565b612a03836120da565b1115612a215760405162461bcd60e51b8152600401610865906141e6565b612a2e818387600161273b565b7f0dd4066b1a6ce97fb670c3e4201e908c644193f38cbdaffd0229d7e26da3e53386612a59846120da565b612a62886120da565b604051612a7193929190613c28565b60405180910390a150949350505050565b612a8a613831565b816001600160ff1b0310156040518060600160405280603381526020016145046033913990612acc5760405162461bcd60e51b81526004016108659190613c58565b50612ad5613831565b610feb848463ffffffff61244816565b612aed613831565b612af5613831565b83516122e2908463ffffffff61356f16565b612b17828263ffffffff61251316565b5160cd81905560408051602081019091529081527fd2805fe76d30598332a67c1061cee82e2e102b0f59f5457b1729bce028a054a090612b56906120da565b6108cc836120da565b612b67613831565b612b6f6138b7565b6000815260e054612b81906001612362565b6020820152610db58184612dc4565b612b98613844565b612ba0610b40565b9050612baa613831565b60208201516040830151612bc39163ffffffff6124f016565b9050612bcd613831565b60408301516060840151612be69163ffffffff6133cc16565b9050612bf0613831565b612c0982612bfd856123e4565b9063ffffffff61303f16565b9050612c13613831565b604080516020810190915260d1548152612c3490839063ffffffff61258416565b604080516020810190915260cc548152909150606490612c53906123a4565b1115612c8457604080516020810190915260cc548152612c7f90612c76906123b6565b6109b9836123b6565b5160cf555b60e4805460ff60a01b19169055604080516020810190915260cf5481527f574214b195bf5273a95bb4498e35cf1fde0ce327c727a95ec2ab359f7ba4e11a90612ccc906120da565b604051612cd99190613c1f565b60405180910390a15050505050565b60008183612d095760405162461bcd60e51b81526004016108659190613c58565b506000838581612d1557fe5b0495945050505050565b6000610db5838360126135d3565b60008184841115612d515760405162461bcd60e51b81526004016108659190613c58565b505050900390565b600082612d6857506000610a61565b82600019148015612d7c5750600160ff1b82145b15612d995760405162461bcd60e51b815260040161086590614168565b82820282848281612da657fe5b0514610db55760405162461bcd60e51b815260040161086590614168565b612dcc613831565b612dd4613831565b612ddd846135f2565b905082612deb579050610a61565b6000612e0584612df96126d5565b9063ffffffff61236216565b9050612e0f613883565b60e0866020015181548110612e2057fe5b60009182526020918290206040805160a081018252600490930290910180546080840190815283528151808501835260018083015482529484015260028101549183019190915260030154606082015260e0549092501480612e86575081816040015111155b15612e9657829350505050610a61565b60408101516000612ea982612df96126d5565b9050612eb3613831565b612ec3868363ffffffff61375016565b90505b6020890151612eec57612edf818363ffffffff61377216565b9650505050505050610a61565b6020890151612f0290600163ffffffff61236216565b60208a0181905260e080549091908110612f1857fe5b60009182526020918290206040805160a0810182526004909302909101805460808401908152835281518085018352600182015481529383019390935260028301549082015260039091015460608201529350612f74896135f2565b955084846040015111612fb857612fb1612fa4612f97858863ffffffff61236216565b889063ffffffff61375016565b829063ffffffff6122bf16565b9050613014565b6000612fd185604001518561236290919063ffffffff16565b9050612ff3612fe6888363ffffffff61375016565b839063ffffffff6122bf16565b9150613005838263ffffffff6126dc16565b92508460400151935050612ec6565b613024818963ffffffff61377216565b9998505050505050505050565b6000610db583836012613794565b613047613831565b61304f613831565b825184516122e29163ffffffff6137b216565b60008183038183128015906130775750838113155b8061308c575060008312801561308c57508381135b610db55760405162461bcd60e51b815260040161086590614377565b600054610100900460ff16806130c157506130c161263d565b806130cf575060005460ff16155b6130eb5760405162461bcd60e51b81526004016108659061411a565b600054610100900460ff161580156126c1576000805460ff1961ff00199091166101001716600117905580156115c4576000805461ff001916905550565b600054610100900460ff1680613142575061314261263d565b80613150575060005460ff16155b61316c5760405162461bcd60e51b81526004016108659061411a565b600054610100900460ff16158015613197576000805460ff1961ff0019909116610100171660011790555b60006131a16120ee565b606580546001600160a01b0319166001600160a01b038316908117909155604051919250906000907f8be0079c531659141344cd1fd0a4f28419497f9722a3daafe3b4186f6b6457e0908290a35080156115c4576000805461ff001916905550565b604080516020810190915260d354815261321c906120da565b613225576128d1565b61322d613831565b613235613831565b61323d6120f2565b91509150613249613831565b604080516020808201835260d2548252825190810190925260d1548252613276919063ffffffff61230e16565b9050600061328a828563ffffffff61233116565b60000b131580156132ae575060006132a8828463ffffffff61233116565b60000b12155b6132ca5760405162461bcd60e51b815260040161086590613cda565b836133c35760008760018111156132dd57fe5b1461332b57604080516020810190915260d254815261332690613306908763ffffffff6122bf16565b604080516020810190915260d15481526109b9908963ffffffff6122eb16565b61336f565b604080516020810190915260d254815261336f9061334f908763ffffffff6122eb16565b604080516020810190915260d15481526109b9908963ffffffff6122bf16565b90506000613383828563ffffffff61233116565b60000b131580156133a7575060006133a1828463ffffffff61233116565b60000b12155b6133c35760405162461bcd60e51b815260040161086590613f94565b50505050505050565b6133d4613831565b8180600001516001600160ff1b031015604051806060016040528060338152602001614504603391399061341b5760405162461bcd60e51b81526004016108659190613c58565b50613424613831565b835185516125ef9163ffffffff6137c016565b60006134416120e7565b60e08054919250600091600019810190811061345957fe5b9060005260206000209060040201905080600301548214156134875760d154815560d2546001820155613504565b6040805160a08101825260d15460808201908152815281516020818101845260d254825282015260e09181016134bb6126d5565b8152602090810185905282546001818101855560009485529382902083515160049092020190815590820151519281019290925560408101516002830155606001516003909101555b604080516020810190915260d15481527f3a3348362552c3897fd1f06a3233519ebd8bd76ad6e99a418a9741155fe905159061353f906120da565b604080516020810190915260d2548152613558906120da565b6135606126d5565b6040516108da93929190614496565b60008161358e5760405162461bcd60e51b8152600401610865906143fd565b816000191480156135a25750600160ff1b83145b156135bf5760405162461bcd60e51b815260040161086590613fcb565b60008284816135ca57fe5b05949350505050565b6000610feb836115a86135e5856120de565b879063ffffffff61270116565b6135fa613831565b613602613883565b60e083602001518154811061361357fe5b600091825260208083206040805160a0810182526004909402909101805460808501908152845281518084018352600182015481529284019290925260028201549083015260030154606082015291508351600181111561367057fe5b1415613694576020810151815161368c9163ffffffff61230e16565b915050610cbd565b6001835160018111156136a357fe5b1415613738576136ba8360400151602001516120da565b6136c65761368c6120bf565b600083604001516040015160018111156136dc57fe5b14156136ff576040830151805160209182015183519284015161368c9390610e82565b6001836040015160400151600181111561371557fe5b1415613738576040830151805160209182015183519284015161368c939061199c565b60405162461bcd60e51b815260040161086590613d21565b613758613831565b613760613831565b83516122e2908463ffffffff61270116565b61377a613831565b613782613831565b83516122e2908463ffffffff61206016565b6000610feb6137a2836120de565b6115a8868663ffffffff61270116565b6000610db583836012613806565b60008282018183128015906137d55750838112155b806137ea57506000831280156137ea57508381125b610db55760405162461bcd60e51b815260040161086590613e82565b6000610feb83613825613818856120de565b879063ffffffff612d5916565b9063ffffffff61356f16565b6040518060200160405280600081525090565b6040518060800160405280613857613831565b8152602001613864613831565b8152602001613871613831565b815260200161387e613831565b905290565b6040518060800160405280613896613831565b81526020016138a3613831565b815260200160008152602001600081525090565b604080516060810190915280600081526020016000815260200161387e604080516060810190915280600081526020016138ef613831565b8152602001600061387e565b803560028110610a6157600080fd5b60006020828403121561391b578081fd5b50919050565b600060208284031215613932578081fd5b61393c60206144ac565b9135825250919050565b600060208284031215613957578081fd5b8135610db5816144d3565b600060208284031215613973578081fd5b8135610db5816144e8565b600080600060608486031215613992578182fd5b61399c85856138fb565b92506139ab856020860161390a565b91506139ba856040860161390a565b90509250925092565b600080600080608085870312156139d8578081fd5b84356139e3816144f6565b93506139f2866020870161390a565b9250613a01866040870161390a565b91506060850135613a11816144e8565b939692955090935050565b60008060408385031215613a2e578182fd5b8235613a39816144f6565b9150613a488460208501613921565b90509250929050565b60008060008060808587031215613a66578384fd5b613a7086866138fb565b9350613a7f8660208701613921565b9250613a8e8660408701613921565b9150613a9d8660608701613921565b905092959194509250565b600060208284031215613ab9578081fd5b610db5838361390a565b600060208284031215613ad4578081fd5b610db58383613921565b60008060408385031215613af0578182fd5b613a398484613921565b60008060008385036060811215613b0f578384fd5b6020811215613b1c578384fd5b50613b2760206144ac565b843581529250613b3a8560208601613921565b91506139ba8560408601613921565b600060208284031215613b5a578081fd5b5035919050565b600060208284031215613b72578081fd5b5051919050565b6000806000806000806000806000806101408b8d031215613b98578788fd5b8a35995060208b0135985060408b0135975060608b0135965060808b0135613bbf816144d3565b955060a08b0135945060c08b0135613bd6816144d3565b8094505060e08b013592506101008b013591506101208b013590509295989b9194979a5092959850565b6001600160a01b0391909116815260200190565b901515815260200190565b90815260200190565b6060810160028510613c3657fe5b938152602081019290925260409091015290565b918252602082015260400190565b6000602080835283518082850152825b81811015613c8457858101830151858201604001528201613c68565b81811115613c955783604083870101525b50601f01601f1916929092016040019392505050565b602080825260159082015274062617365206173736574206166746572206973203605c1b604082015260600190565b60208082526027908201527f707269636520697320616c7265616479206f76657220666c756374756174696f6040820152661b881b1a5b5a5d60ca1b606082015260800190565b6020808252601490820152733737ba1039bab83837b93a32b21037b83a34b7b760611b604082015260600190565b6020808252601b908201527f536166654d6174683a206164646974696f6e206f766572666c6f770000000000604082015260600190565b60208082526027908201527f49666e7846694f776e61626c65557067726164653a206e6f7420746865206e656040820152663b9037bbb732b960c91b606082015260800190565b60208082526019908201527f63616e206e6f742073657420696e74657276616c20746f203000000000000000604082015260600190565b60208082526027908201527f49666e7846694f776e61626c65557067726164653a2073616d652061732063616040820152666e64696461746560c81b606082015260800190565b6020808252601a908201527f63616c6c6572206973206e6f7420636f756e7465725061727479000000000000604082015260600190565b60208082526021908201527f5369676e6564536166654d6174683a206164646974696f6e206f766572666c6f6040820152607760f81b606082015260800190565b6020808252601290820152711bdd995c881d1c98591a5b99c81b1a5b5a5d60721b604082015260600190565b6020808252600f908201526e0d2dcc6dee4e4cac6e840d2dcc8caf608b1b604082015260600190565b6020808252602d908201527f49666e7846694f776e61626c65557067726164653a2063616c6c65722069732060408201526c3737ba103a34329037bbb732b960991b606082015260800190565b6020808252601590820152740756e6465726c79696e67207072696365206973203605c1b604082015260600190565b6020808252601f908201527f7072696365206973206f76657220666c756374756174696f6e206c696d697400604082015260600190565b60208082526021908201527f5369676e6564536166654d6174683a206469766973696f6e206f766572666c6f6040820152607760f81b606082015260800190565b6020808252601d908201527f4c657373207468616e206d696e696d616c2071756f746520746f6b656e000000604082015260600190565b6020808252600e908201526d185b5b481dd85cc818db1bdcd95960921b604082015260600190565b60208082526021908201527f536166654d6174683a206d756c7469706c69636174696f6e206f766572666c6f6040820152607760f81b606082015260800190565b6020808252601c908201527f6e6f74206f776e6572206e6f7220676c6f62616c53687574646f776e00000000604082015260600190565b6020808252601c908201527f4c657373207468616e206d696e696d616c206261736520746f6b656e00000000604082015260600190565b6020808252602e908201527f436f6e747261637420696e7374616e63652068617320616c726561647920626560408201526d195b881a5b9a5d1a585b1a5e995960921b606082015260800190565b60208082526027908201527f5369676e6564536166654d6174683a206d756c7469706c69636174696f6e206f604082015266766572666c6f7760c81b606082015260800190565b60208082526019908201527f696e76616c696420507269636546656564206164647265737300000000000000604082015260600190565b6020808252601d908201527f4d6f7265207468616e206d6178696d616c2071756f746520746f6b656e000000604082015260600190565b6020808252601c908201527f4d6f7265207468616e206d6178696d616c206261736520746f6b656e00000000604082015260600190565b6020808252602f908201527f49666e7846694f776e61626c65557067726164653a2063616e6469646174652060408201526e6973207a65726f206164647265737360881b606082015260800190565b602080825260169082015275071756f746520617373657420616674657220697320360541b604082015260600190565b60208082526026908201527f49666e7846694f776e61626c65557067726164653a2073616d65206173206f726040820152651a59da5b985b60d21b606082015260800190565b60208082526018908201527f736574746c652066756e64696e6720746f6f206561726c790000000000000000604082015260600190565b6020808252600d908201526c1a5b9d985b1a59081a5b9c1d5d609a1b604082015260600190565b60208082526024908201527f5369676e6564536166654d6174683a207375627472616374696f6e206f766572604082015263666c6f7760e01b606082015260800190565b60208082526022908201527f49666e7846694f776e61626c65557067726164653a207a65726f206164647265604082015261737360f01b606082015260800190565b6020808252818101527f5369676e6564536166654d6174683a206469766973696f6e206279207a65726f604082015260600190565b815151815260208083015151908201526040808301515190820152606091820151519181019190915260800190565b9051815260200190565b9151825251602082015260400190565b93518452915160208401526040830152606082015260800190565b9283526020830191909152604082015260600190565b60405181810167ffffffffffffffff811182821017156144cb57600080fd5b604052919050565b6001600160a01b03811681146115c457600080fd5b80151581146115c457600080fd5b600281106115c457600080fdfe4d69786564446563696d616c3a2075696e742076616c756520697320626967676572207468616e205f494e543235365f4d4158a26469706673582212209ca8115dcf66131bb239e9ba83cc0cb0a640def825eed06dd67431f9a0a4e70a64736f6c63430006090033",
  "linkReferences": {},
  "deployedLinkReferences": {}
}