{
  "address": "0xeE9954dE66867574cF89eE2D49A65a7c7413D8e5",
  "abi": [
    {
      "anonymous": false,
      "inputs": [
        {
          "indexed": true,
          "internalType": "address",
          "name": "account",
          "type": "address"
        },
        {
          "indexed": true,
          "internalType": "bool",
          "name": "isProvider",
          "type": "bool"
        }
      ],
      "name": "BackstopLiquidityProviderChanged",
      "type": "event"
    },
    {
      "anonymous": false,
      "inputs": [
        {
          "indexed": false,
          "internalType": "uint256",
          "name": "initMarginRatio",
          "type": "uint256"
        }
      ],
      "name": "InitMarginRatioChanged",
      "type": "event"
    },
    {
      "anonymous": false,
      "inputs": [
        {
          "indexed": false,
          "internalType": "address",
          "name": "insuranceFund",
          "type": "address"
        }
      ],
      "name": "InsuranceFundChanged",
      "type": "event"
    },
    {
      "anonymous": false,
      "inputs": [
        {
          "indexed": false,
          "internalType": "uint256",
          "name": "liquidationFeeRatio",
          "type": "uint256"
        }
      ],
      "name": "LiquidationFeeRatioChanged",
      "type": "event"
    },
    {
      "anonymous": false,
      "inputs": [
        {
          "indexed": true,
          "internalType": "address",
          "name": "sender",
          "type": "address"
        },
        {
          "indexed": true,
          "internalType": "address",
          "name": "amm",
          "type": "address"
        },
        {
          "indexed": false,
          "internalType": "int256",
          "name": "amount",
          "type": "int256"
        },
        {
          "indexed": false,
          "internalType": "int256",
          "name": "fundingPayment",
          "type": "int256"
        }
      ],
      "name": "MarginChanged",
      "type": "event"
    },
    {
      "anonymous": false,
      "inputs": [
        {
          "indexed": false,
          "internalType": "uint256",
          "name": "marginRatio",
          "type": "uint256"
        }
      ],
      "name": "MarginRatioChanged",
      "type": "event"
    },
    {
      "anonymous": false,
      "inputs": [
        {
          "indexed": true,
          "internalType": "address",
          "name": "previousOwner",
          "type": "address"
        },
        {
          "indexed": true,
          "internalType": "address",
          "name": "newOwner",
          "type": "address"
        }
      ],
      "name": "OwnershipTransferred",
      "type": "event"
    },
    {
      "anonymous": false,
      "inputs": [
        {
          "indexed": false,
          "internalType": "address",
          "name": "account",
          "type": "address"
        }
      ],
      "name": "Paused",
      "type": "event"
    },
    {
      "anonymous": false,
      "inputs": [
        {
          "indexed": true,
          "internalType": "address",
          "name": "amm",
          "type": "address"
        },
        {
          "indexed": true,
          "internalType": "address",
          "name": "trader",
          "type": "address"
        },
        {
          "indexed": false,
          "internalType": "int256",
          "name": "newPositionSize",
          "type": "int256"
        },
        {
          "indexed": false,
          "internalType": "uint256",
          "name": "oldLiquidityIndex",
          "type": "uint256"
        },
        {
          "indexed": false,
          "internalType": "uint256",
          "name": "newLiquidityIndex",
          "type": "uint256"
        }
      ],
      "name": "PositionAdjusted",
      "type": "event"
    },
    {
      "anonymous": false,
      "inputs": [
        {
          "indexed": true,
          "internalType": "address",
          "name": "trader",
          "type": "address"
        },
        {
          "indexed": true,
          "internalType": "address",
          "name": "amm",
          "type": "address"
        },
        {
          "indexed": false,
          "internalType": "uint256",
          "name": "margin",
          "type": "uint256"
        },
        {
          "indexed": false,
          "internalType": "uint256",
          "name": "positionNotional",
          "type": "uint256"
        },
        {
          "indexed": false,
          "internalType": "int256",
          "name": "exchangedPositionSize",
          "type": "int256"
        },
        {
          "indexed": false,
          "internalType": "uint256",
          "name": "fee",
          "type": "uint256"
        },
        {
          "indexed": false,
          "internalType": "int256",
          "name": "positionSizeAfter",
          "type": "int256"
        },
        {
          "indexed": false,
          "internalType": "int256",
          "name": "realizedPnl",
          "type": "int256"
        },
        {
          "indexed": false,
          "internalType": "int256",
          "name": "unrealizedPnlAfter",
          "type": "int256"
        },
        {
          "indexed": false,
          "internalType": "uint256",
          "name": "badDebt",
          "type": "uint256"
        },
        {
          "indexed": false,
          "internalType": "uint256",
          "name": "liquidationPenalty",
          "type": "uint256"
        },
        {
          "indexed": false,
          "internalType": "uint256",
          "name": "spotPrice",
          "type": "uint256"
        },
        {
          "indexed": false,
          "internalType": "int256",
          "name": "fundingPayment",
          "type": "int256"
        }
      ],
      "name": "PositionChanged",
      "type": "event"
    },
    {
      "anonymous": false,
      "inputs": [
        {
          "indexed": true,
          "internalType": "address",
          "name": "trader",
          "type": "address"
        },
        {
          "indexed": true,
          "internalType": "address",
          "name": "amm",
          "type": "address"
        },
        {
          "indexed": false,
          "internalType": "uint256",
          "name": "positionNotional",
          "type": "uint256"
        },
        {
          "indexed": false,
          "internalType": "uint256",
          "name": "positionSize",
          "type": "uint256"
        },
        {
          "indexed": false,
          "internalType": "uint256",
          "name": "liquidationFee",
          "type": "uint256"
        },
        {
          "indexed": false,
          "internalType": "address",
          "name": "liquidator",
          "type": "address"
        },
        {
          "indexed": false,
          "internalType": "uint256",
          "name": "badDebt",
          "type": "uint256"
        }
      ],
      "name": "PositionLiquidated",
      "type": "event"
    },
    {
      "anonymous": false,
      "inputs": [
        {
          "indexed": true,
          "internalType": "address",
          "name": "amm",
          "type": "address"
        },
        {
          "indexed": true,
          "internalType": "address",
          "name": "trader",
          "type": "address"
        },
        {
          "indexed": false,
          "internalType": "uint256",
          "name": "valueTransferred",
          "type": "uint256"
        }
      ],
      "name": "PositionSettled",
      "type": "event"
    },
    {
      "anonymous": false,
      "inputs": [
        {
          "indexed": true,
          "internalType": "bytes32",
          "name": "referralCode",
          "type": "bytes32"
        }
      ],
      "name": "ReferredPositionChanged",
      "type": "event"
    },
    {
      "anonymous": false,
      "inputs": [
        {
          "indexed": false,
          "internalType": "address",
          "name": "amm",
          "type": "address"
        },
        {
          "indexed": false,
          "internalType": "uint256",
          "name": "blockNumber",
          "type": "uint256"
        }
      ],
      "name": "RestrictionModeEntered",
      "type": "event"
    },
    {
      "anonymous": false,
      "inputs": [
        {
          "indexed": false,
          "internalType": "address",
          "name": "account",
          "type": "address"
        }
      ],
      "name": "Unpaused",
      "type": "event"
    },
    {
      "inputs": [
        {
          "internalType": "contract IAmm",
          "name": "_amm",
          "type": "address"
        },
        {
          "components": [
            {
              "internalType": "uint256",
              "name": "d",
              "type": "uint256"
            }
          ],
          "internalType": "struct Decimal.decimal",
          "name": "_addedMargin",
          "type": "tuple"
        }
      ],
      "name": "addMargin",
      "outputs": [],
      "stateMutability": "nonpayable",
      "type": "function"
    },
    {
      "inputs": [
        {
          "internalType": "address",
          "name": "",
          "type": "address"
        }
      ],
      "name": "backstopLiquidityProviderMap",
      "outputs": [
        {
          "internalType": "bool",
          "name": "",
          "type": "bool"
        }
      ],
      "stateMutability": "view",
      "type": "function"
    },
    {
      "inputs": [],
      "name": "candidate",
      "outputs": [
        {
          "internalType": "address",
          "name": "",
          "type": "address"
        }
      ],
      "stateMutability": "view",
      "type": "function"
    },
    {
      "inputs": [
        {
          "internalType": "contract IAmm",
          "name": "_amm",
          "type": "address"
        },
        {
          "components": [
            {
              "internalType": "uint256",
              "name": "d",
              "type": "uint256"
            }
          ],
          "internalType": "struct Decimal.decimal",
          "name": "_quoteAssetAmountLimit",
          "type": "tuple"
        }
      ],
      "name": "closePosition",
      "outputs": [],
      "stateMutability": "nonpayable",
      "type": "function"
    },
    {
      "inputs": [],
      "name": "feePool",
      "outputs": [
        {
          "internalType": "contract IMultiTokenRewardRecipient",
          "name": "",
          "type": "address"
        }
      ],
      "stateMutability": "view",
      "type": "function"
    },
    {
      "inputs": [
        {
          "internalType": "contract IAmm",
          "name": "_amm",
          "type": "address"
        }
      ],
      "name": "getLatestCumulativePremiumFraction",
      "outputs": [
        {
          "components": [
            {
              "internalType": "int256",
              "name": "d",
              "type": "int256"
            }
          ],
          "internalType": "struct SignedDecimal.signedDecimal",
          "name": "",
          "type": "tuple"
        }
      ],
      "stateMutability": "view",
      "type": "function"
    },
    {
      "inputs": [
        {
          "internalType": "contract IAmm",
          "name": "_amm",
          "type": "address"
        },
        {
          "internalType": "address",
          "name": "_trader",
          "type": "address"
        }
      ],
      "name": "getMarginRatio",
      "outputs": [
        {
          "components": [
            {
              "internalType": "int256",
              "name": "d",
              "type": "int256"
            }
          ],
          "internalType": "struct SignedDecimal.signedDecimal",
          "name": "",
          "type": "tuple"
        }
      ],
      "stateMutability": "view",
      "type": "function"
    },
    {
      "inputs": [
        {
          "internalType": "contract IAmm",
          "name": "_amm",
          "type": "address"
        },
        {
          "internalType": "address",
          "name": "_trader",
          "type": "address"
        }
      ],
      "name": "getPosition",
      "outputs": [
        {
          "components": [
            {
              "components": [
                {
                  "internalType": "int256",
                  "name": "d",
                  "type": "int256"
                }
              ],
              "internalType": "struct SignedDecimal.signedDecimal",
              "name": "size",
              "type": "tuple"
            },
            {
              "components": [
                {
                  "internalType": "uint256",
                  "name": "d",
                  "type": "uint256"
                }
              ],
              "internalType": "struct Decimal.decimal",
              "name": "margin",
              "type": "tuple"
            },
            {
              "components": [
                {
                  "internalType": "uint256",
                  "name": "d",
                  "type": "uint256"
                }
              ],
              "internalType": "struct Decimal.decimal",
              "name": "openNotional",
              "type": "tuple"
            },
            {
              "components": [
                {
                  "internalType": "int256",
                  "name": "d",
                  "type": "int256"
                }
              ],
              "internalType": "struct SignedDecimal.signedDecimal",
              "name": "lastUpdatedCumulativePremiumFraction",
              "type": "tuple"
            },
            {
              "internalType": "uint256",
              "name": "liquidityHistoryIndex",
              "type": "uint256"
            },
            {
              "internalType": "uint256",
              "name": "blockNumber",
              "type": "uint256"
            }
          ],
          "internalType": "struct ClearingHouse.Position",
          "name": "",
          "type": "tuple"
        }
      ],
      "stateMutability": "view",
      "type": "function"
    },
    {
      "inputs": [
        {
          "internalType": "contract IAmm",
          "name": "_amm",
          "type": "address"
        },
        {
          "internalType": "address",
          "name": "_trader",
          "type": "address"
        },
        {
          "internalType": "enum ClearingHouse.PnlCalcOption",
          "name": "_pnlCalcOption",
          "type": "uint8"
        }
      ],
      "name": "getPositionNotionalAndUnrealizedPnl",
      "outputs": [
        {
          "components": [
            {
              "internalType": "uint256",
              "name": "d",
              "type": "uint256"
            }
          ],
          "internalType": "struct Decimal.decimal",
          "name": "positionNotional",
          "type": "tuple"
        },
        {
          "components": [
            {
              "internalType": "int256",
              "name": "d",
              "type": "int256"
            }
          ],
          "internalType": "struct SignedDecimal.signedDecimal",
          "name": "unrealizedPnl",
          "type": "tuple"
        }
      ],
      "stateMutability": "view",
      "type": "function"
    },
    {
      "inputs": [
        {
          "internalType": "contract IAmm",
          "name": "_amm",
          "type": "address"
        },
        {
          "internalType": "address",
          "name": "_trader",
          "type": "address"
        }
      ],
      "name": "getUnadjustedPosition",
      "outputs": [
        {
          "components": [
            {
              "components": [
                {
                  "internalType": "int256",
                  "name": "d",
                  "type": "int256"
                }
              ],
              "internalType": "struct SignedDecimal.signedDecimal",
              "name": "size",
              "type": "tuple"
            },
            {
              "components": [
                {
                  "internalType": "uint256",
                  "name": "d",
                  "type": "uint256"
                }
              ],
              "internalType": "struct Decimal.decimal",
              "name": "margin",
              "type": "tuple"
            },
            {
              "components": [
                {
                  "internalType": "uint256",
                  "name": "d",
                  "type": "uint256"
                }
              ],
              "internalType": "struct Decimal.decimal",
              "name": "openNotional",
              "type": "tuple"
            },
            {
              "components": [
                {
                  "internalType": "int256",
                  "name": "d",
                  "type": "int256"
                }
              ],
              "internalType": "struct SignedDecimal.signedDecimal",
              "name": "lastUpdatedCumulativePremiumFraction",
              "type": "tuple"
            },
            {
              "internalType": "uint256",
              "name": "liquidityHistoryIndex",
              "type": "uint256"
            },
            {
              "internalType": "uint256",
              "name": "blockNumber",
              "type": "uint256"
            }
          ],
          "internalType": "struct ClearingHouse.Position",
          "name": "position",
          "type": "tuple"
        }
      ],
      "stateMutability": "view",
      "type": "function"
    },
    {
      "inputs": [],
      "name": "initMarginRatio",
      "outputs": [
        {
          "internalType": "uint256",
          "name": "d",
          "type": "uint256"
        }
      ],
      "stateMutability": "view",
      "type": "function"
    },
    {
      "inputs": [
        {
          "internalType": "uint256",
          "name": "_initMarginRatio",
          "type": "uint256"
        },
        {
          "internalType": "contract IInsuranceFund",
          "name": "_insuranceFund",
          "type": "address"
        }
      ],
      "name": "initialize",
      "outputs": [],
      "stateMutability": "nonpayable",
      "type": "function"
    },
    {
      "inputs": [],
      "name": "insuranceFund",
      "outputs": [
        {
          "internalType": "contract IInsuranceFund",
          "name": "",
          "type": "address"
        }
      ],
      "stateMutability": "view",
      "type": "function"
    },
    {
      "inputs": [
        {
          "internalType": "address",
          "name": "forwarder",
          "type": "address"
        }
      ],
      "name": "isTrustedForwarder",
      "outputs": [
        {
          "internalType": "bool",
          "name": "",
          "type": "bool"
        }
      ],
      "stateMutability": "view",
      "type": "function"
    },
    {
      "inputs": [
        {
          "internalType": "contract IAmm",
          "name": "_amm",
          "type": "address"
        },
        {
          "internalType": "address",
          "name": "_trader",
          "type": "address"
        }
      ],
      "name": "liquidate",
      "outputs": [],
      "stateMutability": "nonpayable",
      "type": "function"
    },
    {
      "inputs": [
        {
          "internalType": "contract IAmm",
          "name": "_amm",
          "type": "address"
        },
        {
          "internalType": "address",
          "name": "_trader",
          "type": "address"
        },
        {
          "components": [
            {
              "internalType": "uint256",
              "name": "d",
              "type": "uint256"
            }
          ],
          "internalType": "struct Decimal.decimal",
          "name": "_quoteAssetAmountLimit",
          "type": "tuple"
        }
      ],
      "name": "liquidateWithSlippage",
      "outputs": [
        {
          "components": [
            {
              "internalType": "uint256",
              "name": "d",
              "type": "uint256"
            }
          ],
          "internalType": "struct Decimal.decimal",
          "name": "quoteAssetAmount",
          "type": "tuple"
        },
        {
          "internalType": "bool",
          "name": "isPartialClose",
          "type": "bool"
        }
      ],
      "stateMutability": "nonpayable",
      "type": "function"
    },
    {
      "inputs": [],
      "name": "liquidationFeeRatio",
      "outputs": [
        {
          "internalType": "uint256",
          "name": "d",
          "type": "uint256"
        }
      ],
      "stateMutability": "view",
      "type": "function"
    },
    {
      "inputs": [],
      "name": "maintenanceMarginRatio",
      "outputs": [
        {
          "internalType": "uint256",
          "name": "d",
          "type": "uint256"
        }
      ],
      "stateMutability": "view",
      "type": "function"
    },
    {
      "inputs": [
        {
          "internalType": "address",
          "name": "",
          "type": "address"
        }
      ],
      "name": "openInterestNotionalMap",
      "outputs": [
        {
          "internalType": "uint256",
          "name": "d",
          "type": "uint256"
        }
      ],
      "stateMutability": "view",
      "type": "function"
    },
    {
      "inputs": [
        {
          "internalType": "contract IAmm",
          "name": "_amm",
          "type": "address"
        },
        {
          "internalType": "enum ClearingHouse.Side",
          "name": "_side",
          "type": "uint8"
        },
        {
          "components": [
            {
              "internalType": "uint256",
              "name": "d",
              "type": "uint256"
            }
          ],
          "internalType": "struct Decimal.decimal",
          "name": "_quoteAssetAmount",
          "type": "tuple"
        },
        {
          "components": [
            {
              "internalType": "uint256",
              "name": "d",
              "type": "uint256"
            }
          ],
          "internalType": "struct Decimal.decimal",
          "name": "_leverage",
          "type": "tuple"
        },
        {
          "components": [
            {
              "internalType": "uint256",
              "name": "d",
              "type": "uint256"
            }
          ],
          "internalType": "struct Decimal.decimal",
          "name": "_baseAssetAmountLimit",
          "type": "tuple"
        }
      ],
      "name": "openPosition",
      "outputs": [],
      "stateMutability": "nonpayable",
      "type": "function"
    },
    {
      "inputs": [],
      "name": "owner",
      "outputs": [
        {
          "internalType": "address",
          "name": "",
          "type": "address"
        }
      ],
      "stateMutability": "view",
      "type": "function"
    },
    {
      "inputs": [],
      "name": "partialLiquidationRatio",
      "outputs": [
        {
          "internalType": "uint256",
          "name": "d",
          "type": "uint256"
        }
      ],
      "stateMutability": "view",
      "type": "function"
    },
    {
      "inputs": [],
      "name": "pause",
      "outputs": [],
      "stateMutability": "nonpayable",
      "type": "function"
    },
    {
      "inputs": [],
      "name": "paused",
      "outputs": [
        {
          "internalType": "bool",
          "name": "",
          "type": "bool"
        }
      ],
      "stateMutability": "view",
      "type": "function"
    },
    {
      "inputs": [
        {
          "internalType": "contract IAmm",
          "name": "_amm",
          "type": "address"
        }
      ],
      "name": "payFunding",
      "outputs": [],
      "stateMutability": "nonpayable",
      "type": "function"
    },
    {
      "inputs": [
        {
          "internalType": "contract IAmm",
          "name": "_amm",
          "type": "address"
        },
        {
          "components": [
            {
              "internalType": "uint256",
              "name": "d",
              "type": "uint256"
            }
          ],
          "internalType": "struct Decimal.decimal",
          "name": "_removedMargin",
          "type": "tuple"
        }
      ],
      "name": "removeMargin",
      "outputs": [],
      "stateMutability": "nonpayable",
      "type": "function"
    },
    {
      "inputs": [],
      "name": "renounceOwnership",
      "outputs": [],
      "stateMutability": "nonpayable",
      "type": "function"
    },
    {
      "inputs": [
        {
          "internalType": "address",
          "name": "account",
          "type": "address"
        },
        {
          "internalType": "bool",
          "name": "isProvider",
          "type": "bool"
        }
      ],
      "name": "setBackstopLiquidityProvider",
      "outputs": [],
      "stateMutability": "nonpayable",
      "type": "function"
    },
    {
      "inputs": [
        {
          "internalType": "address",
          "name": "_feePool",
          "type": "address"
        }
      ],
      "name": "setFeePool",
      "outputs": [],
      "stateMutability": "nonpayable",
      "type": "function"
    },
    {
      "inputs": [
        {
          "components": [
            {
              "internalType": "uint256",
              "name": "d",
              "type": "uint256"
            }
          ],
          "internalType": "struct Decimal.decimal",
          "name": "_liquidationFeeRatio",
          "type": "tuple"
        }
      ],
      "name": "setLiquidationFeeRatio",
      "outputs": [],
      "stateMutability": "nonpayable",
      "type": "function"
    },
    {
      "inputs": [
        {
          "components": [
            {
              "internalType": "uint256",
              "name": "d",
              "type": "uint256"
            }
          ],
          "internalType": "struct Decimal.decimal",
          "name": "_maintenanceMarginRatio",
          "type": "tuple"
        }
      ],
      "name": "setMaintenanceMarginRatio",
      "outputs": [],
      "stateMutability": "nonpayable",
      "type": "function"
    },
    {
      "inputs": [
        {
          "internalType": "address",
          "name": "newOwner",
          "type": "address"
        }
      ],
      "name": "setOwner",
      "outputs": [],
      "stateMutability": "nonpayable",
      "type": "function"
    },
    {
      "inputs": [
        {
          "components": [
            {
              "internalType": "uint256",
              "name": "d",
              "type": "uint256"
            }
          ],
          "internalType": "struct Decimal.decimal",
          "name": "_ratio",
          "type": "tuple"
        }
      ],
      "name": "setPartialLiquidationRatio",
      "outputs": [],
      "stateMutability": "nonpayable",
      "type": "function"
    },
    {
      "inputs": [
        {
          "internalType": "address",
          "name": "_whitelist",
          "type": "address"
        }
      ],
      "name": "setWhitelist",
      "outputs": [],
      "stateMutability": "nonpayable",
      "type": "function"
    },
    {
      "inputs": [
        {
          "internalType": "contract IAmm",
          "name": "_amm",
          "type": "address"
        }
      ],
      "name": "settlePosition",
      "outputs": [],
      "stateMutability": "nonpayable",
      "type": "function"
    },
    {
      "inputs": [],
      "name": "trustedForwarder",
      "outputs": [
        {
          "internalType": "address",
          "name": "",
          "type": "address"
        }
      ],
      "stateMutability": "view",
      "type": "function"
    },
    {
      "inputs": [],
      "name": "unpause",
      "outputs": [],
      "stateMutability": "nonpayable",
      "type": "function"
    },
    {
      "inputs": [],
      "name": "updateOwner",
      "outputs": [],
      "stateMutability": "nonpayable",
      "type": "function"
    },
    {
      "inputs": [],
      "name": "versionRecipient",
      "outputs": [
        {
          "internalType": "string",
          "name": "",
          "type": "string"
        }
      ],
      "stateMutability": "view",
      "type": "function"
    }
  ],
  "transactionHash": "0x1b72831dc0a2711bde4b4baf1f3da7ff8aa3c72021aad106544a11398647320f",
  "args": [],
  "solcInputHash": "4c49f922d9cb7c7ed60ad782db69f561",
  "bytecode": "0x608060405234801561001057600080fd5b50615f1e80620000216000396000f3fe608060405234801561001057600080fd5b506004361061023d5760003560e01c80638456cb591161013b578063ae2e933b116100b8578063cfe711031161007c578063cfe711031461049b578063da35a26f146104a3578063e57d5636146104b6578063e9a4019b146104be578063ea0a45f9146104d15761023d565b8063ae2e933b14610470578063b0ac5f2f14610478578063b33dc19014610242578063b79023031461048b578063bc5920ba146104935761023d565b80638bedf3bb116100ff5780638bedf3bb1461040e5780638da5cb5b1461042f57806390cf78e414610437578063a8c1b0bc1461044a578063ac06a96e1461045d5761023d565b80638456cb59146103ba578063854cff2f146103c2578063862c04e3146103d557806386b9d81f146103e8578063893d242d146103fb5761023d565b80633f4ba83a116101c95780636c1274461161018d5780636c1274461461037a5780636c8381f81461038d578063715018a6146103a25780637da0a877146103aa57806383acb48a146103b25761023d565b80633f4ba83a14610315578063486ff0cd1461031d578063572b6c05146103325780635c975abb146103525780636891397b1461035a5761023d565b8063203b378811610210578063203b3788146102a857806329c44f13146102bb57806330e2ae65146102dc57806336405257146102ef5780633e09fa10146103025761023d565b80630475db5a14610242578063090f05c21461026b57806313af40351461028057806319db222814610295575b600080fd5b6102556102503660046150ff565b6104e4565b6040516102629190615d3e565b60405180910390f35b610273610580565b6040516102629190615db1565b61029361028e36600461508f565b610587565b005b6102936102a336600461508f565b610669565b6102936102b63660046152be565b6106c1565b6102ce6102c9366004615179565b61074f565b604051610262929190615d90565b6102936102ea36600461522e565b6108b0565b6102936102fd36600461508f565b610b30565b61029361031036600461508f565b610db6565b61029361102f565b61032561106e565b6040516102629190615464565b61034561034036600461508f565b6110fd565b60405161026291906153c8565b610345611115565b61036d61036836600461508f565b61111f565b6040516102629190615d86565b6102936103883660046152be565b61119d565b610395611213565b6040516102629190615377565b610293611222565b6103956112a1565b6102736112b1565b6102936112b8565b6102936103d036600461508f565b6112f5565b6102936103e33660046152be565b61134d565b6102936103f63660046150ff565b6113c4565b6102936104093660046151c0565b611410565b61042161041c36600461512c565b611831565b604051610262929190615da1565b610395611a43565b6102936104453660046150ab565b611a52565b61029361045836600461526d565b611adc565b61029361046b36600461522e565b611f58565b6103956120f5565b61027361048636600461508f565b612105565b61039561211e565b61029361212e565b6102736121f1565b6102936104b1366004615337565b6121f8565b610273612237565b6103456104cc36600461508f565b61223e565b61036d6104df3660046150ff565b612254565b6104ec614f70565b506001600160a01b03918216600090815261019a602090815260408083209390941682526002928301815290839020835160e081018552815460c082019081528152845180840186526001830154815281840152845180840186529382015484528085019390935283519182019093526003830154815260608201526004820154608082015260059091015460a082015290565b6101d15481565b61058f6122b3565b6098546001600160a01b039081169116146105c55760405162461bcd60e51b81526004016105bc90615839565b60405180910390fd5b6001600160a01b0381166105eb5760405162461bcd60e51b81526004016105bc90615c90565b6098546001600160a01b03828116911614156106195760405162461bcd60e51b81526004016105bc90615b9b565b6099546001600160a01b03828116911614156106475760405162461bcd60e51b81526004016105bc90615697565b609980546001600160a01b0319166001600160a01b0392909216919091179055565b6106716122b3565b6098546001600160a01b0390811691161461069e5760405162461bcd60e51b81526004016105bc90615839565b61019d80546001600160a01b0319166001600160a01b0392909216919091179055565b6106c96122b3565b6098546001600160a01b039081169116146106f65760405162461bcd60e51b81526004016105bc90615839565b805161019881905560408051602081019091529081527f6f825f18b787836f7cf974799b160538ab237aa0d14af3611fa69683a40c6d2290610737906122c2565b6040516107449190615db1565b60405180910390a150565b610757614fbe565b6101305460009060ff1661077d5760405162461bcd60e51b81526004016105bc90615d07565b610130805460ff19169055610790614f70565b61079a86866104e4565b90506107a686866122c6565b90935091506107b3614fbe565b826107be57846107e0565b60408051602081019091526101d15481526107e090869063ffffffff61298c16565b905060006107f183600001516122c2565b131561082c57610800816122c2565b610809856122c2565b10156108275760405162461bcd60e51b81526004016105bc90615935565b610896565b600061083b83600001516122c2565b128015610861575061085b61084e6129b8565b829063ffffffff6129d316565b60000b15155b156108965761086f816122c2565b610878856122c2565b11156108965760405162461bcd60e51b81526004016105bc90615b15565b5050610130805460ff191660011790559094909350915050565b60cc5460ff16156108d35760405162461bcd60e51b81526004016105bc906157ce565b6101305460ff166108f65760405162461bcd60e51b81526004016105bc90615d07565b610130805460ff1916905561090c826001612a04565b6000826001600160a01b031663fdf262b76040518163ffffffff1660e01b815260040160206040518083038186803b15801561094757600080fd5b505afa15801561095b573d6000803e3d6000fd5b505050506040513d601f19601f8201168201806040525081019061097f91906152a2565b905061099981610994368590038501856152be565b612b91565b60006109a36122b3565b90506109ad614f70565b6109b785836104e4565b90506109c1614fbe565b6109ea6000196109de6109d9368990038901896152be565b612bbb565b9063ffffffff612c1f16565b90506109f4614fbe565b6109fc614fbe565b610a04614fbe565b610a0c614fbe565b610a178a8787612c41565b9350935093509350610a28836122c2565b15610a455760405162461bcd60e51b81526004016105bc9061553b565b60208601849052606086018190526000610a77610a728c8a610a6d898963ffffffff612d0416565b612d27565b6122c2565b1215610a955760405162461bcd60e51b81526004016105bc906158bd565b610aa08a8888612e35565b610ab98888610ab4368d90038d018d6152be565b612e9f565b896001600160a01b0316876001600160a01b03167f1c822fe92555a7e529201522fbd166b03a55712d945737f4cc5c1e18199caa7b610af7886122c2565b610b00866122c2565b604051610b0e929190615456565b60405180910390a35050610130805460ff191660011790555050505050505050565b6101305460ff16610b535760405162461bcd60e51b81526004016105bc90615d07565b610130805460ff19169055610b69816000612a04565b6000610b736122b3565b9050610b7d614f70565b610b8783836104e4565b9050610b968160000151612fae565b610ba08383612fd6565b610ba8614fbe565b836001600160a01b031663ec2c0e636040518163ffffffff1660e01b815260040160206040518083038186803b158015610be157600080fd5b505afa158015610bf5573d6000803e3d6000fd5b505050506040513d601f19601f82011682018060405250810190610c1991906152d9565b9050610c23614fbe565b610c2c826122c2565b610c3b57506020820151610cc2565b610c43614fbe565b610ca18460200151610c95610c87610c72610c618960000151613090565b60408a01519063ffffffff6130be16565b610c7b88612bbb565b9063ffffffff6130e116565b87519063ffffffff61315616565b9063ffffffff61317916565b90506000610cae826122c2565b1315610cc057610cbd81613090565b91505b505b6000610ccd826122c2565b1115610d4e57610d4e856001600160a01b031663fdf262b76040518163ffffffff1660e01b815260040160206040518083038186803b158015610d0f57600080fd5b505afa158015610d23573d6000803e3d6000fd5b505050506040513d601f19601f82011682018060405250810190610d4791906152a2565b85836131e4565b836001600160a01b0316856001600160a01b03167fba70e8457921bdd49042182753cb6259c62f923e2b64216b68372cd85ec3af6c610d8c846122c2565b604051610d999190615db1565b60405180910390a35050610130805460ff19166001179055505050565b610dc1816001612a04565b610dc9614fbe565b816001600160a01b031663ed83d79c6040518163ffffffff1660e01b8152600401602060405180830381600087803b158015610e0457600080fd5b505af1158015610e18573d6000803e3d6000fd5b505050506040513d601f19601f82011682018060405250810190610e3c919061506a565b6001600160a01b038316600090815261019a60205260409020909150600101610e74610e678461111f565b839063ffffffff61331316565b8154600181018355600092835260209092209051910155610e93614fbe565b826001600160a01b0316632f8488596040518163ffffffff1660e01b815260040160206040518083038186803b158015610ecc57600080fd5b505afa158015610ee0573d6000803e3d6000fd5b505050506040513d601f19601f82011682018060405250810190610f04919061506a565b9050610f0e614fbe565b610f1e838363ffffffff61315616565b90506000846001600160a01b031663fdf262b76040518163ffffffff1660e01b815260040160206040518083038186803b158015610f5b57600080fd5b505afa158015610f6f573d6000803e3d6000fd5b505050506040513d601f19601f82011682018060405250810190610f9391906152a2565b90506000610fa0836122c2565b12156110165761019c546001600160a01b031663252978b882610fc285613090565b6040518363ffffffff1660e01b8152600401610fdf9291906153d3565b600060405180830381600087803b158015610ff957600080fd5b505af115801561100d573d6000803e3d6000fd5b50505050611028565b6110288161102384613090565b613336565b5050505050565b6110376122b3565b6098546001600160a01b039081169116146110645760405162461bcd60e51b81526004016105bc90615839565b61106c613382565b565b610195805460408051602060026001851615610100026000190190941693909304601f810184900484028201840190925281815292918301828280156110f55780601f106110ca576101008083540402835291602001916110f5565b820191906000526020600020905b8154815290600101906020018083116110d857829003601f168201915b505050505081565b610194546001600160a01b038281169116145b919050565b60cc5460ff165b90565b611127614fbe565b6001600160a01b038216600090815261019a60205260409020600101548015611197576001600160a01b038316600090815261019a602052604090206001018054600019830190811061117657fe5b60009182526020918290206040805193840190520154815291506111109050565b50919050565b6111a56122b3565b6098546001600160a01b039081169116146111d25760405162461bcd60e51b81526004016105bc90615839565b805161019781905560408051602081019091529081527fce738a6382894b012492e42016c4321ac69da80c4827f80a2e0907585818ac3190610737906122c2565b6099546001600160a01b031690565b61122a6122b3565b6098546001600160a01b039081169116146112575760405162461bcd60e51b81526004016105bc90615839565b6098546040516000916001600160a01b0316907f8be0079c531659141344cd1fd0a4f28419497f9722a3daafe3b4186f6b6457e0908390a3609880546001600160a01b0319169055565b610194546001600160a01b031681565b6101975481565b6112c06122b3565b6098546001600160a01b039081169116146112ed5760405162461bcd60e51b81526004016105bc90615839565b61106c6133ee565b6112fd6122b3565b6098546001600160a01b0390811691161461132a5760405162461bcd60e51b81526004016105bc90615839565b61019e80546001600160a01b0319166001600160a01b0392909216919091179055565b6113556122b3565b6098546001600160a01b039081169116146113825760405162461bcd60e51b81526004016105bc90615839565b600061139c61138f613447565b839063ffffffff6129d316565b60000b13156113bd5760405162461bcd60e51b81526004016105bc906159d1565b516101d155565b6101305460ff166113e75760405162461bcd60e51b81526004016105bc90615d07565b610130805460ff191690556113fc82826122c6565b5050610130805460ff191660011790555050565b60cc5460ff16156114335760405162461bcd60e51b81526004016105bc906157ce565b6101305460ff166114565760405162461bcd60e51b81526004016105bc90615d07565b610130805460ff1916905561146c856001612a04565b6000856001600160a01b031663fdf262b76040518163ffffffff1660e01b815260040160206040518083038186803b1580156114a757600080fd5b505afa1580156114bb573d6000803e3d6000fd5b505050506040513d601f19601f820116820180604052508101906114df91906152a2565b90506114eb8185612b91565b6114f48361346b565b61152a611512846115066109d9613447565b9063ffffffff61349016565b6040805160208101909152610196548152600161350a565b61153386613551565b600061153d6122b3565b9050611547614fd1565b600061155c6115568a856104e4565b516122c2565b90506000811561156d576000611570565b60015b905080806115a4575088600181111561158557fe5b60008313611594576001611597565b60005b60018111156115a257fe5b145b156115cc576115c58a8a6115be8b8b63ffffffff61298c16565b898b6135ae565b92506115df565b6115dc8a8a868b8b8b60006137d8565b92505b6115ee8a858560000151612e35565b801580156116065750825151611603906122c2565b15155b15611630576116306116188b86612254565b6040805160208101909152610197548152600161350a565b61163d83604001516122c2565b1561165a5760405162461bcd60e51b81526004016105bc906155ce565b60006116698460c001516122c2565b131561168c576116878585306116828760c00151613090565b613a26565b6116b3565b600061169b8460c001516122c2565b12156116b3576116b38585610ab48660c00151613090565b50506116bd614fbe565b6116cc838a8460200151613b58565b905060006117448a6001600160a01b031663dc76fabc6040518163ffffffff1660e01b815260040160206040518083038186803b15801561170c57600080fd5b505afa158015611720573d6000803e3d6000fd5b505050506040513d601f19601f82011682018060405250810190610a7291906152d9565b9050600061175584608001516122c2565b90508a6001600160a01b0316856001600160a01b03167f4c7b764f428c13bbea8cc8da90ebe6eef4dafeb27a4e3d9041d64208c47ca7c261179d8760000151602001516122c2565b6117aa88602001516122c2565b6117b789606001516122c2565b6117c0896122c2565b8a51516117cc906122c2565b6117d98c60a001516122c2565b6117e68d60e001516122c2565b6117f38e604001516122c2565b60008d8d60405161180e9b9a99989796959493929190615dba565b60405180910390a35050610130805460ff19166001179055505050505050505050565b611839614fbe565b611841614fbe565b611849614f70565b61185386866104e4565b905061185d614fbe565b815161186890613090565b9050611873816122c2565b15611a395760008061188884600001516122c2565b12905060008161189957600061189c565b60015b905060018760028111156118ac57fe5b1415611937576040516337d2176f60e11b81526001600160a01b038a1690636fa42ede906118e090849087906004016153ed565b60206040518083038186803b1580156118f857600080fd5b505afa15801561190c573d6000803e3d6000fd5b505050506040513d601f19601f8201168201806040525081019061193091906152d9565b9550611a08565b600087600281111561194557fe5b14156119795760405163da0c592760e01b81526001600160a01b038a169063da0c5927906118e090849087906004016153ed565b611981614fbe565b896001600160a01b031663468f02d26040518163ffffffff1660e01b815260040160206040518083038186803b1580156119ba57600080fd5b505afa1580156119ce573d6000803e3d6000fd5b505050506040513d601f19601f820116820180604052508101906119f291906152d9565b9050611a04848263ffffffff61298c16565b9650505b81611a2357611a1e8460400151610c7b88612bbb565b611a34565b611a3486610c7b8660400151612bbb565b945050505b5050935093915050565b6098546001600160a01b031690565b611a5a6122b3565b6098546001600160a01b03908116911614611a875760405162461bcd60e51b81526004016105bc90615839565b6001600160a01b03821660008181526101d26020526040808220805460ff191685151590811790915590519092917fea46bd0a90ba772a1dbffd4f585e1418c095cb5f70177a38f6eeadf26046e8a991a35050565b60cc5460ff1615611aff5760405162461bcd60e51b81526004016105bc906157ce565b6101305460ff16611b225760405162461bcd60e51b81526004016105bc90615d07565b610130805460ff19169055611b38826001612a04565b611b4182613551565b6000611b4b6122b3565b9050611b55614fd1565b611b5d614f70565b611b6785846104e4565b9050600080611b7983600001516122c2565b13611b85576001611b88565b60005b9050856001600160a01b031663130234cf82611ba78560000151613090565b6040518363ffffffff1660e01b8152600401611bc49291906153ed565b60206040518083038186803b158015611bdc57600080fd5b505afa158015611bf0573d6000803e3d6000fd5b505050506040513d601f19601f82011682018060405250810190611c1491906150e3565b8015611c4a57506000611c45611c28613447565b60408051602081019091526101d15481529063ffffffff6129d316565b60000b125b15611d5657611c57614fbe565b60408051602081019091526101d154815283516001600160a01b0389169163da0c5927918591611c9591611c909163ffffffff613d8816565b613090565b6040518363ffffffff1660e01b8152600401611cb29291906153ed565b60206040518083038186803b158015611cca57600080fd5b505afa158015611cde573d6000803e3d6000fd5b505050506040513d601f19601f82011682018060405250810190611d0291906152d9565b9050611d3f876000611d1786600001516122c2565b13611d23576000611d26565b60015b8784611d30613447565b611d386129b8565b60016137d8565b9350611d5087868660000151612e35565b50611d64565b611d61868587613df9565b92505b611d7183604001516122c2565b15611d8e5760405162461bcd60e51b81526004016105bc906155ce565b6000866001600160a01b031663fdf262b76040518163ffffffff1660e01b815260040160206040518083038186803b158015611dc957600080fd5b505afa158015611ddd573d6000803e3d6000fd5b505050506040513d601f19601f82011682018060405250810190611e0191906152a2565b9050611e158186610ab48760c00151613090565b505050611e20614fbe565b611e2f83868460200151613b58565b90506000611e6f866001600160a01b031663dc76fabc6040518163ffffffff1660e01b815260040160206040518083038186803b15801561170c57600080fd5b90506000611e8084608001516122c2565b9050866001600160a01b0316856001600160a01b03167f4c7b764f428c13bbea8cc8da90ebe6eef4dafeb27a4e3d9041d64208c47ca7c2611ec88760000151602001516122c2565b611ed588602001516122c2565b611ee289606001516122c2565b611eeb896122c2565b8a5151611ef7906122c2565b611f048c60a001516122c2565b611f118d60e001516122c2565b611f1e8e604001516122c2565b60008d8d604051611f399b9a99989796959493929190615dba565b60405180910390a35050610130805460ff191660011790555050505050565b60cc5460ff1615611f7b5760405162461bcd60e51b81526004016105bc906157ce565b6101305460ff16611f9e5760405162461bcd60e51b81526004016105bc90615d07565b610130805460ff19169055611fb4826001612a04565b6000826001600160a01b031663fdf262b76040518163ffffffff1660e01b815260040160206040518083038186803b158015611fef57600080fd5b505afa158015612003573d6000803e3d6000fd5b505050506040513d601f19601f8201168201806040525081019061202791906152a2565b905061203c81610994368590038501856152be565b60006120466122b3565b9050612050614f70565b61205a85836104e4565b905061207f61206e368690038601866152be565b60208301519063ffffffff613f9316565b602082015261208f858383612e35565b6120a4838330611682368990038901896152be565b6001600160a01b038086169083167f1c822fe92555a7e529201522fbd166b03a55712d945737f4cc5c1e18199caa7b6120e5610a72368990038901896152be565b6000604051610d99929190615456565b61019d546001600160a01b031681565b6101996020526000908152604090205481565b92915050565b61019c546001600160a01b031681565b6099546001600160a01b03166121565760405162461bcd60e51b81526004016105bc90615b4c565b61215e6122b3565b6099546001600160a01b0390811691161461218b5760405162461bcd60e51b81526004016105bc90615627565b6099546098546040516001600160a01b0392831692909116907f8be0079c531659141344cd1fd0a4f28419497f9722a3daafe3b4186f6b6457e090600090a360998054609880546001600160a01b03199081166001600160a01b03841617909155169055565b6101985481565b612200613fb6565b60408051602081019091528290526101969190915561019c80546001600160a01b0319166001600160a01b03909216919091179055565b6101965481565b6101d26020526000908152604090205460ff1681565b61225c614fbe565b612264614f70565b61226e84846104e4565b905061227d8160000151612fae565b612285614fbe565b61228d614fbe565b61229986866000614048565b915091506122a9868484846140d9565b9695505050505050565b60006122bd614113565b905090565b5190565b6122ce614fbe565b60006122db846001612a04565b6122e3614fbe565b6122ed8585612254565b9050846001600160a01b0316639e0103626040518163ffffffff1660e01b815260040160206040518083038186803b15801561232857600080fd5b505afa15801561233c573d6000803e3d6000fd5b505050506040513d601f19601f8201168201806040525081019061236091906150e3565b1561239c5761236d614fbe565b61237986866002614145565b90506000612390610a72838563ffffffff61419916565b131561239a578091505b505b60408051602081019091526101975481526123ba908290600061350a565b6123c2614fd1565b6123ca614fbe565b6123d2614fbe565b6123da614fbe565b6123e2614fbe565b60008a6001600160a01b031663fdf262b76040518163ffffffff1660e01b815260040160206040518083038186803b15801561241d57600080fd5b505afa158015612431573d6000803e3d6000fd5b505050506040513d601f19601f8201168201806040525081019061245591906152a2565b90506000612468610a728d8d6000614145565b6040805160208101909152610198548152909150612485906122c2565b811380156124a05750600061249b611c28613447565b60000b125b80156124c4575060408051602081019091526101d15481526124c1906122c2565b15155b1561265b576124d1614f70565b6124db8d8d6104e4565b90506124e5614fbe565b8d6001600160a01b031663da0c5927600061250385600001516122c2565b1361250f576001612512565b60005b60408051602081019091526101d1548152855161253991611c90919063ffffffff613d8816565b6040518363ffffffff1660e01b81526004016125569291906153ed565b60206040518083038186803b15801561256e57600080fd5b505afa158015612582573d6000803e3d6000fd5b505050506040513d601f19601f820116820180604052508101906125a691906152d9565b90506125d48e60006125bb85600001516122c2565b136125c75760006125ca565b60015b8f84611d30613447565b60408051602080820190925261019854815290820151919a506125fd919063ffffffff61298c16565b975061261088600263ffffffff6141bc16565b9550612622888763ffffffff612d0416565b89516020015190955061263b908963ffffffff612d0416565b8951602001528851612650908f908f90612e35565b60019a5050506127ad565b6126658c8c6104e4565b60200151955061267d8c8c6126786129b8565b613df9565b9650612687614fbe565b6126948860c00151613090565b604080516020808201909252610198548152908a01519192506126d0916002916126c4919063ffffffff61298c16565b9063ffffffff6141bc16565b94506126da614fbe565b5060408801516126e9826122c2565b6126f2876122c2565b111561272157612708868363ffffffff612d0416565b965061271a818863ffffffff613f9316565b9050612734565b612731828763ffffffff612d0416565b91505b600061273f826122c2565b1115612795576101d260006127526122b3565b6001600160a01b0316815260208101919091526040016000205460ff1661278b5760405162461bcd60e51b81526004016105bc9061566e565b61279584826141de565b60006127a0836122c2565b11156127aa578194505b50505b60006127b8846122c2565b11156127c8576127c88284613336565b6127da826127d46122b3565b86612e9f565b6127e38c6142f6565b8b6001600160a01b03168b6001600160a01b03167f5225638a979dd133f201045ab4169ec2189874d864f2b5a10be72ac6e4b421b46128258a602001516122c2565b6128328b6060015161435d565b61283b896122c2565b6128436122b3565b61284c8c6122c2565b60405161285d959493929190615e08565b60405180910390a3505050505060006128a8886001600160a01b031663dc76fabc6040518163ffffffff1660e01b815260040160206040518083038186803b15801561170c57600080fd5b905060006128b984608001516122c2565b9050886001600160a01b0316886001600160a01b03167f4c7b764f428c13bbea8cc8da90ebe6eef4dafeb27a4e3d9041d64208c47ca7c26129018760000151602001516122c2565b61290e88602001516122c2565b61291b89606001516122c2565b89515160009061292a906122c2565b6129378c60a001516122c2565b6129448d60e001516122c2565b6129518e604001516122c2565b61295a8e6122c2565b8d8d6040516129739b9a99989796959493929190615dba565b60405180910390a3505050602001519250509250929050565b612994614fbe565b61299c614fbe565b825184516129af9163ffffffff61436f16565b81529392505050565b6129c0614fbe565b5060408051602081019091526000815290565b8051825160009110156129e857506001612118565b8151835110156129fb5750600019612118565b50600092915050565b61019c546040516301dd29e160e21b81526001600160a01b0390911690630774a78490612a35908590600401615377565b60206040518083038186803b158015612a4d57600080fd5b505afa158015612a61573d6000803e3d6000fd5b505050506040513d601f19601f82011682018060405250810190612a8591906150e3565b612aa15760405162461bcd60e51b81526004016105bc906154bb565b816001600160a01b031663fcfff16f6040518163ffffffff1660e01b815260040160206040518083038186803b158015612ada57600080fd5b505afa158015612aee573d6000803e3d6000fd5b505050506040513d601f19601f82011682018060405250810190612b1291906150e3565b15158115151481612b46576040518060400160405280600b81526020016a30b6b69034b99037b832b760a91b815250612b6e565b6040518060400160405280600e81526020016d185b5b481dd85cc818db1bdcd95960921b8152505b90612b8c5760405162461bcd60e51b81526004016105bc9190615464565b505050565b612b9b828261437d565b612bb75760405162461bcd60e51b81526004016105bc906155a0565b5050565b612bc3614fbe565b8180600001516001600160ff1b031015604051806060016040528060338152602001615eb66033913990612c0a5760405162461bcd60e51b81526004016105bc9190615464565b50506040805160208101909152915182525090565b612c27614fbe565b612c2f614fbe565b83516129af908463ffffffff6143fb16565b612c49614fbe565b612c51614fbe565b612c59614fbe565b612c61614fbe565b612c6a8761111f565b9050612c7986600001516122c2565b15612caa5785516060870151612ca79190612c9b90849063ffffffff61419916565b9063ffffffff61315616565b91505b612cb2614fbe565b6020870151612ccb90610c95888663ffffffff61419916565b90506000612cd8826122c2565b1215612cee57612ce781613090565b9350612cfa565b612cf781613090565b94505b5093509350935093565b612d0c614fbe565b612d14614fbe565b825184516129af9163ffffffff61446616565b612d2f614fbe565b612d37614f70565b612d4185856104e4565b9050612d4b614fbe565b612d53614fbe565b612d5f87876001614048565b91509150612d6b614fbe565b612d7b838763ffffffff61317916565b9050612d85614fbe565b6000612d90856122c2565b13612d9b5781612da4565b612da487612bbb565b9050612dae614fbe565b6000612dbd87600001516122c2565b13612df1576040805160208101909152610196548152612dec90612de086612bbb565b9063ffffffff613d8816565b612e13565b6040805160208101825261019654815290870151612e139190612de090612bbb565b9050612e25828263ffffffff61419916565b96505050505050505b9392505050565b6001600160a01b03928316600090815261019a602090815260408083209490951682526002938401815290849020825151815590820151516001820155928101515191830191909155606081015151600383015560a0810151600583015560800151600490910155565b612ea7614fbe565b612eb184306144a8565b9050612ebc826122c2565b612ec5826122c2565b1015612f9d57612ed3614fbe565b612ee3838363ffffffff612d0416565b6001600160a01b038616600090815261019b6020908152604091829020825191820190925290548152909150612f1f908263ffffffff613f9316565b6001600160a01b03808716600090815261019b602052604090819020925190925561019c5491516304a52f1760e31b815291169063252978b890612f6990889085906004016153d3565b600060405180830381600087803b158015612f8357600080fd5b505af1158015612f97573d6000803e3d6000fd5b50505050505b612fa88484846131e4565b50505050565b612fb7816122c2565b612fd35760405162461bcd60e51b81526004016105bc906154e2565b50565b6040518060c00160405280612fe96129b8565b8152602001612ff66129b8565b81526020016130036129b8565b81526020016130106129b8565b815260200160008152602001613024614535565b90526001600160a01b03928316600090815261019a60209081526040808320949095168252600293840181529084902082515181559082015151600182015592810151519183019190915560608101515160038301556080810151600483015560a00151600590910155565b613098614fbe565b6130a0614fbe565b8251600013156130b65782516000038152612118565b915182525090565b6130c6614fbe565b6130ce614fbe565b825184516129af9163ffffffff61453916565b6130e9614fbe565b8180600001516001600160ff1b031015604051806060016040528060338152602001615eb660339139906131305760405162461bcd60e51b81526004016105bc9190615464565b50613139614fbe565b8351855161314c9163ffffffff61454716565b8152949350505050565b61315e614fbe565b613166614fbe565b825184516129af9163ffffffff61458d16565b613181614fbe565b8180600001516001600160ff1b031015604051806060016040528060338152602001615eb660339139906131c85760405162461bcd60e51b81526004016105bc9190615464565b506131d1614fbe565b8351855161314c9163ffffffff61459b16565b6131ed836145e1565b6131f5614fbe565b6131ff84846144a8565b9050600061320d858461437d565b905060006060866001600160a01b031663a9059cbb60e01b87856040516024016132389291906153af565b60408051601f198184030181529181526020820180516001600160e01b03166001600160e01b0319909416939093179092529051613276919061535b565b6000604051808303816000865af19150503d80600081146132b3576040519150601f19603f3d011682016040523d82523d6000602084013e6132b8565b606091505b50915091508180156132e25750805115806132e25750808060200190518101906132e291906150e3565b6132fe5760405162461bcd60e51b81526004016105bc90615569565b61330a8787858761462b565b50505050505050565b61331b614fbe565b613323614fbe565b825184516129af9163ffffffff61459b16565b61333e614fbe565b61334883306144a8565b61019c54909150612b8c9084906001600160a01b0316613367856122c2565b613370856122c2565b1061337b578461337d565b835b6131e4565b60cc5460ff166133a45760405162461bcd60e51b81526004016105bc9061550d565b60cc805460ff191690557f5db9ee0a495bf2e6ff9c91a7834c1ba4fdd244a5e8aa4e537bd38aeae4b073aa6133d76122b3565b6040516133e49190615377565b60405180910390a1565b60cc5460ff16156134115760405162461bcd60e51b81526004016105bc906157ce565b60cc805460ff191660011790557f62e78cea01bee320cd4e420270b5ea74000d11b0c9f74754ebdbfc544b05a2586133d76122b3565b61344f614fbe565b60405180602001604052806134646012614672565b9052905090565b613474816122c2565b612fd35760405162461bcd60e51b81526004016105bc906159ad565b613498614fbe565b8180600001516001600160ff1b031015604051806060016040528060338152602001615eb660339139906134df5760405162461bcd60e51b81526004016105bc9190615464565b506134e8614fbe565b6135016134f485612bbb565b869063ffffffff61467b16565b95945050505050565b600061351f610a72858563ffffffff6130e116565b90508161352f5760008112613535565b60008112155b612fa85760405162461bcd60e51b81526004016105bc90615756565b600061355b614535565b6001600160a01b038316600090815261019a6020526040902054909150811415612bb7578061358c836102506122b3565b60a001511415612bb75760405162461bcd60e51b81526004016105bc9061571f565b6135b6614fd1565b60006135c06122b3565b90506135ca614f70565b6135d488836104e4565b90506135e488888888600061469e565b60608401526135f1614fbe565b606084015182516136079163ffffffff61331316565b905061361b8961361689612bbb565b614787565b61019e546001600160a01b038481169116146136fb57613639614fbe565b896001600160a01b031663113773946040518163ffffffff1660e01b815260040160206040518083038186803b15801561367257600080fd5b505afa158015613686573d6000803e3d6000fd5b505050506040513d601f19601f820116820180604052508101906136aa91906152d9565b905060006136b7826122c2565b11156136f95760006136d8826136cc85613090565b9063ffffffff6129d316565b60000b13156136f95760405162461bcd60e51b81526004016105bc90615aa7565b505b613703614fbe565b6137166109d9898863ffffffff6130be16565b9050613720614fbe565b613728614fbe565b613730614fbe565b61373b8d8786612c41565b9350935050925061374a614fbe565b6137568e896000611831565b6020808c018f815260e08d0183905260c0808e018a905260808e018890526040805191820181528b825292810189905290518b830151939550909350908301916137a59163ffffffff613f9316565b8152602001838152602001886080015181526020016137c2614535565b9052895250969c9b505050505050505050505050565b6137e0614fd1565b6137e8614fbe565b6137f8868663ffffffff61298c16565b9050613802614fbe565b61380a614fbe565b6138168b8a6000611831565b91509150613822614fd1565b61382b846122c2565b613834846122c2565b1115613a065761384d8c6136166000196109de88612bbb565b613855614f70565b61385f8d8c6104e4565b905061386e8d8d878b8b61469e565b6060830152805161387e906122c2565b156138b6576138b06138938260000151613090565b6115066138a38560600151613090565b869063ffffffff613d8816565b60a08301525b6138be614fbe565b6138c6614fbe565b6138d58f848660a00151612c41565b6080880191909152604087019190915260a0860151919350915061390090869063ffffffff61419916565b60e085015260208401879052613914614fbe565b600061392385600001516122c2565b1361394c576139478560200151610c7b898860e0015161317990919063ffffffff16565b613971565b6139718560e001516139658760200151610c7b8b612bbb565b9063ffffffff61419916565b9050600061397e826122c2565b1361399b5760405162461bcd60e51b81526004016105bc90615886565b6040518060c001604052806139c18760600151876000015161331390919063ffffffff16565b81526020018481526020016139d583613090565b8152602001838152602001856080015181526020016139f2614535565b9052855250929650613a1b95505050505050565b613a148c8c8c8c8c8c6148ba565b9450505050505b979650505050505050565b613a2f846145e1565b613a37614fbe565b613a4185846144a8565b90506000613a4f868461437d565b905060006060876001600160a01b03166323b872dd60e01b888886604051602401613a7c9392919061538b565b60408051601f198184030181529181526020820180516001600160e01b03166001600160e01b0319909416939093179092529051613aba919061535b565b6000604051808303816000865af19150503d8060008114613af7576040519150601f19603f3d011682016040523d82523d6000602084013e613afc565b606091505b5091509150818015613b26575080511580613b26575080806020019051810190613b2691906150e3565b613b425760405162461bcd60e51b81526004016105bc906157f8565b613b4e8887858761462b565b5050505050505050565b613b60614fbe565b613b68614fbe565b613b70614fbe565b604051636226795560e01b81526001600160a01b03861690636226795590613b9c908790600401615d86565b604080518083038186803b158015613bb357600080fd5b505afa158015613bc7573d6000803e3d6000fd5b505050506040513d601f19601f82011682018060405250810190613beb91906152f4565b91509150600080613bfb846122c2565b119050600080613c0a846122c2565b1190508180613c165750805b15613d7d576000876001600160a01b031663fdf262b76040518163ffffffff1660e01b815260040160206040518083038186803b158015613c5657600080fd5b505afa158015613c6a573d6000803e3d6000fd5b505050506040513d601f19601f82011682018060405250810190613c8e91906152a2565b90508115613cb15761019c54613cb19082908b906001600160a01b031687613a26565b8215613d615761019d546001600160a01b0316613ce05760405162461bcd60e51b81526004016105bc90615be1565b61019d54613cfb9082908b906001600160a01b031688613a26565b61019d54604051630a8d9b6760e01b81526001600160a01b0390911690630a8d9b6790613d2e90849089906004016153d3565b600060405180830381600087803b158015613d4857600080fd5b505af1158015613d5c573d6000803e3d6000fd5b505050505b613d71858563ffffffff613f9316565b95505050505050612e2e565b505050509392505050565b613d90614fbe565b8180600001516001600160ff1b031015604051806060016040528060338152602001615eb66033913990613dd75760405162461bcd60e51b81526004016105bc9190615464565b50613de0614fbe565b613501613dec85612bbb565b869063ffffffff61315616565b613e01614fd1565b613e09614f70565b613e1385856104e4565b9050613e228160000151612fae565b613e2a614fbe565b613e3686866000611831565b915050613e41614fbe565b613e49614fbe565b613e51614fbe565b613e5c898686612c41565b5087519295509093509150613e799060001963ffffffff612c1f16565b606087015260a086018490526040860182905260808601819052613ea26000196109de85612bbb565b60c087015284516001600160a01b038a169063d71ec2ad90600090613ec6906122c2565b13613ed2576001613ed5565b60005b8751613ee090613090565b8a6040518463ffffffff1660e01b8152600401613eff93929190615409565b602060405180830381600087803b158015613f1957600080fd5b505af1158015613f2d573d6000803e3d6000fd5b505050506040513d601f19601f82011682018060405250810190613f5191906152d9565b60208701526040850151613f7d908a9061361690600019906109de90610c958a8963ffffffff61317916565b613f878989612fd6565b50505050509392505050565b613f9b614fbe565b613fa3614fbe565b825184516129af9163ffffffff614a9d16565b603354610100900460ff1680613fcf5750613fcf614ac2565b80613fdd575060335460ff16155b613ff95760405162461bcd60e51b81526004016105bc90615a12565b603354610100900460ff16158015614024576033805460ff1961ff0019909116610100171660011790555b61402c614ac8565b614034614b49565b8015612fd3576033805461ff001916905550565b614050614fbe565b614058614fbe565b614060614fbe565b614068614fbe565b61407487876000611831565b91509150614080614fbe565b614088614fbe565b61409489896001611831565b915091506140a1816122c2565b6140aa846122c2565b1360008860018111156140b957fe5b14146140c65780826140c9565b82845b909a909950975050505050505050565b6140e1614fbe565b6140e9614fbe565b6140f1614fbe565b6140fc878787612c41565b505091509150613a1b8461150683610c7b86612bbb565b60006018361080159061412a575061412a336110fd565b1561413e575060131936013560601c61111c565b503361111c565b61414d614fbe565b614155614f70565b61415f85856104e4565b905061416e8160000151612fae565b614176614fbe565b61417e614fbe565b614189878787611831565b91509150613a1b878483856140d9565b6141a1614fbe565b6141a9614fbe565b825184516129af9163ffffffff61454716565b6141c4614fbe565b6141cc614fbe565b83516129af908463ffffffff614c2316565b6141e6614fbe565b506001600160a01b038216600090815261019b6020908152604091829020825191820190925290548152614219826122c2565b614222826122c2565b111561425a57614238818363ffffffff612d0416565b6001600160a01b038416600090815261019b6020526040902090519055612b8c565b61019c546001600160a01b031663252978b88461427d858563ffffffff612d0416565b6040518363ffffffff1660e01b815260040161429a9291906153d3565b600060405180830381600087803b1580156142b457600080fd5b505af11580156142c8573d6000803e3d6000fd5b505050506142d46129b8565b6001600160a01b038416600090815261019b6020526040902090519055505050565b6000614300614535565b6001600160a01b038316600090815261019a602052604090819020829055519091507f97f920fec5d17ec336df7ad438ca8a76dcfd206ddc1d19b263b6f3e6ba3c4f319061435190849084906153af565b60405180910390a15050565b600061436882613090565b5192915050565b6000612e2e83836012614c65565b60008061438984614c83565b9050601281106143c7576143bf6143a782601263ffffffff61446616565b600a0a6143b3856122c2565b9063ffffffff614d6716565b915050612118565b6143f36143db60128363ffffffff61446616565b600a0a6143e7856122c2565b9063ffffffff614c2316565b949350505050565b60008261440a57506000612118565b8260001914801561441e5750600160ff1b82145b1561443b5760405162461bcd60e51b81526004016105bc90615a60565b8282028284828161444857fe5b0514612e2e5760405162461bcd60e51b81526004016105bc90615a60565b6000612e2e83836040518060400160405280601e81526020017f536166654d6174683a207375627472616374696f6e206f766572666c6f770000815250614da1565b6144b0614fbe565b612e2e83846001600160a01b03166370a08231856040518263ffffffff1660e01b81526004016144e09190615377565b60206040518083038186803b1580156144f857600080fd5b505afa15801561450c573d6000803e3d6000fd5b505050506040513d601f19601f82011682018060405250810190614530919061531f565b614dcd565b4390565b6000612e2e83836012614e5f565b600081830381831280159061455c5750838113155b80614571575060008312801561457157508381135b612e2e5760405162461bcd60e51b81526004016105bc90615c4c565b6000612e2e83836012614e7e565b60008282018183128015906145b05750838112155b806145c557506000831280156145c557508381125b612e2e5760405162461bcd60e51b81526004016105bc906156de565b60006145ec82614c83565b6001600160a01b0383166000908152602081905260409020549091508114612bb7576001600160a01b0391909116600090815260208190526040902055565b61465261464861463b8685614dcd565b839063ffffffff613f9316565b6136cc86866144a8565b60000b15612fa85760405162461bcd60e51b81526004016105bc90615c0a565b60ff16600a0a90565b614683614fbe565b61468b614fbe565b825184516129af9163ffffffff614ea816565b6146a6614fbe565b6000808660018111156146b557fe5b146146c15760016146c4565b60005b90506146ce614fbe565b6040516375df638960e01b8152614756906001600160a01b038a16906375df6389906147049086908b908b908b9060040161542c565b602060405180830381600087803b15801561471e57600080fd5b505af1158015614732573d6000803e3d6000fd5b505050506040513d601f19601f820116820180604052508101906109d991906152d9565b905081600181111561476457fe5b60011415613a1b5761477e8160001963ffffffff612c1f16565b92505050613501565b60006147c5836001600160a01b031663525454106040518163ffffffff1660e01b815260040160206040518083038186803b15801561170c57600080fd5b9050828115612fa8576147d6614fbe565b6001600160a01b0382166000908152610199602090815260409182902082519182019092529054815261481090859063ffffffff61317916565b9050600061481d826122c2565b121561482e5761482b6129b8565b90505b6000614839856122c2565b131561488d57826148498261435d565b111580614871575061019e546001600160a01b03166148666122b3565b6001600160a01b0316145b61488d5760405162461bcd60e51b81526004016105bc90615497565b61489681613090565b6001600160a01b038316600090815261019960205260409020905190555050505050565b6148c2614fd1565b6148ca614fd1565b6148d788876126786129b8565b90506148e681604001516122c2565b156149035760405162461bcd60e51b81526004016105bc90615ade565b61490b614fbe565b602082015161493090614924888863ffffffff61298c16565b9063ffffffff612d0416565b9050614945610a72828763ffffffff6130be16565b61495157819250614a91565b614959614fbe565b614966836060015161435d565b61496f866122c2565b1115614995576149926149858460600151613090565b869063ffffffff612d0416565b90505b61499d614fd1565b6149aa8b8b85858b6135ae565b9050604051806101000160405280826000015181526020016149dd83602001518760200151613f9390919063ffffffff16565b81526020016149fd83604001518760400151613f9390919063ffffffff16565b8152602001614a1d8360600151876060015161331390919063ffffffff16565b8152602001614a3d8360800151876080015161331390919063ffffffff16565b8152602001614a5d8360a001518760a0015161331390919063ffffffff16565b8152602001614a7d8360c001518760c0015161331390919063ffffffff16565b8152602001614a8a6129b8565b9052945050505b50509695505050505050565b600082820183811015612e2e5760405162461bcd60e51b81526004016105bc906155f0565b303b1590565b603354610100900460ff1680614ae15750614ae1614ac2565b80614aef575060335460ff16155b614b0b5760405162461bcd60e51b81526004016105bc90615a12565b603354610100900460ff16158015614034576033805460ff1961ff0019909116610100171660011790558015612fd3576033805461ff001916905550565b603354610100900460ff1680614b625750614b62614ac2565b80614b70575060335460ff16155b614b8c5760405162461bcd60e51b81526004016105bc90615a12565b603354610100900460ff16158015614bb7576033805460ff1961ff0019909116610100171660011790555b6000614bc16122b3565b609880546001600160a01b0319166001600160a01b038316908117909155604051919250906000907f8be0079c531659141344cd1fd0a4f28419497f9722a3daafe3b4186f6b6457e0908290a3508015612fd3576033805461ff001916905550565b6000612e2e83836040518060400160405280601a81526020017f536166654d6174683a206469766973696f6e206279207a65726f000000000000815250614eb6565b60006143f3614c7383614672565b6143e7868663ffffffff614d6716565b6001600160a01b038116600090815260208190526040812054806121185760408051600481526024810182526020810180516001600160e01b031663313ce56760e01b17905290516000916060916001600160a01b03871691614ce59161535b565b600060405180830381855afa9150503d8060008114614d20576040519150601f19603f3d011682016040523d82523d6000602084013e614d25565b606091505b5091509150818015614d375750805115155b614d535760405162461bcd60e51b81526004016105bc9061578d565b80806020019051810190613501919061531f565b600082614d7657506000612118565b82820282848281614d8357fe5b0414612e2e5760405162461bcd60e51b81526004016105bc9061596c565b60008184841115614dc55760405162461bcd60e51b81526004016105bc9190615464565b505050900390565b614dd5614fbe565b6000614de084614c83565b905060128110614e2557604080516020810190915280614e1a614e0a84601263ffffffff61446616565b8690600a0a63ffffffff614c2316565b815250915050612118565b604080516020810190915280614e55614e4560128563ffffffff61446616565b8690600a0a63ffffffff614d6716565b9052949350505050565b60006143f3836143e7614e7185614672565b879063ffffffff614d6716565b60006143f3614e8c83614672565b614e9c868663ffffffff6143fb16565b9063ffffffff614eed16565b6000612e2e83836012614f51565b60008183614ed75760405162461bcd60e51b81526004016105bc9190615464565b506000838581614ee357fe5b0495945050505050565b600081614f0c5760405162461bcd60e51b81526004016105bc90615cd2565b81600019148015614f205750600160ff1b83145b15614f3d5760405162461bcd60e51b81526004016105bc906158f4565b6000828481614f4857fe5b05949350505050565b60006143f383614e9c614f6385614672565b879063ffffffff6143fb16565b6040518060c00160405280614f83614fbe565b8152602001614f90614fbe565b8152602001614f9d614fbe565b8152602001614faa614fbe565b815260200160008152602001600081525090565b6040518060200160405280600081525090565b604051806101000160405280614fe5614f70565b8152602001614ff2614fbe565b8152602001614fff614fbe565b815260200161500c614fbe565b8152602001615019614fbe565b8152602001615026614fbe565b8152602001615033614fbe565b8152602001615040614fbe565b905290565b600060208284031215615056578081fd5b6150606020615e34565b9135825250919050565b60006020828403121561507b578081fd5b6150856020615e34565b9151825250919050565b6000602082840312156150a0578081fd5b8135612e2e81615e92565b600080604083850312156150bd578081fd5b82356150c881615e92565b915060208301356150d881615ea7565b809150509250929050565b6000602082840312156150f4578081fd5b8151612e2e81615ea7565b60008060408385031215615111578182fd5b823561511c81615e92565b915060208301356150d881615e92565b600080600060608486031215615140578081fd5b833561514b81615e92565b9250602084013561515b81615e92565b915060408401356003811061516e578182fd5b809150509250925092565b60008060006060848603121561518d578283fd5b833561519881615e92565b925060208401356151a881615e92565b91506151b78560408601615045565b90509250925092565b600080600080600060a086880312156151d7578081fd5b85356151e281615e92565b94506020860135600281106151f5578182fd5b93506152048760408801615045565b92506152138760608801615045565b91506152228760808801615045565b90509295509295909350565b6000808284036040811215615241578283fd5b833561524c81615e92565b92506020601f198201121561525f578182fd5b506020830190509250929050565b6000806040838503121561527f578081fd5b823561528a81615e92565b91506152998460208501615045565b90509250929050565b6000602082840312156152b3578081fd5b8151612e2e81615e92565b6000602082840312156152cf578081fd5b612e2e8383615045565b6000602082840312156152ea578081fd5b612e2e838361506a565b60008060408385031215615306578182fd5b615310848461506a565b9150615299846020850161506a565b600060208284031215615330578081fd5b5051919050565b60008060408385031215615349578182fd5b8235915060208301356150d881615e92565b6000825161536d818460208701615e66565b9190910192915050565b6001600160a01b0391909116815260200190565b6001600160a01b039384168152919092166020820152604081019190915260600190565b6001600160a01b03929092168252602082015260400190565b901515815260200190565b6001600160a01b0392909216825251602082015260400190565b604081016153fa84615e5b565b82529151602090910152919050565b6060810161541685615e5b565b8252925160208201529051604090910152919050565b6080810161543986615e5b565b825293516020820152915160408301521515606090910152919050565b918252602082015260400190565b6000602082528251806020840152615483816040850160208701615e66565b601f01601f19169190910160400192915050565b6020808252600a90820152691bdd995c881b1a5b5a5d60b21b604082015260600190565b6020808252600d908201526c185b5b481b9bdd08199bdd5b99609a1b604082015260600190565b6020808252601190820152700706f736974696f6e53697a65206973203607c1b604082015260600190565b60208082526014908201527314185d5cd8589b194e881b9bdd081c185d5cd95960621b604082015260600190565b6020808252601490820152730dac2e4ced2dc40d2e640dcdee840cadcdeeaced60631b604082015260600190565b6020808252601d908201527f446563696d616c45524332303a207472616e73666572206661696c6564000000604082015260600190565b6020808252601490820152731a5b9d985b1a59081d1bdad95b88185b5bdd5b9d60621b604082015260600190565b602080825260089082015267189859081919589d60c21b604082015260600190565b6020808252601b908201527f536166654d6174683a206164646974696f6e206f766572666c6f770000000000604082015260600190565b60208082526027908201527f49666e7846694f776e61626c65557067726164653a206e6f7420746865206e656040820152663b9037bbb732b960c91b606082015260800190565b6020808252600f908201526e06e6f74206261636b73746f70204c5608c1b604082015260600190565b60208082526027908201527f49666e7846694f776e61626c65557067726164653a2073616d652061732063616040820152666e64696461746560c81b606082015260800190565b60208082526021908201527f5369676e6564536166654d6174683a206164646974696f6e206f766572666c6f6040820152607760f81b606082015260800190565b60208082526017908201527f6f6e6c79206f6e6520616374696f6e20616c6c6f776564000000000000000000604082015260600190565b6020808252601e908201527f4d617267696e20726174696f206e6f74206d6565742063726974657269610000604082015260600190565b60208082526021908201527f446563696d616c45524332303a2067657420646563696d616c73206661696c656040820152601960fa1b606082015260800190565b60208082526010908201526f14185d5cd8589b194e881c185d5cd95960821b604082015260600190565b60208082526021908201527f446563696d616c45524332303a207472616e7366657246726f6d206661696c656040820152601960fa1b606082015260800190565b6020808252602d908201527f49666e7846694f776e61626c65557067726164653a2063616c6c65722069732060408201526c3737ba103a34329037bbb732b960991b606082015260800190565b6020808252601a908201527f76616c7565206f66206f70656e4e6f74696f6e616c203c3d2030000000000000604082015260600190565b6020808252601d908201527f6672656520636f6c6c61746572616c206973206e6f7420656e6f756768000000604082015260600190565b60208082526021908201527f5369676e6564536166654d6174683a206469766973696f6e206f766572666c6f6040820152607760f81b606082015260800190565b6020808252601d908201527f4c657373207468616e206d696e696d616c2071756f746520746f6b656e000000604082015260600190565b60208082526021908201527f536166654d6174683a206d756c7469706c69636174696f6e206f766572666c6f6040820152607760f81b606082015260800190565b6020808252600a90820152690696e70757420697320360b41b604082015260600190565b60208082526021908201527f696e76616c6964207061727469616c206c69717569646174696f6e20726174696040820152606f60f81b606082015260800190565b6020808252602e908201527f436f6e747261637420696e7374616e63652068617320616c726561647920626560408201526d195b881a5b9a5d1a585b1a5e995960921b606082015260800190565b60208082526027908201527f5369676e6564536166654d6174683a206d756c7469706c69636174696f6e206f604082015266766572666c6f7760c81b606082015260800190565b6020808252601d908201527f68697420706f736974696f6e2073697a6520757070657220626f756e64000000604082015260600190565b6020808252601d908201527f72656475636520616e20756e646572776174657220706f736974696f6e000000604082015260600190565b6020808252601d908201527f4d6f7265207468616e206d6178696d616c2071756f746520746f6b656e000000604082015260600190565b6020808252602f908201527f49666e7846694f776e61626c65557067726164653a2063616e6469646174652060408201526e6973207a65726f206164647265737360881b606082015260800190565b60208082526026908201527f49666e7846694f776e61626c65557067726164653a2073616d65206173206f726040820152651a59da5b985b60d21b606082015260800190565b6020808252600f908201526e125b9d985b1a5908199959541bdbdb608a1b604082015260600190565b60208082526022908201527f446563696d616c45524332303a2062616c616e636520696e636f6e73697374656040820152611b9d60f21b606082015260800190565b60208082526024908201527f5369676e6564536166654d6174683a207375627472616374696f6e206f766572604082015263666c6f7760e01b606082015260800190565b60208082526022908201527f49666e7846694f776e61626c65557067726164653a207a65726f206164647265604082015261737360f01b606082015260800190565b6020808252818101527f5369676e6564536166654d6174683a206469766973696f6e206279207a65726f604082015260600190565b6020808252601f908201527f5265656e7472616e637947756172643a207265656e7472616e742063616c6c00604082015260600190565b600060c08201905082515182526020830151516020830152604083015151604083015260608301515160608301526080830151608083015260a083015160a083015292915050565b9051815260200190565b915182521515602082015260400190565b9151825251602082015260400190565b90815260200190565b9a8b5260208b019990995260408a01979097526060890195909552608088019390935260a087019190915260c086015260e08501526101008401526101208301526101408201526101600190565b948552602085019390935260408401919091526001600160a01b03166060830152608082015260a00190565b60405181810167ffffffffffffffff81118282101715615e5357600080fd5b604052919050565b806002811061111057fe5b60005b83811015615e81578181015183820152602001615e69565b83811115612fa85750506000910152565b6001600160a01b0381168114612fd357600080fd5b8015158114612fd357600080fdfe4d69786564446563696d616c3a2075696e742076616c756520697320626967676572207468616e205f494e543235365f4d4158a2646970667358221220f16a3cf069cdc1ca239de188aaf2188b0d6b63a5f0aebc58d5986e2bef398fec64736f6c63430006090033",
  "devdoc": {
    "methods": {
      "addMargin(address,(uint256))": {
        "params": {
          "_addedMargin": "added margin in 18 digits",
          "_amm": "IAmm address"
        }
      },
      "closePosition(address,(uint256))": {
        "params": {
          "_amm": "IAmm address"
        }
      },
      "getLatestCumulativePremiumFraction(address)": {
        "params": {
          "_amm": "IAmm address"
        },
        "returns": {
          "_0": "latest cumulative premium fraction in 18 digits"
        }
      },
      "getMarginRatio(address,address)": {
        "params": {
          "_amm": "IAmm address",
          "_trader": "trader address"
        },
        "returns": {
          "_0": "margin ratio in 18 digits"
        }
      },
      "getPosition(address,address)": {
        "params": {
          "_amm": "IAmm address",
          "_trader": "trader address"
        },
        "returns": {
          "_0": "struct Position"
        }
      },
      "getPositionNotionalAndUnrealizedPnl(address,address,uint8)": {
        "params": {
          "_amm": "IAmm address",
          "_pnlCalcOption": "enum PnlCalcOption, SPOT_PRICE for spot price and TWAP for twap price",
          "_trader": "trader address"
        },
        "returns": {
          "positionNotional": "position notional",
          "unrealizedPnl": "unrealized Pnl"
        }
      },
      "liquidate(address,address)": {
        "details": "liquidator can NOT open any positions in the same block to prevent from price manipulation.",
        "params": {
          "_amm": "IAmm address",
          "_trader": "trader address"
        }
      },
      "openPosition(address,uint8,(uint256),(uint256),(uint256))": {
        "params": {
          "_amm": "amm address",
          "_baseAssetAmountLimit": "minimum base asset amount expected to get to prevent from slippage.",
          "_leverage": "leverage  in 18 digits. Can Not be 0",
          "_quoteAssetAmount": "quote asset amount in 18 digits. Can Not be 0",
          "_side": "enum Side; BUY for long and SELL for short"
        }
      },
      "owner()": {
        "details": "Returns the address of the current owner."
      },
      "paused()": {
        "details": "Returns true if the contract is paused, and false otherwise."
      },
      "payFunding(address)": {
        "params": {
          "_amm": "IAmm address"
        }
      },
      "removeMargin(address,(uint256))": {
        "params": {
          "_amm": "IAmm address",
          "_removedMargin": "removed margin in 18 digits"
        }
      },
      "renounceOwnership()": {
        "details": "Leaves the contract without owner. It will not be possible to call `onlyOwner` functions anymore. Can only be called by the current owner. NOTE: Renouncing ownership will leave the contract without an owner, thereby removing any functionality that is only available to the owner."
      },
      "setBackstopLiquidityProvider(address,bool)": {
        "details": "only owner can call",
        "params": {
          "account": "provider address",
          "isProvider": "wether the account is a backstop liquidity provider"
        }
      },
      "setFeePool(address)": {
        "details": "only owner can call"
      },
      "setLiquidationFeeRatio((uint256))": {
        "details": "only owner can call",
        "params": {
          "_liquidationFeeRatio": "new liquidation fee ratio in 18 digits"
        }
      },
      "setMaintenanceMarginRatio((uint256))": {
        "details": "only owner can call",
        "params": {
          "_maintenanceMarginRatio": "new maintenance margin ratio in 18 digits"
        }
      },
      "setOwner(address)": {
        "details": "Set ownership of the contract to a new account (`newOwner`). Can only be called by the current owner."
      },
      "setPartialLiquidationRatio((uint256))": {
        "details": "only owner can call"
      },
      "setWhitelist(address)": {
        "details": "only owner can call",
        "params": {
          "_whitelist": "an address"
        }
      },
      "settlePosition(address)": {
        "params": {
          "_amm": "IAmm address"
        }
      },
      "updateOwner()": {
        "details": "Transfers ownership of the contract to a new account (`_candidate`). Can only be called by the new owner."
      }
    }
  },
  "userdoc": {
    "methods": {
      "addMargin(address,(uint256))": {
        "notice": "add margin to increase margin ratio"
      },
      "closePosition(address,(uint256))": {
        "notice": "close all the positions"
      },
      "getLatestCumulativePremiumFraction(address)": {
        "notice": "get latest cumulative premium fraction."
      },
      "getMarginRatio(address,address)": {
        "notice": "get margin ratio, marginRatio = (margin + funding payment + unrealized Pnl) / positionNotional use spot and twap price to calculate unrealized Pnl, final unrealized Pnl depends on which one is higher"
      },
      "getPosition(address,address)": {
        "notice": "get personal position information"
      },
      "getPositionNotionalAndUnrealizedPnl(address,address,uint8)": {
        "notice": "get position notional and unrealized Pnl without fee expense and funding payment"
      },
      "liquidate(address,address)": {
        "notice": "liquidate trader's underwater position. Require trader's margin ratio less than maintenance margin ratio"
      },
      "openPosition(address,uint8,(uint256),(uint256),(uint256))": {
        "notice": "open a position"
      },
      "payFunding(address)": {
        "notice": "if funding rate is positive, traders with long position pay traders with short position and vice versa."
      },
      "removeMargin(address,(uint256))": {
        "notice": "remove margin to decrease margin ratio"
      },
      "setBackstopLiquidityProvider(address,bool)": {
        "notice": "set backstop liquidity provider"
      },
      "setFeePool(address)": {
        "notice": "set the fee pool address"
      },
      "setLiquidationFeeRatio((uint256))": {
        "notice": "set liquidation fee ratio"
      },
      "setMaintenanceMarginRatio((uint256))": {
        "notice": "set maintenance margin ratio"
      },
      "setPartialLiquidationRatio((uint256))": {
        "notice": "set the margin ratio after deleveraging"
      },
      "setWhitelist(address)": {
        "notice": "add an address in the whitelist. People in the whitelist can hold unlimited positions."
      },
      "settlePosition(address)": {
        "notice": "settle all the positions when amm is shutdown. The settlement price is according to IAmm.settlementPrice"
      }
    }
  },
  "storageLayout": {
    "storage": [
      {
        "astId": 17534,
        "contract": "contracts/ClearingHouse.sol:ClearingHouse",
        "label": "decimalMap",
        "offset": 0,
        "slot": "0",
        "type": "t_mapping(t_address,t_uint256)"
      },
      {
        "astId": 17538,
        "contract": "contracts/ClearingHouse.sol:ClearingHouse",
        "label": "__gap",
        "offset": 0,
        "slot": "1",
        "type": "t_array(t_uint256)50_storage"
      },
      {
        "astId": 151,
        "contract": "contracts/ClearingHouse.sol:ClearingHouse",
        "label": "initialized",
        "offset": 0,
        "slot": "51",
        "type": "t_bool"
      },
      {
        "astId": 154,
        "contract": "contracts/ClearingHouse.sol:ClearingHouse",
        "label": "initializing",
        "offset": 1,
        "slot": "51",
        "type": "t_bool"
      },
      {
        "astId": 219,
        "contract": "contracts/ClearingHouse.sol:ClearingHouse",
        "label": "______gap",
        "offset": 0,
        "slot": "52",
        "type": "t_array(t_uint256)50_storage"
      },
      {
        "astId": 144,
        "contract": "contracts/ClearingHouse.sol:ClearingHouse",
        "label": "__gap",
        "offset": 0,
        "slot": "102",
        "type": "t_array(t_uint256)50_storage"
      },
      {
        "astId": 18197,
        "contract": "contracts/ClearingHouse.sol:ClearingHouse",
        "label": "_owner",
        "offset": 0,
        "slot": "152",
        "type": "t_address"
      },
      {
        "astId": 18199,
        "contract": "contracts/ClearingHouse.sol:ClearingHouse",
        "label": "_candidate",
        "offset": 0,
        "slot": "153",
        "type": "t_address"
      },
      {
        "astId": 18373,
        "contract": "contracts/ClearingHouse.sol:ClearingHouse",
        "label": "__gap",
        "offset": 0,
        "slot": "154",
        "type": "t_array(t_uint256)50_storage"
      },
      {
        "astId": 2312,
        "contract": "contracts/ClearingHouse.sol:ClearingHouse",
        "label": "_paused",
        "offset": 0,
        "slot": "204",
        "type": "t_bool"
      },
      {
        "astId": 2401,
        "contract": "contracts/ClearingHouse.sol:ClearingHouse",
        "label": "__gap",
        "offset": 0,
        "slot": "205",
        "type": "t_array(t_uint256)49_storage"
      },
      {
        "astId": 11179,
        "contract": "contracts/ClearingHouse.sol:ClearingHouse",
        "label": "__gap",
        "offset": 0,
        "slot": "254",
        "type": "t_array(t_uint256)50_storage"
      },
      {
        "astId": 2410,
        "contract": "contracts/ClearingHouse.sol:ClearingHouse",
        "label": "_notEntered",
        "offset": 0,
        "slot": "304",
        "type": "t_bool"
      },
      {
        "astId": 2451,
        "contract": "contracts/ClearingHouse.sol:ClearingHouse",
        "label": "__gap",
        "offset": 0,
        "slot": "305",
        "type": "t_array(t_uint256)49_storage"
      },
      {
        "astId": 17232,
        "contract": "contracts/ClearingHouse.sol:ClearingHouse",
        "label": "__gap",
        "offset": 0,
        "slot": "354",
        "type": "t_array(t_uint256)50_storage"
      },
      {
        "astId": 7,
        "contract": "contracts/ClearingHouse.sol:ClearingHouse",
        "label": "trustedForwarder",
        "offset": 0,
        "slot": "404",
        "type": "t_address"
      },
      {
        "astId": 5427,
        "contract": "contracts/ClearingHouse.sol:ClearingHouse",
        "label": "versionRecipient",
        "offset": 0,
        "slot": "405",
        "type": "t_string_storage"
      },
      {
        "astId": 5429,
        "contract": "contracts/ClearingHouse.sol:ClearingHouse",
        "label": "initMarginRatio",
        "offset": 0,
        "slot": "406",
        "type": "t_struct(decimal)17266_storage"
      },
      {
        "astId": 5431,
        "contract": "contracts/ClearingHouse.sol:ClearingHouse",
        "label": "maintenanceMarginRatio",
        "offset": 0,
        "slot": "407",
        "type": "t_struct(decimal)17266_storage"
      },
      {
        "astId": 5433,
        "contract": "contracts/ClearingHouse.sol:ClearingHouse",
        "label": "liquidationFeeRatio",
        "offset": 0,
        "slot": "408",
        "type": "t_struct(decimal)17266_storage"
      },
      {
        "astId": 5437,
        "contract": "contracts/ClearingHouse.sol:ClearingHouse",
        "label": "openInterestNotionalMap",
        "offset": 0,
        "slot": "409",
        "type": "t_mapping(t_address,t_struct(decimal)17266_storage)"
      },
      {
        "astId": 5441,
        "contract": "contracts/ClearingHouse.sol:ClearingHouse",
        "label": "ammMap",
        "offset": 0,
        "slot": "410",
        "type": "t_mapping(t_address,t_struct(AmmMap)5424_storage)"
      },
      {
        "astId": 5445,
        "contract": "contracts/ClearingHouse.sol:ClearingHouse",
        "label": "prepaidBadDebt",
        "offset": 0,
        "slot": "411",
        "type": "t_mapping(t_address,t_struct(decimal)17266_storage)"
      },
      {
        "astId": 5447,
        "contract": "contracts/ClearingHouse.sol:ClearingHouse",
        "label": "insuranceFund",
        "offset": 0,
        "slot": "412",
        "type": "t_contract(IInsuranceFund)14920"
      },
      {
        "astId": 5449,
        "contract": "contracts/ClearingHouse.sol:ClearingHouse",
        "label": "feePool",
        "offset": 0,
        "slot": "413",
        "type": "t_contract(IMultiTokenRewardRecipient)14956"
      },
      {
        "astId": 5451,
        "contract": "contracts/ClearingHouse.sol:ClearingHouse",
        "label": "whitelist",
        "offset": 0,
        "slot": "414",
        "type": "t_address"
      },
      {
        "astId": 5455,
        "contract": "contracts/ClearingHouse.sol:ClearingHouse",
        "label": "__gap",
        "offset": 0,
        "slot": "415",
        "type": "t_array(t_uint256)50_storage"
      },
      {
        "astId": 5457,
        "contract": "contracts/ClearingHouse.sol:ClearingHouse",
        "label": "partialLiquidationRatio",
        "offset": 0,
        "slot": "465",
        "type": "t_struct(decimal)17266_storage"
      },
      {
        "astId": 5461,
        "contract": "contracts/ClearingHouse.sol:ClearingHouse",
        "label": "backstopLiquidityProviderMap",
        "offset": 0,
        "slot": "466",
        "type": "t_mapping(t_address,t_bool)"
      }
    ],
    "types": {
      "t_address": {
        "encoding": "inplace",
        "label": "address",
        "numberOfBytes": "20"
      },
      "t_array(t_struct(signedDecimal)18664_storage)dyn_storage": {
        "base": "t_struct(signedDecimal)18664_storage",
        "encoding": "dynamic_array",
        "label": "struct SignedDecimal.signedDecimal[]",
        "numberOfBytes": "32"
      },
      "t_array(t_uint256)49_storage": {
        "base": "t_uint256",
        "encoding": "inplace",
        "label": "uint256[49]",
        "numberOfBytes": "1568"
      },
      "t_array(t_uint256)50_storage": {
        "base": "t_uint256",
        "encoding": "inplace",
        "label": "uint256[50]",
        "numberOfBytes": "1600"
      },
      "t_bool": {
        "encoding": "inplace",
        "label": "bool",
        "numberOfBytes": "1"
      },
      "t_contract(IInsuranceFund)14920": {
        "encoding": "inplace",
        "label": "contract IInsuranceFund",
        "numberOfBytes": "20"
      },
      "t_contract(IMultiTokenRewardRecipient)14956": {
        "encoding": "inplace",
        "label": "contract IMultiTokenRewardRecipient",
        "numberOfBytes": "20"
      },
      "t_int256": {
        "encoding": "inplace",
        "label": "int256",
        "numberOfBytes": "32"
      },
      "t_mapping(t_address,t_bool)": {
        "encoding": "mapping",
        "key": "t_address",
        "label": "mapping(address => bool)",
        "numberOfBytes": "32",
        "value": "t_bool"
      },
      "t_mapping(t_address,t_struct(AmmMap)5424_storage)": {
        "encoding": "mapping",
        "key": "t_address",
        "label": "mapping(address => struct ClearingHouse.AmmMap)",
        "numberOfBytes": "32",
        "value": "t_struct(AmmMap)5424_storage"
      },
      "t_mapping(t_address,t_struct(Position)5397_storage)": {
        "encoding": "mapping",
        "key": "t_address",
        "label": "mapping(address => struct ClearingHouse.Position)",
        "numberOfBytes": "32",
        "value": "t_struct(Position)5397_storage"
      },
      "t_mapping(t_address,t_struct(decimal)17266_storage)": {
        "encoding": "mapping",
        "key": "t_address",
        "label": "mapping(address => struct Decimal.decimal)",
        "numberOfBytes": "32",
        "value": "t_struct(decimal)17266_storage"
      },
      "t_mapping(t_address,t_uint256)": {
        "encoding": "mapping",
        "key": "t_address",
        "label": "mapping(address => uint256)",
        "numberOfBytes": "32",
        "value": "t_uint256"
      },
      "t_string_storage": {
        "encoding": "bytes",
        "label": "string",
        "numberOfBytes": "32"
      },
      "t_struct(AmmMap)5424_storage": {
        "encoding": "inplace",
        "label": "struct ClearingHouse.AmmMap",
        "members": [
          {
            "astId": 5416,
            "contract": "contracts/ClearingHouse.sol:ClearingHouse",
            "label": "lastRestrictionBlock",
            "offset": 0,
            "slot": "0",
            "type": "t_uint256"
          },
          {
            "astId": 5419,
            "contract": "contracts/ClearingHouse.sol:ClearingHouse",
            "label": "cumulativePremiumFractions",
            "offset": 0,
            "slot": "1",
            "type": "t_array(t_struct(signedDecimal)18664_storage)dyn_storage"
          },
          {
            "astId": 5423,
            "contract": "contracts/ClearingHouse.sol:ClearingHouse",
            "label": "positionMap",
            "offset": 0,
            "slot": "2",
            "type": "t_mapping(t_address,t_struct(Position)5397_storage)"
          }
        ],
        "numberOfBytes": "96"
      },
      "t_struct(Position)5397_storage": {
        "encoding": "inplace",
        "label": "struct ClearingHouse.Position",
        "members": [
          {
            "astId": 5386,
            "contract": "contracts/ClearingHouse.sol:ClearingHouse",
            "label": "size",
            "offset": 0,
            "slot": "0",
            "type": "t_struct(signedDecimal)18664_storage"
          },
          {
            "astId": 5388,
            "contract": "contracts/ClearingHouse.sol:ClearingHouse",
            "label": "margin",
            "offset": 0,
            "slot": "1",
            "type": "t_struct(decimal)17266_storage"
          },
          {
            "astId": 5390,
            "contract": "contracts/ClearingHouse.sol:ClearingHouse",
            "label": "openNotional",
            "offset": 0,
            "slot": "2",
            "type": "t_struct(decimal)17266_storage"
          },
          {
            "astId": 5392,
            "contract": "contracts/ClearingHouse.sol:ClearingHouse",
            "label": "lastUpdatedCumulativePremiumFraction",
            "offset": 0,
            "slot": "3",
            "type": "t_struct(signedDecimal)18664_storage"
          },
          {
            "astId": 5394,
            "contract": "contracts/ClearingHouse.sol:ClearingHouse",
            "label": "liquidityHistoryIndex",
            "offset": 0,
            "slot": "4",
            "type": "t_uint256"
          },
          {
            "astId": 5396,
            "contract": "contracts/ClearingHouse.sol:ClearingHouse",
            "label": "blockNumber",
            "offset": 0,
            "slot": "5",
            "type": "t_uint256"
          }
        ],
        "numberOfBytes": "192"
      },
      "t_struct(decimal)17266_storage": {
        "encoding": "inplace",
        "label": "struct Decimal.decimal",
        "members": [
          {
            "astId": 17265,
            "contract": "contracts/ClearingHouse.sol:ClearingHouse",
            "label": "d",
            "offset": 0,
            "slot": "0",
            "type": "t_uint256"
          }
        ],
        "numberOfBytes": "32"
      },
      "t_struct(signedDecimal)18664_storage": {
        "encoding": "inplace",
        "label": "struct SignedDecimal.signedDecimal",
        "members": [
          {
            "astId": 18663,
            "contract": "contracts/ClearingHouse.sol:ClearingHouse",
            "label": "d",
            "offset": 0,
            "slot": "0",
            "type": "t_int256"
          }
        ],
        "numberOfBytes": "32"
      },
      "t_uint256": {
        "encoding": "inplace",
        "label": "uint256",
        "numberOfBytes": "32"
      }
    }
  }
}