{
  "address": "0x909E7180591514711aDAC81B97D7E4Ce24Bf7667",
  "abi": [
    {
      "anonymous": false,
      "inputs": [
        {
          "indexed": true,
          "internalType": "address",
          "name": "previousOwner",
          "type": "address"
        },
        {
          "indexed": true,
          "internalType": "address",
          "name": "newOwner",
          "type": "address"
        }
      ],
      "name": "OwnershipTransferred",
      "type": "event"
    },
    {
      "inputs": [],
      "name": "MINT_THRESHOLD_PERIOD",
      "outputs": [
        {
          "internalType": "uint256",
          "name": "",
          "type": "uint256"
        }
      ],
      "stateMutability": "view",
      "type": "function"
    },
    {
      "inputs": [
        {
          "components": [
            {
              "internalType": "uint256",
              "name": "d",
              "type": "uint256"
            }
          ],
          "internalType": "struct Decimal.decimal",
          "name": "_amount",
          "type": "tuple"
        }
      ],
      "name": "appendMintedTokenHistory",
      "outputs": [],
      "stateMutability": "nonpayable",
      "type": "function"
    },
    {
      "inputs": [],
      "name": "candidate",
      "outputs": [
        {
          "internalType": "address",
          "name": "",
          "type": "address"
        }
      ],
      "stateMutability": "view",
      "type": "function"
    },
    {
      "inputs": [
        {
          "internalType": "contract IMinter",
          "name": "_minter",
          "type": "address"
        }
      ],
      "name": "initialize",
      "outputs": [],
      "stateMutability": "nonpayable",
      "type": "function"
    },
    {
      "inputs": [],
      "name": "isOverMintThreshold",
      "outputs": [
        {
          "internalType": "bool",
          "name": "",
          "type": "bool"
        }
      ],
      "stateMutability": "view",
      "type": "function"
    },
    {
      "inputs": [],
      "name": "mintedAmountDuringMintThresholdPeriod",
      "outputs": [
        {
          "components": [
            {
              "internalType": "uint256",
              "name": "d",
              "type": "uint256"
            }
          ],
          "internalType": "struct Decimal.decimal",
          "name": "",
          "type": "tuple"
        }
      ],
      "stateMutability": "view",
      "type": "function"
    },
    {
      "inputs": [],
      "name": "owner",
      "outputs": [
        {
          "internalType": "address",
          "name": "",
          "type": "address"
        }
      ],
      "stateMutability": "view",
      "type": "function"
    },
    {
      "inputs": [],
      "name": "renounceOwnership",
      "outputs": [],
      "stateMutability": "nonpayable",
      "type": "function"
    },
    {
      "inputs": [
        {
          "internalType": "address",
          "name": "newOwner",
          "type": "address"
        }
      ],
      "name": "setOwner",
      "outputs": [],
      "stateMutability": "nonpayable",
      "type": "function"
    },
    {
      "inputs": [
        {
          "components": [
            {
              "internalType": "uint256",
              "name": "d",
              "type": "uint256"
            }
          ],
          "internalType": "struct Decimal.decimal",
          "name": "_shutdownThreshold",
          "type": "tuple"
        }
      ],
      "name": "setShutdownThreshold",
      "outputs": [],
      "stateMutability": "nonpayable",
      "type": "function"
    },
    {
      "inputs": [],
      "name": "shutdownThreshold",
      "outputs": [
        {
          "internalType": "uint256",
          "name": "d",
          "type": "uint256"
        }
      ],
      "stateMutability": "view",
      "type": "function"
    },
    {
      "inputs": [],
      "name": "updateOwner",
      "outputs": [],
      "stateMutability": "nonpayable",
      "type": "function"
    }
  ],
  "transactionHash": "0x98c149281d3df6a40c11fbf00ae3259e9574127015841274f749d0a47a484ad2",
  "args": [],
  "solcInputHash": "7a3ee41f8ce51badd940fe1b087d2f9c",
  "bytecode": "0x608060405234801561001057600080fd5b50611390806100206000396000f3fe608060405234801561001057600080fd5b50600436106100b45760003560e01c8063715018a611610071578063715018a61461013e5780638da5cb5b14610146578063af5ff5ba1461014e578063bc5920ba14610161578063c4d66de814610169578063cb821fbd1461017c576100b4565b806313af4035146100b9578063213c4c7b146100ce5780632f4d6fa6146100e15780633fe204d9146100ff57806356eb0393146101145780636c8381f814610129575b600080fd5b6100cc6100c7366004610f16565b610184565b005b6100cc6100dc366004610f4e565b610266565b6100e9610363565b6040516100f6919061130c565b60405180910390f35b610107610369565b6040516100f69190610fea565b61011c610472565b6040516100f69190611302565b6101316105fe565b6040516100f69190610fd6565b6100cc61060d565b61013161068c565b6100cc61015c366004610f65565b61069b565b6100cc6106d6565b6100cc610177366004610f16565b610799565b6100e961085e565b61018c610865565b6065546001600160a01b039081169116146101c25760405162461bcd60e51b81526004016101b99061114f565b60405180910390fd5b6001600160a01b0381166101e85760405162461bcd60e51b81526004016101b9906112c0565b6065546001600160a01b03828116911614156102165760405162461bcd60e51b81526004016101b99061127a565b6066546001600160a01b03828116911614156102445760405162461bcd60e51b81526004016101b9906110c7565b606680546001600160a01b0319166001600160a01b0392909216919091179055565b610100546001600160a01b031661027b610865565b6001600160a01b0316146102a15760405162461bcd60e51b81526004016101b990611028565b6102a9610f03565b60fe54806102c7576102c036849003840184610f65565b9150610318565b6103156102d936859003850185610f65565b60fe60018403815481106102e957fe5b60009182526020918290206040805193840190526001600290920201015481529063ffffffff61086916565b91505b60fe604051806040016040528061032d610897565b81526020908101949094528154600181810184556000938452928590208251600290920201908155930151519201919091555050565b60ff5481565b604080516020810190915260ff5481526000906103859061089b565b6103915750600061046f565b610399610f03565b610100546040805163343f70ff60e01b8152905161041d926001600160a01b03169163343f70ff916004808301926020929190829003018186803b1580156103e057600080fd5b505afa1580156103f4573d6000803e3d6000fd5b505050506040513d601f19601f820116820180604052508101906104189190610f32565b61089f565b9050610427610f03565b61042f610472565b604080516020810190915260ff54815290915060009061046590610459848663ffffffff61092116565b9063ffffffff61094416565b60000b1215925050505b90565b61047a610f03565b60fe54806104925761048a610975565b91505061046f565b60006104cd60fe60018403815481106104a757fe5b9060005260206000209060020201600001546104c1610897565b9063ffffffff61099016565b905062093a808111156104eb576104e2610975565b9250505061046f565b6104f3610f03565b60001983015b80156105f657610507610f03565b61057460fe600184038154811061051a57fe5b600091825260209182902060408051938401905260016002909202010154815260fe80548590811061054857fe5b60009182526020918290206040805193840190526001600290920201015481529063ffffffff6109d916565b9050610586838263ffffffff61086916565b92506105d760fe600184038154811061059b57fe5b90600052602060002090600202016000015460fe84815481106105ba57fe5b60009182526020909120600290910201549063ffffffff61099016565b8401935062093a808411156105ec57506105f6565b50600019016104f9565b509250505090565b6066546001600160a01b031690565b610615610865565b6065546001600160a01b039081169116146106425760405162461bcd60e51b81526004016101b99061114f565b6065546040516000916001600160a01b0316907f8be0079c531659141344cd1fd0a4f28419497f9722a3daafe3b4186f6b6457e0908390a3606580546001600160a01b0319169055565b6065546001600160a01b031690565b6106a3610865565b6065546001600160a01b039081169116146106d05760405162461bcd60e51b81526004016101b99061114f565b5160ff55565b6066546001600160a01b03166106fe5760405162461bcd60e51b81526004016101b99061122b565b610706610865565b6066546001600160a01b039081169116146107335760405162461bcd60e51b81526004016101b990611080565b6066546065546040516001600160a01b0392831692909116907f8be0079c531659141344cd1fd0a4f28419497f9722a3daafe3b4186f6b6457e090600090a360668054606580546001600160a01b03199081166001600160a01b03841617909155169055565b600054610100900460ff16806107b257506107b26109fc565b806107c0575060005460ff16155b6107dc5760405162461bcd60e51b81526004016101b9906111dd565b600054610100900460ff16158015610807576000805460ff1961ff0019909116610100171660011790555b61080f610a02565b61010080546001600160a01b0319166001600160a01b038416179055610844600a610838610a95565b9063ffffffff610ab916565b5160ff55801561085a576000805461ff00191690555b5050565b62093a8081565b3390565b610871610f03565b610879610f03565b8251845161088c9163ffffffff610adb16565b815290505b92915050565b4290565b5190565b6108a7610f03565b61089182836001600160a01b03166318160ddd6040518163ffffffff1660e01b815260040160206040518083038186803b1580156108e457600080fd5b505afa1580156108f8573d6000803e3d6000fd5b505050506040513d601f19601f8201168201806040525081019061091c9190610fa2565b610b00565b610929610f03565b610931610f03565b8251845161088c9163ffffffff610b9216565b80518251600091101561095957506001610891565b81518351101561096c5750600019610891565b50600092915050565b61097d610f03565b5060408051602081019091526000815290565b60006109d283836040518060400160405280601e81526020017f536166654d6174683a207375627472616374696f6e206f766572666c6f770000815250610ba0565b9392505050565b6109e1610f03565b6109e9610f03565b8251845161088c9163ffffffff61099016565b303b1590565b600054610100900460ff1680610a1b5750610a1b6109fc565b80610a29575060005460ff16155b610a455760405162461bcd60e51b81526004016101b9906111dd565b600054610100900460ff16158015610a70576000805460ff1961ff0019909116610100171660011790555b610a78610bcc565b610a80610c4d565b8015610a92576000805461ff00191690555b50565b610a9d610f03565b6040518060200160405280610ab26012610d27565b9052905090565b610ac1610f03565b610ac9610f03565b835161088c908463ffffffff610d3016565b6000828201838110156109d25760405162461bcd60e51b81526004016101b990611049565b610b08610f03565b6000610b1384610d72565b905060128110610b5857604080516020810190915280610b4d610b3d84601263ffffffff61099016565b8690600a0a63ffffffff610d3016565b815250915050610891565b604080516020810190915280610b88610b7860128563ffffffff61099016565b8690600a0a63ffffffff610e5f16565b9052949350505050565b60006109d283836012610e99565b60008184841115610bc45760405162461bcd60e51b81526004016101b99190610ff5565b505050900390565b600054610100900460ff1680610be55750610be56109fc565b80610bf3575060005460ff16155b610c0f5760405162461bcd60e51b81526004016101b9906111dd565b600054610100900460ff16158015610a80576000805460ff1961ff0019909116610100171660011790558015610a92576000805461ff001916905550565b600054610100900460ff1680610c665750610c666109fc565b80610c74575060005460ff16155b610c905760405162461bcd60e51b81526004016101b9906111dd565b600054610100900460ff16158015610cbb576000805460ff1961ff0019909116610100171660011790555b6000610cc5610865565b606580546001600160a01b0319166001600160a01b038316908117909155604051919250906000907f8be0079c531659141344cd1fd0a4f28419497f9722a3daafe3b4186f6b6457e0908290a3508015610a92576000805461ff001916905550565b60ff16600a0a90565b60006109d283836040518060400160405280601a81526020017f536166654d6174683a206469766973696f6e206279207a65726f000000000000815250610ecc565b6001600160a01b038116600090815260cb6020526040812054806108915760408051600481526024810182526020810180516001600160e01b031663313ce56760e01b17905290516000916060916001600160a01b03871691610dd491610fba565b600060405180830381855afa9150503d8060008114610e0f576040519150601f19603f3d011682016040523d82523d6000602084013e610e14565b606091505b5091509150818015610e265750805115155b610e425760405162461bcd60e51b81526004016101b99061110e565b80806020019051810190610e569190610fa2565b95945050505050565b600082610e6e57506000610891565b82820282848281610e7b57fe5b04146109d25760405162461bcd60e51b81526004016101b99061119c565b6000610ec483610eb8610eab85610d27565b879063ffffffff610e5f16565b9063ffffffff610d3016565b949350505050565b60008183610eed5760405162461bcd60e51b81526004016101b99190610ff5565b506000838581610ef957fe5b0495945050505050565b6040518060200160405280600081525090565b600060208284031215610f27578081fd5b81356109d281611345565b600060208284031215610f43578081fd5b81516109d281611345565b600060208284031215610f5f578081fd5b50919050565b600060208284031215610f76578081fd5b6040516020810181811067ffffffffffffffff82111715610f95578283fd5b6040529135825250919050565b600060208284031215610fb3578081fd5b5051919050565b60008251610fcc818460208701611315565b9190910192915050565b6001600160a01b0391909116815260200190565b901515815260200190565b6000602082528251806020840152611014816040850160208701611315565b601f01601f19169190910160400192915050565b60208082526007908201526610b6b4b73a32b960c91b604082015260600190565b6020808252601b908201527f536166654d6174683a206164646974696f6e206f766572666c6f770000000000604082015260600190565b60208082526027908201527f49666e7846694f776e61626c65557067726164653a206e6f7420746865206e656040820152663b9037bbb732b960c91b606082015260800190565b60208082526027908201527f49666e7846694f776e61626c65557067726164653a2073616d652061732063616040820152666e64696461746560c81b606082015260800190565b60208082526021908201527f446563696d616c45524332303a2067657420646563696d616c73206661696c656040820152601960fa1b606082015260800190565b6020808252602d908201527f49666e7846694f776e61626c65557067726164653a2063616c6c65722069732060408201526c3737ba103a34329037bbb732b960991b606082015260800190565b60208082526021908201527f536166654d6174683a206d756c7469706c69636174696f6e206f766572666c6f6040820152607760f81b606082015260800190565b6020808252602e908201527f436f6e747261637420696e7374616e63652068617320616c726561647920626560408201526d195b881a5b9a5d1a585b1a5e995960921b606082015260800190565b6020808252602f908201527f49666e7846694f776e61626c65557067726164653a2063616e6469646174652060408201526e6973207a65726f206164647265737360881b606082015260800190565b60208082526026908201527f49666e7846694f776e61626c65557067726164653a2073616d65206173206f726040820152651a59da5b985b60d21b606082015260800190565b60208082526022908201527f49666e7846694f776e61626c65557067726164653a207a65726f206164647265604082015261737360f01b606082015260800190565b9051815260200190565b90815260200190565b60005b83811015611330578181015183820152602001611318565b8381111561133f576000848401525b50505050565b6001600160a01b0381168114610a9257600080fdfea2646970667358221220e0ebf7180214a363d64d065a2671439629db3c74a8c52d7ae9436607588d53af64736f6c63430006090033",
  "devdoc": {
    "methods": {
      "owner()": {
        "details": "Returns the address of the current owner."
      },
      "renounceOwnership()": {
        "details": "Leaves the contract without owner. It will not be possible to call `onlyOwner` functions anymore. Can only be called by the current owner. NOTE: Renouncing ownership will leave the contract without an owner, thereby removing any functionality that is only available to the owner."
      },
      "setOwner(address)": {
        "details": "Set ownership of the contract to a new account (`newOwner`). Can only be called by the current owner."
      },
      "updateOwner()": {
        "details": "Transfers ownership of the contract to a new account (`_candidate`). Can only be called by the new owner."
      }
    }
  },
  "userdoc": {
    "methods": {
      "shutdownThreshold()": {
        "notice": "in percentage, if (minted token in a week) / (total supply) is less than `shutdownThreshold`, it's ready to shutdown"
      }
    }
  },
  "storageLayout": {
    "storage": [
      {
        "astId": 151,
        "contract": "contracts/InflationMonitor.sol:InflationMonitor",
        "label": "initialized",
        "offset": 0,
        "slot": "0",
        "type": "t_bool"
      },
      {
        "astId": 154,
        "contract": "contracts/InflationMonitor.sol:InflationMonitor",
        "label": "initializing",
        "offset": 1,
        "slot": "0",
        "type": "t_bool"
      },
      {
        "astId": 219,
        "contract": "contracts/InflationMonitor.sol:InflationMonitor",
        "label": "______gap",
        "offset": 0,
        "slot": "1",
        "type": "t_array(t_uint256)50_storage"
      },
      {
        "astId": 144,
        "contract": "contracts/InflationMonitor.sol:InflationMonitor",
        "label": "__gap",
        "offset": 0,
        "slot": "51",
        "type": "t_array(t_uint256)50_storage"
      },
      {
        "astId": 18769,
        "contract": "contracts/InflationMonitor.sol:InflationMonitor",
        "label": "_owner",
        "offset": 0,
        "slot": "101",
        "type": "t_address"
      },
      {
        "astId": 18771,
        "contract": "contracts/InflationMonitor.sol:InflationMonitor",
        "label": "_candidate",
        "offset": 0,
        "slot": "102",
        "type": "t_address"
      },
      {
        "astId": 18945,
        "contract": "contracts/InflationMonitor.sol:InflationMonitor",
        "label": "__gap",
        "offset": 0,
        "slot": "103",
        "type": "t_array(t_uint256)50_storage"
      },
      {
        "astId": 17804,
        "contract": "contracts/InflationMonitor.sol:InflationMonitor",
        "label": "__gap",
        "offset": 0,
        "slot": "153",
        "type": "t_array(t_uint256)50_storage"
      },
      {
        "astId": 18106,
        "contract": "contracts/InflationMonitor.sol:InflationMonitor",
        "label": "decimalMap",
        "offset": 0,
        "slot": "203",
        "type": "t_mapping(t_address,t_uint256)"
      },
      {
        "astId": 18110,
        "contract": "contracts/InflationMonitor.sol:InflationMonitor",
        "label": "__gap",
        "offset": 0,
        "slot": "204",
        "type": "t_array(t_uint256)50_storage"
      },
      {
        "astId": 9837,
        "contract": "contracts/InflationMonitor.sol:InflationMonitor",
        "label": "mintedTokenHistory",
        "offset": 0,
        "slot": "254",
        "type": "t_array(t_struct(MintedTokenEntry)9831_storage)dyn_storage"
      },
      {
        "astId": 9840,
        "contract": "contracts/InflationMonitor.sol:InflationMonitor",
        "label": "shutdownThreshold",
        "offset": 0,
        "slot": "255",
        "type": "t_struct(decimal)17838_storage"
      },
      {
        "astId": 9842,
        "contract": "contracts/InflationMonitor.sol:InflationMonitor",
        "label": "minter",
        "offset": 0,
        "slot": "256",
        "type": "t_contract(IMinter)15236"
      },
      {
        "astId": 9846,
        "contract": "contracts/InflationMonitor.sol:InflationMonitor",
        "label": "__gap",
        "offset": 0,
        "slot": "257",
        "type": "t_array(t_uint256)50_storage"
      }
    ],
    "types": {
      "t_address": {
        "encoding": "inplace",
        "label": "address",
        "numberOfBytes": "20"
      },
      "t_array(t_struct(MintedTokenEntry)9831_storage)dyn_storage": {
        "base": "t_struct(MintedTokenEntry)9831_storage",
        "encoding": "dynamic_array",
        "label": "struct InflationMonitor.MintedTokenEntry[]",
        "numberOfBytes": "32"
      },
      "t_array(t_uint256)50_storage": {
        "base": "t_uint256",
        "encoding": "inplace",
        "label": "uint256[50]",
        "numberOfBytes": "1600"
      },
      "t_bool": {
        "encoding": "inplace",
        "label": "bool",
        "numberOfBytes": "1"
      },
      "t_contract(IMinter)15236": {
        "encoding": "inplace",
        "label": "contract IMinter",
        "numberOfBytes": "20"
      },
      "t_mapping(t_address,t_uint256)": {
        "encoding": "mapping",
        "key": "t_address",
        "label": "mapping(address => uint256)",
        "numberOfBytes": "32",
        "value": "t_uint256"
      },
      "t_struct(MintedTokenEntry)9831_storage": {
        "encoding": "inplace",
        "label": "struct InflationMonitor.MintedTokenEntry",
        "members": [
          {
            "astId": 9828,
            "contract": "contracts/InflationMonitor.sol:InflationMonitor",
            "label": "timestamp",
            "offset": 0,
            "slot": "0",
            "type": "t_uint256"
          },
          {
            "astId": 9830,
            "contract": "contracts/InflationMonitor.sol:InflationMonitor",
            "label": "cumulativeAmount",
            "offset": 0,
            "slot": "1",
            "type": "t_struct(decimal)17838_storage"
          }
        ],
        "numberOfBytes": "64"
      },
      "t_struct(decimal)17838_storage": {
        "encoding": "inplace",
        "label": "struct Decimal.decimal",
        "members": [
          {
            "astId": 17837,
            "contract": "contracts/InflationMonitor.sol:InflationMonitor",
            "label": "d",
            "offset": 0,
            "slot": "0",
            "type": "t_uint256"
          }
        ],
        "numberOfBytes": "32"
      },
      "t_uint256": {
        "encoding": "inplace",
        "label": "uint256",
        "numberOfBytes": "32"
      }
    }
  }
}