{
  "address": "0x4d7dCb900F9b1f47EeC99761F5A452e949163C12",
  "abi": [
    {
      "anonymous": false,
      "inputs": [
        {
          "indexed": false,
          "internalType": "address",
          "name": "amm",
          "type": "address"
        }
      ],
      "name": "AmmAdded",
      "type": "event"
    },
    {
      "anonymous": false,
      "inputs": [
        {
          "indexed": false,
          "internalType": "address",
          "name": "amm",
          "type": "address"
        }
      ],
      "name": "AmmRemoved",
      "type": "event"
    },
    {
      "anonymous": false,
      "inputs": [
        {
          "indexed": true,
          "internalType": "address",
          "name": "previousOwner",
          "type": "address"
        },
        {
          "indexed": true,
          "internalType": "address",
          "name": "newOwner",
          "type": "address"
        }
      ],
      "name": "OwnershipTransferred",
      "type": "event"
    },
    {
      "anonymous": false,
      "inputs": [
        {
          "indexed": false,
          "internalType": "uint256",
          "name": "blockNumber",
          "type": "uint256"
        }
      ],
      "name": "ShutdownAllAmms",
      "type": "event"
    },
    {
      "anonymous": false,
      "inputs": [
        {
          "indexed": false,
          "internalType": "address",
          "name": "tokenAddress",
          "type": "address"
        }
      ],
      "name": "TokenAdded",
      "type": "event"
    },
    {
      "anonymous": false,
      "inputs": [
        {
          "indexed": false,
          "internalType": "address",
          "name": "tokenAddress",
          "type": "address"
        }
      ],
      "name": "TokenRemoved",
      "type": "event"
    },
    {
      "anonymous": false,
      "inputs": [
        {
          "indexed": false,
          "internalType": "address",
          "name": "withdrawer",
          "type": "address"
        },
        {
          "indexed": false,
          "internalType": "uint256",
          "name": "amount",
          "type": "uint256"
        }
      ],
      "name": "Withdrawn",
      "type": "event"
    },
    {
      "inputs": [
        {
          "internalType": "contract IAmm",
          "name": "_amm",
          "type": "address"
        }
      ],
      "name": "addAmm",
      "outputs": [],
      "stateMutability": "nonpayable",
      "type": "function"
    },
    {
      "inputs": [],
      "name": "candidate",
      "outputs": [
        {
          "internalType": "address",
          "name": "",
          "type": "address"
        }
      ],
      "stateMutability": "view",
      "type": "function"
    },
    {
      "inputs": [],
      "name": "exchange",
      "outputs": [
        {
          "internalType": "contract IExchangeWrapper",
          "name": "",
          "type": "address"
        }
      ],
      "stateMutability": "view",
      "type": "function"
    },
    {
      "inputs": [],
      "name": "getAllAmms",
      "outputs": [
        {
          "internalType": "contract IAmm[]",
          "name": "",
          "type": "address[]"
        }
      ],
      "stateMutability": "view",
      "type": "function"
    },
    {
      "inputs": [],
      "name": "getQuoteTokenLength",
      "outputs": [
        {
          "internalType": "uint256",
          "name": "",
          "type": "uint256"
        }
      ],
      "stateMutability": "view",
      "type": "function"
    },
    {
      "inputs": [],
      "name": "ifnxToken",
      "outputs": [
        {
          "internalType": "contract IERC20",
          "name": "",
          "type": "address"
        }
      ],
      "stateMutability": "view",
      "type": "function"
    },
    {
      "inputs": [],
      "name": "inflationMonitor",
      "outputs": [
        {
          "internalType": "contract IInflationMonitor",
          "name": "",
          "type": "address"
        }
      ],
      "stateMutability": "view",
      "type": "function"
    },
    {
      "inputs": [],
      "name": "initialize",
      "outputs": [],
      "stateMutability": "nonpayable",
      "type": "function"
    },
    {
      "inputs": [
        {
          "internalType": "contract IAmm",
          "name": "_amm",
          "type": "address"
        }
      ],
      "name": "isExistedAmm",
      "outputs": [
        {
          "internalType": "bool",
          "name": "",
          "type": "bool"
        }
      ],
      "stateMutability": "view",
      "type": "function"
    },
    {
      "inputs": [],
      "name": "minter",
      "outputs": [
        {
          "internalType": "contract IMinter",
          "name": "",
          "type": "address"
        }
      ],
      "stateMutability": "view",
      "type": "function"
    },
    {
      "inputs": [],
      "name": "owner",
      "outputs": [
        {
          "internalType": "address",
          "name": "",
          "type": "address"
        }
      ],
      "stateMutability": "view",
      "type": "function"
    },
    {
      "inputs": [
        {
          "internalType": "uint256",
          "name": "",
          "type": "uint256"
        }
      ],
      "name": "quoteTokens",
      "outputs": [
        {
          "internalType": "contract IERC20",
          "name": "",
          "type": "address"
        }
      ],
      "stateMutability": "view",
      "type": "function"
    },
    {
      "inputs": [
        {
          "internalType": "contract IAmm",
          "name": "_amm",
          "type": "address"
        }
      ],
      "name": "removeAmm",
      "outputs": [],
      "stateMutability": "nonpayable",
      "type": "function"
    },
    {
      "inputs": [
        {
          "internalType": "contract IERC20",
          "name": "_token",
          "type": "address"
        }
      ],
      "name": "removeToken",
      "outputs": [],
      "stateMutability": "nonpayable",
      "type": "function"
    },
    {
      "inputs": [],
      "name": "renounceOwnership",
      "outputs": [],
      "stateMutability": "nonpayable",
      "type": "function"
    },
    {
      "inputs": [
        {
          "internalType": "address",
          "name": "_beneficiary",
          "type": "address"
        }
      ],
      "name": "setBeneficiary",
      "outputs": [],
      "stateMutability": "nonpayable",
      "type": "function"
    },
    {
      "inputs": [
        {
          "internalType": "contract IExchangeWrapper",
          "name": "_exchange",
          "type": "address"
        }
      ],
      "name": "setExchange",
      "outputs": [],
      "stateMutability": "nonpayable",
      "type": "function"
    },
    {
      "inputs": [
        {
          "internalType": "contract IInflationMonitor",
          "name": "_inflationMonitor",
          "type": "address"
        }
      ],
      "name": "setInflationMonitor",
      "outputs": [],
      "stateMutability": "nonpayable",
      "type": "function"
    },
    {
      "inputs": [
        {
          "internalType": "contract IMinter",
          "name": "_minter",
          "type": "address"
        }
      ],
      "name": "setMinter",
      "outputs": [],
      "stateMutability": "nonpayable",
      "type": "function"
    },
    {
      "inputs": [
        {
          "internalType": "address",
          "name": "newOwner",
          "type": "address"
        }
      ],
      "name": "setOwner",
      "outputs": [],
      "stateMutability": "nonpayable",
      "type": "function"
    },
    {
      "inputs": [],
      "name": "shutdownAllAmm",
      "outputs": [],
      "stateMutability": "nonpayable",
      "type": "function"
    },
    {
      "inputs": [],
      "name": "updateOwner",
      "outputs": [],
      "stateMutability": "nonpayable",
      "type": "function"
    },
    {
      "inputs": [
        {
          "internalType": "contract IERC20",
          "name": "_quoteToken",
          "type": "address"
        },
        {
          "components": [
            {
              "internalType": "uint256",
              "name": "d",
              "type": "uint256"
            }
          ],
          "internalType": "struct Decimal.decimal",
          "name": "_amount",
          "type": "tuple"
        }
      ],
      "name": "withdraw",
      "outputs": [],
      "stateMutability": "nonpayable",
      "type": "function"
    }
  ],
  "transactionHash": "0x79f35702602550d9d633bea23d243128d09a45df719c5f02f305ced8ea3c5bbd",
  "args": [],
  "solcInputHash": "7a3ee41f8ce51badd940fe1b087d2f9c",
  "bytecode": "0x608060405234801561001057600080fd5b50612c00806100206000396000f3fe608060405234801561001057600080fd5b506004361061014d5760003560e01c80638da5cb5b116100c3578063c68ade371161007c578063c68ade3714610266578063ca58b19814610279578063cf23097914610281578063d2f7265a14610294578063d926de1c1461029c578063fca3b5aa146102af5761014d565b80638da5cb5b1461021c5780639dd96eb214610224578063b0ecdc2d1461022c578063b7538c6214610234578063bc5920ba14610249578063beb0597a146102515761014d565b80632c9115c7116101155780632c9115c7146101cb5780635fa7b584146101de57806367b1f5df146101f15780636c8381f814610204578063715018a61461020c5780638129fc1c146102145761014d565b806307546172146101525780630774a7841461017057806313af4035146101905780631c31f710146101a5578063252978b8146101b8575b600080fd5b61015a6102c2565b604051610167919061259f565b60405180910390f35b61018361017e366004612472565b6102d2565b6040516101679190612619565b6101a361019e366004612472565b6102f1565b005b6101a36101b3366004612472565b6103d3565b6101a36101c63660046124ca565b61042b565b61015a6101d9366004612553565b6105ae565b6101a36101ec366004612472565b6105d6565b6101a36101ff366004612472565b6107dd565b61015a610835565b6101a3610845565b6101a36108c4565b61015a610957565b6101a3610966565b61015a610aee565b61023c610afe565b60405161016791906125cc565b6101a3610b61565b610259610c24565b6040516101679190612b59565b6101a3610274366004612472565b610c2b565b61015a610c83565b6101a361028f366004612472565b610c93565b61015a610e2d565b6101a36102aa366004612472565b610e3d565b6101a36102bd366004612472565b611055565b610136546001600160a01b031681565b6001600160a01b03166000908152610130602052604090205460ff1690565b6102f9611143565b6065546001600160a01b0390811691161461032f5760405162461bcd60e51b81526004016103269061289f565b60405180910390fd5b6001600160a01b0381166103555760405162461bcd60e51b815260040161032690612b0d565b6065546001600160a01b03828116911614156103835760405162461bcd60e51b815260040161032690612a25565b6066546001600160a01b03828116911614156103b15760405162461bcd60e51b8152600401610326906127c1565b606680546001600160a01b0319166001600160a01b0392909216919091179055565b6103db611143565b6065546001600160a01b039081169116146104085760405162461bcd60e51b81526004016103269061289f565b61013880546001600160a01b0319166001600160a01b0392909216919091179055565b610433611143565b610138546001600160a01b039081169116146104615760405162461bcd60e51b81526004016103269061270c565b61046a82611147565b6104865760405162461bcd60e51b8152600401610326906128ec565b61048e61245f565b61049783611166565b90506104a28161117e565b6104b96104b436859003850185612509565b61117e565b11156104ff576104c761245f565b6104e6826104da36869003860186612509565b9063ffffffff61118216565b90506104f284826111ae565b6104fb84611166565b9150505b6105116104b436849003840184612509565b61051a8261117e565b10156105385760405162461bcd60e51b815260040161032690612ae4565b61055883610544611143565b61055336869003860186612509565b61143e565b7f7084f5476618d8e60b11ef0d7d3f06914655adb8793e28ff7f018d4c76d505d5610581611143565b6105936104b436869003860186612509565b6040516105a19291906125b3565b60405180910390a1505050565b61013381815481106105bc57fe5b6000918252602090912001546001600160a01b0316905081565b6105de611143565b6065546001600160a01b0390811691161461060b5760405162461bcd60e51b81526004016103269061289f565b61061481611147565b6106305760405162461bcd60e51b8152600401610326906126aa565b6001600160a01b038116600090815261013160205260408120805460ff19169055610659610c24565b905060005b8181101561074657826001600160a01b0316610133828154811061067e57fe5b6000918252602090912001546001600160a01b0316141561073e576001820381101561070b5761013360018303815481106106b557fe5b60009182526020909120015461013380546001600160a01b0390921691839081106106dc57fe5b9060005260206000200160006101000a8154816001600160a01b0302191690836001600160a01b031602179055505b61013380548061071757fe5b600082815260209020810160001990810180546001600160a01b0319169055019055610746565b60010161065e565b5060006107556104b484611166565b11156107a257600061076561156d565b90506001600160a01b0381166107845750610135546001600160a01b03165b61079f838261079286611166565b61079a6116f2565b61170d565b50505b7f4c910b69fe65a61f7531b9c5042b2329ca7179c77290aa7e2eb3afa3c8511fd3826040516107d1919061259f565b60405180910390a15050565b6107e5611143565b6065546001600160a01b039081169116146108125760405162461bcd60e51b81526004016103269061289f565b61013480546001600160a01b0319166001600160a01b0392909216919091179055565b6066546001600160a01b03165b90565b61084d611143565b6065546001600160a01b0390811691161461087a5760405162461bcd60e51b81526004016103269061289f565b6065546040516000916001600160a01b0316907f8be0079c531659141344cd1fd0a4f28419497f9722a3daafe3b4186f6b6457e0908390a3606580546001600160a01b0319169055565b600054610100900460ff16806108dd57506108dd61180c565b806108eb575060005460ff16155b6109075760405162461bcd60e51b81526004016103269061295d565b600054610100900460ff16158015610932576000805460ff1961ff0019909116610100171660011790555b61093a611812565b610942611890565b8015610954576000805461ff00191690555b50565b6065546001600160a01b031690565b61096e611143565b6065546001600160a01b0390811691161461099b5760405162461bcd60e51b81526004016103269061289f565b61013760009054906101000a90046001600160a01b03166001600160a01b0316633fe204d96040518163ffffffff1660e01b815260040160206040518083038186803b1580156109ea57600080fd5b505afa1580156109fe573d6000803e3d6000fd5b505050506040513d601f19601f82011682018060405250810190610a22919061248e565b610a2b57610aec565b60005b61013254811015610ab3576101328181548110610a4757fe5b60009182526020822001546040805163fc0e74d160e01b815290516001600160a01b039092169263fc0e74d19260048084019382900301818387803b158015610a8f57600080fd5b505af1158015610aa3573d6000803e3d6000fd5b505060019092019150610a2e9050565b507ffc9f9c6cbb93f675af09b9bb43859333114dfa5e4c5abd35297e153f2434810143604051610ae39190612b59565b60405180910390a15b565b610135546001600160a01b031681565b6060610132805480602002602001604051908101604052809291908181526020018280548015610b5757602002820191906000526020600020905b81546001600160a01b03168152600190910190602001808311610b39575b5050505050905090565b6066546001600160a01b0316610b895760405162461bcd60e51b8152600401610326906129d6565b610b91611143565b6066546001600160a01b03908116911614610bbe5760405162461bcd60e51b81526004016103269061277a565b6066546065546040516001600160a01b0392831692909116907f8be0079c531659141344cd1fd0a4f28419497f9722a3daafe3b4186f6b6457e090600090a360668054606580546001600160a01b03199081166001600160a01b03841617909155169055565b6101335490565b610c33611143565b6065546001600160a01b03908116911614610c605760405162461bcd60e51b81526004016103269061289f565b61013780546001600160a01b0319166001600160a01b0392909216919091179055565b610137546001600160a01b031681565b610c9b611143565b6065546001600160a01b03908116911614610cc85760405162461bcd60e51b81526004016103269061289f565b610cd1816102d2565b610ced5760405162461bcd60e51b815260040161032690612849565b6001600160a01b038116600090815261013060205260408120805460ff1916905561013254905b81811015610e2857826001600160a01b03166101328281548110610d3457fe5b6000918252602090912001546001600160a01b03161415610e20576101326001830381548110610d6057fe5b60009182526020909120015461013280546001600160a01b039092169183908110610d8757fe5b9060005260206000200160006101000a8154816001600160a01b0302191690836001600160a01b03160217905550610132805480610dc157fe5b600082815260209020810160001990810180546001600160a01b03191690550190556040517fdaad2af263ebb3abf337a324f20752addc3bf170971ce7b80cc3bfea1fcf30ee90610e1390859061259f565b60405180910390a1610e28565b600101610d14565b505050565b610134546001600160a01b031681565b610e45611143565b6065546001600160a01b03908116911614610e725760405162461bcd60e51b81526004016103269061289f565b610e7b816102d2565b15610e985760405162461bcd60e51b8152600401610326906129ab565b6001600160a01b03811660008181526101306020526040808220805460ff19166001908117909155610132805491820181559092527fc53bdfd4aa1ab65dfdaf681ca6bda958ae4a123d4ed68c4277796592280e783590910180546001600160a01b031916909217909155517f10cdbb821aa416c854add806e1d7e8138afe2a538921cebe99b1351362ae38b290610f3190839061259f565b60405180910390a16000816001600160a01b031663fdf262b76040518163ffffffff1660e01b815260040160206040518083038186803b158015610f7457600080fd5b505afa158015610f88573d6000803e3d6000fd5b505050506040513d601f19601f82011682018060405250810190610fac91906124ae565b9050610fb781611147565b61105157610133805460018082019092557f92e985329fb94cc1b424ebb0f7f2929b6d27383ca94c0ec71c44fb48bdf96d2c0180546001600160a01b0319166001600160a01b0384169081179091556000908152610131602052604090819020805460ff1916909217909155517f784c8f4dbf0ffedd6e72c76501c545a70f8b203b30a26ce542bf92ba87c248a4906107d190839061259f565b5050565b61105d611143565b6065546001600160a01b0390811691161461108a5760405162461bcd60e51b81526004016103269061289f565b61013680546001600160a01b0319166001600160a01b0383811691909117918290556040805163343f70ff60e01b81529051929091169163343f70ff91600480820192602092909190829003018186803b1580156110e757600080fd5b505afa1580156110fb573d6000803e3d6000fd5b505050506040513d601f19601f8201168201806040525081019061111f91906124ae565b61013580546001600160a01b0319166001600160a01b039290921691909117905550565b3390565b6001600160a01b03166000908152610131602052604090205460ff1690565b61116e61245f565b6111788230611906565b92915050565b5190565b61118a61245f565b61119261245f565b825184516111a59163ffffffff61199a16565b81529392505050565b60606111b9836119dc565b905060005b8151811015611313576111cf61245f565b6111d761245f565b6101345484516001600160a01b039091169063c643ea63908690869081106111fb57fe5b602002602001015188886040518463ffffffff1660e01b815260040161122393929190612624565b60206040518083038186803b15801561123b57600080fd5b505afa15801561124f573d6000803e3d6000fd5b505050506040513d601f19601f82011682018060405250810190611273919061252e565b90506112946104b485858151811061128757fe5b6020026020010151611166565b61129d8261117e565b116112ce576112c38484815181106112b157fe5b6020026020010151878361079a6116f2565b915050505050611051565b6112f58484815181106112dd57fe5b60200260200101518761079287878151811061128757fe5b9150611307858363ffffffff61118216565b945050506001016111be565b50600061131f8361117e565b1115610e285761132d61245f565b610134546101355460405163c643ea6360e01b81526001600160a01b039283169263c643ea63926113679291169088908890600401612624565b60206040518083038186803b15801561137f57600080fd5b505afa158015611393573d6000803e3d6000fd5b505050506040513d601f19601f820116820180604052508101906113b7919061252e565b6101365460405163b90ffc4160e01b81529192506001600160a01b03169063b90ffc41906113e9908490600401612b4f565b600060405180830381600087803b15801561140357600080fd5b505af1158015611417573d6000803e3d6000fd5b50506101355461143792506001600160a01b03169050858361079a6116f2565b5050505050565b61144783611d67565b61144f61245f565b6114598484611906565b905060006114678584611db1565b905060006060866001600160a01b031663a9059cbb60e01b87856040516024016114929291906125b3565b60408051601f198184030181529181526020820180516001600160e01b03166001600160e01b03199094169390931790925290516114d09190612583565b6000604051808303816000865af19150503d806000811461150d576040519150601f19603f3d011682016040523d82523d6000602084013e611512565b606091505b509150915081801561153c57508051158061153c57508080602001905181019061153c919061248e565b6115585760405162461bcd60e51b8152600401610326906126d5565b61156487878587611e27565b50505050505050565b6101335460009080611583576000915050610842565b80600114156115b95761013360008154811061159b57fe5b6000918252602090912001546001600160a01b031691506108429050565b60006101336000815481106115ca57fe5b6000918252602090912001546001600160a01b03169050806115ea61245f565b6115f383611166565b905060015b848110156116e8576000610133828154811061161057fe5b6000918252602090912001546001600160a01b0316905061162f61245f565b610134546001600160a01b031663c1094e5b838861164c82611166565b6040518463ffffffff1660e01b815260040161166a93929190612624565b60206040518083038186803b15801561168257600080fd5b505afa158015611696573d6000803e3d6000fd5b505050506040513d601f19601f820116820180604052508101906116ba919061252e565b905060006116ce828663ffffffff611e8016565b60000b13156116de578194508093505b50506001016115f8565b5090935050505090565b6116fa61245f565b5060408051602081019091526000815290565b61171561245f565b61171e8361117e565b6117315761172a6116f2565b9050611804565b6101345461174a9086906001600160a01b031685611eb1565b610134546001600160a01b031663e5e75d1e868686866117686116f2565b6040518663ffffffff1660e01b8152600401611788959493929190612647565b602060405180830381600087803b1580156117a257600080fd5b505af11580156117b6573d6000803e3d6000fd5b505050506040513d601f19601f820116820180604052508101906117da919061252e565b905060006117e78261117e565b116118045760405162461bcd60e51b815260040161032690612872565b949350505050565b303b1590565b600054610100900460ff168061182b575061182b61180c565b80611839575060005460ff16155b6118555760405162461bcd60e51b81526004016103269061295d565b600054610100900460ff16158015611880576000805460ff1961ff0019909116610100171660011790555b611888611ed7565b610942611f58565b600054610100900460ff16806118a957506118a961180c565b806118b7575060005460ff16155b6118d35760405162461bcd60e51b81526004016103269061295d565b600054610100900460ff161580156118fe576000805460ff1961ff0019909116610100171660011790555b610942612032565b61190e61245f565b61199383846001600160a01b03166370a08231856040518263ffffffff1660e01b815260040161193e919061259f565b60206040518083038186803b15801561195657600080fd5b505afa15801561196a573d6000803e3d6000fd5b505050506040513d601f19601f8201168201806040525081019061198e919061256b565b6120c1565b9392505050565b600061199383836040518060400160405280601e81526020017f536166654d6174683a207375627472616374696f6e206f766572666c6f770000815250612153565b606080610133805480602002602001604051908101604052809291908181526020018280548015611a3657602002820191906000526020600020905b81546001600160a01b03168152600190910190602001808311611a18575b50939450600093505050505b611a4a610c24565b811015611c905760006101338281548110611a6157fe5b6000918252602090912001546001600160a01b03169050611a8061245f565b61013454610135546001600160a01b039182169163c1094e5b91859116611aa682611166565b6040518463ffffffff1660e01b8152600401611ac493929190612624565b60206040518083038186803b158015611adc57600080fd5b505afa158015611af0573d6000803e3d6000fd5b505050506040513d601f19601f82011682018060405250810190611b14919061252e565b9050825b8015611c8557611b2661245f565b6101345486516001600160a01b039091169063c1094e5b9088906000198601908110611b4e57fe5b602002602001015161013560009054906101000a90046001600160a01b0316611b7f8a600188038151811061128757fe5b6040518463ffffffff1660e01b8152600401611b9d93929190612624565b60206040518083038186803b158015611bb557600080fd5b505afa158015611bc9573d6000803e3d6000fd5b505050506040513d601f19601f82011682018060405250810190611bed919061252e565b9050611bf88161117e565b611c018461117e565b1115611c7b57856001830381518110611c1657fe5b6020026020010151868381518110611c2a57fe5b60200260200101906001600160a01b031690816001600160a01b03168152505083866001840381518110611c5a57fe5b60200260200101906001600160a01b031690816001600160a01b0316815250505b5060001901611b18565b505050600101611a42565b50600181510367ffffffffffffffff81118015611cac57600080fd5b50604051908082528060200260200182016040528015611cd6578160200160208202803683370190505b5091506000805b8251811015611d5f57846001600160a01b0316838281518110611cfc57fe5b60200260200101516001600160a01b03161415611d1857611d57565b828181518110611d2457fe5b6020026020010151848381518110611d3857fe5b6001600160a01b03909216602092830291909101909101526001909101905b600101611cdd565b505050919050565b6000611d728261217f565b6001600160a01b038316600090815260fd60205260409020549091508114611051576001600160a01b0391909116600090815260fd6020526040902055565b600080611dbd8461217f565b905060128110611dfb57611df3611ddb82601263ffffffff61199a16565b600a0a611de78561117e565b9063ffffffff61226c16565b915050611178565b611804611e0f60128363ffffffff61199a16565b600a0a611e1b8561117e565b9063ffffffff6122a616565b611e5a611e44611e3786856120c1565b839063ffffffff6122e816565b611e4e8686611906565b9063ffffffff611e8016565b60000b15611e7a5760405162461bcd60e51b815260040161032690612aa2565b50505050565b805182516000911015611e9557506001611178565b815183511015611ea85750600019611178565b50600092915050565b611eba83611d67565b611ecc8383611ec76116f2565b61230b565b610e2883838361230b565b600054610100900460ff1680611ef05750611ef061180c565b80611efe575060005460ff16155b611f1a5760405162461bcd60e51b81526004016103269061295d565b600054610100900460ff16158015610942576000805460ff1961ff0019909116610100171660011790558015610954576000805461ff001916905550565b600054610100900460ff1680611f715750611f7161180c565b80611f7f575060005460ff16155b611f9b5760405162461bcd60e51b81526004016103269061295d565b600054610100900460ff16158015611fc6576000805460ff1961ff0019909116610100171660011790555b6000611fd0611143565b606580546001600160a01b0319166001600160a01b038316908117909155604051919250906000907f8be0079c531659141344cd1fd0a4f28419497f9722a3daafe3b4186f6b6457e0908290a3508015610954576000805461ff001916905550565b600054610100900460ff168061204b575061204b61180c565b80612059575060005460ff16155b6120755760405162461bcd60e51b81526004016103269061295d565b600054610100900460ff161580156120a0576000805460ff1961ff0019909116610100171660011790555b60cb805460ff191660011790558015610954576000805461ff001916905550565b6120c961245f565b60006120d48461217f565b9050601281106121195760408051602081019091528061210e6120fe84601263ffffffff61199a16565b8690600a0a63ffffffff6122a616565b815250915050611178565b60408051602081019091528061214961213960128563ffffffff61199a16565b8690600a0a63ffffffff61226c16565b9052949350505050565b600081848411156121775760405162461bcd60e51b81526004016103269190612677565b505050900390565b6001600160a01b038116600090815260fd6020526040812054806111785760408051600481526024810182526020810180516001600160e01b031663313ce56760e01b17905290516000916060916001600160a01b038716916121e191612583565b600060405180830381855afa9150503d806000811461221c576040519150601f19603f3d011682016040523d82523d6000602084013e612221565b606091505b50915091508180156122335750805115155b61224f5760405162461bcd60e51b815260040161032690612808565b80806020019051810190612263919061256b565b95945050505050565b60008261227b57506000611178565b8282028284828161228857fe5b04146119935760405162461bcd60e51b81526004016103269061291c565b600061199383836040518060400160405280601a81526020017f536166654d6174683a206469766973696f6e206279207a65726f000000000000815250612403565b6122f061245f565b6122f861245f565b825184516111a59163ffffffff61243a16565b600060606001600160a01b03851663095ea7b360e01b8561232c8887611db1565b60405160240161233d9291906125b3565b60408051601f198184030181529181526020820180516001600160e01b03166001600160e01b031990941693909317909252905161237b9190612583565b6000604051808303816000865af19150503d80600081146123b8576040519150601f19603f3d011682016040523d82523d6000602084013e6123bd565b606091505b50915091508180156123e75750805115806123e75750808060200190518101906123e7919061248e565b6114375760405162461bcd60e51b815260040161032690612a6b565b600081836124245760405162461bcd60e51b81526004016103269190612677565b50600083858161243057fe5b0495945050505050565b6000828201838110156119935760405162461bcd60e51b815260040161032690612743565b6040518060200160405280600081525090565b600060208284031215612483578081fd5b813561199381612bb5565b60006020828403121561249f578081fd5b81518015158114611993578182fd5b6000602082840312156124bf578081fd5b815161199381612bb5565b60008082840360408112156124dd578182fd5b83356124e881612bb5565b92506020601f19820112156124fb578182fd5b506020830190509250929050565b60006020828403121561251a578081fd5b6125246020612b62565b9135825250919050565b60006020828403121561253f578081fd5b6125496020612b62565b9151825250919050565b600060208284031215612564578081fd5b5035919050565b60006020828403121561257c578081fd5b5051919050565b60008251612595818460208701612b89565b9190910192915050565b6001600160a01b0391909116815260200190565b6001600160a01b03929092168252602082015260400190565b6020808252825182820181905260009190848201906040850190845b8181101561260d5783516001600160a01b0316835292840192918401916001016125e8565b50909695505050505050565b901515815260200190565b6001600160a01b0393841681529190921660208201529051604082015260600190565b6001600160a01b039586168152939094166020840152905160408301525160608201529051608082015260a00190565b6000602082528251806020840152612696816040850160208701612b89565b601f01601f19169190910160400192915050565b6020808252601190820152701d1bdad95b881b9bdd08195e1a5cdd1959607a1b604082015260600190565b6020808252601d908201527f446563696d616c45524332303a207472616e73666572206661696c6564000000604082015260600190565b60208082526019908201527f63616c6c6572206973206e6f742062656e656669636961727900000000000000604082015260600190565b6020808252601b908201527f536166654d6174683a206164646974696f6e206f766572666c6f770000000000604082015260600190565b60208082526027908201527f49666e7846694f776e61626c65557067726164653a206e6f7420746865206e656040820152663b9037bbb732b960c91b606082015260800190565b60208082526027908201527f49666e7846694f776e61626c65557067726164653a2073616d652061732063616040820152666e64696461746560c81b606082015260800190565b60208082526021908201527f446563696d616c45524332303a2067657420646563696d616c73206661696c656040820152601960fa1b606082015260800190565b6020808252600f908201526e185b5b481b9bdd08195e1a5cdd1959608a1b604082015260600190565b60208082526013908201527222bc31b430b733b29039bbb0b81032b93937b960691b604082015260600190565b6020808252602d908201527f49666e7846694f776e61626c65557067726164653a2063616c6c65722069732060408201526c3737ba103a34329037bbb732b960991b606082015260800190565b602080825260169082015275105cdcd95d081a5cc81b9bdd081cdd5c1c1bdc9d195960521b604082015260600190565b60208082526021908201527f536166654d6174683a206d756c7469706c69636174696f6e206f766572666c6f6040820152607760f81b606082015260800190565b6020808252602e908201527f436f6e747261637420696e7374616e63652068617320616c726561647920626560408201526d195b881a5b9a5d1a585b1a5e995960921b606082015260800190565b602080825260119082015270185b5b48185b1c9958591e481859191959607a1b604082015260600190565b6020808252602f908201527f49666e7846694f776e61626c65557067726164653a2063616e6469646174652060408201526e6973207a65726f206164647265737360881b606082015260800190565b60208082526026908201527f49666e7846694f776e61626c65557067726164653a2073616d65206173206f726040820152651a59da5b985b60d21b606082015260800190565b6020808252601c908201527f446563696d616c45524332303a20617070726f7665206661696c656400000000604082015260600190565b60208082526022908201527f446563696d616c45524332303a2062616c616e636520696e636f6e73697374656040820152611b9d60f21b606082015260800190565b6020808252600f908201526e08ceadcc840dcdee840cadcdeeaced608b1b604082015260600190565b60208082526022908201527f49666e7846694f776e61626c65557067726164653a207a65726f206164647265604082015261737360f01b606082015260800190565b9051815260200190565b90815260200190565b60405181810167ffffffffffffffff81118282101715612b8157600080fd5b604052919050565b60005b83811015612ba4578181015183820152602001612b8c565b83811115611e7a5750506000910152565b6001600160a01b038116811461095457600080fdfea26469706673582212200bdbfec0d811323eaf16378c3d5f8f47942fbf04f839663ebd942aad2f5277ce64736f6c63430006090033",
  "devdoc": {
    "methods": {
      "addAmm(address)": {
        "details": "only owner can call",
        "params": {
          "_amm": "IAmm address"
        }
      },
      "owner()": {
        "details": "Returns the address of the current owner."
      },
      "removeAmm(address)": {
        "details": "only owner can call. no need to call",
        "params": {
          "_amm": "IAmm address"
        }
      },
      "renounceOwnership()": {
        "details": "Leaves the contract without owner. It will not be possible to call `onlyOwner` functions anymore. Can only be called by the current owner. NOTE: Renouncing ownership will leave the contract without an owner, thereby removing any functionality that is only available to the owner."
      },
      "setOwner(address)": {
        "details": "Set ownership of the contract to a new account (`newOwner`). Can only be called by the current owner."
      },
      "shutdownAllAmm()": {
        "details": "only owner can call. Emit `ShutdownAllAmms` event"
      },
      "updateOwner()": {
        "details": "Transfers ownership of the contract to a new account (`_candidate`). Can only be called by the new owner."
      },
      "withdraw(address,(uint256))": {
        "params": {
          "_amount": "the amount of quoteToken caller want to withdraw"
        }
      }
    }
  },
  "userdoc": {
    "methods": {
      "shutdownAllAmm()": {
        "notice": "shutdown all Amms when fatal error happens"
      },
      "withdraw(address,(uint256))": {
        "notice": "withdraw token to caller"
      }
    }
  },
  "storageLayout": {
    "storage": [
      {
        "astId": 151,
        "contract": "contracts/InsuranceFund.sol:InsuranceFund",
        "label": "initialized",
        "offset": 0,
        "slot": "0",
        "type": "t_bool"
      },
      {
        "astId": 154,
        "contract": "contracts/InsuranceFund.sol:InsuranceFund",
        "label": "initializing",
        "offset": 1,
        "slot": "0",
        "type": "t_bool"
      },
      {
        "astId": 219,
        "contract": "contracts/InsuranceFund.sol:InsuranceFund",
        "label": "______gap",
        "offset": 0,
        "slot": "1",
        "type": "t_array(t_uint256)50_storage"
      },
      {
        "astId": 144,
        "contract": "contracts/InsuranceFund.sol:InsuranceFund",
        "label": "__gap",
        "offset": 0,
        "slot": "51",
        "type": "t_array(t_uint256)50_storage"
      },
      {
        "astId": 18769,
        "contract": "contracts/InsuranceFund.sol:InsuranceFund",
        "label": "_owner",
        "offset": 0,
        "slot": "101",
        "type": "t_address"
      },
      {
        "astId": 18771,
        "contract": "contracts/InsuranceFund.sol:InsuranceFund",
        "label": "_candidate",
        "offset": 0,
        "slot": "102",
        "type": "t_address"
      },
      {
        "astId": 18945,
        "contract": "contracts/InsuranceFund.sol:InsuranceFund",
        "label": "__gap",
        "offset": 0,
        "slot": "103",
        "type": "t_array(t_uint256)50_storage"
      },
      {
        "astId": 17804,
        "contract": "contracts/InsuranceFund.sol:InsuranceFund",
        "label": "__gap",
        "offset": 0,
        "slot": "153",
        "type": "t_array(t_uint256)50_storage"
      },
      {
        "astId": 2410,
        "contract": "contracts/InsuranceFund.sol:InsuranceFund",
        "label": "_notEntered",
        "offset": 0,
        "slot": "203",
        "type": "t_bool"
      },
      {
        "astId": 2451,
        "contract": "contracts/InsuranceFund.sol:InsuranceFund",
        "label": "__gap",
        "offset": 0,
        "slot": "204",
        "type": "t_array(t_uint256)49_storage"
      },
      {
        "astId": 18106,
        "contract": "contracts/InsuranceFund.sol:InsuranceFund",
        "label": "decimalMap",
        "offset": 0,
        "slot": "253",
        "type": "t_mapping(t_address,t_uint256)"
      },
      {
        "astId": 18110,
        "contract": "contracts/InsuranceFund.sol:InsuranceFund",
        "label": "__gap",
        "offset": 0,
        "slot": "254",
        "type": "t_array(t_uint256)50_storage"
      },
      {
        "astId": 10162,
        "contract": "contracts/InsuranceFund.sol:InsuranceFund",
        "label": "ammMap",
        "offset": 0,
        "slot": "304",
        "type": "t_mapping(t_address,t_bool)"
      },
      {
        "astId": 10166,
        "contract": "contracts/InsuranceFund.sol:InsuranceFund",
        "label": "quoteTokenMap",
        "offset": 0,
        "slot": "305",
        "type": "t_mapping(t_address,t_bool)"
      },
      {
        "astId": 10169,
        "contract": "contracts/InsuranceFund.sol:InsuranceFund",
        "label": "amms",
        "offset": 0,
        "slot": "306",
        "type": "t_array(t_contract(IAmm)14995)dyn_storage"
      },
      {
        "astId": 10172,
        "contract": "contracts/InsuranceFund.sol:InsuranceFund",
        "label": "quoteTokens",
        "offset": 0,
        "slot": "307",
        "type": "t_array(t_contract(IERC20)1832)dyn_storage"
      },
      {
        "astId": 10174,
        "contract": "contracts/InsuranceFund.sol:InsuranceFund",
        "label": "exchange",
        "offset": 0,
        "slot": "308",
        "type": "t_contract(IExchangeWrapper)15159"
      },
      {
        "astId": 10176,
        "contract": "contracts/InsuranceFund.sol:InsuranceFund",
        "label": "ifnxToken",
        "offset": 0,
        "slot": "309",
        "type": "t_contract(IERC20)1832"
      },
      {
        "astId": 10178,
        "contract": "contracts/InsuranceFund.sol:InsuranceFund",
        "label": "minter",
        "offset": 0,
        "slot": "310",
        "type": "t_contract(IMinter)15236"
      },
      {
        "astId": 10180,
        "contract": "contracts/InsuranceFund.sol:InsuranceFund",
        "label": "inflationMonitor",
        "offset": 0,
        "slot": "311",
        "type": "t_contract(IInflationMonitor)15185"
      },
      {
        "astId": 10182,
        "contract": "contracts/InsuranceFund.sol:InsuranceFund",
        "label": "beneficiary",
        "offset": 0,
        "slot": "312",
        "type": "t_address"
      },
      {
        "astId": 10186,
        "contract": "contracts/InsuranceFund.sol:InsuranceFund",
        "label": "__gap",
        "offset": 0,
        "slot": "313",
        "type": "t_array(t_uint256)50_storage"
      }
    ],
    "types": {
      "t_address": {
        "encoding": "inplace",
        "label": "address",
        "numberOfBytes": "20"
      },
      "t_array(t_contract(IAmm)14995)dyn_storage": {
        "base": "t_contract(IAmm)14995",
        "encoding": "dynamic_array",
        "label": "contract IAmm[]",
        "numberOfBytes": "32"
      },
      "t_array(t_contract(IERC20)1832)dyn_storage": {
        "base": "t_contract(IERC20)1832",
        "encoding": "dynamic_array",
        "label": "contract IERC20[]",
        "numberOfBytes": "32"
      },
      "t_array(t_uint256)49_storage": {
        "base": "t_uint256",
        "encoding": "inplace",
        "label": "uint256[49]",
        "numberOfBytes": "1568"
      },
      "t_array(t_uint256)50_storage": {
        "base": "t_uint256",
        "encoding": "inplace",
        "label": "uint256[50]",
        "numberOfBytes": "1600"
      },
      "t_bool": {
        "encoding": "inplace",
        "label": "bool",
        "numberOfBytes": "1"
      },
      "t_contract(IAmm)14995": {
        "encoding": "inplace",
        "label": "contract IAmm",
        "numberOfBytes": "20"
      },
      "t_contract(IERC20)1832": {
        "encoding": "inplace",
        "label": "contract IERC20",
        "numberOfBytes": "20"
      },
      "t_contract(IExchangeWrapper)15159": {
        "encoding": "inplace",
        "label": "contract IExchangeWrapper",
        "numberOfBytes": "20"
      },
      "t_contract(IInflationMonitor)15185": {
        "encoding": "inplace",
        "label": "contract IInflationMonitor",
        "numberOfBytes": "20"
      },
      "t_contract(IMinter)15236": {
        "encoding": "inplace",
        "label": "contract IMinter",
        "numberOfBytes": "20"
      },
      "t_mapping(t_address,t_bool)": {
        "encoding": "mapping",
        "key": "t_address",
        "label": "mapping(address => bool)",
        "numberOfBytes": "32",
        "value": "t_bool"
      },
      "t_mapping(t_address,t_uint256)": {
        "encoding": "mapping",
        "key": "t_address",
        "label": "mapping(address => uint256)",
        "numberOfBytes": "32",
        "value": "t_uint256"
      },
      "t_uint256": {
        "encoding": "inplace",
        "label": "uint256",
        "numberOfBytes": "32"
      }
    }
  }
}