{
  "_format": "hh-sol-artifact-1",
  "contractName": "RrpBeaconServerFake",
  "sourceName": "contracts/mock/RrpBeaconServerFake.sol",
  "abi": [
    {
      "inputs": [],
      "stateMutability": "nonpayable",
      "type": "constructor"
    },
    {
      "anonymous": false,
      "inputs": [
        {
          "indexed": true,
          "internalType": "bytes32",
          "name": "beaconId",
          "type": "bytes32"
        },
        {
          "indexed": true,
          "internalType": "address",
          "name": "reader",
          "type": "address"
        },
        {
          "indexed": true,
          "internalType": "address",
          "name": "sender",
          "type": "address"
        },
        {
          "indexed": false,
          "internalType": "uint256",
          "name": "expiration",
          "type": "uint256"
        }
      ],
      "name": "ExtendedWhitelistExpiration",
      "type": "event"
    },
    {
      "anonymous": false,
      "inputs": [
        {
          "indexed": true,
          "internalType": "bytes32",
          "name": "beaconId",
          "type": "bytes32"
        },
        {
          "indexed": true,
          "internalType": "address",
          "name": "sponsor",
          "type": "address"
        },
        {
          "indexed": true,
          "internalType": "address",
          "name": "requester",
          "type": "address"
        },
        {
          "indexed": false,
          "internalType": "bytes32",
          "name": "requestId",
          "type": "bytes32"
        },
        {
          "indexed": false,
          "internalType": "bytes32",
          "name": "templateId",
          "type": "bytes32"
        },
        {
          "indexed": false,
          "internalType": "address",
          "name": "sponsorWallet",
          "type": "address"
        },
        {
          "indexed": false,
          "internalType": "bytes",
          "name": "parameters",
          "type": "bytes"
        }
      ],
      "name": "RequestedBeaconUpdate",
      "type": "event"
    },
    {
      "anonymous": false,
      "inputs": [
        {
          "indexed": true,
          "internalType": "bytes32",
          "name": "beaconId",
          "type": "bytes32"
        },
        {
          "indexed": true,
          "internalType": "address",
          "name": "reader",
          "type": "address"
        },
        {
          "indexed": true,
          "internalType": "address",
          "name": "setter",
          "type": "address"
        },
        {
          "indexed": false,
          "internalType": "address",
          "name": "sender",
          "type": "address"
        },
        {
          "indexed": false,
          "internalType": "uint192",
          "name": "indefiniteWhitelistCount",
          "type": "uint192"
        }
      ],
      "name": "RevokedIndefiniteWhitelistStatus",
      "type": "event"
    },
    {
      "anonymous": false,
      "inputs": [
        {
          "indexed": true,
          "internalType": "bytes32",
          "name": "beaconId",
          "type": "bytes32"
        },
        {
          "indexed": true,
          "internalType": "address",
          "name": "reader",
          "type": "address"
        },
        {
          "indexed": true,
          "internalType": "address",
          "name": "sender",
          "type": "address"
        },
        {
          "indexed": false,
          "internalType": "bool",
          "name": "status",
          "type": "bool"
        },
        {
          "indexed": false,
          "internalType": "uint192",
          "name": "indefiniteWhitelistCount",
          "type": "uint192"
        }
      ],
      "name": "SetIndefiniteWhitelistStatus",
      "type": "event"
    },
    {
      "anonymous": false,
      "inputs": [
        {
          "indexed": true,
          "internalType": "address",
          "name": "sponsor",
          "type": "address"
        },
        {
          "indexed": true,
          "internalType": "address",
          "name": "updateRequester",
          "type": "address"
        },
        {
          "indexed": false,
          "internalType": "bool",
          "name": "status",
          "type": "bool"
        }
      ],
      "name": "SetUpdatePermissionStatus",
      "type": "event"
    },
    {
      "anonymous": false,
      "inputs": [
        {
          "indexed": true,
          "internalType": "bytes32",
          "name": "beaconId",
          "type": "bytes32"
        },
        {
          "indexed": true,
          "internalType": "address",
          "name": "reader",
          "type": "address"
        },
        {
          "indexed": true,
          "internalType": "address",
          "name": "sender",
          "type": "address"
        },
        {
          "indexed": false,
          "internalType": "uint256",
          "name": "expiration",
          "type": "uint256"
        }
      ],
      "name": "SetWhitelistExpiration",
      "type": "event"
    },
    {
      "anonymous": false,
      "inputs": [
        {
          "indexed": true,
          "internalType": "bytes32",
          "name": "beaconId",
          "type": "bytes32"
        },
        {
          "indexed": false,
          "internalType": "bytes32",
          "name": "requestId",
          "type": "bytes32"
        },
        {
          "indexed": false,
          "internalType": "int224",
          "name": "value",
          "type": "int224"
        },
        {
          "indexed": false,
          "internalType": "uint32",
          "name": "timestamp",
          "type": "uint32"
        }
      ],
      "name": "UpdatedBeacon",
      "type": "event"
    },
    {
      "inputs": [
        {
          "internalType": "bytes32",
          "name": "beaconId",
          "type": "bytes32"
        },
        {
          "internalType": "address",
          "name": "reader",
          "type": "address"
        },
        {
          "internalType": "address",
          "name": "setter",
          "type": "address"
        }
      ],
      "name": "beaconIdToReaderToSetterToIndefiniteWhitelistStatus",
      "outputs": [
        {
          "internalType": "bool",
          "name": "indefiniteWhitelistStatus",
          "type": "bool"
        }
      ],
      "stateMutability": "view",
      "type": "function"
    },
    {
      "inputs": [
        {
          "internalType": "bytes32",
          "name": "beaconId",
          "type": "bytes32"
        },
        {
          "internalType": "address",
          "name": "reader",
          "type": "address"
        }
      ],
      "name": "beaconIdToReaderToWhitelistStatus",
      "outputs": [
        {
          "internalType": "uint64",
          "name": "expirationTimestamp",
          "type": "uint64"
        },
        {
          "internalType": "uint192",
          "name": "indefiniteWhitelistCount",
          "type": "uint192"
        }
      ],
      "stateMutability": "view",
      "type": "function"
    },
    {
      "inputs": [
        {
          "internalType": "bytes32",
          "name": "templateId",
          "type": "bytes32"
        },
        {
          "internalType": "bytes",
          "name": "parameters",
          "type": "bytes"
        }
      ],
      "name": "deriveBeaconId",
      "outputs": [
        {
          "internalType": "bytes32",
          "name": "beaconId",
          "type": "bytes32"
        }
      ],
      "stateMutability": "pure",
      "type": "function"
    },
    {
      "inputs": [
        {
          "internalType": "bytes32",
          "name": "beaconId",
          "type": "bytes32"
        },
        {
          "internalType": "address",
          "name": "reader",
          "type": "address"
        },
        {
          "internalType": "uint64",
          "name": "expirationTimestamp",
          "type": "uint64"
        }
      ],
      "name": "extendWhitelistExpiration",
      "outputs": [],
      "stateMutability": "nonpayable",
      "type": "function"
    },
    {
      "inputs": [
        {
          "internalType": "bytes32",
          "name": "requestId",
          "type": "bytes32"
        },
        {
          "internalType": "bytes",
          "name": "data",
          "type": "bytes"
        }
      ],
      "name": "fulfill",
      "outputs": [],
      "stateMutability": "nonpayable",
      "type": "function"
    },
    {
      "inputs": [
        {
          "internalType": "int224",
          "name": "_value",
          "type": "int224"
        },
        {
          "internalType": "uint32",
          "name": "_timestamp",
          "type": "uint32"
        }
      ],
      "name": "mockSetValueAndTimestamp",
      "outputs": [],
      "stateMutability": "nonpayable",
      "type": "function"
    },
    {
      "inputs": [
        {
          "internalType": "bytes32",
          "name": "beaconId",
          "type": "bytes32"
        }
      ],
      "name": "readBeacon",
      "outputs": [
        {
          "internalType": "int224",
          "name": "",
          "type": "int224"
        },
        {
          "internalType": "uint32",
          "name": "",
          "type": "uint32"
        }
      ],
      "stateMutability": "view",
      "type": "function"
    },
    {
      "inputs": [
        {
          "internalType": "bytes32",
          "name": "beaconId",
          "type": "bytes32"
        },
        {
          "internalType": "address",
          "name": "reader",
          "type": "address"
        }
      ],
      "name": "readerCanReadBeacon",
      "outputs": [
        {
          "internalType": "bool",
          "name": "",
          "type": "bool"
        }
      ],
      "stateMutability": "view",
      "type": "function"
    },
    {
      "inputs": [
        {
          "internalType": "bytes32",
          "name": "beaconId",
          "type": "bytes32"
        },
        {
          "internalType": "address",
          "name": "requester",
          "type": "address"
        },
        {
          "internalType": "address",
          "name": "designatedWallet",
          "type": "address"
        },
        {
          "internalType": "bytes",
          "name": "parameters",
          "type": "bytes"
        }
      ],
      "name": "requestBeaconUpdate",
      "outputs": [],
      "stateMutability": "nonpayable",
      "type": "function"
    },
    {
      "inputs": [
        {
          "internalType": "bytes32",
          "name": "beaconId",
          "type": "bytes32"
        },
        {
          "internalType": "address",
          "name": "reader",
          "type": "address"
        },
        {
          "internalType": "address",
          "name": "setter",
          "type": "address"
        }
      ],
      "name": "revokeIndefiniteWhitelistStatus",
      "outputs": [],
      "stateMutability": "nonpayable",
      "type": "function"
    },
    {
      "inputs": [
        {
          "internalType": "bytes32",
          "name": "beaconId",
          "type": "bytes32"
        },
        {
          "internalType": "address",
          "name": "reader",
          "type": "address"
        },
        {
          "internalType": "bool",
          "name": "status",
          "type": "bool"
        }
      ],
      "name": "setIndefiniteWhitelistStatus",
      "outputs": [],
      "stateMutability": "nonpayable",
      "type": "function"
    },
    {
      "inputs": [
        {
          "internalType": "address",
          "name": "updateRequester",
          "type": "address"
        },
        {
          "internalType": "bool",
          "name": "status",
          "type": "bool"
        }
      ],
      "name": "setUpdatePermissionStatus",
      "outputs": [],
      "stateMutability": "nonpayable",
      "type": "function"
    },
    {
      "inputs": [
        {
          "internalType": "bytes32",
          "name": "beaconId",
          "type": "bytes32"
        },
        {
          "internalType": "address",
          "name": "reader",
          "type": "address"
        },
        {
          "internalType": "uint64",
          "name": "expirationTimestamp",
          "type": "uint64"
        }
      ],
      "name": "setWhitelistExpiration",
      "outputs": [],
      "stateMutability": "nonpayable",
      "type": "function"
    },
    {
      "inputs": [
        {
          "internalType": "address",
          "name": "sponsor",
          "type": "address"
        },
        {
          "internalType": "address",
          "name": "updateRequester",
          "type": "address"
        }
      ],
      "name": "sponsorToUpdateRequesterToPermissionStatus",
      "outputs": [
        {
          "internalType": "bool",
          "name": "permissionStatus",
          "type": "bool"
        }
      ],
      "stateMutability": "view",
      "type": "function"
    },
    {
      "inputs": [],
      "name": "timestamp",
      "outputs": [
        {
          "internalType": "uint32",
          "name": "",
          "type": "uint32"
        }
      ],
      "stateMutability": "view",
      "type": "function"
    },
    {
      "inputs": [],
      "name": "value",
      "outputs": [
        {
          "internalType": "int224",
          "name": "",
          "type": "int224"
        }
      ],
      "stateMutability": "view",
      "type": "function"
    }
  ],
  "bytecode": "0x608060405234801561001057600080fd5b50610674806100206000396000f3fe608060405234801561001057600080fd5b50600436106101005760003560e01c806378e7e76b11610097578063b80777ea11610066578063b80777ea146101fd578063d12dfadb14610212578063dee010f01461022d578063e7f144311461024057610100565b806378e7e76b146101c95780637c1de7e1146101dc57806388961a69146101ea578063a6b1b9a21461012e57610100565b80633a13dc0e116100d35780633a13dc0e146101725780633fa4f2451461019357806353bab851146101a8578063776bcbd2146101bb57610100565b806312e9e07e146101055780631d36cf5c1461012e5780631de7e45b146101435780633376e7c214610164575b600080fd5b6101186101133660046103db565b610253565b60405161012591906105b7565b60405180910390f35b61014161013c3660046104f1565b61025c565b005b6101566101513660046103c3565b610261565b6040516101259291906105d9565b61014161013c3660046104ad565b6101856101803660046103db565b61027c565b604051610125929190610603565b61019b610285565b60405161012591906105cb565b6101416101b636600461057d565b61028e565b61014161013c3660046103ff565b6101186101d73660046103ff565b6102c7565b61014161013c366004610533565b6101186101f8366004610354565b6102d0565b6102056102d8565b60405161012591906105f2565b6102206101d7366004610533565b60405161012591906105c2565b61014161023b36600461043c565b6102eb565b61014161024e366004610388565b6102f2565b60015b92915050565b505050565b50600054601b81900b91600160e01b90910463ffffffff1690565b50600091829150565b600054601b0b81565b600080546001600160e01b0319166001600160e01b03601b9490940b841617909216600160e01b63ffffffff9290921691909102179055565b60009392505050565b600092915050565b600054600160e01b900463ffffffff1681565b5050505050565b5050565b80356001600160a01b038116811461025657600080fd5b60008083601f84011261031e578182fd5b50813567ffffffffffffffff811115610335578182fd5b60208301915083602082850101111561034d57600080fd5b9250929050565b60008060408385031215610366578182fd5b61037084846102f6565b915061037f84602085016102f6565b90509250929050565b6000806040838503121561039a578182fd5b6103a484846102f6565b9150602083013580151581146103b8578182fd5b809150509250929050565b6000602082840312156103d4578081fd5b5035919050565b600080604083850312156103ed578182fd5b8235915060208301356103b881610626565b600080600060608486031215610413578081fd5b8335925061042485602086016102f6565b915061043385604086016102f6565b90509250925092565b600080600080600060808688031215610453578081fd5b85359450602086013561046581610626565b9350604086013561047581610626565b9250606086013567ffffffffffffffff811115610490578182fd5b61049c8882890161030d565b969995985093965092949392505050565b6000806000606084860312156104c1578283fd5b833592506104d285602086016102f6565b9150604084013580151581146104e6578182fd5b809150509250925092565b600080600060608486031215610505578283fd5b83359250602084013561051781610626565b9150604084013567ffffffffffffffff811681146104e6578182fd5b600080600060408486031215610547578283fd5b83359250602084013567ffffffffffffffff811115610564578283fd5b6105708682870161030d565b9497909650939450505050565b6000806040838503121561058f578182fd5b823580601b0b811461059f578283fd5b9150602083013563ffffffff811681146103b8578182fd5b901515815260200190565b90815260200190565b601b9190910b815260200190565b601b9290920b825263ffffffff16602082015260400190565b63ffffffff91909116815260200190565b67ffffffffffffffff9290921682526001600160c01b0316602082015260400190565b6001600160a01b038116811461063b57600080fd5b5056fea2646970667358221220f44a9c6033ef8d937843a082fe12bffd458416b21bf41b1948930a156384e27064736f6c63430006090033",
  "linkReferences": {},
  "deployedLinkReferences": {}
}