{
  "_format": "hh-sol-artifact-1",
  "contractName": "ClearingHouse",
  "sourceName": "contracts/ClearingHouse.sol",
  "abi": [
    {
      "anonymous": false,
      "inputs": [
        {
          "indexed": true,
          "internalType": "address",
          "name": "account",
          "type": "address"
        },
        {
          "indexed": true,
          "internalType": "bool",
          "name": "isProvider",
          "type": "bool"
        }
      ],
      "name": "BackstopLiquidityProviderChanged",
      "type": "event"
    },
    {
      "anonymous": false,
      "inputs": [
        {
          "indexed": false,
          "internalType": "uint256",
          "name": "liquidationFeeRatio",
          "type": "uint256"
        }
      ],
      "name": "LiquidationFeeRatioChanged",
      "type": "event"
    },
    {
      "anonymous": false,
      "inputs": [
        {
          "indexed": true,
          "internalType": "address",
          "name": "sender",
          "type": "address"
        },
        {
          "indexed": true,
          "internalType": "address",
          "name": "amm",
          "type": "address"
        },
        {
          "indexed": false,
          "internalType": "int256",
          "name": "amount",
          "type": "int256"
        },
        {
          "indexed": false,
          "internalType": "int256",
          "name": "fundingPayment",
          "type": "int256"
        }
      ],
      "name": "MarginChanged",
      "type": "event"
    },
    {
      "anonymous": false,
      "inputs": [
        {
          "indexed": false,
          "internalType": "uint256",
          "name": "marginRatio",
          "type": "uint256"
        }
      ],
      "name": "MarginRatioChanged",
      "type": "event"
    },
    {
      "anonymous": false,
      "inputs": [
        {
          "indexed": true,
          "internalType": "address",
          "name": "previousOwner",
          "type": "address"
        },
        {
          "indexed": true,
          "internalType": "address",
          "name": "newOwner",
          "type": "address"
        }
      ],
      "name": "OwnershipTransferred",
      "type": "event"
    },
    {
      "anonymous": false,
      "inputs": [
        {
          "indexed": false,
          "internalType": "address",
          "name": "account",
          "type": "address"
        }
      ],
      "name": "Paused",
      "type": "event"
    },
    {
      "anonymous": false,
      "inputs": [
        {
          "indexed": true,
          "internalType": "address",
          "name": "amm",
          "type": "address"
        },
        {
          "indexed": true,
          "internalType": "address",
          "name": "trader",
          "type": "address"
        },
        {
          "indexed": false,
          "internalType": "int256",
          "name": "newPositionSize",
          "type": "int256"
        },
        {
          "indexed": false,
          "internalType": "uint256",
          "name": "oldLiquidityIndex",
          "type": "uint256"
        },
        {
          "indexed": false,
          "internalType": "uint256",
          "name": "newLiquidityIndex",
          "type": "uint256"
        }
      ],
      "name": "PositionAdjusted",
      "type": "event"
    },
    {
      "anonymous": false,
      "inputs": [
        {
          "indexed": true,
          "internalType": "address",
          "name": "trader",
          "type": "address"
        },
        {
          "indexed": true,
          "internalType": "address",
          "name": "amm",
          "type": "address"
        },
        {
          "indexed": false,
          "internalType": "uint256",
          "name": "margin",
          "type": "uint256"
        },
        {
          "indexed": false,
          "internalType": "uint256",
          "name": "positionNotional",
          "type": "uint256"
        },
        {
          "indexed": false,
          "internalType": "int256",
          "name": "exchangedPositionSize",
          "type": "int256"
        },
        {
          "indexed": false,
          "internalType": "uint256",
          "name": "fee",
          "type": "uint256"
        },
        {
          "indexed": false,
          "internalType": "int256",
          "name": "positionSizeAfter",
          "type": "int256"
        },
        {
          "indexed": false,
          "internalType": "int256",
          "name": "realizedPnl",
          "type": "int256"
        },
        {
          "indexed": false,
          "internalType": "int256",
          "name": "unrealizedPnlAfter",
          "type": "int256"
        },
        {
          "indexed": false,
          "internalType": "uint256",
          "name": "badDebt",
          "type": "uint256"
        },
        {
          "indexed": false,
          "internalType": "uint256",
          "name": "liquidationPenalty",
          "type": "uint256"
        },
        {
          "indexed": false,
          "internalType": "uint256",
          "name": "spotPrice",
          "type": "uint256"
        },
        {
          "indexed": false,
          "internalType": "int256",
          "name": "fundingPayment",
          "type": "int256"
        }
      ],
      "name": "PositionChanged",
      "type": "event"
    },
    {
      "anonymous": false,
      "inputs": [
        {
          "indexed": true,
          "internalType": "address",
          "name": "trader",
          "type": "address"
        },
        {
          "indexed": true,
          "internalType": "address",
          "name": "amm",
          "type": "address"
        },
        {
          "indexed": false,
          "internalType": "uint256",
          "name": "positionNotional",
          "type": "uint256"
        },
        {
          "indexed": false,
          "internalType": "uint256",
          "name": "positionSize",
          "type": "uint256"
        },
        {
          "indexed": false,
          "internalType": "uint256",
          "name": "liquidationFee",
          "type": "uint256"
        },
        {
          "indexed": false,
          "internalType": "address",
          "name": "liquidator",
          "type": "address"
        },
        {
          "indexed": false,
          "internalType": "uint256",
          "name": "badDebt",
          "type": "uint256"
        }
      ],
      "name": "PositionLiquidated",
      "type": "event"
    },
    {
      "anonymous": false,
      "inputs": [
        {
          "indexed": true,
          "internalType": "address",
          "name": "amm",
          "type": "address"
        },
        {
          "indexed": true,
          "internalType": "address",
          "name": "trader",
          "type": "address"
        },
        {
          "indexed": false,
          "internalType": "uint256",
          "name": "valueTransferred",
          "type": "uint256"
        }
      ],
      "name": "PositionSettled",
      "type": "event"
    },
    {
      "anonymous": false,
      "inputs": [
        {
          "indexed": true,
          "internalType": "bytes32",
          "name": "referralCode",
          "type": "bytes32"
        }
      ],
      "name": "ReferredPositionChanged",
      "type": "event"
    },
    {
      "anonymous": false,
      "inputs": [
        {
          "indexed": false,
          "internalType": "address",
          "name": "amm",
          "type": "address"
        },
        {
          "indexed": false,
          "internalType": "uint256",
          "name": "blockNumber",
          "type": "uint256"
        }
      ],
      "name": "RestrictionModeEntered",
      "type": "event"
    },
    {
      "anonymous": false,
      "inputs": [
        {
          "indexed": false,
          "internalType": "address",
          "name": "account",
          "type": "address"
        }
      ],
      "name": "Unpaused",
      "type": "event"
    },
    {
      "inputs": [
        {
          "internalType": "contract IAmm",
          "name": "_amm",
          "type": "address"
        },
        {
          "components": [
            {
              "internalType": "uint256",
              "name": "d",
              "type": "uint256"
            }
          ],
          "internalType": "struct Decimal.decimal",
          "name": "_addedMargin",
          "type": "tuple"
        }
      ],
      "name": "addMargin",
      "outputs": [],
      "stateMutability": "nonpayable",
      "type": "function"
    },
    {
      "inputs": [
        {
          "internalType": "address",
          "name": "",
          "type": "address"
        }
      ],
      "name": "backstopLiquidityProviderMap",
      "outputs": [
        {
          "internalType": "bool",
          "name": "",
          "type": "bool"
        }
      ],
      "stateMutability": "view",
      "type": "function"
    },
    {
      "inputs": [],
      "name": "candidate",
      "outputs": [
        {
          "internalType": "address",
          "name": "",
          "type": "address"
        }
      ],
      "stateMutability": "view",
      "type": "function"
    },
    {
      "inputs": [
        {
          "internalType": "contract IAmm",
          "name": "_amm",
          "type": "address"
        },
        {
          "components": [
            {
              "internalType": "uint256",
              "name": "d",
              "type": "uint256"
            }
          ],
          "internalType": "struct Decimal.decimal",
          "name": "_quoteAssetAmountLimit",
          "type": "tuple"
        }
      ],
      "name": "closePosition",
      "outputs": [],
      "stateMutability": "nonpayable",
      "type": "function"
    },
    {
      "inputs": [
        {
          "internalType": "contract IAmm",
          "name": "_amm",
          "type": "address"
        },
        {
          "components": [
            {
              "internalType": "uint256",
              "name": "d",
              "type": "uint256"
            }
          ],
          "internalType": "struct Decimal.decimal",
          "name": "_quoteAssetAmountLimit",
          "type": "tuple"
        },
        {
          "internalType": "bytes32",
          "name": "_referralCode",
          "type": "bytes32"
        }
      ],
      "name": "closePositionWithReferral",
      "outputs": [],
      "stateMutability": "nonpayable",
      "type": "function"
    },
    {
      "inputs": [],
      "name": "feePool",
      "outputs": [
        {
          "internalType": "contract IMultiTokenRewardRecipient",
          "name": "",
          "type": "address"
        }
      ],
      "stateMutability": "view",
      "type": "function"
    },
    {
      "inputs": [
        {
          "internalType": "contract IAmm",
          "name": "_amm",
          "type": "address"
        }
      ],
      "name": "getLatestCumulativePremiumFraction",
      "outputs": [
        {
          "components": [
            {
              "internalType": "int256",
              "name": "d",
              "type": "int256"
            }
          ],
          "internalType": "struct SignedDecimal.signedDecimal",
          "name": "",
          "type": "tuple"
        }
      ],
      "stateMutability": "view",
      "type": "function"
    },
    {
      "inputs": [
        {
          "internalType": "contract IAmm",
          "name": "_amm",
          "type": "address"
        },
        {
          "internalType": "address",
          "name": "_trader",
          "type": "address"
        }
      ],
      "name": "getMarginRatio",
      "outputs": [
        {
          "components": [
            {
              "internalType": "int256",
              "name": "d",
              "type": "int256"
            }
          ],
          "internalType": "struct SignedDecimal.signedDecimal",
          "name": "",
          "type": "tuple"
        }
      ],
      "stateMutability": "view",
      "type": "function"
    },
    {
      "inputs": [
        {
          "internalType": "contract IAmm",
          "name": "_amm",
          "type": "address"
        },
        {
          "internalType": "address",
          "name": "_trader",
          "type": "address"
        }
      ],
      "name": "getPosition",
      "outputs": [
        {
          "components": [
            {
              "components": [
                {
                  "internalType": "int256",
                  "name": "d",
                  "type": "int256"
                }
              ],
              "internalType": "struct SignedDecimal.signedDecimal",
              "name": "size",
              "type": "tuple"
            },
            {
              "components": [
                {
                  "internalType": "uint256",
                  "name": "d",
                  "type": "uint256"
                }
              ],
              "internalType": "struct Decimal.decimal",
              "name": "margin",
              "type": "tuple"
            },
            {
              "components": [
                {
                  "internalType": "uint256",
                  "name": "d",
                  "type": "uint256"
                }
              ],
              "internalType": "struct Decimal.decimal",
              "name": "openNotional",
              "type": "tuple"
            },
            {
              "components": [
                {
                  "internalType": "int256",
                  "name": "d",
                  "type": "int256"
                }
              ],
              "internalType": "struct SignedDecimal.signedDecimal",
              "name": "lastUpdatedCumulativePremiumFraction",
              "type": "tuple"
            },
            {
              "internalType": "uint256",
              "name": "liquidityHistoryIndex",
              "type": "uint256"
            },
            {
              "internalType": "uint256",
              "name": "blockNumber",
              "type": "uint256"
            }
          ],
          "internalType": "struct ClearingHouse.Position",
          "name": "",
          "type": "tuple"
        }
      ],
      "stateMutability": "view",
      "type": "function"
    },
    {
      "inputs": [
        {
          "internalType": "contract IAmm",
          "name": "_amm",
          "type": "address"
        },
        {
          "internalType": "address",
          "name": "_trader",
          "type": "address"
        },
        {
          "internalType": "enum ClearingHouse.PnlCalcOption",
          "name": "_pnlCalcOption",
          "type": "uint8"
        }
      ],
      "name": "getPositionNotionalAndUnrealizedPnl",
      "outputs": [
        {
          "components": [
            {
              "internalType": "uint256",
              "name": "d",
              "type": "uint256"
            }
          ],
          "internalType": "struct Decimal.decimal",
          "name": "positionNotional",
          "type": "tuple"
        },
        {
          "components": [
            {
              "internalType": "int256",
              "name": "d",
              "type": "int256"
            }
          ],
          "internalType": "struct SignedDecimal.signedDecimal",
          "name": "unrealizedPnl",
          "type": "tuple"
        }
      ],
      "stateMutability": "view",
      "type": "function"
    },
    {
      "inputs": [
        {
          "internalType": "contract IAmm",
          "name": "_amm",
          "type": "address"
        },
        {
          "internalType": "address",
          "name": "_trader",
          "type": "address"
        }
      ],
      "name": "getUnadjustedPosition",
      "outputs": [
        {
          "components": [
            {
              "components": [
                {
                  "internalType": "int256",
                  "name": "d",
                  "type": "int256"
                }
              ],
              "internalType": "struct SignedDecimal.signedDecimal",
              "name": "size",
              "type": "tuple"
            },
            {
              "components": [
                {
                  "internalType": "uint256",
                  "name": "d",
                  "type": "uint256"
                }
              ],
              "internalType": "struct Decimal.decimal",
              "name": "margin",
              "type": "tuple"
            },
            {
              "components": [
                {
                  "internalType": "uint256",
                  "name": "d",
                  "type": "uint256"
                }
              ],
              "internalType": "struct Decimal.decimal",
              "name": "openNotional",
              "type": "tuple"
            },
            {
              "components": [
                {
                  "internalType": "int256",
                  "name": "d",
                  "type": "int256"
                }
              ],
              "internalType": "struct SignedDecimal.signedDecimal",
              "name": "lastUpdatedCumulativePremiumFraction",
              "type": "tuple"
            },
            {
              "internalType": "uint256",
              "name": "liquidityHistoryIndex",
              "type": "uint256"
            },
            {
              "internalType": "uint256",
              "name": "blockNumber",
              "type": "uint256"
            }
          ],
          "internalType": "struct ClearingHouse.Position",
          "name": "position",
          "type": "tuple"
        }
      ],
      "stateMutability": "view",
      "type": "function"
    },
    {
      "inputs": [],
      "name": "initMarginRatio",
      "outputs": [
        {
          "internalType": "uint256",
          "name": "d",
          "type": "uint256"
        }
      ],
      "stateMutability": "view",
      "type": "function"
    },
    {
      "inputs": [],
      "name": "insuranceFund",
      "outputs": [
        {
          "internalType": "contract IInsuranceFund",
          "name": "",
          "type": "address"
        }
      ],
      "stateMutability": "view",
      "type": "function"
    },
    {
      "inputs": [
        {
          "internalType": "address",
          "name": "forwarder",
          "type": "address"
        }
      ],
      "name": "isTrustedForwarder",
      "outputs": [
        {
          "internalType": "bool",
          "name": "",
          "type": "bool"
        }
      ],
      "stateMutability": "view",
      "type": "function"
    },
    {
      "inputs": [
        {
          "internalType": "contract IAmm",
          "name": "_amm",
          "type": "address"
        },
        {
          "internalType": "address",
          "name": "_trader",
          "type": "address"
        }
      ],
      "name": "liquidate",
      "outputs": [],
      "stateMutability": "nonpayable",
      "type": "function"
    },
    {
      "inputs": [
        {
          "internalType": "contract IAmm",
          "name": "_amm",
          "type": "address"
        },
        {
          "internalType": "address",
          "name": "_trader",
          "type": "address"
        },
        {
          "components": [
            {
              "internalType": "uint256",
              "name": "d",
              "type": "uint256"
            }
          ],
          "internalType": "struct Decimal.decimal",
          "name": "_quoteAssetAmountLimit",
          "type": "tuple"
        }
      ],
      "name": "liquidateWithSlippage",
      "outputs": [
        {
          "components": [
            {
              "internalType": "uint256",
              "name": "d",
              "type": "uint256"
            }
          ],
          "internalType": "struct Decimal.decimal",
          "name": "quoteAssetAmount",
          "type": "tuple"
        },
        {
          "internalType": "bool",
          "name": "isPartialClose",
          "type": "bool"
        }
      ],
      "stateMutability": "nonpayable",
      "type": "function"
    },
    {
      "inputs": [],
      "name": "liquidationFeeRatio",
      "outputs": [
        {
          "internalType": "uint256",
          "name": "d",
          "type": "uint256"
        }
      ],
      "stateMutability": "view",
      "type": "function"
    },
    {
      "inputs": [],
      "name": "maintenanceMarginRatio",
      "outputs": [
        {
          "internalType": "uint256",
          "name": "d",
          "type": "uint256"
        }
      ],
      "stateMutability": "view",
      "type": "function"
    },
    {
      "inputs": [
        {
          "internalType": "address",
          "name": "",
          "type": "address"
        }
      ],
      "name": "openInterestNotionalMap",
      "outputs": [
        {
          "internalType": "uint256",
          "name": "d",
          "type": "uint256"
        }
      ],
      "stateMutability": "view",
      "type": "function"
    },
    {
      "inputs": [
        {
          "internalType": "contract IAmm",
          "name": "_amm",
          "type": "address"
        },
        {
          "internalType": "enum ClearingHouse.Side",
          "name": "_side",
          "type": "uint8"
        },
        {
          "components": [
            {
              "internalType": "uint256",
              "name": "d",
              "type": "uint256"
            }
          ],
          "internalType": "struct Decimal.decimal",
          "name": "_quoteAssetAmount",
          "type": "tuple"
        },
        {
          "components": [
            {
              "internalType": "uint256",
              "name": "d",
              "type": "uint256"
            }
          ],
          "internalType": "struct Decimal.decimal",
          "name": "_leverage",
          "type": "tuple"
        },
        {
          "components": [
            {
              "internalType": "uint256",
              "name": "d",
              "type": "uint256"
            }
          ],
          "internalType": "struct Decimal.decimal",
          "name": "_baseAssetAmountLimit",
          "type": "tuple"
        }
      ],
      "name": "openPosition",
      "outputs": [],
      "stateMutability": "nonpayable",
      "type": "function"
    },
    {
      "inputs": [
        {
          "internalType": "contract IAmm",
          "name": "_amm",
          "type": "address"
        },
        {
          "internalType": "enum ClearingHouse.Side",
          "name": "_side",
          "type": "uint8"
        },
        {
          "components": [
            {
              "internalType": "uint256",
              "name": "d",
              "type": "uint256"
            }
          ],
          "internalType": "struct Decimal.decimal",
          "name": "_quoteAssetAmount",
          "type": "tuple"
        },
        {
          "components": [
            {
              "internalType": "uint256",
              "name": "d",
              "type": "uint256"
            }
          ],
          "internalType": "struct Decimal.decimal",
          "name": "_leverage",
          "type": "tuple"
        },
        {
          "components": [
            {
              "internalType": "uint256",
              "name": "d",
              "type": "uint256"
            }
          ],
          "internalType": "struct Decimal.decimal",
          "name": "_baseAssetAmountLimit",
          "type": "tuple"
        },
        {
          "internalType": "bytes32",
          "name": "_referralCode",
          "type": "bytes32"
        }
      ],
      "name": "openPositionWithReferral",
      "outputs": [],
      "stateMutability": "nonpayable",
      "type": "function"
    },
    {
      "inputs": [],
      "name": "owner",
      "outputs": [
        {
          "internalType": "address",
          "name": "",
          "type": "address"
        }
      ],
      "stateMutability": "view",
      "type": "function"
    },
    {
      "inputs": [],
      "name": "partialLiquidationRatio",
      "outputs": [
        {
          "internalType": "uint256",
          "name": "d",
          "type": "uint256"
        }
      ],
      "stateMutability": "view",
      "type": "function"
    },
    {
      "inputs": [],
      "name": "pause",
      "outputs": [],
      "stateMutability": "nonpayable",
      "type": "function"
    },
    {
      "inputs": [],
      "name": "paused",
      "outputs": [
        {
          "internalType": "bool",
          "name": "",
          "type": "bool"
        }
      ],
      "stateMutability": "view",
      "type": "function"
    },
    {
      "inputs": [
        {
          "internalType": "contract IAmm",
          "name": "_amm",
          "type": "address"
        }
      ],
      "name": "payFunding",
      "outputs": [],
      "stateMutability": "nonpayable",
      "type": "function"
    },
    {
      "inputs": [
        {
          "internalType": "contract IAmm",
          "name": "_amm",
          "type": "address"
        },
        {
          "components": [
            {
              "internalType": "uint256",
              "name": "d",
              "type": "uint256"
            }
          ],
          "internalType": "struct Decimal.decimal",
          "name": "_removedMargin",
          "type": "tuple"
        }
      ],
      "name": "removeMargin",
      "outputs": [],
      "stateMutability": "nonpayable",
      "type": "function"
    },
    {
      "inputs": [],
      "name": "renounceOwnership",
      "outputs": [],
      "stateMutability": "nonpayable",
      "type": "function"
    },
    {
      "inputs": [
        {
          "internalType": "address",
          "name": "account",
          "type": "address"
        },
        {
          "internalType": "bool",
          "name": "isProvider",
          "type": "bool"
        }
      ],
      "name": "setBackstopLiquidityProvider",
      "outputs": [],
      "stateMutability": "nonpayable",
      "type": "function"
    },
    {
      "inputs": [
        {
          "components": [
            {
              "internalType": "uint256",
              "name": "d",
              "type": "uint256"
            }
          ],
          "internalType": "struct Decimal.decimal",
          "name": "_liquidationFeeRatio",
          "type": "tuple"
        }
      ],
      "name": "setLiquidationFeeRatio",
      "outputs": [],
      "stateMutability": "nonpayable",
      "type": "function"
    },
    {
      "inputs": [
        {
          "components": [
            {
              "internalType": "uint256",
              "name": "d",
              "type": "uint256"
            }
          ],
          "internalType": "struct Decimal.decimal",
          "name": "_maintenanceMarginRatio",
          "type": "tuple"
        }
      ],
      "name": "setMaintenanceMarginRatio",
      "outputs": [],
      "stateMutability": "nonpayable",
      "type": "function"
    },
    {
      "inputs": [
        {
          "internalType": "address",
          "name": "newOwner",
          "type": "address"
        }
      ],
      "name": "setOwner",
      "outputs": [],
      "stateMutability": "nonpayable",
      "type": "function"
    },
    {
      "inputs": [
        {
          "components": [
            {
              "internalType": "uint256",
              "name": "d",
              "type": "uint256"
            }
          ],
          "internalType": "struct Decimal.decimal",
          "name": "_ratio",
          "type": "tuple"
        }
      ],
      "name": "setPartialLiquidationRatio",
      "outputs": [],
      "stateMutability": "nonpayable",
      "type": "function"
    },
    {
      "inputs": [
        {
          "internalType": "address",
          "name": "_feePool",
          "type": "address"
        }
      ],
      "name": "setTollPool",
      "outputs": [],
      "stateMutability": "nonpayable",
      "type": "function"
    },
    {
      "inputs": [
        {
          "internalType": "address",
          "name": "_whitelist",
          "type": "address"
        }
      ],
      "name": "setWhitelist",
      "outputs": [],
      "stateMutability": "nonpayable",
      "type": "function"
    },
    {
      "inputs": [
        {
          "internalType": "contract IAmm",
          "name": "_amm",
          "type": "address"
        }
      ],
      "name": "settlePosition",
      "outputs": [],
      "stateMutability": "nonpayable",
      "type": "function"
    },
    {
      "inputs": [],
      "name": "trustedForwarder",
      "outputs": [
        {
          "internalType": "address",
          "name": "",
          "type": "address"
        }
      ],
      "stateMutability": "view",
      "type": "function"
    },
    {
      "inputs": [],
      "name": "unpause",
      "outputs": [],
      "stateMutability": "nonpayable",
      "type": "function"
    },
    {
      "inputs": [],
      "name": "updateOwner",
      "outputs": [],
      "stateMutability": "nonpayable",
      "type": "function"
    },
    {
      "inputs": [],
      "name": "versionRecipient",
      "outputs": [
        {
          "internalType": "string",
          "name": "",
          "type": "string"
        }
      ],
      "stateMutability": "view",
      "type": "function"
    }
  ],
  "bytecode": "0x608060405234801561001057600080fd5b50615da480620000216000396000f3fe608060405234801561001057600080fd5b50600436106102485760003560e01c806383acb48a1161013b578063ac06a96e116100b8578063bc5920ba1161007c578063bc5920ba146104c4578063cfe71103146104cc578063e57d5636146104d4578063e9a4019b146104dc578063ea0a45f9146104ef57610248565b8063ac06a96e1461048e578063ae2e933b146104a1578063b0ac5f2f146104a9578063b33dc1901461024d578063b7902303146104bc57610248565b8063893d242d116100ff578063893d242d1461042c5780638bedf3bb1461043f5780638da5cb5b1461046057806390cf78e414610468578063a8c1b0bc1461047b57610248565b806383acb48a146103e35780638456cb59146103eb578063854cff2f146103f3578063862c04e31461040657806386b9d81f1461041957610248565b8063486ff0cd116101c95780636c1274461161018d5780636c127446146103985780636c8381f8146103ab578063715018a6146103c05780637b25e922146103c85780637da0a877146103db57610248565b8063486ff0cd146103285780635559c7751461033d578063572b6c05146103505780635c975abb146103705780636891397b1461037857610248565b806330e2ae651161021057806330e2ae65146102d457806336405257146102e75780633e09fa10146102fa5780633e8107141461030d5780633f4ba83a1461032057610248565b80630475db5a1461024d578063090f05c21461027657806313af40351461028b578063203b3788146102a057806329c44f13146102b3575b600080fd5b61026061025b366004614f01565b610502565b60405161026d9190615bc4565b60405180910390f35b61027e61059e565b60405161026d9190615c37565b61029e610299366004614e91565b6105a5565b005b61029e6102ae366004615159565b610687565b6102c66102c1366004614f7b565b610715565b60405161026d929190615c16565b61029e6102e236600461509e565b610876565b61029e6102f5366004614e91565b610af6565b61029e610308366004614e91565b610d7c565b61029e61031b3660046150d3565b610ff5565b61029e61100d565b61033061104c565b60405161026d91906152da565b61029e61034b366004614fc2565b6110db565b61036361035e366004614e91565b611115565b60405161026d919061523f565b61036361112d565b61038b610386366004614e91565b611137565b60405161026d9190615c0c565b61029e6103a6366004615159565b6111b5565b6103b361122b565b60405161026d91906151ee565b61029e61123a565b61029e6103d6366004614e91565b6112b9565b6103b3611311565b61027e611321565b61029e611328565b61029e610401366004614e91565b611365565b61029e610414366004615159565b6113bd565b61029e610427366004614f01565b611434565b61029e61043a366004615034565b611480565b61045261044d366004614f2e565b6118a1565b60405161026d929190615c27565b6103b3611ab3565b61029e610476366004614ead565b611ac2565b61029e610489366004615111565b611b4c565b61029e61049c36600461509e565b611fc8565b6103b3612165565b61027e6104b7366004614e91565b612175565b6103b361218e565b61029e61219e565b61027e612261565b61027e612268565b6103636104ea366004614e91565b61226f565b61038b6104fd366004614f01565b612285565b61050a614d52565b506001600160a01b03918216600090815261019a602090815260408083209390941682526002928301815290839020835160e081018552815460c082019081528152845180840186526001830154815281840152845180840186529382015484528085019390935283519182019093526003830154815260608201526004820154608082015260059091015460a082015290565b6101d15481565b6105ad6122e4565b6098546001600160a01b039081169116146105e35760405162461bcd60e51b81526004016105da90615ac5565b60405180910390fd5b6001600160a01b0381166106095760405162461bcd60e51b81526004016105da9061587d565b6098546001600160a01b03828116911614156106375760405162461bcd60e51b81526004016105da90615b7e565b6099546001600160a01b03828116911614156106655760405162461bcd60e51b81526004016105da906154fb565b609980546001600160a01b0319166001600160a01b0392909216919091179055565b61068f6122e4565b6098546001600160a01b039081169116146106bc5760405162461bcd60e51b81526004016105da90615ac5565b805161019881905560408051602081019091529081527f6f825f18b787836f7cf974799b160538ab237aa0d14af3611fa69683a40c6d22906106fd906122f3565b60405161070a9190615c37565b60405180910390a150565b61071d614da0565b6101305460009060ff166107435760405162461bcd60e51b81526004016105da90615b47565b610130805460ff19169055610756614d52565b6107608686610502565b905061076c86866122f7565b9093509150610779614da0565b8261078457846107a6565b60408051602081019091526101d15481526107a690869063ffffffff6129bd16565b905060006107b783600001516122f3565b13156107f2576107c6816122f3565b6107cf856122f3565b10156107ed5760405162461bcd60e51b81526004016105da906157a0565b61085c565b600061080183600001516122f3565b12801561082757506108216108146129e9565b829063ffffffff612a0416565b60000b15155b1561085c57610835816122f3565b61083e856122f3565b111561085c5760405162461bcd60e51b81526004016105da90615974565b5050610130805460ff191660011790559094909350915050565b60cc5460ff16156108995760405162461bcd60e51b81526004016105da90615679565b6101305460ff166108bc5760405162461bcd60e51b81526004016105da90615b47565b610130805460ff191690556108d2826001612a35565b6000826001600160a01b031663fdf262b76040518163ffffffff1660e01b815260040160206040518083038186803b15801561090d57600080fd5b505afa158015610921573d6000803e3d6000fd5b505050506040513d601f19601f82011682018060405250810190610945919061513d565b905061095f8161095a36859003850185615159565b612bcc565b60006109696122e4565b9050610973614d52565b61097d8583610502565b9050610987614da0565b6109b06000196109a461099f36899003890189615159565b612bf6565b9063ffffffff612c5a16565b90506109ba614da0565b6109c2614da0565b6109ca614da0565b6109d2614da0565b6109dd8a8787612c7c565b93509350935093506109ee836122f3565b15610a0b5760405162461bcd60e51b81526004016105da906153c6565b60208601849052606086018190526000610a3d610a388c8a610a33898963ffffffff612d3f16565b612d62565b6122f3565b1215610a5b5760405162461bcd60e51b81526004016105da90615728565b610a668a8888612e70565b610a7f8888610a7a368d90038d018d615159565b612eda565b896001600160a01b0316876001600160a01b03167f1c822fe92555a7e529201522fbd166b03a55712d945737f4cc5c1e18199caa7b610abd886122f3565b610ac6866122f3565b604051610ad49291906152cc565b60405180910390a35050610130805460ff191660011790555050505050505050565b6101305460ff16610b195760405162461bcd60e51b81526004016105da90615b47565b610130805460ff19169055610b2f816000612a35565b6000610b396122e4565b9050610b43614d52565b610b4d8383610502565b9050610b5c8160000151612fe9565b610b668383613011565b610b6e614da0565b836001600160a01b031663ec2c0e636040518163ffffffff1660e01b815260040160206040518083038186803b158015610ba757600080fd5b505afa158015610bbb573d6000803e3d6000fd5b505050506040513d601f19601f82011682018060405250810190610bdf9190615174565b9050610be9614da0565b610bf2826122f3565b610c0157506020820151610c88565b610c09614da0565b610c678460200151610c5b610c4d610c38610c2789600001516130cb565b60408a01519063ffffffff6130f916565b610c4188612bf6565b9063ffffffff61311c16565b87519063ffffffff61319116565b9063ffffffff6131b416565b90506000610c74826122f3565b1315610c8657610c83816130cb565b91505b505b6000610c93826122f3565b1115610d1457610d14856001600160a01b031663fdf262b76040518163ffffffff1660e01b815260040160206040518083038186803b158015610cd557600080fd5b505afa158015610ce9573d6000803e3d6000fd5b505050506040513d601f19601f82011682018060405250810190610d0d919061513d565b858361321f565b836001600160a01b0316856001600160a01b03167fba70e8457921bdd49042182753cb6259c62f923e2b64216b68372cd85ec3af6c610d52846122f3565b604051610d5f9190615c37565b60405180910390a35050610130805460ff19166001179055505050565b610d87816001612a35565b610d8f614da0565b816001600160a01b031663ed83d79c6040518163ffffffff1660e01b8152600401602060405180830381600087803b158015610dca57600080fd5b505af1158015610dde573d6000803e3d6000fd5b505050506040513d601f19601f82011682018060405250810190610e029190614e6c565b6001600160a01b038316600090815261019a60205260409020909150600101610e3a610e2d84611137565b839063ffffffff61334e16565b8154600181018355600092835260209092209051910155610e59614da0565b826001600160a01b0316632f8488596040518163ffffffff1660e01b815260040160206040518083038186803b158015610e9257600080fd5b505afa158015610ea6573d6000803e3d6000fd5b505050506040513d601f19601f82011682018060405250810190610eca9190614e6c565b9050610ed4614da0565b610ee4838363ffffffff61319116565b90506000846001600160a01b031663fdf262b76040518163ffffffff1660e01b815260040160206040518083038186803b158015610f2157600080fd5b505afa158015610f35573d6000803e3d6000fd5b505050506040513d601f19601f82011682018060405250810190610f59919061513d565b90506000610f66836122f3565b1215610fdc5761019c546001600160a01b031663252978b882610f88856130cb565b6040518363ffffffff1660e01b8152600401610fa592919061524a565b600060405180830381600087803b158015610fbf57600080fd5b505af1158015610fd3573d6000803e3d6000fd5b50505050610fee565b610fee81610fe9846130cb565b613371565b5050505050565b6110088361048936859003850185615159565b505050565b6110156122e4565b6098546001600160a01b039081169116146110425760405162461bcd60e51b81526004016105da90615ac5565b61104a6133bd565b565b610195805460408051602060026001851615610100026000190190941693909304601f810184900484028201840190925281815292918301828280156110d35780601f106110a8576101008083540402835291602001916110d3565b820191906000526020600020905b8154815290600101906020018083116110b657829003601f168201915b505050505081565b61110d86866110ef36889003880188615159565b6110fe36889003880188615159565b61043a36889003880188615159565b505050505050565b610194546001600160a01b038281169116145b919050565b60cc5460ff165b90565b61113f614da0565b6001600160a01b038216600090815261019a602052604090206001015480156111af576001600160a01b038316600090815261019a602052604090206001018054600019830190811061118e57fe5b60009182526020918290206040805193840190520154815291506111289050565b50919050565b6111bd6122e4565b6098546001600160a01b039081169116146111ea5760405162461bcd60e51b81526004016105da90615ac5565b805161019781905560408051602081019091529081527fce738a6382894b012492e42016c4321ac69da80c4827f80a2e0907585818ac31906106fd906122f3565b6099546001600160a01b031690565b6112426122e4565b6098546001600160a01b0390811691161461126f5760405162461bcd60e51b81526004016105da90615ac5565b6098546040516000916001600160a01b0316907f8be0079c531659141344cd1fd0a4f28419497f9722a3daafe3b4186f6b6457e0908390a3609880546001600160a01b0319169055565b6112c16122e4565b6098546001600160a01b039081169116146112ee5760405162461bcd60e51b81526004016105da90615ac5565b61019d80546001600160a01b0319166001600160a01b0392909216919091179055565b610194546001600160a01b031681565b6101975481565b6113306122e4565b6098546001600160a01b0390811691161461135d5760405162461bcd60e51b81526004016105da90615ac5565b61104a613429565b61136d6122e4565b6098546001600160a01b0390811691161461139a5760405162461bcd60e51b81526004016105da90615ac5565b61019e80546001600160a01b0319166001600160a01b0392909216919091179055565b6113c56122e4565b6098546001600160a01b039081169116146113f25760405162461bcd60e51b81526004016105da90615ac5565b600061140c6113ff613482565b839063ffffffff612a0416565b60000b131561142d5760405162461bcd60e51b81526004016105da9061583c565b516101d155565b6101305460ff166114575760405162461bcd60e51b81526004016105da90615b47565b610130805460ff1916905561146c82826122f7565b5050610130805460ff191660011790555050565b60cc5460ff16156114a35760405162461bcd60e51b81526004016105da90615679565b6101305460ff166114c65760405162461bcd60e51b81526004016105da90615b47565b610130805460ff191690556114dc856001612a35565b6000856001600160a01b031663fdf262b76040518163ffffffff1660e01b815260040160206040518083038186803b15801561151757600080fd5b505afa15801561152b573d6000803e3d6000fd5b505050506040513d601f19601f8201168201806040525081019061154f919061513d565b905061155b8185612bcc565b611564836134a6565b61159a6115828461157661099f613482565b9063ffffffff6134cb16565b60408051602081019091526101965481526001613545565b6115a38661358c565b60006115ad6122e4565b90506115b7614db3565b60006115cc6115c68a85610502565b516122f3565b9050600081156115dd5760006115e0565b60015b9050808061161457508860018111156115f557fe5b60008313611604576001611607565b60005b600181111561161257fe5b145b1561163c576116358a8a61162e8b8b63ffffffff6129bd16565b898b6135e9565b925061164f565b61164c8a8a868b8b8b6000613813565b92505b61165e8a858560000151612e70565b801580156116765750825151611673906122f3565b15155b156116a0576116a06116888b86612285565b60408051602081019091526101975481526001613545565b6116ad83604001516122f3565b156116ca5760405162461bcd60e51b81526004016105da9061546b565b60006116d98460c001516122f3565b13156116fc576116f78585306116f28760c001516130cb565b613a61565b611723565b600061170b8460c001516122f3565b1215611723576117238585610a7a8660c001516130cb565b505061172d614da0565b61173c838a8460200151613b93565b905060006117b48a6001600160a01b031663dc76fabc6040518163ffffffff1660e01b815260040160206040518083038186803b15801561177c57600080fd5b505afa158015611790573d6000803e3d6000fd5b505050506040513d601f19601f82011682018060405250810190610a389190615174565b905060006117c584608001516122f3565b90508a6001600160a01b0316856001600160a01b03167f4c7b764f428c13bbea8cc8da90ebe6eef4dafeb27a4e3d9041d64208c47ca7c261180d8760000151602001516122f3565b61181a88602001516122f3565b61182789606001516122f3565b611830896122f3565b8a515161183c906122f3565b6118498c60a001516122f3565b6118568d60e001516122f3565b6118638e604001516122f3565b60008d8d60405161187e9b9a99989796959493929190615c40565b60405180910390a35050610130805460ff19166001179055505050505050505050565b6118a9614da0565b6118b1614da0565b6118b9614d52565b6118c38686610502565b90506118cd614da0565b81516118d8906130cb565b90506118e3816122f3565b15611aa9576000806118f884600001516122f3565b12905060008161190957600061190c565b60015b9050600187600281111561191c57fe5b14156119a7576040516337d2176f60e11b81526001600160a01b038a1690636fa42ede906119509084908790600401615264565b60206040518083038186803b15801561196857600080fd5b505afa15801561197c573d6000803e3d6000fd5b505050506040513d601f19601f820116820180604052508101906119a09190615174565b9550611a78565b60008760028111156119b557fe5b14156119e95760405163da0c592760e01b81526001600160a01b038a169063da0c5927906119509084908790600401615264565b6119f1614da0565b896001600160a01b031663468f02d26040518163ffffffff1660e01b815260040160206040518083038186803b158015611a2a57600080fd5b505afa158015611a3e573d6000803e3d6000fd5b505050506040513d601f19601f82011682018060405250810190611a629190615174565b9050611a74848263ffffffff6129bd16565b9650505b81611a9357611a8e8460400151610c4188612bf6565b611aa4565b611aa486610c418660400151612bf6565b945050505b5050935093915050565b6098546001600160a01b031690565b611aca6122e4565b6098546001600160a01b03908116911614611af75760405162461bcd60e51b81526004016105da90615ac5565b6001600160a01b03821660008181526101d26020526040808220805460ff191685151590811790915590519092917fea46bd0a90ba772a1dbffd4f585e1418c095cb5f70177a38f6eeadf26046e8a991a35050565b60cc5460ff1615611b6f5760405162461bcd60e51b81526004016105da90615679565b6101305460ff16611b925760405162461bcd60e51b81526004016105da90615b47565b610130805460ff19169055611ba8826001612a35565b611bb18261358c565b6000611bbb6122e4565b9050611bc5614db3565b611bcd614d52565b611bd78584610502565b9050600080611be983600001516122f3565b13611bf5576001611bf8565b60005b9050856001600160a01b031663130234cf82611c1785600001516130cb565b6040518363ffffffff1660e01b8152600401611c34929190615264565b60206040518083038186803b158015611c4c57600080fd5b505afa158015611c60573d6000803e3d6000fd5b505050506040513d601f19601f82011682018060405250810190611c849190614ee5565b8015611cba57506000611cb5611c98613482565b60408051602081019091526101d15481529063ffffffff612a0416565b60000b125b15611dc657611cc7614da0565b60408051602081019091526101d154815283516001600160a01b0389169163da0c5927918591611d0591611d009163ffffffff613d5d16565b6130cb565b6040518363ffffffff1660e01b8152600401611d22929190615264565b60206040518083038186803b158015611d3a57600080fd5b505afa158015611d4e573d6000803e3d6000fd5b505050506040513d601f19601f82011682018060405250810190611d729190615174565b9050611daf876000611d8786600001516122f3565b13611d93576000611d96565b60015b8784611da0613482565b611da86129e9565b6001613813565b9350611dc087868660000151612e70565b50611dd4565b611dd1868587613dce565b92505b611de183604001516122f3565b15611dfe5760405162461bcd60e51b81526004016105da9061546b565b6000866001600160a01b031663fdf262b76040518163ffffffff1660e01b815260040160206040518083038186803b158015611e3957600080fd5b505afa158015611e4d573d6000803e3d6000fd5b505050506040513d601f19601f82011682018060405250810190611e71919061513d565b9050611e858186610a7a8760c001516130cb565b505050611e90614da0565b611e9f83868460200151613b93565b90506000611edf866001600160a01b031663dc76fabc6040518163ffffffff1660e01b815260040160206040518083038186803b15801561177c57600080fd5b90506000611ef084608001516122f3565b9050866001600160a01b0316856001600160a01b03167f4c7b764f428c13bbea8cc8da90ebe6eef4dafeb27a4e3d9041d64208c47ca7c2611f388760000151602001516122f3565b611f4588602001516122f3565b611f5289606001516122f3565b611f5b896122f3565b8a5151611f67906122f3565b611f748c60a001516122f3565b611f818d60e001516122f3565b611f8e8e604001516122f3565b60008d8d604051611fa99b9a99989796959493929190615c40565b60405180910390a35050610130805460ff191660011790555050505050565b60cc5460ff1615611feb5760405162461bcd60e51b81526004016105da90615679565b6101305460ff1661200e5760405162461bcd60e51b81526004016105da90615b47565b610130805460ff19169055612024826001612a35565b6000826001600160a01b031663fdf262b76040518163ffffffff1660e01b815260040160206040518083038186803b15801561205f57600080fd5b505afa158015612073573d6000803e3d6000fd5b505050506040513d601f19601f82011682018060405250810190612097919061513d565b90506120ac8161095a36859003850185615159565b60006120b66122e4565b90506120c0614d52565b6120ca8583610502565b90506120ef6120de36869003860186615159565b60208301519063ffffffff613f6816565b60208201526120ff858383612e70565b6121148383306116f236899003890189615159565b6001600160a01b038086169083167f1c822fe92555a7e529201522fbd166b03a55712d945737f4cc5c1e18199caa7b612155610a3836899003890189615159565b6000604051610d5f9291906152cc565b61019d546001600160a01b031681565b6101996020526000908152604090205481565b92915050565b61019c546001600160a01b031681565b6099546001600160a01b03166121c65760405162461bcd60e51b81526004016105da90615a68565b6121ce6122e4565b6099546001600160a01b039081169116146121fb5760405162461bcd60e51b81526004016105da90615583565b6099546098546040516001600160a01b0392831692909116907f8be0079c531659141344cd1fd0a4f28419497f9722a3daafe3b4186f6b6457e090600090a360998054609880546001600160a01b03199081166001600160a01b03841617909155169055565b6101985481565b6101965481565b6101d26020526000908152604090205460ff1681565b61228d614da0565b612295614d52565b61229f8484610502565b90506122ae8160000151612fe9565b6122b6614da0565b6122be614da0565b6122ca86866000613f8b565b915091506122da8684848461401c565b9695505050505050565b60006122ee614056565b905090565b5190565b6122ff614da0565b600061230c846001612a35565b612314614da0565b61231e8585612285565b9050846001600160a01b0316639e0103626040518163ffffffff1660e01b815260040160206040518083038186803b15801561235957600080fd5b505afa15801561236d573d6000803e3d6000fd5b505050506040513d601f19601f820116820180604052508101906123919190614ee5565b156123cd5761239e614da0565b6123aa86866002614088565b905060006123c1610a38838563ffffffff6140dc16565b13156123cb578091505b505b60408051602081019091526101975481526123eb9082906000613545565b6123f3614db3565b6123fb614da0565b612403614da0565b61240b614da0565b612413614da0565b60008a6001600160a01b031663fdf262b76040518163ffffffff1660e01b815260040160206040518083038186803b15801561244e57600080fd5b505afa158015612462573d6000803e3d6000fd5b505050506040513d601f19601f82011682018060405250810190612486919061513d565b90506000612499610a388d8d6000614088565b60408051602081019091526101985481529091506124b6906122f3565b811380156124d1575060006124cc611c98613482565b60000b125b80156124f5575060408051602081019091526101d15481526124f2906122f3565b15155b1561268c57612502614d52565b61250c8d8d610502565b9050612516614da0565b8d6001600160a01b031663da0c5927600061253485600001516122f3565b13612540576001612543565b60005b60408051602081019091526101d1548152855161256a91611d00919063ffffffff613d5d16565b6040518363ffffffff1660e01b8152600401612587929190615264565b60206040518083038186803b15801561259f57600080fd5b505afa1580156125b3573d6000803e3d6000fd5b505050506040513d601f19601f820116820180604052508101906125d79190615174565b90506126058e60006125ec85600001516122f3565b136125f85760006125fb565b60015b8f84611da0613482565b60408051602080820190925261019854815290820151919a5061262e919063ffffffff6129bd16565b975061264188600263ffffffff6140ff16565b9550612653888763ffffffff612d3f16565b89516020015190955061266c908963ffffffff612d3f16565b8951602001528851612681908f908f90612e70565b60019a5050506127de565b6126968c8c610502565b6020015195506126ae8c8c6126a96129e9565b613dce565b96506126b8614da0565b6126c58860c001516130cb565b604080516020808201909252610198548152908a0151919250612701916002916126f5919063ffffffff6129bd16565b9063ffffffff6140ff16565b945061270b614da0565b50604088015161271a826122f3565b612723876122f3565b111561275257612739868363ffffffff612d3f16565b965061274b818863ffffffff613f6816565b9050612765565b612762828763ffffffff612d3f16565b91505b6000612770826122f3565b11156127c6576101d260006127836122e4565b6001600160a01b0316815260208101919091526040016000205460ff166127bc5760405162461bcd60e51b81526004016105da906154c4565b6127c68482614121565b60006127d1836122f3565b11156127db578194505b50505b60006127e9846122f3565b11156127f9576127f98284613371565b61280b826128056122e4565b86612eda565b6128148c614239565b8b6001600160a01b03168b6001600160a01b03167f5225638a979dd133f201045ab4169ec2189874d864f2b5a10be72ac6e4b421b46128568a602001516122f3565b6128638b606001516142a0565b61286c896122f3565b6128746122e4565b61287d8c6122f3565b60405161288e959493929190615c8e565b60405180910390a3505050505060006128d9886001600160a01b031663dc76fabc6040518163ffffffff1660e01b815260040160206040518083038186803b15801561177c57600080fd5b905060006128ea84608001516122f3565b9050886001600160a01b0316886001600160a01b03167f4c7b764f428c13bbea8cc8da90ebe6eef4dafeb27a4e3d9041d64208c47ca7c26129328760000151602001516122f3565b61293f88602001516122f3565b61294c89606001516122f3565b89515160009061295b906122f3565b6129688c60a001516122f3565b6129758d60e001516122f3565b6129828e604001516122f3565b61298b8e6122f3565b8d8d6040516129a49b9a99989796959493929190615c40565b60405180910390a3505050602001519250509250929050565b6129c5614da0565b6129cd614da0565b825184516129e09163ffffffff6142b216565b81529392505050565b6129f1614da0565b5060408051602081019091526000815290565b805182516000911015612a1957506001612188565b815183511015612a2c5750600019612188565b50600092915050565b61019c546040516301dd29e160e21b81526001600160a01b0390911690630774a78490612a669085906004016151ee565b60206040518083038186803b158015612a7e57600080fd5b505afa158015612a92573d6000803e3d6000fd5b505050506040513d601f19601f82011682018060405250810190612ab69190614ee5565b612ad25760405162461bcd60e51b81526004016105da90615331565b816001600160a01b031663fcfff16f6040518163ffffffff1660e01b815260040160206040518083038186803b158015612b0b57600080fd5b505afa158015612b1f573d6000803e3d6000fd5b505050506040513d601f19601f82011682018060405250810190612b439190614ee5565b15158115151481612b77576040518060400160405280600b81526020016a30b6b69034b99037b832b760a91b815250612bae565b6040518060400160405280600e81526020017f616d6d2077617320636c6f7365640000000000000000000000000000000000008152505b906110085760405162461bcd60e51b81526004016105da91906152da565b612bd682826142c0565b612bf25760405162461bcd60e51b81526004016105da90615434565b5050565b612bfe614da0565b8180600001516001600160ff1b031015604051806060016040528060338152602001615d3c6033913990612c455760405162461bcd60e51b81526004016105da91906152da565b50506040805160208101909152915182525090565b612c62614da0565b612c6a614da0565b83516129e0908463ffffffff61433e16565b612c84614da0565b612c8c614da0565b612c94614da0565b612c9c614da0565b612ca587611137565b9050612cb486600001516122f3565b15612ce55785516060870151612ce29190612cd690849063ffffffff6140dc16565b9063ffffffff61319116565b91505b612ced614da0565b6020870151612d0690610c5b888663ffffffff6140dc16565b90506000612d13826122f3565b1215612d2957612d22816130cb565b9350612d35565b612d32816130cb565b94505b5093509350935093565b612d47614da0565b612d4f614da0565b825184516129e09163ffffffff6143a916565b612d6a614da0565b612d72614d52565b612d7c8585610502565b9050612d86614da0565b612d8e614da0565b612d9a87876001613f8b565b91509150612da6614da0565b612db6838763ffffffff6131b416565b9050612dc0614da0565b6000612dcb856122f3565b13612dd65781612ddf565b612ddf87612bf6565b9050612de9614da0565b6000612df887600001516122f3565b13612e2c576040805160208101909152610196548152612e2790612e1b86612bf6565b9063ffffffff613d5d16565b612e4e565b6040805160208101825261019654815290870151612e4e9190612e1b90612bf6565b9050612e60828263ffffffff6140dc16565b96505050505050505b9392505050565b6001600160a01b03928316600090815261019a602090815260408083209490951682526002938401815290849020825151815590820151516001820155928101515191830191909155606081015151600383015560a0810151600583015560800151600490910155565b612ee2614da0565b612eec84306143eb565b9050612ef7826122f3565b612f00826122f3565b1015612fd857612f0e614da0565b612f1e838363ffffffff612d3f16565b6001600160a01b038616600090815261019b6020908152604091829020825191820190925290548152909150612f5a908263ffffffff613f6816565b6001600160a01b03808716600090815261019b602052604090819020925190925561019c5491516304a52f1760e31b815291169063252978b890612fa4908890859060040161524a565b600060405180830381600087803b158015612fbe57600080fd5b505af1158015612fd2573d6000803e3d6000fd5b50505050505b612fe384848461321f565b50505050565b612ff2816122f3565b61300e5760405162461bcd60e51b81526004016105da90615358565b50565b6040518060c001604052806130246129e9565b81526020016130316129e9565b815260200161303e6129e9565b815260200161304b6129e9565b81526020016000815260200161305f614478565b90526001600160a01b03928316600090815261019a60209081526040808320949095168252600293840181529084902082515181559082015151600182015592810151519183019190915560608101515160038301556080810151600483015560a00151600590910155565b6130d3614da0565b6130db614da0565b8251600013156130f15782516000038152612188565b915182525090565b613101614da0565b613109614da0565b825184516129e09163ffffffff61447c16565b613124614da0565b8180600001516001600160ff1b031015604051806060016040528060338152602001615d3c603391399061316b5760405162461bcd60e51b81526004016105da91906152da565b50613174614da0565b835185516131879163ffffffff61448a16565b8152949350505050565b613199614da0565b6131a1614da0565b825184516129e09163ffffffff6144d016565b6131bc614da0565b8180600001516001600160ff1b031015604051806060016040528060338152602001615d3c60339139906132035760405162461bcd60e51b81526004016105da91906152da565b5061320c614da0565b835185516131879163ffffffff6144de16565b61322883614524565b613230614da0565b61323a84846143eb565b9050600061324885846142c0565b905060006060866001600160a01b031663a9059cbb60e01b8785604051602401613273929190615226565b60408051601f198184030181529181526020820180516001600160e01b03166001600160e01b03199094169390931790925290516132b191906151d2565b6000604051808303816000865af19150503d80600081146132ee576040519150601f19603f3d011682016040523d82523d6000602084013e6132f3565b606091505b509150915081801561331d57508051158061331d57508080602001905181019061331d9190614ee5565b6133395760405162461bcd60e51b81526004016105da906153fd565b6133458787858761456e565b50505050505050565b613356614da0565b61335e614da0565b825184516129e09163ffffffff6144de16565b613379614da0565b61338383306143eb565b61019c549091506110089084906001600160a01b03166133a2856122f3565b6133ab856122f3565b106133b657846133b8565b835b61321f565b60cc5460ff166133df5760405162461bcd60e51b81526004016105da9061538f565b60cc805460ff191690557f5db9ee0a495bf2e6ff9c91a7834c1ba4fdd244a5e8aa4e537bd38aeae4b073aa6134126122e4565b60405161341f91906151ee565b60405180910390a1565b60cc5460ff161561344c5760405162461bcd60e51b81526004016105da90615679565b60cc805460ff191660011790557f62e78cea01bee320cd4e420270b5ea74000d11b0c9f74754ebdbfc544b05a2586134126122e4565b61348a614da0565b604051806020016040528061349f60126145b5565b9052905090565b6134af816122f3565b61300e5760405162461bcd60e51b81526004016105da90615818565b6134d3614da0565b8180600001516001600160ff1b031015604051806060016040528060338152602001615d3c603391399061351a5760405162461bcd60e51b81526004016105da91906152da565b50613523614da0565b61353c61352f85612bf6565b869063ffffffff6145be16565b95945050505050565b600061355a610a38858563ffffffff61311c16565b90508161356a5760008112613570565b60008112155b612fe35760405162461bcd60e51b81526004016105da90615601565b6000613596614478565b6001600160a01b038316600090815261019a6020526040902054909150811415612bf257806135c78361025b6122e4565b60a001511415612bf25760405162461bcd60e51b81526004016105da906155ca565b6135f1614db3565b60006135fb6122e4565b9050613605614d52565b61360f8883610502565b905061361f8888888860006145e1565b606084015261362c614da0565b606084015182516136429163ffffffff61334e16565b90506136568961365189612bf6565b6146ca565b61019e546001600160a01b0384811691161461373657613674614da0565b896001600160a01b031663113773946040518163ffffffff1660e01b815260040160206040518083038186803b1580156136ad57600080fd5b505afa1580156136c1573d6000803e3d6000fd5b505050506040513d601f19601f820116820180604052508101906136e59190615174565b905060006136f2826122f3565b111561373457600061371382613707856130cb565b9063ffffffff612a0416565b60000b13156137345760405162461bcd60e51b81526004016105da90615906565b505b61373e614da0565b61375161099f898863ffffffff6130f916565b905061375b614da0565b613763614da0565b61376b614da0565b6137768d8786612c7c565b93509350509250613785614da0565b6137918e8960006118a1565b6020808c018f815260e08d0183905260c0808e018a905260808e018890526040805191820181528b825292810189905290518b830151939550909350908301916137e09163ffffffff613f6816565b8152602001838152602001886080015181526020016137fd614478565b9052895250969c9b505050505050505050505050565b61381b614db3565b613823614da0565b613833868663ffffffff6129bd16565b905061383d614da0565b613845614da0565b6138518b8a60006118a1565b9150915061385d614db3565b613866846122f3565b61386f846122f3565b1115613a41576138888c6136516000196109a488612bf6565b613890614d52565b61389a8d8c610502565b90506138a98d8d878b8b6145e1565b606083015280516138b9906122f3565b156138f1576138eb6138ce82600001516130cb565b6115766138de85606001516130cb565b869063ffffffff613d5d16565b60a08301525b6138f9614da0565b613901614da0565b6139108f848660a00151612c7c565b6080880191909152604087019190915260a0860151919350915061393b90869063ffffffff6140dc16565b60e08501526020840187905261394f614da0565b600061395e85600001516122f3565b13613987576139828560200151610c41898860e001516131b490919063ffffffff16565b6139ac565b6139ac8560e001516139a08760200151610c418b612bf6565b9063ffffffff6140dc16565b905060006139b9826122f3565b136139d65760405162461bcd60e51b81526004016105da906156f1565b6040518060c001604052806139fc8760600151876000015161334e90919063ffffffff16565b8152602001848152602001613a10836130cb565b815260200183815260200185608001518152602001613a2d614478565b9052855250929650613a5695505050505050565b613a4f8c8c8c8c8c8c6147fd565b9450505050505b979650505050505050565b613a6a84614524565b613a72614da0565b613a7c85846143eb565b90506000613a8a86846142c0565b905060006060876001600160a01b03166323b872dd60e01b888886604051602401613ab793929190615202565b60408051601f198184030181529181526020820180516001600160e01b03166001600160e01b0319909416939093179092529051613af591906151d2565b6000604051808303816000865af19150503d8060008114613b32576040519150601f19603f3d011682016040523d82523d6000602084013e613b37565b606091505b5091509150818015613b61575080511580613b61575080806020019051810190613b619190614ee5565b613b7d5760405162461bcd60e51b81526004016105da906156b0565b613b898887858761456e565b5050505050505050565b613b9b614da0565b613ba3614da0565b613bab614da0565b604051636226795560e01b81526001600160a01b03861690636226795590613bd7908790600401615c0c565b604080518083038186803b158015613bee57600080fd5b505afa158015613c02573d6000803e3d6000fd5b505050506040513d601f19601f82011682018060405250810190613c26919061518f565b91509150600080613c36846122f3565b119050600080613c45846122f3565b1190508180613c515750805b15613d52576000876001600160a01b031663fdf262b76040518163ffffffff1660e01b815260040160206040518083038186803b158015613c9157600080fd5b505afa158015613ca5573d6000803e3d6000fd5b505050506040513d601f19601f82011682018060405250810190613cc9919061513d565b90508115613cec5761019c54613cec9082908b906001600160a01b031687613a61565b8215613d365761019d546001600160a01b0316613d1b5760405162461bcd60e51b81526004016105da906159ab565b61019d54613d369082908b906001600160a01b031688613a61565b613d46858563ffffffff613f6816565b95505050505050612e69565b505050509392505050565b613d65614da0565b8180600001516001600160ff1b031015604051806060016040528060338152602001615d3c6033913990613dac5760405162461bcd60e51b81526004016105da91906152da565b50613db5614da0565b61353c613dc185612bf6565b869063ffffffff61319116565b613dd6614db3565b613dde614d52565b613de88585610502565b9050613df78160000151612fe9565b613dff614da0565b613e0b868660006118a1565b915050613e16614da0565b613e1e614da0565b613e26614da0565b613e31898686612c7c565b5087519295509093509150613e4e9060001963ffffffff612c5a16565b606087015260a086018490526040860182905260808601819052613e776000196109a485612bf6565b60c087015284516001600160a01b038a169063d71ec2ad90600090613e9b906122f3565b13613ea7576001613eaa565b60005b8751613eb5906130cb565b8a6040518463ffffffff1660e01b8152600401613ed493929190615280565b602060405180830381600087803b158015613eee57600080fd5b505af1158015613f02573d6000803e3d6000fd5b505050506040513d601f19601f82011682018060405250810190613f269190615174565b60208701526040850151613f52908a9061365190600019906109a490610c5b8a8963ffffffff6131b416565b613f5c8989613011565b50505050509392505050565b613f70614da0565b613f78614da0565b825184516129e09163ffffffff6149e016565b613f93614da0565b613f9b614da0565b613fa3614da0565b613fab614da0565b613fb7878760006118a1565b91509150613fc3614da0565b613fcb614da0565b613fd7898960016118a1565b91509150613fe4816122f3565b613fed846122f3565b136000886001811115613ffc57fe5b141461400957808261400c565b82845b909a909950975050505050505050565b614024614da0565b61402c614da0565b614034614da0565b61403f878787612c7c565b505091509150613a568461157683610c4186612bf6565b60006018361080159061406d575061406d33611115565b15614081575060131936013560601c611134565b5033611134565b614090614da0565b614098614d52565b6140a28585610502565b90506140b18160000151612fe9565b6140b9614da0565b6140c1614da0565b6140cc8787876118a1565b91509150613a568784838561401c565b6140e4614da0565b6140ec614da0565b825184516129e09163ffffffff61448a16565b614107614da0565b61410f614da0565b83516129e0908463ffffffff614a0516565b614129614da0565b506001600160a01b038216600090815261019b602090815260409182902082519182019092529054815261415c826122f3565b614165826122f3565b111561419d5761417b818363ffffffff612d3f16565b6001600160a01b038416600090815261019b6020526040902090519055611008565b61019c546001600160a01b031663252978b8846141c0858563ffffffff612d3f16565b6040518363ffffffff1660e01b81526004016141dd92919061524a565b600060405180830381600087803b1580156141f757600080fd5b505af115801561420b573d6000803e3d6000fd5b505050506142176129e9565b6001600160a01b038416600090815261019b6020526040902090519055505050565b6000614243614478565b6001600160a01b038316600090815261019a602052604090819020829055519091507f97f920fec5d17ec336df7ad438ca8a76dcfd206ddc1d19b263b6f3e6ba3c4f31906142949084908490615226565b60405180910390a15050565b60006142ab826130cb565b5192915050565b6000612e6983836012614a47565b6000806142cc84614a65565b90506012811061430a576143026142ea82601263ffffffff6143a916565b600a0a6142f6856122f3565b9063ffffffff614b4916565b915050612188565b61433661431e60128363ffffffff6143a916565b600a0a61432a856122f3565b9063ffffffff614a0516565b949350505050565b60008261434d57506000612188565b826000191480156143615750600160ff1b82145b1561437e5760405162461bcd60e51b81526004016105da906158bf565b8282028284828161438b57fe5b0514612e695760405162461bcd60e51b81526004016105da906158bf565b6000612e6983836040518060400160405280601e81526020017f536166654d6174683a207375627472616374696f6e206f766572666c6f770000815250614b83565b6143f3614da0565b612e6983846001600160a01b03166370a08231856040518263ffffffff1660e01b815260040161442391906151ee565b60206040518083038186803b15801561443b57600080fd5b505afa15801561444f573d6000803e3d6000fd5b505050506040513d601f19601f8201168201806040525081019061447391906151ba565b614baf565b4390565b6000612e6983836012614c41565b600081830381831280159061449f5750838113155b806144b457506000831280156144b457508381135b612e695760405162461bcd60e51b81526004016105da90615a24565b6000612e6983836012614c60565b60008282018183128015906144f35750838112155b80614508575060008312801561450857508381125b612e695760405162461bcd60e51b81526004016105da90615542565b600061452f82614a65565b6001600160a01b0383166000908152602081905260409020549091508114612bf2576001600160a01b0391909116600090815260208190526040902055565b61459561458b61457e8685614baf565b839063ffffffff613f6816565b61370786866143eb565b60000b15612fe35760405162461bcd60e51b81526004016105da906159e2565b60ff16600a0a90565b6145c6614da0565b6145ce614da0565b825184516129e09163ffffffff614c8a16565b6145e9614da0565b6000808660018111156145f857fe5b14614604576001614607565b60005b9050614611614da0565b6040516375df638960e01b8152614699906001600160a01b038a16906375df6389906146479086908b908b908b906004016152a2565b602060405180830381600087803b15801561466157600080fd5b505af1158015614675573d6000803e3d6000fd5b505050506040513d601f19601f8201168201806040525081019061099f9190615174565b90508160018111156146a757fe5b60011415613a56576146c18160001963ffffffff612c5a16565b9250505061353c565b6000614708836001600160a01b031663525454106040518163ffffffff1660e01b815260040160206040518083038186803b15801561177c57600080fd5b9050828115612fe357614719614da0565b6001600160a01b0382166000908152610199602090815260409182902082519182019092529054815261475390859063ffffffff6131b416565b90506000614760826122f3565b12156147715761476e6129e9565b90505b600061477c856122f3565b13156147d0578261478c826142a0565b1115806147b4575061019e546001600160a01b03166147a96122e4565b6001600160a01b0316145b6147d05760405162461bcd60e51b81526004016105da9061530d565b6147d9816130cb565b6001600160a01b038316600090815261019960205260409020905190555050505050565b614805614db3565b61480d614db3565b61481a88876126a96129e9565b905061482981604001516122f3565b156148465760405162461bcd60e51b81526004016105da9061593d565b61484e614da0565b602082015161487390614867888863ffffffff6129bd16565b9063ffffffff612d3f16565b9050614888610a38828763ffffffff6130f916565b614894578192506149d4565b61489c614da0565b6148a983606001516142a0565b6148b2866122f3565b11156148d8576148d56148c884606001516130cb565b869063ffffffff612d3f16565b90505b6148e0614db3565b6148ed8b8b85858b6135e9565b90506040518061010001604052808260000151815260200161492083602001518760200151613f6890919063ffffffff16565b815260200161494083604001518760400151613f6890919063ffffffff16565b81526020016149608360600151876060015161334e90919063ffffffff16565b81526020016149808360800151876080015161334e90919063ffffffff16565b81526020016149a08360a001518760a0015161334e90919063ffffffff16565b81526020016149c08360c001518760c0015161334e90919063ffffffff16565b81526020016149cd6129e9565b9052945050505b50509695505050505050565b600082820183811015612e695760405162461bcd60e51b81526004016105da9061548d565b6000612e6983836040518060400160405280601a81526020017f536166654d6174683a206469766973696f6e206279207a65726f000000000000815250614c98565b6000614336614a55836145b5565b61432a868663ffffffff614b4916565b6001600160a01b038116600090815260208190526040812054806121885760408051600481526024810182526020810180516001600160e01b031663313ce56760e01b17905290516000916060916001600160a01b03871691614ac7916151d2565b600060405180830381855afa9150503d8060008114614b02576040519150601f19603f3d011682016040523d82523d6000602084013e614b07565b606091505b5091509150818015614b195750805115155b614b355760405162461bcd60e51b81526004016105da90615638565b8080602001905181019061353c91906151ba565b600082614b5857506000612188565b82820282848281614b6557fe5b0414612e695760405162461bcd60e51b81526004016105da906157d7565b60008184841115614ba75760405162461bcd60e51b81526004016105da91906152da565b505050900390565b614bb7614da0565b6000614bc284614a65565b905060128110614c0757604080516020810190915280614bfc614bec84601263ffffffff6143a916565b8690600a0a63ffffffff614a0516565b815250915050612188565b604080516020810190915280614c37614c2760128563ffffffff6143a916565b8690600a0a63ffffffff614b4916565b9052949350505050565b60006143368361432a614c53856145b5565b879063ffffffff614b4916565b6000614336614c6e836145b5565b614c7e868663ffffffff61433e16565b9063ffffffff614ccf16565b6000612e6983836012614d33565b60008183614cb95760405162461bcd60e51b81526004016105da91906152da565b506000838581614cc557fe5b0495945050505050565b600081614cee5760405162461bcd60e51b81526004016105da90615b12565b81600019148015614d025750600160ff1b83145b15614d1f5760405162461bcd60e51b81526004016105da9061575f565b6000828481614d2a57fe5b05949350505050565b600061433683614c7e614d45856145b5565b879063ffffffff61433e16565b6040518060c00160405280614d65614da0565b8152602001614d72614da0565b8152602001614d7f614da0565b8152602001614d8c614da0565b815260200160008152602001600081525090565b6040518060200160405280600081525090565b604051806101000160405280614dc7614d52565b8152602001614dd4614da0565b8152602001614de1614da0565b8152602001614dee614da0565b8152602001614dfb614da0565b8152602001614e08614da0565b8152602001614e15614da0565b8152602001614e22614da0565b905290565b80356002811061218857600080fd5b6000602082840312156111af578081fd5b600060208284031215614e58578081fd5b614e626020615cba565b9135825250919050565b600060208284031215614e7d578081fd5b614e876020615cba565b9151825250919050565b600060208284031215614ea2578081fd5b8135612e6981615d18565b60008060408385031215614ebf578081fd5b8235614eca81615d18565b91506020830135614eda81615d2d565b809150509250929050565b600060208284031215614ef6578081fd5b8151612e6981615d2d565b60008060408385031215614f13578182fd5b8235614f1e81615d18565b91506020830135614eda81615d18565b600080600060608486031215614f42578081fd5b8335614f4d81615d18565b92506020840135614f5d81615d18565b9150604084013560038110614f70578182fd5b809150509250925092565b600080600060608486031215614f8f578283fd5b8335614f9a81615d18565b92506020840135614faa81615d18565b9150614fb98560408601614e47565b90509250925092565b60008060008060008060c08789031215614fda578182fd5b8635614fe581615d18565b9550614ff48860208901614e27565b94506150038860408901614e36565b93506150128860608901614e36565b92506150218860808901614e36565b915060a087013590509295509295509295565b600080600080600060a0868803121561504b578081fd5b853561505681615d18565b94506150658760208801614e27565b93506150748760408801614e47565b92506150838760608801614e47565b91506150928760808801614e47565b90509295509295909350565b600080604083850312156150b0578182fd5b82356150bb81615d18565b91506150ca8460208501614e36565b90509250929050565b6000806000606084860312156150e7578081fd5b83356150f281615d18565b92506151018560208601614e36565b9150604084013590509250925092565b60008060408385031215615123578182fd5b823561512e81615d18565b91506150ca8460208501614e47565b60006020828403121561514e578081fd5b8151612e6981615d18565b60006020828403121561516a578081fd5b612e698383614e47565b600060208284031215615185578081fd5b612e698383614e6c565b600080604083850312156151a1578182fd5b6151ab8484614e6c565b91506150ca8460208501614e6c565b6000602082840312156151cb578081fd5b5051919050565b600082516151e4818460208701615cec565b9190910192915050565b6001600160a01b0391909116815260200190565b6001600160a01b039384168152919092166020820152604081019190915260600190565b6001600160a01b03929092168252602082015260400190565b901515815260200190565b6001600160a01b0392909216825251602082015260400190565b6040810161527184615ce1565b82529151602090910152919050565b606081016002851061528e57fe5b938152915160208301525160409091015290565b608081016152af86615ce1565b825293516020820152915160408301521515606090910152919050565b918252602082015260400190565b60006020825282518060208401526152f9816040850160208701615cec565b601f01601f19169190910160400192915050565b6020808252600a90820152691bdd995c881b1a5b5a5d60b21b604082015260600190565b6020808252600d908201526c185b5b481b9bdd08199bdd5b99609a1b604082015260600190565b60208082526011908201527f706f736974696f6e53697a652069732030000000000000000000000000000000604082015260600190565b60208082526014908201527f5061757361626c653a206e6f7420706175736564000000000000000000000000604082015260600190565b60208082526014908201527f6d617267696e206973206e6f7420656e6f756768000000000000000000000000604082015260600190565b6020808252601d908201527f446563696d616c45524332303a207472616e73666572206661696c6564000000604082015260600190565b60208082526014908201527f696e76616c696420746f6b656e20616d6f756e74000000000000000000000000604082015260600190565b602080825260089082015267189859081919589d60c21b604082015260600190565b6020808252601b908201527f536166654d6174683a206164646974696f6e206f766572666c6f770000000000604082015260600190565b6020808252600f908201527f6e6f74206261636b73746f70204c500000000000000000000000000000000000604082015260600190565b60208082526027908201527f5065727046694f776e61626c65557067726164653a2073616d652061732063616040820152666e64696461746560c81b606082015260800190565b60208082526021908201527f5369676e6564536166654d6174683a206164646974696f6e206f766572666c6f6040820152607760f81b606082015260800190565b60208082526027908201527f5065727046694f776e61626c65557067726164653a206e6f7420746865206e656040820152663b9037bbb732b960c91b606082015260800190565b60208082526017908201527f6f6e6c79206f6e6520616374696f6e20616c6c6f776564000000000000000000604082015260600190565b6020808252601e908201527f4d617267696e20726174696f206e6f74206d6565742063726974657269610000604082015260600190565b60208082526021908201527f446563696d616c45524332303a2067657420646563696d616c73206661696c656040820152601960fa1b606082015260800190565b60208082526010908201527f5061757361626c653a2070617573656400000000000000000000000000000000604082015260600190565b60208082526021908201527f446563696d616c45524332303a207472616e7366657246726f6d206661696c656040820152601960fa1b606082015260800190565b6020808252601a908201527f76616c7565206f66206f70656e4e6f74696f6e616c203c3d2030000000000000604082015260600190565b6020808252601d908201527f6672656520636f6c6c61746572616c206973206e6f7420656e6f756768000000604082015260600190565b60208082526021908201527f5369676e6564536166654d6174683a206469766973696f6e206f766572666c6f6040820152607760f81b606082015260800190565b6020808252601d908201527f4c657373207468616e206d696e696d616c2071756f746520746f6b656e000000604082015260600190565b60208082526021908201527f536166654d6174683a206d756c7469706c69636174696f6e206f766572666c6f6040820152607760f81b606082015260800190565b6020808252600a90820152690696e70757420697320360b41b604082015260600190565b60208082526021908201527f696e76616c6964207061727469616c206c69717569646174696f6e20726174696040820152606f60f81b606082015260800190565b60208082526022908201527f5065727046694f776e61626c65557067726164653a207a65726f206164647265604082015261737360f01b606082015260800190565b60208082526027908201527f5369676e6564536166654d6174683a206d756c7469706c69636174696f6e206f604082015266766572666c6f7760c81b606082015260800190565b6020808252601d908201527f68697420706f736974696f6e2073697a6520757070657220626f756e64000000604082015260600190565b6020808252601d908201527f72656475636520616e20756e646572776174657220706f736974696f6e000000604082015260600190565b6020808252601d908201527f4d6f7265207468616e206d6178696d616c2071756f746520746f6b656e000000604082015260600190565b6020808252600f908201527f496e76616c696420666565506f6f6c0000000000000000000000000000000000604082015260600190565b60208082526022908201527f446563696d616c45524332303a2062616c616e636520696e636f6e73697374656040820152611b9d60f21b606082015260800190565b60208082526024908201527f5369676e6564536166654d6174683a207375627472616374696f6e206f766572604082015263666c6f7760e01b606082015260800190565b6020808252602f908201527f5065727046694f776e61626c65557067726164653a2063616e6469646174652060408201527f6973207a65726f20616464726573730000000000000000000000000000000000606082015260800190565b6020808252602d908201527f5065727046694f776e61626c65557067726164653a2063616c6c65722069732060408201526c3737ba103a34329037bbb732b960991b606082015260800190565b6020808252818101527f5369676e6564536166654d6174683a206469766973696f6e206279207a65726f604082015260600190565b6020808252601f908201527f5265656e7472616e637947756172643a207265656e7472616e742063616c6c00604082015260600190565b60208082526026908201527f5065727046694f776e61626c65557067726164653a2073616d65206173206f726040820152651a59da5b985b60d21b606082015260800190565b600060c08201905082515182526020830151516020830152604083015151604083015260608301515160608301526080830151608083015260a083015160a083015292915050565b9051815260200190565b915182521515602082015260400190565b9151825251602082015260400190565b90815260200190565b9a8b5260208b019990995260408a01979097526060890195909552608088019390935260a087019190915260c086015260e08501526101008401526101208301526101408201526101600190565b948552602085019390935260408401919091526001600160a01b03166060830152608082015260a00190565b60405181810167ffffffffffffffff81118282101715615cd957600080fd5b604052919050565b806002811061112857fe5b60005b83811015615d07578181015183820152602001615cef565b83811115612fe35750506000910152565b6001600160a01b038116811461300e57600080fd5b801515811461300e57600080fdfe4d69786564446563696d616c3a2075696e742076616c756520697320626967676572207468616e205f494e543235365f4d4158a26469706673582212201779c14ffe8cb672d8f1076c607ec7f3efc80977a27eeb2ce60e8f0cfa853d5764736f6c63430006090033",
  "linkReferences": {},
  "deployedLinkReferences": {}
}