{
  "_format": "hh-sol-artifact-1",
  "contractName": "TraderWallet",
  "sourceName": "contracts/mock/TraderWallet.sol",
  "abi": [
    {
      "inputs": [
        {
          "internalType": "contract ClearingHouseFake",
          "name": "_clearingHouse",
          "type": "address"
        },
        {
          "internalType": "contract IERC20",
          "name": "_token",
          "type": "address"
        }
      ],
      "stateMutability": "nonpayable",
      "type": "constructor"
    },
    {
      "inputs": [],
      "name": "clearingHouse",
      "outputs": [
        {
          "internalType": "contract ClearingHouseFake",
          "name": "",
          "type": "address"
        }
      ],
      "stateMutability": "view",
      "type": "function"
    },
    {
      "inputs": [
        {
          "internalType": "contract Amm",
          "name": "_amm",
          "type": "address"
        }
      ],
      "name": "closePosition",
      "outputs": [],
      "stateMutability": "nonpayable",
      "type": "function"
    },
    {
      "inputs": [
        {
          "internalType": "contract Amm",
          "name": "_amm",
          "type": "address"
        },
        {
          "internalType": "address",
          "name": "_trader",
          "type": "address"
        },
        {
          "components": [
            {
              "internalType": "uint256",
              "name": "d",
              "type": "uint256"
            }
          ],
          "internalType": "struct Decimal.decimal",
          "name": "_quoteAssetAmount",
          "type": "tuple"
        }
      ],
      "name": "liquidate",
      "outputs": [],
      "stateMutability": "nonpayable",
      "type": "function"
    },
    {
      "inputs": [
        {
          "internalType": "enum TraderWallet.ActionType",
          "name": "_action1",
          "type": "uint8"
        },
        {
          "internalType": "bool",
          "name": "_setRestriction",
          "type": "bool"
        },
        {
          "internalType": "enum TraderWallet.ActionType",
          "name": "_action2",
          "type": "uint8"
        },
        {
          "internalType": "contract Amm",
          "name": "_amm",
          "type": "address"
        },
        {
          "internalType": "enum ClearingHouse.Side",
          "name": "_side",
          "type": "uint8"
        },
        {
          "components": [
            {
              "internalType": "uint256",
              "name": "d",
              "type": "uint256"
            }
          ],
          "internalType": "struct Decimal.decimal",
          "name": "_quoteAssetAmount",
          "type": "tuple"
        },
        {
          "components": [
            {
              "internalType": "uint256",
              "name": "d",
              "type": "uint256"
            }
          ],
          "internalType": "struct Decimal.decimal",
          "name": "_leverage",
          "type": "tuple"
        },
        {
          "components": [
            {
              "internalType": "uint256",
              "name": "d",
              "type": "uint256"
            }
          ],
          "internalType": "struct Decimal.decimal",
          "name": "_baseAssetAmountLimit",
          "type": "tuple"
        },
        {
          "internalType": "address",
          "name": "_trader",
          "type": "address"
        }
      ],
      "name": "multiActions",
      "outputs": [],
      "stateMutability": "nonpayable",
      "type": "function"
    },
    {
      "inputs": [
        {
          "internalType": "contract Amm",
          "name": "_amm",
          "type": "address"
        },
        {
          "internalType": "enum ClearingHouse.Side",
          "name": "_side",
          "type": "uint8"
        },
        {
          "components": [
            {
              "internalType": "uint256",
              "name": "d",
              "type": "uint256"
            }
          ],
          "internalType": "struct Decimal.decimal",
          "name": "_quoteAssetAmount",
          "type": "tuple"
        },
        {
          "components": [
            {
              "internalType": "uint256",
              "name": "d",
              "type": "uint256"
            }
          ],
          "internalType": "struct Decimal.decimal",
          "name": "_leverage",
          "type": "tuple"
        },
        {
          "components": [
            {
              "internalType": "uint256",
              "name": "d",
              "type": "uint256"
            }
          ],
          "internalType": "struct Decimal.decimal",
          "name": "_minBaseAssetAmount",
          "type": "tuple"
        }
      ],
      "name": "openPosition",
      "outputs": [],
      "stateMutability": "nonpayable",
      "type": "function"
    },
    {
      "inputs": [
        {
          "internalType": "contract Amm",
          "name": "_amm",
          "type": "address"
        },
        {
          "internalType": "address",
          "name": "_trader1",
          "type": "address"
        },
        {
          "internalType": "address",
          "name": "_trader2",
          "type": "address"
        },
        {
          "internalType": "address",
          "name": "_trader3",
          "type": "address"
        }
      ],
      "name": "threeLiquidations",
      "outputs": [],
      "stateMutability": "nonpayable",
      "type": "function"
    },
    {
      "inputs": [
        {
          "internalType": "contract Amm",
          "name": "_amm",
          "type": "address"
        },
        {
          "internalType": "address",
          "name": "_trader1",
          "type": "address"
        },
        {
          "internalType": "address",
          "name": "_trader2",
          "type": "address"
        }
      ],
      "name": "twoLiquidations",
      "outputs": [],
      "stateMutability": "nonpayable",
      "type": "function"
    }
  ],
  "bytecode": "0x608060405234801561001057600080fd5b50604051610c83380380610c8383398101604081905261002f916100fb565b600080546001600160a01b0319166001600160a01b03848116919091179182905560405163095ea7b360e01b81528382169263095ea7b39261007a9291169060001990600401610134565b602060405180830381600087803b15801561009457600080fd5b505af11580156100a8573d6000803e3d6000fd5b505050506040513d601f19601f820116820180604052508101906100cc91906100d4565b505050610165565b6000602082840312156100e5578081fd5b815180151581146100f4578182fd5b9392505050565b6000806040838503121561010d578081fd5b82516101188161014d565b60208401519092506101298161014d565b809150509250929050565b6001600160a01b03929092168252602082015260400190565b6001600160a01b038116811461016257600080fd5b50565b610b0f806101746000396000f3fe608060405234801561001057600080fd5b506004361061007d5760003560e01c8063893d242d1161005b578063893d242d146100c85780639e02076e146100db578063b5be520d146100ee578063f2a6b510146101015761007d565b80630af96800146100825780632f86e2dd146100a057806357f4ac51146100b5575b600080fd5b61008a610114565b6040516100979190610992565b60405180910390f35b6100b36100ae3660046106f4565b610123565b005b6100b36100c33660046107bc565b61018f565b6100b36100d6366004610803565b610214565b6100b36100e9366004610871565b610285565b6100b36100fc366004610761565b61033c565b6100b361010f366004610717565b61046e565b6000546001600160a01b031681565b6000546001600160a01b031663a8c1b0bc8261013d61053b565b6040518363ffffffff1660e01b815260040161015a929190610a55565b600060405180830381600087803b15801561017457600080fd5b505af1158015610188573d6000803e3d6000fd5b5050505050565b6000546040516329c44f1360e01b81526001600160a01b03909116906329c44f13906101c3908690869086906004016109c0565b6040805180830381600087803b1580156101dc57600080fd5b505af11580156101f0573d6000803e3d6000fd5b505050506040513d601f19601f820116820180604052508101906101889190610947565b60005460405163893d242d60e01b81526001600160a01b039091169063893d242d9061024c90889088908890889088906004016109e3565b600060405180830381600087803b15801561026657600080fd5b505af115801561027a573d6000803e3d6000fd5b505050505050505050565b6102be89878761029a3689900389018961092c565b6102a93689900389018961092c565b6102b83689900389018961092c565b87610556565b8715610327576000546040516310b6e44b60e01b81526001600160a01b03909116906310b6e44b906102f4908990600401610992565b600060405180830381600087803b15801561030e57600080fd5b505af1158015610322573d6000803e3d6000fd5b505050505b61027a87878761029a3689900389018961092c565b6000546040516386b9d81f60e01b81526001600160a01b03909116906386b9d81f9061036e90879087906004016109a6565b600060405180830381600087803b15801561038857600080fd5b505af115801561039c573d6000803e3d6000fd5b50506000546040516386b9d81f60e01b81526001600160a01b0390911692506386b9d81f91506103d290879086906004016109a6565b600060405180830381600087803b1580156103ec57600080fd5b505af1158015610400573d6000803e3d6000fd5b50506000546040516386b9d81f60e01b81526001600160a01b0390911692506386b9d81f915061043690879085906004016109a6565b600060405180830381600087803b15801561045057600080fd5b505af1158015610464573d6000803e3d6000fd5b5050505050505050565b6000546040516386b9d81f60e01b81526001600160a01b03909116906386b9d81f906104a090869086906004016109a6565b600060405180830381600087803b1580156104ba57600080fd5b505af11580156104ce573d6000803e3d6000fd5b50506000546040516386b9d81f60e01b81526001600160a01b0390911692506386b9d81f915061050490869085906004016109a6565b600060405180830381600087803b15801561051e57600080fd5b505af1158015610532573d6000803e3d6000fd5b50505050505050565b6105436106a5565b5060408051602081019091526000815290565b600087600281111561056457fe5b14156105d95760005460405163893d242d60e01b81526001600160a01b039091169063893d242d906105a29089908990899089908990600401610a1c565b600060405180830381600087803b1580156105bc57600080fd5b505af11580156105d0573d6000803e3d6000fd5b50505050610532565b60018760028111156105e757fe5b1415610624576000546001600160a01b031663a8c1b0bc8761060761053b565b6040518363ffffffff1660e01b81526004016105a2929190610a55565b600287600281111561063257fe5b1415610532576000546040516386b9d81f60e01b81526001600160a01b03909116906386b9d81f9061066a90899085906004016109a6565b600060405180830381600087803b15801561068457600080fd5b505af1158015610698573d6000803e3d6000fd5b5050505050505050505050565b6040518060200160405280600081525090565b6000602082840312156106c9578081fd5b50919050565b6000602082840312156106e0578081fd5b6106ea6020610a6f565b9135825250919050565b600060208284031215610705578081fd5b813561071081610aa6565b9392505050565b60008060006060848603121561072b578182fd5b833561073681610aa6565b9250602084013561074681610aa6565b9150604084013561075681610aa6565b809150509250925092565b60008060008060808587031215610776578081fd5b843561078181610aa6565b9350602085013561079181610aa6565b925060408501356107a181610aa6565b915060608501356107b181610aa6565b939692955090935050565b6000806000606084860312156107d0578283fd5b83356107db81610aa6565b925060208401356107eb81610aa6565b91506107fa85604086016106cf565b90509250925092565b600080600080600060a0868803121561081a578081fd5b853561082581610aa6565b9450602086013560028110610838578182fd5b935061084787604088016106b8565b925061085687606088016106b8565b915061086587608088016106b8565b90509295509295909350565b60008060008060008060008060006101208a8c03121561088f578384fd5b893561089a81610acc565b985060208a01356108aa81610abe565b975060408a01356108ba81610acc565b965060608a01356108ca81610aa6565b955060808a0135600281106108dd578485fd5b94506108ec8b60a08c016106b8565b93506108fb8b60c08c016106b8565b925061090a8b60e08c016106b8565b91506101008a013561091b81610aa6565b809150509295985092959850929598565b60006020828403121561093d578081fd5b61071083836106cf565b600080828403604081121561095a578283fd5b6020811215610967578283fd5b506109726020610a6f565b83518152602084015190925061098781610abe565b809150509250929050565b6001600160a01b0391909116815260200190565b6001600160a01b0392831681529116602082015260400190565b6001600160a01b0393841681529190921660208201529051604082015260600190565b6001600160a01b038616815260a081016109fc86610a96565b602083015293356040820152913560608301523560809091015292915050565b6001600160a01b038616815260a08101610a3586610a96565b602083015293516040820152915160608301525160809091015292915050565b6001600160a01b0392909216825251602082015260400190565b60405181810167ffffffffffffffff81118282101715610a8e57600080fd5b604052919050565b8060028110610aa157fe5b919050565b6001600160a01b0381168114610abb57600080fd5b50565b8015158114610abb57600080fd5b60038110610abb57600080fdfea2646970667358221220db24cc88734cc64c30fe5ede8587606c36cc5eac6f48341711178c9ae4d5ef1764736f6c63430006090033",
  "linkReferences": {},
  "deployedLinkReferences": {}
}