{
  "_format": "hh-sol-artifact-1",
  "contractName": "InsuranceFund",
  "sourceName": "contracts/InsuranceFund.sol",
  "abi": [
    {
      "anonymous": false,
      "inputs": [
        {
          "indexed": false,
          "internalType": "address",
          "name": "amm",
          "type": "address"
        }
      ],
      "name": "AmmAdded",
      "type": "event"
    },
    {
      "anonymous": false,
      "inputs": [
        {
          "indexed": false,
          "internalType": "address",
          "name": "amm",
          "type": "address"
        }
      ],
      "name": "AmmRemoved",
      "type": "event"
    },
    {
      "anonymous": false,
      "inputs": [
        {
          "indexed": true,
          "internalType": "address",
          "name": "previousOwner",
          "type": "address"
        },
        {
          "indexed": true,
          "internalType": "address",
          "name": "newOwner",
          "type": "address"
        }
      ],
      "name": "OwnershipTransferred",
      "type": "event"
    },
    {
      "anonymous": false,
      "inputs": [
        {
          "indexed": false,
          "internalType": "uint256",
          "name": "blockNumber",
          "type": "uint256"
        }
      ],
      "name": "ShutdownAllAmms",
      "type": "event"
    },
    {
      "anonymous": false,
      "inputs": [
        {
          "indexed": false,
          "internalType": "address",
          "name": "tokenAddress",
          "type": "address"
        }
      ],
      "name": "TokenAdded",
      "type": "event"
    },
    {
      "anonymous": false,
      "inputs": [
        {
          "indexed": false,
          "internalType": "address",
          "name": "tokenAddress",
          "type": "address"
        }
      ],
      "name": "TokenRemoved",
      "type": "event"
    },
    {
      "anonymous": false,
      "inputs": [
        {
          "indexed": false,
          "internalType": "address",
          "name": "withdrawer",
          "type": "address"
        },
        {
          "indexed": false,
          "internalType": "uint256",
          "name": "amount",
          "type": "uint256"
        }
      ],
      "name": "Withdrawn",
      "type": "event"
    },
    {
      "inputs": [
        {
          "internalType": "contract IAmm",
          "name": "_amm",
          "type": "address"
        }
      ],
      "name": "addAmm",
      "outputs": [],
      "stateMutability": "nonpayable",
      "type": "function"
    },
    {
      "inputs": [],
      "name": "candidate",
      "outputs": [
        {
          "internalType": "address",
          "name": "",
          "type": "address"
        }
      ],
      "stateMutability": "view",
      "type": "function"
    },
    {
      "inputs": [],
      "name": "exchange",
      "outputs": [
        {
          "internalType": "contract IExchangeWrapper",
          "name": "",
          "type": "address"
        }
      ],
      "stateMutability": "view",
      "type": "function"
    },
    {
      "inputs": [],
      "name": "getAllAmms",
      "outputs": [
        {
          "internalType": "contract IAmm[]",
          "name": "",
          "type": "address[]"
        }
      ],
      "stateMutability": "view",
      "type": "function"
    },
    {
      "inputs": [],
      "name": "getQuoteTokenLength",
      "outputs": [
        {
          "internalType": "uint256",
          "name": "",
          "type": "uint256"
        }
      ],
      "stateMutability": "view",
      "type": "function"
    },
    {
      "inputs": [],
      "name": "inflationMonitor",
      "outputs": [
        {
          "internalType": "contract IInflationMonitor",
          "name": "",
          "type": "address"
        }
      ],
      "stateMutability": "view",
      "type": "function"
    },
    {
      "inputs": [],
      "name": "initialize",
      "outputs": [],
      "stateMutability": "nonpayable",
      "type": "function"
    },
    {
      "inputs": [
        {
          "internalType": "contract IAmm",
          "name": "_amm",
          "type": "address"
        }
      ],
      "name": "isExistedAmm",
      "outputs": [
        {
          "internalType": "bool",
          "name": "",
          "type": "bool"
        }
      ],
      "stateMutability": "view",
      "type": "function"
    },
    {
      "inputs": [],
      "name": "minter",
      "outputs": [
        {
          "internalType": "contract IMinter",
          "name": "",
          "type": "address"
        }
      ],
      "stateMutability": "view",
      "type": "function"
    },
    {
      "inputs": [],
      "name": "owner",
      "outputs": [
        {
          "internalType": "address",
          "name": "",
          "type": "address"
        }
      ],
      "stateMutability": "view",
      "type": "function"
    },
    {
      "inputs": [],
      "name": "perpToken",
      "outputs": [
        {
          "internalType": "contract IERC20",
          "name": "",
          "type": "address"
        }
      ],
      "stateMutability": "view",
      "type": "function"
    },
    {
      "inputs": [
        {
          "internalType": "uint256",
          "name": "",
          "type": "uint256"
        }
      ],
      "name": "quoteTokens",
      "outputs": [
        {
          "internalType": "contract IERC20",
          "name": "",
          "type": "address"
        }
      ],
      "stateMutability": "view",
      "type": "function"
    },
    {
      "inputs": [
        {
          "internalType": "contract IAmm",
          "name": "_amm",
          "type": "address"
        }
      ],
      "name": "removeAmm",
      "outputs": [],
      "stateMutability": "nonpayable",
      "type": "function"
    },
    {
      "inputs": [
        {
          "internalType": "contract IERC20",
          "name": "_token",
          "type": "address"
        }
      ],
      "name": "removeToken",
      "outputs": [],
      "stateMutability": "nonpayable",
      "type": "function"
    },
    {
      "inputs": [],
      "name": "renounceOwnership",
      "outputs": [],
      "stateMutability": "nonpayable",
      "type": "function"
    },
    {
      "inputs": [
        {
          "internalType": "address",
          "name": "_beneficiary",
          "type": "address"
        }
      ],
      "name": "setBeneficiary",
      "outputs": [],
      "stateMutability": "nonpayable",
      "type": "function"
    },
    {
      "inputs": [
        {
          "internalType": "contract IExchangeWrapper",
          "name": "_exchange",
          "type": "address"
        }
      ],
      "name": "setExchange",
      "outputs": [],
      "stateMutability": "nonpayable",
      "type": "function"
    },
    {
      "inputs": [
        {
          "internalType": "contract IInflationMonitor",
          "name": "_inflationMonitor",
          "type": "address"
        }
      ],
      "name": "setInflationMonitor",
      "outputs": [],
      "stateMutability": "nonpayable",
      "type": "function"
    },
    {
      "inputs": [
        {
          "internalType": "contract IMinter",
          "name": "_minter",
          "type": "address"
        }
      ],
      "name": "setMinter",
      "outputs": [],
      "stateMutability": "nonpayable",
      "type": "function"
    },
    {
      "inputs": [
        {
          "internalType": "address",
          "name": "newOwner",
          "type": "address"
        }
      ],
      "name": "setOwner",
      "outputs": [],
      "stateMutability": "nonpayable",
      "type": "function"
    },
    {
      "inputs": [],
      "name": "shutdownAllAmm",
      "outputs": [],
      "stateMutability": "nonpayable",
      "type": "function"
    },
    {
      "inputs": [],
      "name": "updateOwner",
      "outputs": [],
      "stateMutability": "nonpayable",
      "type": "function"
    },
    {
      "inputs": [
        {
          "internalType": "contract IERC20",
          "name": "_quoteToken",
          "type": "address"
        },
        {
          "components": [
            {
              "internalType": "uint256",
              "name": "d",
              "type": "uint256"
            }
          ],
          "internalType": "struct Decimal.decimal",
          "name": "_amount",
          "type": "tuple"
        }
      ],
      "name": "withdraw",
      "outputs": [],
      "stateMutability": "nonpayable",
      "type": "function"
    }
  ],
  "bytecode": "0x608060405234801561001057600080fd5b50612c92806100206000396000f3fe608060405234801561001057600080fd5b506004361061017d5760003560e01c80638da5cb5b116100e3578063c68ade371161008c578063d2f7265a11610066578063d2f7265a146102c4578063d926de1c146102cc578063fca3b5aa146102df5761017d565b8063c68ade3714610296578063ca58b198146102a9578063cf230979146102b15761017d565b8063b7538c62116100bd578063b7538c6214610264578063bc5920ba14610279578063beb0597a146102815761017d565b80638da5cb5b1461024c5780639cadb3a0146102545780639dd96eb21461025c5761017d565b80632c9115c7116101455780636c8381f81161011f5780636c8381f814610234578063715018a61461023c5780638129fc1c146102445761017d565b80632c9115c7146101fb5780635fa7b5841461020e57806367b1f5df146102215761017d565b806307546172146101825780630774a784146101a057806313af4035146101c05780631c31f710146101d5578063252978b8146101e8575b600080fd5b61018a6102f2565b60405161019791906125cf565b60405180910390f35b6101b36101ae3660046124a2565b610302565b6040516101979190612649565b6101d36101ce3660046124a2565b610321565b005b6101d36101e33660046124a2565b610403565b6101d36101f63660046124fa565b61045b565b61018a610209366004612583565b6105de565b6101d361021c3660046124a2565b610606565b6101d361022f3660046124a2565b61080d565b61018a610865565b6101d3610875565b6101d36108f4565b61018a610987565b61018a610996565b6101d36109a6565b61026c610b2e565b60405161019791906125fc565b6101d3610b91565b610289610c54565b6040516101979190612beb565b6101d36102a43660046124a2565b610c5b565b61018a610cb3565b6101d36102bf3660046124a2565b610cc3565b61018a610e5d565b6101d36102da3660046124a2565b610e6d565b6101d36102ed3660046124a2565b611085565b610136546001600160a01b031681565b6001600160a01b03166000908152610130602052604090205460ff1690565b610329611173565b6065546001600160a01b0390811691161461035f5760405162461bcd60e51b815260040161035690612b4e565b60405180910390fd5b6001600160a01b0381166103855760405162461bcd60e51b81526004016103569061296b565b6065546001600160a01b03828116911614156103b35760405162461bcd60e51b815260040161035690612b9b565b6066546001600160a01b03828116911614156103e15760405162461bcd60e51b8152600401610356906127b6565b606680546001600160a01b0319166001600160a01b0392909216919091179055565b61040b611173565b6065546001600160a01b039081169116146104385760405162461bcd60e51b815260040161035690612b4e565b61013880546001600160a01b0319166001600160a01b0392909216919091179055565b610463611173565b610138546001600160a01b039081169116146104915760405162461bcd60e51b815260040161035690612748565b61049a82611177565b6104b65760405162461bcd60e51b8152600401610356906128f3565b6104be61248f565b6104c783611196565b90506104d2816111ae565b6104e96104e436859003850185612539565b6111ae565b111561052f576104f761248f565b6105168261050a36869003860186612539565b9063ffffffff6111b216565b905061052284826111de565b61052b84611196565b9150505b6105416104e436849003840184612539565b61054a826111ae565b10156105685760405162461bcd60e51b815260040161035690612b17565b61058883610574611173565b61058336869003860186612539565b61146e565b7f7084f5476618d8e60b11ef0d7d3f06914655adb8793e28ff7f018d4c76d505d56105b1611173565b6105c36104e436869003860186612539565b6040516105d19291906125e3565b60405180910390a1505050565b61013381815481106105ec57fe5b6000918252602090912001546001600160a01b0316905081565b61060e611173565b6065546001600160a01b0390811691161461063b5760405162461bcd60e51b815260040161035690612b4e565b61064481611177565b6106605760405162461bcd60e51b8152600401610356906126da565b6001600160a01b038116600090815261013160205260408120805460ff19169055610689610c54565b905060005b8181101561077657826001600160a01b031661013382815481106106ae57fe5b6000918252602090912001546001600160a01b0316141561076e576001820381101561073b5761013360018303815481106106e557fe5b60009182526020909120015461013380546001600160a01b03909216918390811061070c57fe5b9060005260206000200160006101000a8154816001600160a01b0302191690836001600160a01b031602179055505b61013380548061074757fe5b600082815260209020810160001990810180546001600160a01b0319169055019055610776565b60010161068e565b5060006107856104e484611196565b11156107d257600061079561159d565b90506001600160a01b0381166107b45750610135546001600160a01b03165b6107cf83826107c286611196565b6107ca611722565b61173d565b50505b7f4c910b69fe65a61f7531b9c5042b2329ca7179c77290aa7e2eb3afa3c8511fd38260405161080191906125cf565b60405180910390a15050565b610815611173565b6065546001600160a01b039081169116146108425760405162461bcd60e51b815260040161035690612b4e565b61013480546001600160a01b0319166001600160a01b0392909216919091179055565b6066546001600160a01b03165b90565b61087d611173565b6065546001600160a01b039081169116146108aa5760405162461bcd60e51b815260040161035690612b4e565b6065546040516000916001600160a01b0316907f8be0079c531659141344cd1fd0a4f28419497f9722a3daafe3b4186f6b6457e0908390a3606580546001600160a01b0319169055565b600054610100900460ff168061090d575061090d61183c565b8061091b575060005460ff16155b6109375760405162461bcd60e51b8152600401610356906129ad565b600054610100900460ff16158015610962576000805460ff1961ff0019909116610100171660011790555b61096a611842565b6109726118c0565b8015610984576000805461ff00191690555b50565b6065546001600160a01b031690565b610135546001600160a01b031681565b6109ae611173565b6065546001600160a01b039081169116146109db5760405162461bcd60e51b815260040161035690612b4e565b61013760009054906101000a90046001600160a01b03166001600160a01b0316633fe204d96040518163ffffffff1660e01b815260040160206040518083038186803b158015610a2a57600080fd5b505afa158015610a3e573d6000803e3d6000fd5b505050506040513d601f19601f82011682018060405250810190610a6291906124be565b610a6b57610b2c565b60005b61013254811015610af3576101328181548110610a8757fe5b60009182526020822001546040805163fc0e74d160e01b815290516001600160a01b039092169263fc0e74d19260048084019382900301818387803b158015610acf57600080fd5b505af1158015610ae3573d6000803e3d6000fd5b505060019092019150610a6e9050565b507ffc9f9c6cbb93f675af09b9bb43859333114dfa5e4c5abd35297e153f2434810143604051610b239190612beb565b60405180910390a15b565b6060610132805480602002602001604051908101604052809291908181526020018280548015610b8757602002820191906000526020600020905b81546001600160a01b03168152600190910190602001808311610b69575b5050505050905090565b6066546001600160a01b0316610bb95760405162461bcd60e51b815260040161035690612aba565b610bc1611173565b6066546001600160a01b03908116911614610bee5760405162461bcd60e51b8152600401610356906127fd565b6066546065546040516001600160a01b0392831692909116907f8be0079c531659141344cd1fd0a4f28419497f9722a3daafe3b4186f6b6457e090600090a360668054606580546001600160a01b03199081166001600160a01b03841617909155169055565b6101335490565b610c63611173565b6065546001600160a01b03908116911614610c905760405162461bcd60e51b815260040161035690612b4e565b61013780546001600160a01b0319166001600160a01b0392909216919091179055565b610137546001600160a01b031681565b610ccb611173565b6065546001600160a01b03908116911614610cf85760405162461bcd60e51b815260040161035690612b4e565b610d0181610302565b610d1d5760405162461bcd60e51b815260040161035690612885565b6001600160a01b038116600090815261013060205260408120805460ff1916905561013254905b81811015610e5857826001600160a01b03166101328281548110610d6457fe5b6000918252602090912001546001600160a01b03161415610e50576101326001830381548110610d9057fe5b60009182526020909120015461013280546001600160a01b039092169183908110610db757fe5b9060005260206000200160006101000a8154816001600160a01b0302191690836001600160a01b03160217905550610132805480610df157fe5b600082815260209020810160001990810180546001600160a01b03191690550190556040517fdaad2af263ebb3abf337a324f20752addc3bf170971ce7b80cc3bfea1fcf30ee90610e439085906125cf565b60405180910390a1610e58565b600101610d44565b505050565b610134546001600160a01b031681565b610e75611173565b6065546001600160a01b03908116911614610ea25760405162461bcd60e51b815260040161035690612b4e565b610eab81610302565b15610ec85760405162461bcd60e51b815260040161035690612a0a565b6001600160a01b03811660008181526101306020526040808220805460ff19166001908117909155610132805491820181559092527fc53bdfd4aa1ab65dfdaf681ca6bda958ae4a123d4ed68c4277796592280e783590910180546001600160a01b031916909217909155517f10cdbb821aa416c854add806e1d7e8138afe2a538921cebe99b1351362ae38b290610f619083906125cf565b60405180910390a16000816001600160a01b031663fdf262b76040518163ffffffff1660e01b815260040160206040518083038186803b158015610fa457600080fd5b505afa158015610fb8573d6000803e3d6000fd5b505050506040513d601f19601f82011682018060405250810190610fdc91906124de565b9050610fe781611177565b61108157610133805460018082019092557f92e985329fb94cc1b424ebb0f7f2929b6d27383ca94c0ec71c44fb48bdf96d2c0180546001600160a01b0319166001600160a01b0384169081179091556000908152610131602052604090819020805460ff1916909217909155517f784c8f4dbf0ffedd6e72c76501c545a70f8b203b30a26ce542bf92ba87c248a4906108019083906125cf565b5050565b61108d611173565b6065546001600160a01b039081169116146110ba5760405162461bcd60e51b815260040161035690612b4e565b61013680546001600160a01b0319166001600160a01b0383811691909117918290556040805163eb7c8c2560e01b81529051929091169163eb7c8c2591600480820192602092909190829003018186803b15801561111757600080fd5b505afa15801561112b573d6000803e3d6000fd5b505050506040513d601f19601f8201168201806040525081019061114f91906124de565b61013580546001600160a01b0319166001600160a01b039290921691909117905550565b3390565b6001600160a01b03166000908152610131602052604090205460ff1690565b61119e61248f565b6111a88230611936565b92915050565b5190565b6111ba61248f565b6111c261248f565b825184516111d59163ffffffff6119ca16565b81529392505050565b60606111e983611a0c565b905060005b8151811015611343576111ff61248f565b61120761248f565b6101345484516001600160a01b039091169063c643ea639086908690811061122b57fe5b602002602001015188886040518463ffffffff1660e01b815260040161125393929190612654565b60206040518083038186803b15801561126b57600080fd5b505afa15801561127f573d6000803e3d6000fd5b505050506040513d601f19601f820116820180604052508101906112a3919061255e565b90506112c46104e48585815181106112b757fe5b6020026020010151611196565b6112cd826111ae565b116112fe576112f38484815181106112e157fe5b602002602001015187836107ca611722565b915050505050611081565b61132584848151811061130d57fe5b6020026020010151876107c28787815181106112b757fe5b9150611337858363ffffffff6111b216565b945050506001016111ee565b50600061134f836111ae565b1115610e585761135d61248f565b610134546101355460405163c643ea6360e01b81526001600160a01b039283169263c643ea63926113979291169088908890600401612654565b60206040518083038186803b1580156113af57600080fd5b505afa1580156113c3573d6000803e3d6000fd5b505050506040513d601f19601f820116820180604052508101906113e7919061255e565b6101365460405163b90ffc4160e01b81529192506001600160a01b03169063b90ffc4190611419908490600401612be1565b600060405180830381600087803b15801561143357600080fd5b505af1158015611447573d6000803e3d6000fd5b50506101355461146792506001600160a01b0316905085836107ca611722565b5050505050565b61147783611d97565b61147f61248f565b6114898484611936565b905060006114978584611de1565b905060006060866001600160a01b031663a9059cbb60e01b87856040516024016114c29291906125e3565b60408051601f198184030181529181526020820180516001600160e01b03166001600160e01b031990941693909317909252905161150091906125b3565b6000604051808303816000865af19150503d806000811461153d576040519150601f19603f3d011682016040523d82523d6000602084013e611542565b606091505b509150915081801561156c57508051158061156c57508080602001905181019061156c91906124be565b6115885760405162461bcd60e51b815260040161035690612711565b61159487878587611e57565b50505050505050565b61013354600090806115b3576000915050610872565b80600114156115e9576101336000815481106115cb57fe5b6000918252602090912001546001600160a01b031691506108729050565b60006101336000815481106115fa57fe5b6000918252602090912001546001600160a01b031690508061161a61248f565b61162383611196565b905060015b84811015611718576000610133828154811061164057fe5b6000918252602090912001546001600160a01b0316905061165f61248f565b610134546001600160a01b031663c1094e5b838861167c82611196565b6040518463ffffffff1660e01b815260040161169a93929190612654565b60206040518083038186803b1580156116b257600080fd5b505afa1580156116c6573d6000803e3d6000fd5b505050506040513d601f19601f820116820180604052508101906116ea919061255e565b905060006116fe828663ffffffff611eb016565b60000b131561170e578194508093505b5050600101611628565b5090935050505090565b61172a61248f565b5060408051602081019091526000815290565b61174561248f565b61174e836111ae565b6117615761175a611722565b9050611834565b6101345461177a9086906001600160a01b031685611ee1565b610134546001600160a01b031663e5e75d1e86868686611798611722565b6040518663ffffffff1660e01b81526004016117b8959493929190612677565b602060405180830381600087803b1580156117d257600080fd5b505af11580156117e6573d6000803e3d6000fd5b505050506040513d601f19601f8201168201806040525081019061180a919061255e565b90506000611817826111ae565b116118345760405162461bcd60e51b8152600401610356906128bc565b949350505050565b303b1590565b600054610100900460ff168061185b575061185b61183c565b80611869575060005460ff16155b6118855760405162461bcd60e51b8152600401610356906129ad565b600054610100900460ff161580156118b0576000805460ff1961ff0019909116610100171660011790555b6118b8611f07565b610972611f88565b600054610100900460ff16806118d957506118d961183c565b806118e7575060005460ff16155b6119035760405162461bcd60e51b8152600401610356906129ad565b600054610100900460ff1615801561192e576000805460ff1961ff0019909116610100171660011790555b610972612062565b61193e61248f565b6119c383846001600160a01b03166370a08231856040518263ffffffff1660e01b815260040161196e91906125cf565b60206040518083038186803b15801561198657600080fd5b505afa15801561199a573d6000803e3d6000fd5b505050506040513d601f19601f820116820180604052508101906119be919061259b565b6120f1565b9392505050565b60006119c383836040518060400160405280601e81526020017f536166654d6174683a207375627472616374696f6e206f766572666c6f770000815250612183565b606080610133805480602002602001604051908101604052809291908181526020018280548015611a6657602002820191906000526020600020905b81546001600160a01b03168152600190910190602001808311611a48575b50939450600093505050505b611a7a610c54565b811015611cc05760006101338281548110611a9157fe5b6000918252602090912001546001600160a01b03169050611ab061248f565b61013454610135546001600160a01b039182169163c1094e5b91859116611ad682611196565b6040518463ffffffff1660e01b8152600401611af493929190612654565b60206040518083038186803b158015611b0c57600080fd5b505afa158015611b20573d6000803e3d6000fd5b505050506040513d601f19601f82011682018060405250810190611b44919061255e565b9050825b8015611cb557611b5661248f565b6101345486516001600160a01b039091169063c1094e5b9088906000198601908110611b7e57fe5b602002602001015161013560009054906101000a90046001600160a01b0316611baf8a60018803815181106112b757fe5b6040518463ffffffff1660e01b8152600401611bcd93929190612654565b60206040518083038186803b158015611be557600080fd5b505afa158015611bf9573d6000803e3d6000fd5b505050506040513d601f19601f82011682018060405250810190611c1d919061255e565b9050611c28816111ae565b611c31846111ae565b1115611cab57856001830381518110611c4657fe5b6020026020010151868381518110611c5a57fe5b60200260200101906001600160a01b031690816001600160a01b03168152505083866001840381518110611c8a57fe5b60200260200101906001600160a01b031690816001600160a01b0316815250505b5060001901611b48565b505050600101611a72565b50600181510367ffffffffffffffff81118015611cdc57600080fd5b50604051908082528060200260200182016040528015611d06578160200160208202803683370190505b5091506000805b8251811015611d8f57846001600160a01b0316838281518110611d2c57fe5b60200260200101516001600160a01b03161415611d4857611d87565b828181518110611d5457fe5b6020026020010151848381518110611d6857fe5b6001600160a01b03909216602092830291909101909101526001909101905b600101611d0d565b505050919050565b6000611da2826121af565b6001600160a01b038316600090815260fd60205260409020549091508114611081576001600160a01b0391909116600090815260fd6020526040902055565b600080611ded846121af565b905060128110611e2b57611e23611e0b82601263ffffffff6119ca16565b600a0a611e17856111ae565b9063ffffffff61229c16565b9150506111a8565b611834611e3f60128363ffffffff6119ca16565b600a0a611e4b856111ae565b9063ffffffff6122d616565b611e8a611e74611e6786856120f1565b839063ffffffff61231816565b611e7e8686611936565b9063ffffffff611eb016565b60000b15611eaa5760405162461bcd60e51b815260040161035690612a78565b50505050565b805182516000911015611ec5575060016111a8565b815183511015611ed857506000196111a8565b50600092915050565b611eea83611d97565b611efc8383611ef7611722565b61233b565b610e5883838361233b565b600054610100900460ff1680611f205750611f2061183c565b80611f2e575060005460ff16155b611f4a5760405162461bcd60e51b8152600401610356906129ad565b600054610100900460ff16158015610972576000805460ff1961ff0019909116610100171660011790558015610984576000805461ff001916905550565b600054610100900460ff1680611fa15750611fa161183c565b80611faf575060005460ff16155b611fcb5760405162461bcd60e51b8152600401610356906129ad565b600054610100900460ff16158015611ff6576000805460ff1961ff0019909116610100171660011790555b6000612000611173565b606580546001600160a01b0319166001600160a01b038316908117909155604051919250906000907f8be0079c531659141344cd1fd0a4f28419497f9722a3daafe3b4186f6b6457e0908290a3508015610984576000805461ff001916905550565b600054610100900460ff168061207b575061207b61183c565b80612089575060005460ff16155b6120a55760405162461bcd60e51b8152600401610356906129ad565b600054610100900460ff161580156120d0576000805460ff1961ff0019909116610100171660011790555b60cb805460ff191660011790558015610984576000805461ff001916905550565b6120f961248f565b6000612104846121af565b9050601281106121495760408051602081019091528061213e61212e84601263ffffffff6119ca16565b8690600a0a63ffffffff6122d616565b8152509150506111a8565b60408051602081019091528061217961216960128563ffffffff6119ca16565b8690600a0a63ffffffff61229c16565b9052949350505050565b600081848411156121a75760405162461bcd60e51b815260040161035691906126a7565b505050900390565b6001600160a01b038116600090815260fd6020526040812054806111a85760408051600481526024810182526020810180516001600160e01b031663313ce56760e01b17905290516000916060916001600160a01b03871691612211916125b3565b600060405180830381855afa9150503d806000811461224c576040519150601f19603f3d011682016040523d82523d6000602084013e612251565b606091505b50915091508180156122635750805115155b61227f5760405162461bcd60e51b815260040161035690612844565b80806020019051810190612293919061259b565b95945050505050565b6000826122ab575060006111a8565b828202828482816122b857fe5b04146119c35760405162461bcd60e51b81526004016103569061292a565b60006119c383836040518060400160405280601a81526020017f536166654d6174683a206469766973696f6e206279207a65726f000000000000815250612433565b61232061248f565b61232861248f565b825184516111d59163ffffffff61246a16565b600060606001600160a01b03851663095ea7b360e01b8561235c8887611de1565b60405160240161236d9291906125e3565b60408051601f198184030181529181526020820180516001600160e01b03166001600160e01b03199094169390931790925290516123ab91906125b3565b6000604051808303816000865af19150503d80600081146123e8576040519150601f19603f3d011682016040523d82523d6000602084013e6123ed565b606091505b509150915081801561241757508051158061241757508080602001905181019061241791906124be565b6114675760405162461bcd60e51b815260040161035690612a41565b600081836124545760405162461bcd60e51b815260040161035691906126a7565b50600083858161246057fe5b0495945050505050565b6000828201838110156119c35760405162461bcd60e51b81526004016103569061277f565b6040518060200160405280600081525090565b6000602082840312156124b3578081fd5b81356119c381612c47565b6000602082840312156124cf578081fd5b815180151581146119c3578182fd5b6000602082840312156124ef578081fd5b81516119c381612c47565b600080828403604081121561250d578182fd5b833561251881612c47565b92506020601f198201121561252b578182fd5b506020830190509250929050565b60006020828403121561254a578081fd5b6125546020612bf4565b9135825250919050565b60006020828403121561256f578081fd5b6125796020612bf4565b9151825250919050565b600060208284031215612594578081fd5b5035919050565b6000602082840312156125ac578081fd5b5051919050565b600082516125c5818460208701612c1b565b9190910192915050565b6001600160a01b0391909116815260200190565b6001600160a01b03929092168252602082015260400190565b6020808252825182820181905260009190848201906040850190845b8181101561263d5783516001600160a01b031683529284019291840191600101612618565b50909695505050505050565b901515815260200190565b6001600160a01b0393841681529190921660208201529051604082015260600190565b6001600160a01b039586168152939094166020840152905160408301525160608201529051608082015260a00190565b60006020825282518060208401526126c6816040850160208701612c1b565b601f01601f19169190910160400192915050565b60208082526011908201527f746f6b656e206e6f742065786973746564000000000000000000000000000000604082015260600190565b6020808252601d908201527f446563696d616c45524332303a207472616e73666572206661696c6564000000604082015260600190565b60208082526019908201527f63616c6c6572206973206e6f742062656e656669636961727900000000000000604082015260600190565b6020808252601b908201527f536166654d6174683a206164646974696f6e206f766572666c6f770000000000604082015260600190565b60208082526027908201527f5065727046694f776e61626c65557067726164653a2073616d652061732063616040820152666e64696461746560c81b606082015260800190565b60208082526027908201527f5065727046694f776e61626c65557067726164653a206e6f7420746865206e656040820152663b9037bbb732b960c91b606082015260800190565b60208082526021908201527f446563696d616c45524332303a2067657420646563696d616c73206661696c656040820152601960fa1b606082015260800190565b6020808252600f908201527f616d6d206e6f7420657869737465640000000000000000000000000000000000604082015260600190565b60208082526013908201527f45786368616e67652073776170206572726f7200000000000000000000000000604082015260600190565b60208082526016908201527f4173736574206973206e6f7420737570706f7274656400000000000000000000604082015260600190565b60208082526021908201527f536166654d6174683a206d756c7469706c69636174696f6e206f766572666c6f6040820152607760f81b606082015260800190565b60208082526022908201527f5065727046694f776e61626c65557067726164653a207a65726f206164647265604082015261737360f01b606082015260800190565b6020808252602e908201527f436f6e747261637420696e7374616e63652068617320616c726561647920626560408201527f656e20696e697469616c697a6564000000000000000000000000000000000000606082015260800190565b60208082526011908201527f616d6d20616c7265616479206164646564000000000000000000000000000000604082015260600190565b6020808252601c908201527f446563696d616c45524332303a20617070726f7665206661696c656400000000604082015260600190565b60208082526022908201527f446563696d616c45524332303a2062616c616e636520696e636f6e73697374656040820152611b9d60f21b606082015260800190565b6020808252602f908201527f5065727046694f776e61626c65557067726164653a2063616e6469646174652060408201527f6973207a65726f20616464726573730000000000000000000000000000000000606082015260800190565b6020808252600f908201527f46756e64206e6f7420656e6f7567680000000000000000000000000000000000604082015260600190565b6020808252602d908201527f5065727046694f776e61626c65557067726164653a2063616c6c65722069732060408201526c3737ba103a34329037bbb732b960991b606082015260800190565b60208082526026908201527f5065727046694f776e61626c65557067726164653a2073616d65206173206f726040820152651a59da5b985b60d21b606082015260800190565b9051815260200190565b90815260200190565b60405181810167ffffffffffffffff81118282101715612c1357600080fd5b604052919050565b60005b83811015612c36578181015183820152602001612c1e565b83811115611eaa5750506000910152565b6001600160a01b038116811461098457600080fdfea2646970667358221220e0cc7c43d6c6cfa9da66e5522b933555bf7a363c1bb8ed6e329684543c3bfde264736f6c63430006090033",
  "linkReferences": {},
  "deployedLinkReferences": {}
}